:020000040800F2
:1040000000500020598F00080D8500081585000814
:104010001D850008258500082D850008000000008A
:1040200000000000000000000000000035850008CE
:1040300041850008000000004D85000859850008F2
:10404000A18F0008A18F0008A18F0008A18F000890
:10405000A18F0008A18F0008A18F0008A18F000880
:10406000A18F0008A18F0008A18F0008A18F000870
:10407000A18F0008A18F0008A18F0008A18F000860
:10408000A18F0008A18F0008A18F0008A18F000850
:10409000A18F0008A18F0008A18F0008A18F000840
:1040A000A18F0008A18F0008A18F0008A18F000830
:1040B000FD8B0008A18F0008A18F0008C1850008B2
:1040C000D5850008A18F0008A18F0008A18F0008E6
:1040D000A18F0008A18F0008A18F0008A18F000800
:1040E000A18F0008A18F0008A18F00080000000028
:1040F00000000000000000000000000000000000C0
:0C41000000000000000000005FF808F163
:1041100010B5054C237833B9044B13B10448AFF301
:1041200000800123237010BD000200200000000069
:1041300000E1000808B5034B1BB103490348AFF386
:10414000008008BD000000000402002000E100081B
:10415000034613F8012B002AFBD1181A01387047C7
:1041600081F0004102E000BF83F0004330B54FEA28
:1041700041044FEA430594EA050F08BF90EA020F95
:104180001FBF54EA000C55EA020C7FEA645C7FEA28
:10419000655C00F0E2804FEA5454D4EB5555B8BF4B
:1041A0006D420CDD2C4480EA020281EA030382EABC
:1041B000000083EA010180EA020281EA0303362D4E
:1041C00088BF30BD11F0004F4FEA01314FF4801C21
:1041D0004CEA113102D0404261EB410113F0004F33
:1041E0004FEA03334CEA133302D0524263EB4303EA
:1041F00094EA050F00F0A780A4F10104D5F1200E88
:104200000DDB02FA0EFC22FA05F2801841F10001E2
:1042100003FA0EF2801843FA05F359410EE0A5F1B6
:1042200020050EF1200E012A03FA0EFC28BF4CF0E7
:10423000020C43FA05F3C01851EBE37101F000459D
:1042400007D54FF0000EDCF1000C7EEB00006EEBAA
:104250000101B1F5801F1BD3B1F5001F0CD3490834
:104260005FEA30004FEA3C0C04F101044FEA44528B
:1042700012F5800F80F09A80BCF1004F08BF5FEA12
:10428000500C50F1000041EB045141EA050130BDF2
:104290005FEA4C0C404141EB0101013C28BFB1F504
:1042A000801FE9D291F0000F04BF01460020B1FA4F
:1042B00081F308BF2033A3F10B03B3F120020CDA22
:1042C0000C3208DD02F1140CC2F10C0201FA0CF000
:1042D00021FA02F10CE002F11402D8BFC2F1200C65
:1042E00001FA02F120FA0CFCDCBF41EA0C0190401B
:1042F000E41AA2BF01EB0451294330BD6FEA040464
:104300001F3C1CDA0C340EDC04F11404C4F120024E
:1043100020FA04F001FA02F340EA030021FA04F360
:1043200045EA030130BDC4F10C04C4F1200220FAB7
:1043300002F001FA04F340EA0300294630BD21FAF5
:1043400004F0294630BD94F0000F83F4801306BFBB
:1043500081F480110134013D4EE77FEA645C18BFAF
:104360007FEA655C29D094EA050F08BF90EA020F46
:1043700005D054EA000C04BF1946104630BD91EA3E
:10438000030F1EBF0021002030BD5FEA545C05D141
:104390004000494128BF41F0004130BD14F5800480
:1043A0003CBF01F5801130BD01F0004545F0FE41F4
:1043B00041F470014FF0000030BD7FEA645C1ABF29
:1043C000194610467FEA655C1CBF0B46024650EA60
:1043D000013406BF52EA033591EA030F41F400218C
:1043E00030BD00BF90F0000F04BF0021704730B512
:1043F0004FF4806404F132044FF000054FF00001E7
:1044000050E700BF90F0000F04BF0021704730B5A7
:104410004FF4806404F1320410F0004548BF40427C
:104420004FF000013EE700BF42004FEAE2014FEAD1
:1044300031014FEA02701FBF12F07F4393F07F4FAC
:1044400081F06051704732F07F4208BF704793F0AF
:104450007F4F04BF41F40021704730B54FF46074C2
:1044600001F0004521F000411CE700BF50EA0102C5
:1044700008BF704730B54FF000050AE050EA01026E
:1044800008BF704730B511F0004502D5404261EBDE
:1044900041014FF4806404F132045FEA915C3FF41F
:1044A000D8AE4FF003025FEADC0C18BF03325FEABC
:1044B000DC0C18BF033202EBDC02C2F1200300FA6D
:1044C00003FC20FA02F001FA03FE40EA0E0021FA92
:1044D00002F11444BDE600BF70B54FF0FF0C4CF480
:1044E000E06C1CEA11541DBF1CEA135594EA0C0F32
:1044F00095EA0C0F00F0DEF82C4481EA030621EA6D
:104500004C5123EA4C5350EA013518BF52EA0335A7
:1045100041F4801143F4801338D0A0FB02CE4FF059
:104520000005E1FB02E506F00042E0FB03E54FF089
:104530000006E1FB03569CF0000F18BF4EF0010E81
:10454000A4F1FF04B6F5007F64F5407404D25FEA7D
:104550004E0E6D4146EB060642EAC62141EA555130
:104560004FEAC52040EA5E504FEACE2EB4F1FD0C72
:1045700088BFBCF5E06F1ED8BEF1004F08BF5FEAF0
:10458000500E50F1000041EB045170BD06F00046A2
:1045900046EA010140EA020081EA0301B4EB5C044F
:1045A000C2BFD4EB0C0541EA045170BD41F4801147
:1045B0004FF0000E013C00F3AB8014F1360FDEBF6C
:1045C000002001F0004170BDC4F10004203C35DA48
:1045D0000C341BDC04F11404C4F1200500FA05F3CB
:1045E00020FA04F001FA05F240EA020001F000426C
:1045F00021F0004110EBD37021FA04F642EB0601E2
:104600005EEA430E08BF20EAD37070BDC4F10C040B
:10461000C4F1200500FA04F320FA05F001FA04F2CF
:1046200040EA020001F0004110EBD37041F10001BB
:104630005EEA430E08BF20EAD37070BDC4F12005C6
:1046400000FA05F24EEA020E20FA04F301FA05F22E
:1046500043EA020321FA04F001F0004121FA04F2D6
:1046600020EA020000EBD3705EEA430E08BF20EAA6
:10467000D37070BD94F0000F0FD101F000464000E0
:1046800041EB010111F4801F08BF013CF7D041EA62
:10469000060195F0000F18BF704703F00046520066
:1046A00043EB030313F4801F08BF013DF7D043EA37
:1046B0000603704794EA0C0F0CEA135518BF95EAED
:1046C0000C0F0CD050EA410618BF52EA4306D1D174
:1046D00081EA030101F000414FF0000070BD50EA93
:1046E000410606BF1046194652EA430619D094EA1D
:1046F0000C0F02D150EA013613D195EA0C0F05D107
:1047000052EA03361CBF104619460AD181EA03015A
:1047100001F0004141F0FE4141F470014FF0000012
:1047200070BD41F0FE4141F4780170BD70B54FF0AD
:10473000FF0C4CF4E06C1CEA11541DBF1CEA13552D
:1047400094EA0C0F95EA0C0F00F0A7F8A4EB05040F
:1047500081EA030E52EA03354FEA013100F0888006
:104760004FEA03334FF0805545EA131343EA1263CF
:104770004FEA022245EA111545EA10654FEA002684
:104780000EF000419D4208BF964244F1FD0404F53D
:10479000407402D25B084FEA3202B61A65EB030599
:1047A0005B084FEA32024FF480104FF4002CB6EB56
:1047B000020E75EB030E22BFB61A754640EA0C00D6
:1047C0005B084FEA3202B6EB020E75EB030E22BF16
:1047D000B61A754640EA5C005B084FEA3202B6EB57
:1047E000020E75EB030E22BFB61A754640EA9C0016
:1047F0005B084FEA3202B6EB020E75EB030E22BFE6
:10480000B61A754640EADC0055EA060E18D04FEAA3
:10481000051545EA16754FEA06164FEAC30343EA43
:1048200052734FEAC2025FEA1C1CC0D111F4801F10
:104830000BD141EA00014FF000004FF0004CB6E709
:1048400011F4801F04BF01430020B4F1FD0C88BFA8
:10485000BCF5E06F3FF6AFAEB5EB030C04BFB6EBB3
:10486000020C5FEA500C50F1000041EB045170BDA6
:104870000EF0004E4EEA113114EB5C04C2BFD4EBD3
:104880000C0541EA045170BD41F480114FF0000E57
:10489000013C90E645EA060E8DE60CEA135594EAD3
:1048A0000C0F08BF95EA0C0F3FF43BAF94EA0C0FD6
:1048B0000AD150EA01347FF434AF95EA0C0F7FF44B
:1048C00025AF104619462CE795EA0C0F06D152EA9F
:1048D00003353FF4FDAE1046194622E750EA410683
:1048E00018BF52EA43067FF4C5AE50EA41047FF494
:1048F0000DAF52EA43057FF4EBAE12E74FF0FF3CF9
:1049000006E000BF4FF0010C02E000BF4FF0010CC9
:104910004DF804CD4FEA410C7FEA6C5C4FEA430C42
:1049200018BF7FEA6C5C1BD001B050EA410C0CBF91
:1049300052EA430C91EA030F02BF90EA020F0020F3
:10494000704710F1000F91EA030F58BF994208BF5A
:1049500090422CBFD8176FEAE37040F00100704717
:104960004FEA410C7FEA6C5C02D150EA013C07D16E
:104970004FEA430C7FEA6C5CD6D152EA033CD3D0B9
:104980005DF8040B704700BF8446104662468C46B3
:104990001946634600E000BF01B5FFF7B7FF0028E6
:1049A00048BF10F1000F01BD4DF808EDFFF7F4FF0F
:1049B0000CBF012000205DF808FB00BF4DF808ED9A
:1049C000FFF7EAFF34BF012000205DF808FB00BFBD
:1049D0004DF808EDFFF7E0FF94BF012000205DF8DF
:1049E00008FB00BF4DF808EDFFF7CEFF94BF012094
:1049F00000205DF808FB00BF4DF808EDFFF7C4FF8D
:104A000034BF012000205DF808FB00BF4FEA410CD5
:104A10007FEA6C5C02D150EA013C0AD14FEA430CB8
:104A20007FEA6C5C02D152EA033C02D14FF00000F5
:104A300070474FF0010070474FEA410212F5001233
:104A400015D211D56FF47873B3EB625212D94FEAD5
:104A5000C12343F0004343EA505311F0004F23FABF
:104A600002F018BF404270474FF00000704750EA14
:104A7000013005D111F0004008BF6FF000407047D1
:104A80004FF00000704700BF80F0004002E000BF20
:104A900081F0004142001FBF5FEA410392EA030F29
:104AA0007FEA226C7FEA236C6AD04FEA1262D2EB73
:104AB0001363C1BFD218414048404140B8BF5B4278
:104AC000192B88BF704710F0004F40F4000020F011
:104AD0007F4018BF404211F0004F41F4000121F027
:104AE0007F4118BF494292EA030F3FD0A2F1010271
:104AF00041FA03FC10EB0C00C3F1200301FA03F1AF
:104B000000F0004302D5494260EB4000B0F5000FD1
:104B100013D3B0F1807F06D340084FEA310102F190
:104B20000102FE2A51D2B1F1004F40EBC25008BF42
:104B300020F0010040EA03007047490040EB00000C
:104B4000013A28BFB0F5000FEDD2B0FA80FCACF10D
:104B5000080CB2EB0C0200FA0CF0AABF00EBC2503A
:104B600052421843BCBFD0401843704792F0000F28
:104B700081F4000106BF80F400000132013BB5E77B
:104B80004FEA41037FEA226C18BF7FEA236C21D0F1
:104B900092EA030F04D092F0000F08BF0846704756
:104BA00090EA010F1CBF0020704712F07F4F04D124
:104BB000400028BF40F00040704712F100723CBF37
:104BC00000F50000704700F0004343F0FE4040F461
:104BD000000070477FEA226216BF08467FEA23631F
:104BE0000146420206BF5FEA412390EA010F40F40A
:104BF000800070474FF0000304E000BF10F0004356
:104C000048BF40425FEA000C08BF704743F096433C
:104C100001464FF000001CE050EA010208BF704757
:104C20004FF000030AE000BF50EA010208BF7047DE
:104C300011F0004302D5404261EB41015FEA010CF3
:104C400002BF84460146002043F0B64308BFA3F1EB
:104C50008053A3F50003BCFA8CF2083AA3EBC253CD
:104C600010DB01FA02FC634400FA02FCC2F12002EC
:104C7000BCF1004F20FA02F243EB020008BF20F023
:104C80000100704702F1200201FA02FCC2F1200289
:104C900050EA4C0021FA02F243EB020008BF20EA7E
:104CA000DC7070474FF0FF0C1CEAD0521EBF1CEAAC
:104CB000D15392EA0C0F93EA0C0F6FD01A4480EA9A
:104CC000010C400218BF5FEA41211ED04FF0006383
:104CD00043EA501043EA5111A0FB01310CF00040AF
:104CE000B1F5000F3EBF490041EAD3715B0040EAD5
:104CF000010062F17F02FD2A1DD8B3F1004F40EBA5
:104D0000C25008BF20F00100704790F0000F0CF077
:104D1000004C08BF49024CEA502040EA51207F3A3B
:104D2000C2BFD2F1FF0340EAC250704740F4000016
:104D30004FF00003013A5DDC12F1190FDCBF00F007
:104D400000407047C2F10002410021FA02F1C2F1B5
:104D5000200200FA02FC5FEA310040F1000053EA51
:104D60004C0308BF20EADC70704792F0000F00F09F
:104D7000004C02BF400010F4000F013AF9D040EAA5
:104D80000C0093F0000F01F0004C02BF490011F439
:104D9000000F013BF9D041EA0C018FE70CEAD15337
:104DA00092EA0C0F18BF93EA0C0F0AD030F0004CB7
:104DB00018BF31F0004CD8D180EA010000F000406B
:104DC000704790F0000F17BF90F0004F084691F029
:104DD000000F91F0004F14D092EA0C0F01D1420263
:104DE0000FD193EA0C0F03D14B0218BF084608D12C
:104DF00080EA010000F0004040F0FE4040F4000076
:104E0000704740F0FE4040F4400070474FF0FF0C08
:104E10001CEAD0521EBF1CEAD15392EA0C0F93EA4F
:104E20000C0F69D0A2EB030280EA010C49024FEAA1
:104E3000402037D04FF0805343EA111143EA10135A
:104E40000CF000408B4238BF5B0042F17D024FF412
:104E5000000C8B4224BF5B1A40EA0C00B3EB510FED
:104E600024BFA3EB510340EA5C00B3EB910F24BFD6
:104E7000A3EB910340EA9C00B3EBD10F24BFA3EB5B
:104E8000D10340EADC001B0118BF5FEA1C1CE0D123
:104E9000FD2A3FF650AF8B4240EBC25008BF20F0D6
:104EA000010070470CF0004C4CEA50207F32C2BF2A
:104EB000D2F1FF0340EAC250704740F400004FF0C7
:104EC0000003013A37E792F0000F00F0004C02BFF8
:104ED000400010F4000F013AF9D040EA0C0093F0C2
:104EE000000F01F0004C02BF490011F4000F013B1C
:104EF000F9D041EA0C0195E70CEAD15392EA0C0F84
:104F000008D142027FF47DAF93EA0C0F7FF470AFBB
:104F1000084676E793EA0C0F04D14B023FF44CAFFE
:104F200008466EE730F0004C18BF31F0004CCAD193
:104F300030F000427FF45CAF31F000437FF43CAFCF
:104F40005FE700BF4FF0FF3C06E000BF4FF0010CF1
:104F500002E000BF4FF0010C4DF804CD4FEA4002D3
:104F60004FEA41037FEA226C18BF7FEA236C11D01D
:104F700001B052EA530C18BF90EA010F58BFB2EBD0
:104F8000030088BFC81738BF6FEAE17018BF40F050
:104F9000010070477FEA226C02D15FEA402C05D104
:104FA0007FEA236CE4D15FEA412CE1D05DF8040B89
:104FB000704700BF844608466146FFE70FB5FFF71C
:104FC000C9FF002848BF10F1000F0FBD4DF808EDD4
:104FD000FFF7F4FF0CBF012000205DF808FB00BFC5
:104FE0004DF808EDFFF7EAFF34BF012000205DF81F
:104FF00008FB00BF4DF808EDFFF7E0FF94BF01206C
:1050000000205DF808FB00BF4DF808EDFFF7D2FF68
:1050100094BF012000205DF808FB00BF4DF808EDAB
:10502000FFF7C8FF34BF012000205DF808FB00BF78
:1050300080B400AF0F4B9B690E4A43F008039361A5
:105040000D4B5B680C4A23F07F6323F4702353609D
:10505000094B5B68084A43F04C7343F44033536098
:10506000054BDB68044A43F4E043D36000BFBD4610
:1050700080BC704700100240000C014080B400AFBB
:10508000164B9B69154A43F008039361144B1B6848
:10509000134A23F070431360114B1B68104A43F00E
:1050A000004313600E4BDB680D4A43F08003D3606E
:1050B0000B4B1B680A4A23F070631360084B1B6894
:1050C000074A43F000631360054BDB68044A43F072
:1050D0004003D36000BFBD4680BC70470010024053
:1050E000000C014080B483B000AF194B9B68DB0912
:1050F00003F00103002B0CBF01230023DBB2FB7183
:10510000134B9B689B0903F00103002B0CBF012389
:105110000023DBB2BB71FB79002B04D0BB79002BE1
:1051200001D101230FE0FB79002B04D1BB79002BC7
:1051300001D0022307E0FB79002B04D1BB79002BBF
:1051400001D10023FFE718460C37BD4680BC7047ED
:10515000000C014080B582B000AFFFF7C3FF0346EB
:10516000FB71114B1B78FA799A4203D00F4B1B68E5
:105170000F4A13600D4B1A680D4B1B68D21A0D4B6A
:105180001B689A4207D90C4B1B78FA799A4202D0D5
:10519000094AFB791370044AFB791370064B1B789C
:1051A00018460837BD4680BD210200209805002022
:1051B0001C020020000000202002002080B500AF6B
:1051C000154B164A1A60144B154A5A60124B0022AE
:1051D0009A60114BAA22DA600F4B4FF480421A6199
:1051E0000D4B00225A610C4B00229A610A4B00229F
:1051F000DA61094B00221A62074804F043FA0346B9
:10520000002B01D002F0A0FA02220649024804F065
:1052100091FB00BF80BD00BF40050020005400404E
:10522000801A06002402002080B582B000AF7860AA
:10523000054B01221A7002220449054804F07AFB4A
:1052400000BF0837BD4680BD220200202402002096
:105250004005002080B582B000AF78607B681B6895
:105260000C4A934212D10C4B1B690B4A43F40013B6
:105270001361094B1B69084A23F400131361FFF7FC
:105280009DFF02220549064804F054FB00BF083781
:10529000BD4680BD005400400010024024020020A2
:1052A0004005002080B584B000AF364B1B6903F089
:1052B0008003002B05D0334B334A5A60314B334ABD
:1052C0005A60304BDB6803F00103002BF9D12D4B02
:1052D0001B692C4A43F0020313612A4B2C4A5A6182
:1052E000284B1B69274A43F040031361254BDB68B9
:1052F00003F00103002BF9D1224B1B69214A23F053
:10530000020313611F4B1B691E4A43F00103136123
:105310001F4B4AF6AA221A801A4BDB6803F00103DE
:10532000002BF9D11B4B4AF6AA221A80154BDB68D9
:1053300003F00103002BF9D1124B1B69114A23F032
:10534000010313610F4B1B690E4A43F08003136185
:105350004FF000631B68FB600F4B1B68BB600F4B7B
:105360004FF000629A60FB683B603B6883F30888FB
:1053700000BFBB687B607B68984700BF1037BD46A5
:1053800080BD00BF0020024023016745AB89EFCDFF
:1053900000FC000802FC00080400000800ED00E02A
:1053A00080B582B000AF78607B681B68B3F5867FFC
:1053B00026D8B3F5807FC0F0DA80A3F580730C2B7C
:1053C00000F2D58001A252F823F000BF0D5400086E
:1053D000255400083D54000859540008755400082D
:1053E00091540008AD540008C9540008E554000861
:1053F000FB54000817550008335500084F550008A6
:1054000041F23422934200F0B080B0E07B68073371
:105410005949184600F0CAF8574A937B43F00103F4
:105420009373A5E07B6807335449184600F01AF9D6
:10543000514A937E43F00103937699E07B680733EA
:105440004F49184600F094F94B4A92F8423043F025
:10545000010382F842308BE07B68073349491846E4
:1054600000F042F9444A92F84C3043F0010382F8CC
:105470004C307DE07B6807334349184600F0EAF979
:105480003D4A92F8523043F0010382F852306FE007
:105490007B6807333D49184600F0FEF9364A92F81A
:1054A000623043F0010382F8623061E07B680733C9
:1054B0003749184600F068FA2F4A92F8723043F0E4
:1054C000010382F8723053E07B6807333149184694
:1054D00000F0D2FA284A92F8823043F0010382F8B1
:1054E000823045E07B6807332B49184600F032FBD9
:1054F000214B012283F892203AE07B680733274949
:10550000184600F099FB1C4A92F8A23043F00103C0
:1055100082F8A2302CE07B6807332149184600F05E
:10552000F9FB154A92F8B23043F0010382F8B23029
:105530001EE07B6807331B49184600F059FC0E4AF1
:1055400092F8C23043F0010382F8C23010E07B6869
:1055500007331549184600F0B9FC074A92F8D230D3
:1055600043F0010382F8D23002E0FFF79BFE00BF58
:1055700000BF0837BD4680BD280200203802002049
:10558000440200206C020020760200207C020020F1
:105590008C0200209C020020AC020020BC020020F3
:1055A000CC020020DC020020EC02002080B582B09A
:1055B00000AF786039607B681B781B027A68013223
:1055C000127813431846FFF719FB0346244918467F
:1055D000FFF768FB03461A463B681A607B68023394
:1055E0001B781BB21B021AB27B6803331B781BB2F9
:1055F00013431BB21846FFF701FB03461849184630
:10560000FFF750FB03461A463B685A607B68043339
:105610001B781BB21B021BB21A467B6805331B7832
:1056200013431846FFF7EAFA03460D491846FFF7F9
:1056300039FB03461A463B689A607B6806331B7841
:105640001BB21B021AB27B6807331B781BB21343D1
:105650001BB29AB23B689A8100BF0837BD4680BD35
:105660000AD7233C80B582B000AF786039607B6890
:105670001B781B027A680132127813431846FFF731
:10568000BDFA034617491846FFF70CFB03461A46B6
:105690003B681A607B6802331B781BB21B021AB28C
:1056A0007B6803331B781BB213431BB29AB23B686F
:1056B0009A807B6805331B781A463B68DA807B68E2
:1056C00006331B781BB21B021AB27B6807331B78A8
:1056D0001BB213431BB29AB23B681A8100BF083752
:1056E000BD4680BD0AD7233C80B483B000AF78604C
:1056F00039607B681B781BB21B021AB27B680133CE
:105700001B781BB213431BB29AB23B681A807B68AA
:1057100002331B781BB21B021AB27B6803331B785F
:105720001BB213431AB23B685A807B6804331B7860
:105730001BB21B021AB27B6805331B781BB21343E2
:105740001BB29AB23B689A807B6806331B781BB207
:105750001B021AB27B6807331B781BB213431BB2C0
:105760009AB23B68DA8000BF0C37BD4680BC7047F8
:1057700080B487B000AF786039607B681B781BB25B
:105780001B021AB27B6801331B781BB213431BB296
:10579000FB8100237B6112E0FA897B6942FA03F303
:1057A00003F00103002B14BF01230023D9B23A6890
:1057B0007B6913440A461A707B6901337B617B69FC
:1057C0000F2BE9DD7B6802331B781BB21B021AB278
:1057D0007B6803331B781BB213431BB2BB810023CE
:1057E0003B6111E0BA893B6942FA03F303F001021D
:1057F0003B691033002A14BF01220022D1B23A685B
:10580000D1543B6901333B613B69102BEADD7B6876
:1058100004331B781BB21B021AB27B6805331B785A
:105820001BB213431BB29AB23B685A847B6806339F
:105830001B781BB21B021AB27B6807331B781BB2A2
:1058400013431BB29AB23B689A8400BF1C37BD4613
:1058500080BC704780B483B000AF786039607B68EB
:105860001A783B681A707B6801331A783B685A7063
:105870007B6802331B781BB21B021AB27B680333AE
:105880001B781BB213431BB29AB23B685A8000BF0D
:105890000C37BD4680BC704780B584B000AF7860DF
:1058A00039607B681B781BB21B021AB27B6801331C
:1058B0001B781BB213431BB2FB81FB891846FFF711
:1058C0009DF903462E491846FFF7ECF903462D498A
:1058D0001846FFF7DDF803461A463B681A607B68F6
:1058E00002331B781BB21B021AB27B6803331B788E
:1058F0001BB213431BB2BB81BB891846FFF77EF96D
:1059000003461F491846FFF7CDF903461D491846BF
:10591000FFF7BEF803461A463B685A607B680433BB
:105920001B781BB21B021AB27B6805331B781BB2B3
:1059300013431BB27B817B891846FFF75FF903464F
:105940000F491846FFF7AEF903460E491846FFF710
:105950009FF803461A463B689A607B6806331B78BB
:105960001BB21B021AB27B6807331B781BB21343AE
:105970001BB29AB23B689A8100BF1037BD4680BD0A
:10598000CDCCCC3D3393884380B584B000AF7860F4
:1059900039607B681B781BB21B021AB27B6801332B
:1059A0001B781BB213431BB2FB81FB891846FFF720
:1059B00025F903462E491846FFF774F903462D4989
:1059C0001846FFF765F803461A463B681A607B687D
:1059D00002331B781BB21B021AB27B6803331B789D
:1059E0001BB213431BB2BB81BB891846FFF706F9F4
:1059F00003461F491846FFF755F903461D49184647
:105A0000FFF746F803461A463B685A607B68043342
:105A10001B781BB21B021AB27B6805331B781BB2C2
:105A200013431BB27B817B891846FFF7E7F80346D7
:105A30000F491846FFF736F903460E491846FFF797
:105A400027F803461A463B689A607B6806331B7842
:105A50001BB21B021AB27B6807331B781BB21343BD
:105A60001BB29AB23B689A8100BF1037BD4680BD19
:105A7000CDCCCC3D3393884380B582B000AF786005
:105A800039607B681B781B029BB21A467B68013326
:105A90001B7813431846FFF7B1F803462A49184606
:105AA000FFF7B4F903461A463B681A603B681B6867
:105AB000264A13607B6802331B781B029BB21A468E
:105AC0007B6803331B7813431846FFF797F80346A8
:105AD0001D491846FFF79AF903461A463B685A6073
:105AE0003B685B68194A53607B6804331B781B0270
:105AF0009BB21A467B6805331B7813431846FFF7A1
:105B00007DF8034610491846FFF780F903461A4608
:105B10003B689A603B689B680C4A93607B680633DD
:105B20001B781BB21B021AB27B6807331B781BB2AF
:105B300013431BB29AB23B689A81054B01221A703B
:105B400000BF0837BD4680BD00007A44FC0200203B
:105B50000400002080B582B000AF786039607B68B7
:105B60001B781B029BB21A467B6801331B781343D8
:105B70001846FFF743F803462C491846FFF746F945
:105B800003461A463B681A603B681B68284AD36084
:105B90007B6802331B781BB21B021AB27B6803338B
:105BA0001B781BB213431BB29BB21846FFF722F8B7
:105BB00003461E491846FFF729F903461A463B6873
:105BC0005A603B685B681A4A13617B6804331B7830
:105BD0001B029BB21A467B6805331B781343184699
:105BE000FFF70CF8034611491846FFF70FF9034673
:105BF0001A463B689A603B689B680D4A53617B6814
:105C000006331B781BB21B021AB27B6807331B7862
:105C10001BB213431BB29AB23B689A81054B012217
:105C20005A7000BF0837BD4680BD00BF00007A44EF
:105C3000FC0200200400002080B582B000AF786034
:105C400039607B681B781B029BB21A467B68013364
:105C50001B7813431846FEF7D1FF03462A4918461E
:105C6000FFF7D4F803461A463B681A603B681B6886
:105C7000264A93617B6802331B781B029BB21A464B
:105C80007B6803331B7813431846FEF7B7FF0346C0
:105C90001D491846FFF7BAF803461A463B685A6092
:105CA0003B685B68194AD3617B6804331B781B022D
:105CB0009BB21A467B6805331B7813431846FEF7E0
:105CC0009DFF034610491846FFF7A0F803461A4601
:105CD0003B689A603B689B680C4A13627B6806339A
:105CE0001B781BB21B021AB27B6807331B781BB2EE
:105CF00013431BB29AB23B689A81054B01229A70FA
:105D000000BF0837BD4680BD00007A44FC02002079
:105D10000400002080B582B000AF786039607B68F5
:105D20001B781B029BB21A467B6801331B78134316
:105D30001846FEF763FF03462A491846FFF766F840
:105D400003461A463B681A603B681B68264A536242
:105D50007B6802331B781B029BB21A467B680333B5
:105D60001B7813431846FEF749FF03461D491846A2
:105D7000FFF74CF803461A463B685A603B685B687D
:105D8000194A93627B6804331B781B029BB21A4644
:105D90007B6805331B7813431846FEF72FFF034635
:105DA00010491846FFF732F803461A463B689A60D6
:105DB0003B689B680C4AD3627B6806331B781BB236
:105DC0001B021AB27B6807331B781BB213431BB24A
:105DD0009AB23B689A81054B0122DA7000BF0837FE
:105DE000BD4680BD00007A44FC0200200400002073
:105DF00080B582B000AF786039607B681B781B0289
:105E00009BB21A467B6801331B7813431846FEF792
:105E1000F5FE03462A491846FEF7F8FF03461A46E0
:105E20003B681A603B681B68264A13637B68023331
:105E30001B781B029BB21A467B6803331B78134303
:105E40001846FEF7DBFE03461D491846FEF7DEFF47
:105E500003461A463B685A603B685B68194A5363BD
:105E60007B6804331B781B029BB21A467B680533A0
:105E70001B7813431846FEF7C1FE03461049184627
:105E8000FEF7C4FF03461A463B689A603B689B686E
:105E90000C4A93637B6806331B781BB21B021AB251
:105EA0007B6807331B781BB213431BB29AB23B6863
:105EB0009A81054B01221A7100BF0837BD4680BD8B
:105EC00000007A44FC0200200400002080B582B06B
:105ED00000AF786039607B681B781B029BB21A4662
:105EE0007B6801331B7813431846FEF787FE034691
:105EF0001F491846FEF78AFF03461A463B681A6098
:105F00003B681B681B4AD3637B6803331B781846C6
:105F1000FEF774FE034616491846FEF777FF034660
:105F20001A463B685A607B6805331B781846FEF7B3
:105F300065FE03460E491846FEF768FF03461A46FB
:105F40003B689A607B6806331B781BB21B021AB24F
:105F50007B6807331B781BB213431BB29AB23B68B2
:105F60009A81054B01225A7100BF0837BD4680BD9A
:105F700000007A44FC0200200400002080B582B0BA
:105F800000AF78607B681B684F4A934200F08980BD
:105F90004D4A934200F294804C4A934273D04B4A4C
:105FA000934200F28D80B32B30D8A12BC0F08880B3
:105FB000A13B122B00F2848001A252F823F000BF13
:105FC00017600008C1600008C1600008C1600008D7
:105FD000C1600008C1600008C1600008C16000081D
:105FE000C1600008C1600008C1600008C16000080D
:105FF000C1600008336000084F600008C1600008FD
:10600000C1600008C16000086B60000841F23422E2
:10601000934252D054E07B6807332D49184600F074
:106020000FFC2C4A92F8F83143F0010382F8F83162
:1060300046E07B6807332849184600F068FA254A8D
:1060400092F8C83143F0010382F8C83138E07B6828
:1060500007332249184600F0F8FA1E4A92F88431B4
:1060600043F0010382F884312AE07B6807331C493E
:10607000184600F06FF9174A92F8803043F0010398
:1060800082F880301CE07B6807331649184600F020
:1060900073FB104A92F8403143F0010382F840311B
:1060A0000EE07B6807330B49184600F0F9F8094AFF
:1060B000137E43F00103137602E0FFF7F3F800BF0D
:1060C00000BF0837BD4680BD4050271840502618F5
:1060D0001005002040030020C80400208804002090
:1060E00060030020600400202DE9B00F8BB000AFEA
:1060F000F860B9607A607B68002B02DD7B68402B1A
:1061000004DD4FF000024FF0000351E04FF00002B9
:106110004FF00003C7E90823BB68002B00DA073300
:10612000DB10FB61BB685A4203F0070302F0070271
:1061300058BF5342BB6100237B6133E00023FB74F3
:10614000FB69002B0EDBFB69072B0BDCFB69FA6894
:1061500013441B781A46BB6942FA03F3DBB203F01F
:106160000103FB74D7E9082312EB020A43EB030B8C
:1061700052465B46F97C00200C46054642EA04087C
:1061800043EA0509C7E90889BB69013BBB61BB69F3
:10619000002B04DAFB690133FB610723BB617B69D8
:1061A00001337B617A697B689A42C7DBD7E90823B0
:1061B000104619462C37BD46BDE8B00F70472DE993
:1061C000B00F8DB000AFF860B9607A607B68002BCB
:1061D00002DD7B68402B04DD4FF000024FF000032E
:1061E00056E04FF000024FF00003C7E90A230023F6
:1061F0007B6247E0BA687B6A1344FB61FB69002B52
:1062000000DA0733DB10BB61FB695A4203F0070376
:1062100002F0070258BF53427B61002387F8233006
:10622000BB69002B0FDBBB69072B0CDCBB69FA6871
:1062300013441B781A467B6942FA03F3DBB203F07E
:10624000010387F8233097F82330002298469146BF
:106250007B6AA3F12001C3F1200209FA03F508FAD1
:1062600001F10D4328FA02F2154308FA03F4D7E9C5
:106270000A2342EA040A43EA050BC7E90AAB7B6A30
:1062800001337B627A6A7B689A42B3DBD7E90A23DF
:10629000104619463437BD46BDE8B00F70470000C0
:1062A00080B588B000AF786039603B68002B44D07F
:1062B000202220217868FFF782FFC7E90601D7E98D
:1062C0000601FEF7D3F820A3D3E90023FEF704F973
:1062D00002460B46104619464FF000024FF00003ED
:1062E000FDF744FF02460B463968C1E9002310223E
:1062F00010217868FFF763FFC7E90401D7E90401BB
:10630000FEF7B4F802460B463968C1E902231022B1
:1063100000217868FFF753FFC7E90201D7E90201BE
:10632000FEF7A4F84FF00002094BFDF71DFF0246EF
:106330000B463968C1E9042300E000BF2037BD46A1
:1063400080BD00BFAFF300809A9999999999B93FA0
:106350000000D04080B582B000AF786039603B6803
:10636000002B00F0D08001221E217868FFF7BCFED0
:1063700002460B463B681A6001221F217868FFF72E
:10638000B3FE02460B463B685A6001221021786832
:10639000FFF7AAFE02460B463B689A6001221121D4
:1063A0007868FFF7A1FE02460B463B68DA600122DF
:1063B00012217868FFF798FE02460B463B681A6187
:1063C000012213217868FFF78FFE02460B463B68D7
:1063D0005A61012214217868FFF786FE02460B46B7
:1063E0003B689A61012215217868FFF77DFE02461D
:1063F0000B463B68DA61012216217868FFF774FECC
:1064000002460B463B681A62012217217868FFF7A3
:106410006BFE02460B463B685A62012208217868EF
:10642000FFF762FE02460B463B689A620122092191
:106430007868FFF759FE02460B463B68DA62012294
:106440000A217868FFF750FE02460B463B681A6344
:1064500001220B217868FFF747FE02460B463B6896
:106460005A6301220C217868FFF73EFE02460B4674
:106470003B689A6301220D217868FFF735FE0246DA
:106480000B463B68DA6301220E217868FFF72CFE89
:1064900002460B463B681A6401220F217868FFF719
:1064A00023FE02460B463B685A64012200217868AD
:1064B000FFF71AFE02460B463B689A640322072147
:1064C0007868FFF711FE02460B463B68DA6401224A
:1064D00001217868FFF708FE02460B463B681A6503
:1064E000012202217868FFF7FFFD02460B463B6858
:1064F0005A65032204217868FFF7F6FD02460B4631
:106500003B689A6500E000BF0837BD4680BD80B596
:1065100082B000AF786039603B68002B00F091805A
:1065200001221B217868FFF7DFFD02460B463B681E
:106530001A6001221C217868FFF7D6FD02460B463F
:106540003B685A60012227217868FFF7CDFD02469B
:106550000B463B689A60012204217868FFF7C4FD6E
:1065600002460B463B68DA60012202217868FFF799
:10657000BBFD02460B463B681A6106221221786871
:10658000FFF7B2FD02460B463B685A610122062125
:106590007868FFF7A9FD02460B463B689A61022224
:1065A00009217868FFF7A0FD02460B463B68DA61D7
:1065B00002220B217868FFF797FD02460B463B68E5
:1065C0001A62012201217868FFF78EFD02460B4610
:1065D0003B685A62012215217868FFF785FD024663
:1065E0000B463B689A62012207217868FFF77CFD21
:1065F00002460B463B68DA6204220F217868FFF7F7
:1066000073FD02460B463B681A6302221721786825
:10661000FFF76AFD02460B463B685A6301220321DD
:106620007868FFF761FD02460B463B689A630122DA
:1066300005217868FFF758FD02460B463B68DA6390
:1066400000E000BF0837BD4680BD80B582B000AF16
:10665000786039603B68002B00F0888003220921B4
:106660007868FFF741FD02460B463B681A6001223D
:106670000A217868FFF738FD02460B463B685A60EE
:1066800001220B217868FFF72FFD02460B463B687D
:106690009A6001220C217868FFF726FD02460B461E
:1066A0003B68DA6001220D217868FFF71DFD024684
:1066B0000B463B681A6101220E217868FFF714FD32
:1066C00002460B463B685A6101220F217868FFF7AA
:1066D0000BFD02460B463B689A6101220021786857
:1066E000FFF702FD02460B463B68DA6101220121F9
:1066F0007868FFF7F9FC02460B463B681A620122F4
:1067000002217868FFF7F0FC02460B463B685A62AC
:10671000012203217868FFF7E7FC02460B463B683D
:106720009A62012204217868FFF7DEFC02460B46DC
:106730003B68DA62012205217868FFF7D5FC024642
:106740000B463B681A63012206217868FFF7CCFCF0
:1067500002460B463B685A63012207217868FFF71F
:10676000C3FC02460B463B689A6300E000BF083753
:10677000BD4680BD0000000080B582B000AF7860EB
:1067800039603B68002B51D0082208217868FFF758
:1067900016FD02460B461346A3F128023B681A6019
:1067A000082200217868FFF70AFD02460B461346CF
:1067B000A3F128023B685A60102210217868FFF785
:1067C000FEFC02460B4610461946FDF74FFE1AA383
:1067D000D3E90023FDF780FE02460B463968C1E984
:1067E0000223032238217868FFF7E9FC02460B46B2
:1067F0003B681A61082230217868FFF7E0FC024606
:106800000B463B685A61082228217868FFF7D7FCBD
:1068100002460B463B689A61082220217868FFF700
:10682000CEFC02460B463B68DA6100E000BF083749
:10683000BD4680BDAFF300809A9999999999B93F67
:1068400080B582B000AF786039600A22262178686E
:10685000FFF74AFC02460B4610461946FDF706FEB6
:106860003BA3D3E90023FDF737FE02460B46104653
:10687000194639A3D3E90023FDF776FC02460B46FF
:106880003968C1E900230A2207217868FFF72CFC48
:1068900002460B4610461946FDF7E8FD2CA3D3E946
:1068A0000023FDF719FE02460B463968C1E90223B1
:1068B0000A2210217868FFF717FC02460B461046A3
:1068C0001946FDF7D3FD22A3D3E90023FDF704FE0B
:1068D00002460B46104619464FF00002224BFDF7C8
:1068E00043FC02460B463968C1E904230F222C21E0
:1068F0007868FFF7F9FB02460B461346A3F5804381
:106900001A463B689A610D220D217868FFF7ECFB6F
:1069100002460B4610461946FDF7A8FD0CA3D3E925
:106920000023FDF7D9FD02460B46104619460CA37D
:10693000D3E90023FDF718FC02460B463968C1E98C
:10694000082300BF0837BD4680BD00BFAFF30080FD
:106950009A9999999999B93F6666666666A6424082
:106960009A999999999979400040504080B400AF24
:10697000124B9B69114A43F008039361104B1B684B
:106980000F4A23F4804323F0440313600C4B1B682D
:106990000B4A43F4405343F033031360084BDB6866
:1069A000074A43F00B03D360054BDB68044A23F02E
:1069B0000203D36000BFBD4680BC70470010024098
:1069C000000C014080B400AF0A4B9B69094A43F0B8
:1069D00010039361084B5B68074A23F4700353600C
:1069E000054B5B68044A43F48013536000BFBD4607
:1069F00080BC7047001002400010014080B400AF1E
:106A0000044BDB68034A23F40053D36000BFBD4648
:106A100080BC70470010014080B400AF044BDB68BD
:106A2000034A43F40053D36000BFBD4680BC7047A7
:106A30000010014090B5ADF6040D00AF07F50063FE
:106A4000A3F2FC7318600023C7F8FC3701F07CFF49
:106A5000C7F8E80707F50063A3F2FC731B68C7F8E3
:106A6000E437D7F8E837002B06D007F50063A3F228
:106A7000FC731B68002B01D10023F7E0D7F8E8274F
:106A8000D7F8E437B2FBF3F3C7F8E0370123C7F8D0
:106A9000F837C0E00123C7F8F437B2E00123C7F8A4
:106AA000F037A4E0D7F8F427D7F8F03713440133D0
:106AB000C7F8DC37D7F8F837D7F8DC2702FB03F341
:106AC000D7F8E0279A4240F08D80D7F8F407FEF718
:106AD00091F803464FF07E511846FDF7DBFF034661
:106AE0001C46D7F8DC07FEF785F803461946204612
:106AF000FEF78CF9034660491846FEF7D3F80346C3
:106B0000C7F8D8375D49D7F8D807FEF77DFA0346AE
:106B1000002B67D05A49D7F8D807FEF76BFA03461F
:106B2000002B5FD00123C7F8EC3755E0D7F8F837D2
:106B300098B207F50063A3F5FF61D7F8FC27134669
:106B40009B0013449B000B4402461A8007F5006328
:106B5000A3F5FF61D7F8FC2713469B0013449B0065
:106B60000B440433D7F8F4271A6007F50063A3F544
:106B7000FF61D7F8FC2713469B0013449B000B448E
:106B80000833D7F8F0271A60D7F8EC1707F5006339
:106B9000A3F5FF60D7F8FC2713469B0013449B0026
:106BA00003440C33196007F50063A3F5FF61D7F8C0
:106BB000FC2713469B0013449B000B441033D7F86B
:106BC000D8271A60D7F8FC370133C7F8FC37D7F855
:106BD000EC370133C7F8EC37D7F8EC37D7F8F027A4
:106BE0009A42A3D2D7F8F0370133C7F8F037D7F875
:106BF000F037082B7FF656AFD7F8F4370133C7F8D4
:106C0000F437D7F8F437102B7FF648AFD7F8F837BA
:106C10000133C7F8F837D7F8F837B3F5806F7FF648
:106C200039AF184BDA6907F50063A3F5FF631B88DA
:106C3000013B194607F50063A3F5FF63DB68013BE1
:106C40001B06194307F50063A3F5FF635B68013B6F
:106C50001B04194307F50063A3F5FF639B68013B21
:106C60001B050B4307491343CB610123184607F665
:106C70000407BD4690BD00BF0000C84200008C4222
:106C80000000A0420064004080B400AF194BDB69F3
:106C9000184A43F00073D361164B9B69154A43F0C1
:106CA00001039361134B9B69124A43F008039361FC
:106CB000114B5B68104A23F0F00353600E4B5B6886
:106CC0000D4A23F00F0353600B4B5B680A4A43F0F5
:106CD00004035360084B5B68074A43F0B0035360FA
:106CE000064B5B68054A43F48043536000BFBD46D2
:106CF00080BC704700100240000C014000000140C1
:106D000080B582B000AF7860FFF7BEFF374B1B68DD
:106D1000364A23F020031360344B1B68334A23F0B8
:106D200002031360314B1B68304A43F001031360C8
:106D300000BF2E4B5B6803F00103002BF9D078688D
:106D4000FFF778FE294B1B68284A43F04003136085
:106D5000264B1B68254A43F040031360234B1B68F6
:106D6000224A43F004031360204B1B681F4A23F0A0
:106D70000103136000BF1D4B5B6803F00103002B90
:106D8000F9D11A4BD3F80032184A43F00103C2F884
:106D90000032164B0022C3F81C22144B0022C3F809
:106DA0000422124B0122C3F80C22104B0022C3F81C
:106DB00014220E4B0022C3F840220C4B0022C3F8D1
:106DC00044220A4BD3F81C32084A43F00103C2F8AC
:106DD0001C32064BD3F80032044A23F00103C2F8F8
:106DE0000032012318460837BD4680BD00640040CC
:106DF00080B483B000AF314B9B697B602F4B9B69A4
:106E000003F00403002B14BF01230023DBB2FB704B
:106E10002A4B9B6903F00203002B14BF01230023BC
:106E2000DBB2BB70254B9B6903F00103002B14BF41
:106E300001230023DBB27B70FB78002B03D0204BB7
:106E400000221A7010E0BB78002B03D01C4B0022EC
:106E50001A7009E07B78002B03D0194B00221A70BE
:106E600002E0174B01221A707B6803F00403002B29
:106E70001FD0124B1B6803F04003002B19D10F4B9E
:106E80001B680E4A43F00103136000BF0B4B5B68A5
:106E900003F00103002BF9D0084B1B68074A23F0CD
:106EA0000103136000BF054B5B6803F00103002B77
:106EB000F9D100BF0C37BD4680BC7047006400406C
:106EC0000A00002090B486B000AF3C4684E80F0072
:106ED000494B9B6803F0E0533B6100237B613B69B6
:106EE00003F08063002B02D000237B610EE03B693E
:106EF00003F00063002B02D001237B6106E03B69B5
:106F000003F08053002B01D002237B613A4A7B6956
:106F100018331B01134400221A603B79002B0FD158
:106F2000354A7B6918331B0113441A683B685B05BB
:106F300031491A437B6918331B010B441A6010E076
:106F40002D4A7B6918331B0113441A683B68DB0028
:106F50001343294943F004027B6918331B010B4496
:106F60001A60BB79244903F00F027B6918331B01B7
:106F70000B4404331A60204A7B6918331B01134405
:106F80001B681D4943F002027B6918331B010B4447
:106F90001A60194A7B6918331B01134404331B68B8
:106FA000154923F00F027B6918331B010B4404338E
:106FB0001A60114A7B6918331B01134404331B68A0
:106FC000BA790D491A437B6918331B010B4404330A
:106FD0001A60094A7B6918331B0113441B68064970
:106FE00043F001027B6918331B010B441A6000BF98
:106FF0001837BD4690BC70470064004080B483B031
:1070000000AF0346FB71FB79002B06D1084BDB6810
:10701000DBB203F00303DBB205E0054B1B69DBB217
:1070200003F00303DBB218460C37BD4680BC704743
:107030000064004080B485B000AF78600B46FB7000
:10704000444AFB781B331B0113441B68DBB203F07B
:107050000403DAB27B681A717B681B79002B0BD1B1
:107060003C4AFB781B331B0113441B685B0DC3F3C5
:107070000A027B681A600AE0364AFB781B331B0160
:1070800013441B68DB0823F060427B681A60314AB6
:10709000FB781B331B0113441B68DBB203F00203B4
:1070A000DAB27B685A712B4AFB781B331B011344FD
:1070B00004331B68DBB203F00F03DAB27B689A710A
:1070C0000023FB7327E0FB7B032B10D8214AFB78BE
:1070D0001B01134403F5DC731A68FB7BDB00DA4009
:1070E000FB7BD1B27A6813440A46DA7110E0194A80
:1070F000FB781B01134403F5DE731A68FB7B043B2A
:10710000DB00DA40FB7BD1B27A6813440A46DA71BD
:10711000FB7B0133FB737B689B79FA7B9A42D2D36A
:10712000FB78002B06D10B4BDB680A4A43F02003A7
:10713000D36008E0FB78012B05D1064B1B69054A9B
:1071400043F020031361012318461437BD4680BC69
:10715000704700BF0064004080B400AF0D4B9B69D6
:107160000C4A43F0080393610B4B5B680A4A23F017
:1071700070435360084B5B68074A43F040535360C9
:10718000054BDB68044A43F40043D36000BFBD46AF
:1071900080BC704700100240000C014080B500AF79
:1071A000174801F0A1FE174801F09EFE164801F0B5
:1071B0009BFE01F04BFB0346144AA2FB03239B0CEE
:1071C0001946134801F090FE01F0BEFB03460F4A3A
:1071D000A2FB03239B0C19460E4801F085FE01F02B
:1071E000D9FB0346094AA2FB03239B0C19460A4814
:1071F00001F07AFE044801F077FE00BF80BD00BFB9
:1072000018E1000844E100086CE1000883DE1B433C
:1072100094E10008ACE10008C4E1000880B487B044
:1072200000AFF860B9607A60FB703F4BD3F81C3256
:107230000121FA6801FA02F2D24311463A4A0B40A0
:10724000C2F81C32384BD3F804320121FA6801FA33
:1072500002F21146344A0B43C2F80432324BD3F8DF
:107260000C320121FA6801FA02F211462E4A0B4350
:10727000C2F80C3297F82030002B17D0BB68DB0027
:1072800043F004037B617B68DB0043F004033B6154
:107290002549FB6848337A6941F83320224AFB6864
:1072A0004833DB0013443A695A600EE01E49BB685C
:1072B0005A05FB68483341F833201B497B685A055F
:1072C000FB684833DB000B445A60FB78002B0DD180
:1072D000154BD3F814320121FA6801FA02F2D243B5
:1072E0001146114A0B40C2F814320BE00E4BD3F892
:1072F00014320121FA6801FA02F211460A4A0B43DC
:10730000C2F81432084BD3F81C320121FA6801FA92
:1073100002F21146044A0B43C2F81C3200BF1C376C
:10732000BD4680BC704700BF0064004080B590B08F
:1073300002AFF860B9607A603B6000237B634C4B1E
:10734000D3F800324A4A43F00103C2F80032002366
:107350003B6324E03B6B9B00FA6813441B687B6132
:107360003B6B0133BA689A4206DD3B6B01339B00ED
:10737000FA6813441B6804E03B6B9B00FA681344F3
:107380001B683B61786B431C7B63002300930023E5
:107390003A697969FFF742FF3B6B02333B633A6B13
:1073A000BB689A42D6DB0023FB6224E0FB6A9B00A9
:1073B0007A6813441B68FB61FB6A01333A689A429E
:1073C00006DDFB6A01339B007A6813441B6804E006
:1073D000FB6A9B007A6813441B68BB61786B431C93
:1073E0007B63012300930023BA69F969FFF716FF55
:1073F000FB6A0233FB62FA6A3B689A42D6DB0023DF
:10740000BB6224E0BB6A9B003A6C13441B687B623E
:10741000BB6A01337A6C9A4206DDBB6A01339B007A
:107420003A6C13441B6804E0BB6A9B003A6C13443B
:107430001B683B62786B431C7B6300230093012332
:107440003A6A796AFFF7EAFEBB6A0233BB62BA6A3C
:107450007B6C9A42D6DB064BD3F80032044A23F009
:107460000103C2F8003200BF3837BD4680BD00BFFF
:1074700000640040B0B596B002AF134B07F1400472
:107480000FCB84E80F00114B07F110041D460FCD00
:107490000FC40FCD0FC495E80F0084E80F000C4A0D
:1074A0003B1D07CA83E807003A1D07F140000C2383
:1074B000019307F11003009303230421FFF736FF24
:1074C00000BF5037BD46B0BDDCE10008ECE100086C
:1074D0001CE2000880B582B002AF01F063FD01F04C
:1074E0005FF9814B1B6903F08003002B05D07E4BB5
:1074F0007E4A5A607C4B7E4A5A607B4BDB6803F0C5
:107500000103002BF9D1784B1B69774A43F0020342
:107510001361754B774A5A61734B1B69724A43F08A
:1075200040031361704BDB6803F00103002BF9D1BA
:107530006D4B1B696C4A23F0020313616A4B1B6994
:10754000694A43F0010313616A4B4FF6FF721A80D8
:10755000654BDB6803F00103002BF9D1664B4FF656
:10756000FF721A80604BDB6803F00103002BF9D136
:107570005D4B1B695C4A23F0010313615A4B1B6985
:10758000594A43F0800313614FF4E13001F0BCFB32
:107590000346002B01D100F0D7F84FF4E1315748F2
:1075A00001F0A2FC564801F09FFC4FF4E13001F0DD
:1075B00041FB0346002B01D100F0C6F8FFF7EEFDBA
:1075C0004FF4E1314F4801F08FFC4D4801F08CFC45
:1075D0004FF47A7001F008F84B4801F085FC4848F8
:1075E00001F082FC4948FFF78BFB0346002B07D1D3
:1075F000474801F079FC474801F076FC00F0A4F818
:10760000FFF738FF4FF4FA71434801F06DFC3C4836
:1076100001F06AFC01F0EAF9404801F065FC3848E5
:1076200001F062FCFDF704FD3D4B9B681B0B03F072
:1076300001013B4B9B685B0B03F00102384B9B68DD
:107640009B0B03F00103374801F04EFC2C4801F07E
:107650004BFCFFF781FD324B9B68DB0B03F0010312
:107660001946314801F040FC254801F03DFCFFF788
:107670007DF92B4B9B6803F00101294B9B685B084C
:1076800003F00102264B9B68DB0803F00100244B4A
:107690009B685B0903F0010300930346234801F054
:1076A00023FC174801F020FCFDF7E8FCFFF78AF9FE
:1076B0001F49322001F0D0F91E49022001F0CCF917
:1076C0001D49002001F0C8F91C49642001F0C4F9EB
:1076D0001B49642001F0C0F91A49322001F0BCF9BD
:1076E00001F008FAFCE700BF0020024023016745D3
:1076F000AB89EFCD00FC000802FC000828E200087E
:1077000060E200089CE20008D4E2000820A1070023
:1077100000E3000820E300085CE3000894E30008AD
:10772000000C0140B4E30008F0E300081CE400088A
:107730000D790008D179000885780008E17A000801
:10774000E97E0008297A000880B400AF00BFBD467A
:1077500080BC704780B584B000AF786039603B680A
:10776000102B37D17B681B68FB600123BB6014E0E2
:10777000BB689B007A6813441B681946F868FDF7DC
:107780004DFC0346002B05D0BB689B007A68134470
:107790001B68FB60BB680133BB60BA683B689A42F8
:1077A000E6DBF868FCF740FE4FF000020C4BFCF7FC
:1077B00093FE02460B4610461946FDF73DF9034677
:1077C0001846FDF71BFA034606491846FDF71EFB4F
:1077D000034600E0044B18461037BD4680BD00BF8D
:1077E000000059400000C842000080BF80B584B04E
:1077F00000AF786039603B68102B37D17B681B681D
:10780000FB600123BB6014E0BB689B007A681344F3
:107810001B681946F868FDF7E3FB0346002B05D00B
:10782000BB689B007A6813441B68FB60BB6801332C
:10783000BB60BA683B689A42E6DBF868FCF7F4FD87
:107840004FF000020C4BFCF747FE02460B46104679
:107850001946FDF7F1F803461846FDF7CFF9034640
:1078600006491846FDF7D2FA034600E0044B1846D5
:107870001037BD4680BD00BF000059400000C8421F
:10788000000080BF80B584B000AF0020FFF7B6FBDA
:107890000346002B12D0194B00221A60184B01220C
:1078A0001A603B4600211846FFF7C4FB3B461846CA
:1078B00001F0D6FA3B461846FEF760FB0120FFF7C1
:1078C0009DFB0346002B12D00E4B00221A600E4B7C
:1078D00001221A603B4601211846FFF7ABFB3B46ED
:1078E000184601F0BDFA3B461846FDF759FDFFF773
:1078F0007FFA00BF1037BD4680BD00BFA405002041
:107900009C050020A8050020A005002080B584B0BB
:1079100000AFFDF71FFC03461A46274B1A70264B93
:107920001A78264B1B789A4229D0234B1A78234B7E
:107930001A70234BDB68224A43F00B03D3601E4BC3
:107940001B78022B06D0022B19DC002B09D0012B4F
:107950000ED014E01A4BDB68194A23F00103D36000
:107960000DE0174BDB68164A23F00203D36006E0F4
:10797000134BDB68124A23F00803D36000BF40F2C8
:1079800023133B600823BB710B4B1B78FB710D4B22
:107990001B78DBB23B720C4B1B68DBB27B720B4B70
:1079A0001B68DBB2BB723B46184601F059FA00BFB8
:1079B0001037BD4680BD00BF95050020940500200E
:1079C000000C01400A0000209C050020A0050020BA
:1079D00080B584B000AF114B1B781A46104B33F8BA
:1079E00012303B6000233B710823BB713B460FCB39
:1079F000FFF768FA094B1B780133DAB2074B1A70AC
:107A0000064B1A78074B1B789A4202D3034B00228D
:107A10001A7000BF1037BD4680BD00BF960500201C
:107A20000C00002026000020B0B584B002AF264B29
:107A30001B78002B44D0244B5B78002B40D0224B8A
:107A40009B78002B3CD0204BDB78002B38D01E4B92
:107A50001B79002B34D01C4B5B79002B30D01B489A
:107A600001F042FA10211A48FFF774FE78601021E5
:107A70001748FFF7BBFE38607868FCF7D5FC044672
:107A80000D463868FCF7D0FC02460B46CDE90023D2
:107A900022462B460F4801F027FA0F497868FDF778
:107AA0009FFA0346002B06D10C493868FDF7B6FA59
:107AB0000346002B02D0FEF7AFFF01E0FEF79EFF6A
:107AC00000BF0837BD46B0BD0400002064E40008D4
:107AD000FC02002074E40008000020400000604028
:107AE0002DE9F04FA5B014AFB24B93F8F83103F085
:107AF0000103DBB2002B27D0AE4BD3E97489AD4B29
:107B0000D3E97623AB49D1E97801AA4CD4F8E8410E
:107B1000E517A246AB46A74C04F5F875D5E9004534
:107B2000CDE90645CDE904ABCDE90201CDE900235D
:107B300042464B46A04801F0D7F99E4A92F8F831E8
:107B400023F0010382F8F8319A4B93F8C83103F01F
:107B50000103DBB2002B6AD0964BD3F88831FB636C
:107B6000944BD3F88C21BA63924BD3F8900178638D
:107B7000904BD3F894018F4BD3F898418D4BD3F8A9
:107B80009C518C4BD3F8A0618A4BD3F8A4C1C7F8A1
:107B900030C0884BD3F8A8E1C7F82CE0854BD3F868
:107BA000AC81C7F82880834BD3F8B091C7F82490F4
:107BB000804BD3F8B4A1C7F820A07E4BD3F8B8B15E
:107BC000C7F81CB07B4BD3F8BC117A4BD3F8C0215B
:107BD000784BD3F8C4310C930B920A91D7F81CB0B0
:107BE000CDF824B0D7F820A0CDF820A0D7F8249065
:107BF000CDF81C90D7F82880CDF81880D7F82CE065
:107C0000CDF814E0D7F830C0CDF810C00396029537
:107C1000019400907B6BBA6BF96B684801F064F9D2
:107C2000644A92F8C83123F0010382F8C831614BED
:107C300093F8843103F00103DBB2002B61D05D4B7C
:107C4000D3F84831FB635B4BD3F84C21BA63594BF3
:107C5000D3F850017863574BD3F85411554BD3F8F0
:107C60005801544BD3F85C41524BD3F86051514BFF
:107C7000D3F864614F4BD3F868C1C7F830C04D4B9F
:107C8000D3F86CE1C7F82CE04A4BD3F87081C7F801
:107C90002880484BD3F87491C7F82490454BD3F80B
:107CA00078A1C7F820A0434BD3F87C21414BD3F8EF
:107CB00080310B930A92D7F820A0CDF824A0D7F8F2
:107CC0002490CDF82090D7F82880CDF81C80D7F8E4
:107CD0002CE0CDF818E0D7F830C0CDF814C00496E9
:107CE00003950294019000917B6BBA6BF96B344859
:107CF00001F0FAF82F4A92F8843123F0010382F858
:107D000084312C4B93F8803003F00103DBB2002B5D
:107D100000F08E80274B1B6AFB63264B5A6ABA63BE
:107D2000244B986A7863234BDC6A3C63214B1D6BC0
:107D3000FD62204B5E6BBE621E4BD3F838C0C7F8A5
:107D400024C01C4BD3F83CE0C7F820E0194BD3F813
:107D50004080C7F81C80174BD3F84490C7F81890A0
:107D6000144BD3F848A0C7F814A0124BD3F84CB06A
:107D7000C7F810B00F4B196DF9600E4B586DB86015
:107D80000C4B9C6D7C600B4BDD6D3D60094B1E6E9A
:107D9000084B5D6E074B9C6E064BD86E054B196FFA
:107DA000044B5A6F034B9B6F1393129211911090D7
:107DB00008E000BF400300208CE40008D0E4000885
:107DC00048E500080F940E950D963D680C957C686B
:107DD0000B94B8680A90F9680991D7F810B0CDF8FB
:107DE00020B0D7F814A0CDF81CA0D7F81890CDF883
:107DF0001890D7F81C80CDF81480D7F820E0CDF883
:107E000010E0D7F824C0CDF80CC0BE6A0296FD6A17
:107E100001953C6B00947B6BBA6BF96B2E4801F0BB
:107E200063F82E4A92F8803023F0010382F8803004
:107E30002A4B93F8403103F00103DBB2002B27D02B
:107E4000264A92F8403123F0010382F84031234B57
:107E5000D3F82061214BD3F82431FB631F4BD3E9C6
:107E60004A231E49D1F830111C48D0F834011B4C6C
:107E7000D4F83841194DD5F83C5105950494039038
:107E80000291CDE90023FA6B3146154801F02CF838
:107E9000124B1B7E03F00103DBB2002B16D00F4BFD
:107EA000D3E900450D4BD3E902230C49D1E9040184
:107EB000CDE90201CDE9002322462B46094801F015
:107EC00013F8064A137E23F00103137600BF4437EC
:107ED000BD46BDE8F08F00BFB8E5000840030020B4
:107EE00060E60008ACE600082DE9F04399B010AF59
:107EF000AD4B9B7B03F00103DBB2002B25D0AA4ADC
:107F0000937B23F001039373A74B1B681846FCF780
:107F10008BFA80468946A44B5B681846FCF784FAC6
:107F200004460D46A04B9B681846FCF77DFA0246B6
:107F30000B469D4989890491CDE90223CDE900458D
:107F400042464B46994800F0CFFF974B9B7E03F08B
:107F50000103DBB2002B19D0934A937E23F0010377
:107F60009376914B1B691846FCF75EFA02460B4666
:107F70008D49898A08468C49C98A0C468A49098BE9
:107F80000291019400908A4800F0AEFF864B93F86E
:107F9000423003F00103DBB2002B65D0824A92F835
:107FA000423023F0010382F842307F4B1B7F9C4616
:107FB0007D4B5B7F9E467C4B9B7F98467A4BDB7F5D
:107FC0001D46794B93F820301E46774B93F82130AD
:107FD000FB61754B93F82230BB61734B93F82330F0
:107FE0007B61714B93F824303B616F4B93F82530E4
:107FF000FB606D4B93F82630BB606B4B93F82730DA
:108000007B60694B93F828303B60674B93F82930CD
:108010001C46654B93F82A301846634B93F82B3077
:108020001946614BDB8F1A465F4BB3F840300E9315
:108030000D920C910B900A943A6809927A68089212
:10804000BA680792FA6806923A6905927A690492C8
:10805000BA690392FB690293019600954346724602
:108060006146544800F040FF4F4B93F84C3003F00A
:108070000103DBB2002B1AD04B4A92F84C3023F0AC
:10808000010382F84C30484BB3F844301946464B54
:10809000B3F946301A46444BB3F848301846424BC1
:1080A000B3F84A3000930346434800F01DFF3E4BAF
:1080B00093F8523003F00103DBB2002B14D03A4A9C
:1080C00092F8523023F0010382F85230364B93F885
:1080D0004E301946344B93F84F301A46324BB3F8B2
:1080E0005030364800F000FF2F4B93F8623003F019
:1080F0000103DBB2002B28D02B4A92F8623023F028
:10810000010382F86230284B5B6D1846FCF78CF94E
:1081100080468946244B9B6D1846FCF785F904463A
:108120000D46214BDB6D1846FCF77EF902460B46E7
:108130001D49B1F860100491CDE90223CDE9004555
:1081400042464B461E4800F0CFFE174B93F8723064
:1081500003F00103DBB2002B1FD0134A92F87230F8
:1081600023F0010382F872300F4B5B6E1846FCF768
:108170005BF904460D460C4B9B6E1846FCF754F910
:1081800002460B460849B1F870100291CDE9002370
:1081900022462B460B4800F0A7FE034B93F8823093
:1081A00003F00103DBB20FE028020020DCE6000848
:1081B00034E7000878E7000810E8000858E80008ED
:1081C00090E80008D0E80008002B28D0884A92F8F0
:1081D000823023F0010382F88230854B5B6F1846B2
:1081E000FCF722F980468946814B9B6F1846FCF7C5
:1081F0001BF904460D467E4BDB6F1846FCF714F95D
:1082000002460B467A49B1F880100491CDE9022369
:10821000CDE9004542464B46764800F065FE744B7A
:1082200093F89230002B28D0714B002283F89220D3
:108230006F4BD3F884301846FCF7F6F88046894631
:108240006B4BD3F888301846FCF7EEF804460D4621
:10825000674BD3F88C301846FCF7E6F802460B461D
:108260006349B1F890100491CDE90223CDE90045AE
:1082700042464B46604800F037FE5D4B93F8A23013
:1082800003F00103DBB2002B2BD0594A92F8A23045
:1082900023F0010382F8A230554BD3F894301846EE
:1082A000FCF7C2F880468946514BD3F898301846FF
:1082B000FCF7BAF804460D464D4BD3F89C301846EF
:1082C000FCF7B2F802460B464949B1F8A0100491F8
:1082D000CDE90223CDE9004542464B46474800F030
:1082E00003FE434B93F8B23003F00103DBB2002BE3
:1082F0002BD03F4A92F8B23023F0010382F8B2301B
:108300003B4BD3F8A4301846FCF78EF880468946DC
:10831000374BD3F8A8301846FCF786F804460D46CC
:10832000334BD3F8AC301846FCF77EF802460B46C8
:108330002F49B1F8B0100491CDE90223CDE90045F1
:1083400042464B462E4800F0CFFD294B93F8C230F1
:1083500003F00103DBB2002B2BD0254A92F8C23088
:1083600023F0010382F8C230214BD3F8B430184611
:10837000FCF75AF8804689461D4BD3F8B8301846AA
:10838000FCF752F804460D46194BD3F8BC3018469A
:10839000FCF74AF802460B461549B1F8C0100491A3
:1083A000CDE90223CDE9004542464B46154800F091
:1083B0009BFD0F4B93F8D23003F00103DBB2002B8F
:1083C00011D00B4A92F8D23023F0010382F8D23058
:1083D000074BD3F8C4301846FCF726F802460B4684
:1083E000094800F081FD00BF2437BD46BDE8F08399
:1083F0002802002000E900083CE9000878E90008AC
:10840000B4E90008F4E9000834EA000880B485B053
:1084100000AF154B9B69144A43F001039361124B63
:108420009B6903F00103BB60BB680F4BDB690E4A1D
:1084300043F08053D3610C4BDB6903F080537B60C6
:108440007B680A4B5B68FB60FB6823F0E063FB60C2
:10845000FB6843F08063FB60044AFB68536000BF25
:108460001437BD4680BC7047001002400000014038
:1084700080B588B000AF786007F1100300221A6061
:108480005A609A60DA607B681B681D4A934233D158
:108490001C4B9B691B4A43F008039361194B9B6972
:1084A00003F00803FB60FB68C0233B6112237B6180
:1084B0000323FB6107F110031946134800F05EFF28
:1084C000104BDB690F4A43F40013D3610D4BDB699A
:1084D00003F40013BB60BB68002200211F2000F0E2
:1084E00090FE1F2000F0A9FE00220021202000F0B5
:1084F00088FE202000F0A1FE00BF2037BD4680BDD1
:108500000054004000100240000C014080B400AF55
:1085100000BFFDE780B400AF00BFFDE780B400AF4F
:1085200000BFFDE780B400AF00BFFDE780B400AF3F
:1085300000BFFDE780B400AF00BFBD4680BC704700
:1085400080B400AF00BFBD4680BC704780B400AFB0
:1085500000BFBD4680BC704780B500AF00F068FD2D
:10856000124B1B680133114A1360114B1B6840F218
:10857000DB52934205D80E4B1B6801330C4A136043
:1085800002E00C4B00221A600B4B1B6840F2DB52DE
:10859000934205D8084B1B680133074A136002E079
:1085A000064B00221A6000BF80BD00BF9805002066
:1085B000A40500209C050020A8050020A00500209F
:1085C00080B500AF024801F023FA00BF80BD00BFB4
:1085D0004005002080B500AF024801F08AFB00BFD3
:1085E00080BD00BF4005002080B582B000AF78603C
:1085F00000F02CF902467B68B2FBF3F3064A013B1C
:108600005360054B00229A60034B07221A6000BF9B
:108610000837BD4680BD00BF10E000E080B400AF69
:1086200001231846BD4680BC704780B582B000AFBC
:108630007860396003F0E0FC034616221A604FF0C0
:10864000FF3318460837BD4680BD80B582B000AF05
:1086500078604FF0FF317868FFF7E7FF00BFFDE774
:1086600080B586B000AFF860B9607A6000237B61A6
:108670000AE0AFF300800146BB685A1CBA60CAB278
:108680001A707B6901337B617A697B689A42F0DBFF
:108690007B6818461837BD4680BD80B586B000AFF0
:1086A000F860B9607A6000237B6109E0BB685A1CFE
:1086B000BA601B781846AFF300807B6901337B6199
:1086C0007A697B689A42F1DB7B6818461837BD46A9
:1086D00080BD80B483B000AF78604FF0FF331846A0
:1086E0000C37BD4680BC704780B483B000AF786063
:1086F00039603B684FF400525A60002318460C372B
:10870000BD4680BC704780B483B000AF7860012361
:1087100018460C37BD4680BC704780B485B000AFAA
:10872000F860B9607A60002318461437BD4680BCF3
:108730007047000080B586B000AF7860144A154BD2
:10874000D31A7B617B693B61134B1B68002B02D101
:10875000114B124A1A60104B1A687B6813443A692D
:108760009A4207D203F048FC03460C221A604FF0ED
:10877000FF3309E0084B1B68FB60074B1A687B68F6
:108780001344054A1360FB6818461837BD4680BD80
:108790000050002000040000AC050020A8070020C5
:1087A00080B400AF274B1B68264A43F48033136024
:1087B00000BF244B1B6803F40033002BF9D0224B7D
:1087C0001B68214A43F0040313601F4B1B681E4AB9
:1087D00043F0100313601B4B5B681A4A43F4E01329
:1087E0005360184B5B68174A43F480335360154B52
:1087F0005B68144A43F480635360124B5B68114A10
:1088000023F4605353600F4B1B680E4A43F0807390
:10881000136000BF0B4B1B6803F00073002BF9D0F3
:10882000084B5B68074A43F00203536000BF054BE7
:108830005B6803F00C03082BF9D101231846BD46F1
:1088400080BC7047001002400020024080B487B016
:1088500000AF264BBB60254B7B60254B5B689B08BC
:1088600003F003033B603B68022B0DD03B68022BF7
:1088700035D83B68002B03D03B68012B02D02EE09B
:108880007B682DE0BB682BE0194B5B6803F48033F9
:10889000002B10D0164B5B6803F40033002B02D082
:1088A00002233B6101E001233B61BA683B69B2FBF3
:1088B000F3F3FB6002E07B685B08FB600C4B5B68DA
:1088C0009B0C03F00F0302337B617B690F2B01D1FB
:1088D00010237B61FB687A6902FB03F300E07B688D
:1088E00018461C37BD4680BC704700BF00127A0096
:1088F00000100240B0B592B000AF114B3C1D1D46B8
:108900000FCD0FC40FCD0FC40FCD0FC495E80F00CE
:1089100084E80F000B4B5B681B0903F00F037B64BB
:10892000FFF794FF02467B6C9B0048333B4453F8AF
:10893000443CB2FBF3F318464837BD46B0BD00BF18
:108940004CEA000800100240B0B58AB000AF0F4BEF
:108950003C1D1D460FCD0FC495E80F0084E80F00A5
:108960000B4B5B681B0A03F007037B62FFF7C2FF38
:1089700002467B6A9B0028333B4453F8243CB2FBFD
:10898000F3F318462837BD46B0BD00BF8CEA000897
:1089900000100240B0B58AB000AF0F4B3C1D1D4621
:1089A0000FCD0FC495E80F0084E80F000B4B5B68F8
:1089B000DB0A03F007037B62FFF79CFF02467B6A3A
:1089C0009B0028333B4453F8243CB2FBF3F3184696
:1089D0002837BD46B0BD00BF8CEA00080010024039
:1089E00080B400AF00BFBD4680BC704780B483B088
:1089F00000AF00237B6024E0164A7B681B01134410
:108A000000221A60134A7B681B01134404330022BE
:108A10001A60104A7B681B0113440C3300221A7041
:108A20000C4A7B681B011344083300221A60094A70
:108A30007B681B0113440D3300221A707B680133DD
:108A40007B607B68092BD7DD00BF00BF0C37BD46BC
:108A500080BC7047B005002080B485B000AF78605E
:108A600039600023FB6037E0204AFB681B01134498
:108A70000C331B78002B2CD11C4AFB681B011344C0
:108A800008331B68002B24D1184AFB681B011344D0
:108A90000C3301221A70164B1A681449FB681B012B
:108AA0000B4404331A60114AFB681B0113440D3355
:108AB00000221A700D4AFB681B0113447A681A6081
:108AC0000A4AFB681B01134408333A681A60FB68C2
:108AD00007E0FB680133FB60FB68092BC4DD4FF046
:108AE000FF3318461437BD4680BC7047B0050020E0
:108AF0009805002080B582B000AF00237B603CE089
:108B0000224A7B681B0113440C331B78002B31D0A5
:108B10001E4A7B681B01134408331B68002B29D0B5
:108B20001B4B1A6819497B681B010B4404331B68F3
:108B3000D21A16497B681B010B441B689A4219D94B
:108B4000134B1A6811497B681B010B4404331A60EC
:108B50000E4A7B681B01134408331B6898470B4A75
:108B60007B681B0113440D331B78012B02D17868FD
:108B700000F010F87B6801337B607B68092BBFDD58
:108B800000BF00BF0837BD4680BD00BFB005002054
:108B90009805002080B483B000AF78607B68002B1C
:108BA00024DB7B68092B21DC134A7B681B011344FF
:108BB0000C3300221A70104A7B681B0113440433E3
:108BC00000221A600C4A7B681B0113440D330022FB
:108BD0001A70094A7B681B01134400221A60064A76
:108BE0007B681B011344083300221A6000BF0C3756
:108BF000BD4680BC704700BFB005002080B400AF08
:108C00004FF080431B6903F00103002B0CD04FF0A1
:108C100080431B694FF0804223F001031361044B32
:108C20001B680133024A136000BFBD4680BC704719
:108C30005006002080B584B000AF78602D4B9B6952
:108C40002C4A43F0040393612A4B9B69294A43F45D
:108C500080439361274B5B69264A43F001035361CC
:108C6000254B5B68244A23F47F635360224B5B6887
:108C7000214A43F0B00353601F4B5B681E4A43F424
:108C8000806353601D4B0022DA60FFF783FEF860BB
:108C9000FB68002B02D07B68002B01D1002324E06D
:108CA0007B685A08FB681A447B68B2FBF3F3BB602D
:108CB000124ABB689360114BDB68104A43F40053BF
:108CC00043F00C03D3600E4B00221A600C4B0D4A8C
:108CD0009A600B4B90221A60084BDB6803F4005338
:108CE000002B01D1002300E0012318461037BD46B8
:108CF00080BD00BF00100240000801400038014064
:108D0000440002400438014080B485B000AF786070
:108D1000234B9B69224A43F008039361204BDB6994
:108D20001F4A43F48023D3611E4B5B681D4A23F422
:108D3000706353601B4B5B681A4A43F44073536083
:108D4000184B5B68174A43F400635360154B5B682C
:108D5000144A23F470435360124B5B68114A43F486
:108D600080435360104B0022DA60104BFB607B683D
:108D70005A08FB681A447B68B2FBF3F3BB600A4AEB
:108D8000BB689360084BDB68074A43F4005343F029
:108D90000C03D360012318461437BD4680BC7047CE
:108DA00000100240000C0140004800400051250224
:108DB00080B485B000AF786039600023FB600FE0BD
:108DC00000BF104B1B6803F08003002BF9D07A68BA
:108DD000FB6813441A780B4B5A60FB680133FB6045
:108DE000FA683B689A42EBD300BF064B1B6803F05E
:108DF0004003002BF9D000BF00BF1437BD4680BC34
:108E0000704700BF0038014080B485B000AF786083
:108E100039600023FB600FE000BF104B1B6803F0BC
:108E20008003002BF9D07A68FB6813441A780B4B47
:108E30005A60FB680133FB60FA683B689A42EBD3E7
:108E400000BF064B1B6803F04003002BF9D000BFA6
:108E500000BF1437BD4680BC704700BF00480040CB
:108E600080B588B000AF786000BF1E4B1B6803F070
:108E70008003002BF9D01B4BAA225A607B681B6829
:108E8000DBB2FB737B681B681B0ADBB2BB737B68BE
:108E90001B681B0CDBB27B737B681B681B0EDBB291
:108EA0003B737B689B793B740023FB610DE0FB699E
:108EB00005337968FA690A440732127820333B4453
:108EC00003F8142CFB690133FB61FB69072BEEDD12
:108ED00007F10C030D211846FFF76AFF00BF20378A
:108EE000BD4680BD003801400FB480B5ADF5007DB2
:108EF00000AF07F5037207F50073A3F5FE731A6060
:108F000007F50073A3F5FE7307F108001B68D7F897
:108F100008224FF4FA7103F00FF8C7F8FC01D7F8F4
:108F2000FC31002B10DDD7F8FC31B3F5FA7F03D903
:108F30004FF4FA73C7F8FC31D7F8FC2107F10803A6
:108F400011461846FFF760FF00BF07F50077BD46E2
:108F5000BDE8804004B07047FFF742FD0B480C4964
:108F60000C4A002302E0D458C4500433C4188C4285
:108F7000F9D3094A094C002301E013600432A242EC
:108F8000FBD303F03FF8FEF7A5FA7047000000207E
:108F9000FC0100203CEE000800020020A407002095
:108FA000FEE7000080B500AF084B1B68074A43F09E
:108FB00010031360032000F019F90F2000F008F8E7
:108FC000FFF724FA0023184680BD00BF00200240AE
:108FD00080B582B000AF7860124B1A68124B1B78D4
:108FE00019464FF47A73B3FBF1F3B2FBF3F318466F
:108FF00000F031F90346002B01D001230EE07B681D
:109000000F2B0AD8002279684FF0FF3000F0F9F8F2
:10901000064A7B681360002300E0012318460837E6
:10902000BD4680BD28000020300000202C0000201C
:1090300080B400AF054B1B781A46054B1B681344E0
:10904000034A136000BFBD4680BC7047300000205B
:109050005406002080B485B000AF78607B6803F0D0
:109060000703FB600C4BDB68BB60BA684FF6FF037D
:109070001340BB60FB681A02BB68134343F0BF6335
:1090800043F40033BB60044ABB68D36000BF1437AD
:10909000BD4680BC704700BF00ED00E080B400AF6B
:1090A000044BDB681B0A03F007031846BD4680BC6F
:1090B000704700BF00ED00E080B483B000AF03460E
:1090C000FB7197F90730002B0BDBFB7903F01F02D4
:1090D000064997F907305B09012000FA02F241F8CE
:1090E000232000BF0C37BD4680BC704700E100E084
:1090F00080B483B000AF03463960FB7197F9073045
:10910000002B0ADB3B68DAB20C4997F907301201F1
:10911000D2B20B4483F800230AE03B68DAB2084974
:10912000FB7903F00F03043B1201D2B20B441A7611
:1091300000BF0C37BD4680BC704700BF00E100E0B7
:1091400000ED00E080B489B000AFF860B9607A60EB
:10915000FB6803F00703FB61FB69C3F10703042B02
:1091600028BF0423BB61FB690433062B02D9FB69CA
:10917000033B00E000237B614FF0FF32BB6902FA42
:1091800003F3DA43BB681A407B699A404FF0FF3122
:109190007B6901FA03F3D9437B680B4013431846FC
:1091A0002437BD4680BC704780B582B000AF786080
:1091B0007B68013BB3F1807F01D301230FE00A4AB2
:1091C0007B68013B53600F214FF0FF30FFF790FFAA
:1091D000054B00229A60044B07221A6000231846B0
:1091E0000837BD4680BD00BF10E000E080B582B00A
:1091F00000AF78607868FFF72DFF00BF0837BD46E5
:1092000080BD80B586B000AF0346B9607A60FB735D
:1092100000237B61FFF742FF78617A68B96878695B
:10922000FFF790FF024697F90F3011461846FFF7F7
:109230005FFF00BF1837BD4680BD80B582B000AF6C
:109240000346FB7197F907301846FFF735FF00BF5B
:109250000837BD4680BD80B582B000AF78607868C1
:10926000FFF7A2FF034618460837BD4680BD000041
:1092700080B584B000AF78600023FB737B6893F8FF
:109280002130DBB2022B05D07B6804229A630123D4
:10929000FB7351E07B681B681A687B681B6822F0CF
:1092A0000E021A607B681B681A687B681B6822F0D4
:1092B00001021A607B681B68224A934229D07B68AE
:1092C0001B68214A934222D07B681B681F4A934245
:1092D0001AD07B681B681E4A934212D07B681B68B9
:1092E0001C4A93420AD07B681B681B4A934202D1F6
:1092F0004FF480130EE04FF080730BE04FF4803397
:1093000008E04FF4805305E04FF4807302E010232F
:1093100000E00123114A53607B68012283F8212079
:109320007B68002283F820207B685B6B002B03D0D6
:109330007B685B6B78689847FB7B18461037BD46A7
:1093400080BD00BF080002401C0002403000024007
:1093500044000240580002406C00024000000240FD
:1093600080B483B000AF78607B6893F82130DBB2C3
:1093700018460C37BD4680BC7047000080B48BB0E7
:1093800000AF7860396000237B6200233B6269E1B3
:1093900001227B6A02FA03F3FB613B681B68FA69EE
:1093A0001340BB61BA69FB699A4240F058813B683F
:1093B0005B689A4A93425ED0984A934275D8984A1D
:1093C000934258D0964A93426FD8964A934252D0CD
:1093D000944A934269D8944A93424CD0924A934219
:1093E00063D8924A934246D0904A93425DD8122B5A
:1093F0002AD8122B59D801A252F823F077940008EA
:109400005194000863940008A5940008AB940008E8
:10941000AB940008AB940008AB940008AB94000830
:10942000AB940008AB940008AB940008AB94000820
:10943000AB940008AB940008AB940008AB94000810
:10944000599400086D940008794A934213D02CE097
:109450003B68DB683B6229E03B68DB6804333B62C6
:1094600024E03B68DB6808333B621FE03B68DB6855
:109470000C333B621AE03B689B68002B02D104234B
:109480003B6213E03B689B68012B05D108233B62DC
:109490007B68FA691A6109E008233B627B68FA6914
:1094A0005A6103E000233B6200E000BFBB69FF2B71
:1094B00001D87B6801E07B6804337B61BB69FF2BCB
:1094C00002D87B6A9B0002E07B6A083B9B003B6101
:1094D0007B691A680F213B6901FA03F3DB431A40E9
:1094E000396A3B6901FA03F31A437B691A603B68E6
:1094F0005B6803F08053002B00F0B1804D4B9B69FB
:109500004C4A43F0010393614A4B9B6903F001030A
:10951000BB60BB68484A7B6A9B08023352F8233021
:10952000FB607B6A03F003039B000F2202FA03F344
:10953000DB43FA681340FB607B68404A934213D0D8
:109540007B683F4A93420DD07B683E4A934207D0E6
:109550007B683D4A934201D1032306E0042304E0E3
:10956000022302E0012300E000237A6A02F00302F2
:1095700092009340FA681343FB602F497B6A9B0873
:109580000233FA6841F823203B685B6803F48013D8
:10959000002B06D02D4B9A682C49BB6913438B6076
:1095A00006E02A4B9A68BB69DB43284913408B606D
:1095B0003B685B6803F40013002B06D0234BDA688A
:1095C0002249BB691343CB6006E0204BDA68BB69D4
:1095D000DB431E491340CB603B685B6803F40033F8
:1095E000002B06D0194B5A681849BB6913434B60CE
:1095F00006E0164B5A68BB69DB43144913404B60C5
:109600003B685B6803F48033002B21D00F4B1A6852
:109610000E49BB6913430B6021E000BF000032100C
:109620000000311000002210000021100000121074
:10963000000011100010024000000140000801402D
:10964000000C0140001001400014014000040140E2
:109650000B4B1A68BB69DB43094913400B607B6AFB
:1096600001337B623B681A687B6A22FA03F3002BA2
:109670007FF48EAE00BF00BF2C37BD4680BC704764
:109680000004014080B584B000AF78607B68002B97
:1096900001D101232BE17B6893F83D30DBB2002B35
:1096A00006D17B68002283F83C207868FEF7E0FE54
:1096B0007B68242283F83D207B681B681A687B68DE
:1096C0001B6822F001021A607B681B681A687B68BD
:1096D0001B6842F400421A607B681B681A687B684A
:1096E0001B6822F400421A6001F084FEF8607B6877
:1096F0005B68814A934207D8FB68804A934294BFD3
:1097000001230023DBB206E0FB687D4A934294BF4D
:1097100001230023DBB2002B01D00123E7E0FB682B
:10972000784AA2FB03239B0CBB607B681B685B68C9
:1097300023F03F017B681B68BA680A435A607B6864
:109740001B681B6A23F03F017B685B686A4A93428F
:1097500002D8BB68013309E0BB684FF4967202FB84
:1097600003F3694AA2FB03239B0901337A68126859
:109770000B4313627B681B68DB6923F44F4222F0C2
:10978000FF027B685B685C498B4219D8FB68591EF5
:109790007B685B685B00B1FBF3F3591C40F6FC731C
:1097A0000B40002B0AD0FB68591E7B685B685B008E
:1097B000B1FBF3F30133C3F30B0351E004234FE098
:1097C0007B689B68002B11D1FB68581E7B68596829
:1097D0000B465B000B44B0FBF3F30133C3F30B0305
:1097E000002B0CBF01230023DBB212E0FB68581EE4
:1097F0007B6859680B469B000B4499000B44B0FBF7
:10980000F3F30133C3F30B03002B0CBF012300233D
:10981000DBB2002B01D0012322E07B689B68002B88
:109820000ED1FB68581E7B6859680B465B000B44E1
:10983000B0FBF3F30133C3F30B0343F400430FE036
:10984000FB68581E7B6859680B469B000B449900C7
:109850000B44B0FBF3F30133C3F30B0343F4404376
:10986000796809681343CB617B681B681B6823F028
:10987000C0017B68DA697B681B6A1A437B681B68D6
:109880000A431A607B681B689B6823F4034323F038
:10989000FF037A6811697A68D26811437A6812689E
:1098A0000B4393607B681B68DB6823F0FF017B68D8
:1098B0005A697B689B691A437B681B680A43DA60B4
:1098C0007B681B681A687B681B6842F001021A609B
:1098D0007B6800221A647B68202283F83D207B6825
:1098E00000221A637B68002283F83E20002318467A
:1098F0001037BD4680BD00BFA08601007F841E00DA
:10990000FF083D0083DE1B43D34D621080B483B05B
:1099100000AF78607B681B685B6903F08003802B75
:1099200003D17B681B6800221A6100BF0C37BD465B
:1099300080BC704780B485B000AFF860B960134652
:10994000FB80FB6893F83D30DBB2202B58D1BB681D
:10995000002B02D0FB88002B01D1012351E0FB68D2
:1099600093F83C30012B01D102234AE0FB6801222D
:1099700083F83C20FB681B681B6803F00103012B84
:1099800007D0FB681B681A68FB681B6842F001027D
:109990001A60FB681B681A68FB681B6822F4006287
:1099A0001A60FB68222283F83D20FB68202283F89E
:1099B0003E20FB6800221A64FB68BA685A62FB68A2
:1099C000FA885A85FB685B8D9AB2FB681A85FB683A
:1099D0000E4ADA62FB681B681A68FB681B6842F46F
:1099E00080621A60FB68002283F83C20FB681B68D9
:1099F0005A68FB681B6842F4E0625A60002300E08A
:109A0000022318461437BD4680BC70470000FFFF94
:109A100080B588B000AF78600023BB617B681B68AD
:109A20005B687B617B68DB6A3B617B6893F83E30F7
:109A3000FB737B6893F83D30BB73FB7B102B03D02B
:109A4000FB7B402B40F0C1807B681B689B69BB613E
:109A50007B681B685B69FB61FB6903F00103002BFA
:109A60000DD13B69B3F52A0F03D03B69B3F12A4FFF
:109A700001D1012300E00023012B00F03281FB69BA
:109A800003F00103002B0CD07B695B0A03F0010398
:109A9000002B06D0786801F089FC786800F087FD1B
:109AA00092E0FB69DB0803F00103002B09D07B691E
:109AB0005B0A03F00103002B03D0786800F0FCFD83
:109AC00082E0FB695B0803F00103002B09D07B698E
:109AD0005B0A03F00103002B03D0786800F015FE49
