:020000040800F2
:1000000000500020C9220008C91C0008D11C0008AB
:10001000D91C0008E11C0008E91C000800000000D1
:10002000000000000000000000000000F11C0008BB
:10003000FD1C000800000000091D0008151D000837
:1000400011230008112300081123000811230008C0
:1000500011230008112300081123000811230008B0
:1000600011230008112300081123000811230008A0
:100070001123000811230008112300081123000890
:100080001123000811230008112300081123000880
:100090001123000811230008112300081123000870
:1000A0001123000811230008112300081123000860
:1000B000112300081123000811230008311D000836
:1000C000451D000811230008112300081123000812
:1000D0001123000811230008112300081123000830
:1000E000112300081123000811230008000000005C
:1000F0000000000000000000000000000000000000
:0C01000000000000000000005FF808F1A3
:10010C0010B5054C237833B9044B13B10448AFF345
:10011C0000800123237010BD5C0000200000000053
:10012C001051000808B5034B1BB103490348AFF34A
:10013C00008008BD00000000600000201051000885
:10014C0080F0004002E000BF81F0004142001FBF80
:10015C005FEA410392EA030F7FEA226C7FEA236C89
:10016C006AD04FEA1262D2EB1363C1BFD21841407E
:10017C0048404140B8BF5B42192B88BF704710F014
:10018C00004F40F4000020F07F4018BF404211F0B7
:10019C00004F41F4000121F07F4118BF494292EA1F
:1001AC00030F3FD0A2F1010241FA03FC10EB0C004B
:1001BC00C3F1200301FA03F100F0004302D54942D8
:1001CC0060EB4000B0F5000F13D3B0F1807F06D385
:1001DC0040084FEA310102F10102FE2A51D2B1F17D
:1001EC00004F40EBC25008BF20F0010040EA030072
:1001FC007047490040EB0000013A28BFB0F5000FF2
:10020C00EDD2B0FA80FCACF1080CB2EB0C0200FAA7
:10021C000CF0AABF00EBC25052421843BCBFD040F6
:10022C001843704792F0000F81F4000106BF80F470
:10023C0000000132013BB5E74FEA41037FEA226C33
:10024C0018BF7FEA236C21D092EA030F04D092F0FE
:10025C00000F08BF0846704790EA010F1CBF002032
:10026C00704712F07F4F04D1400028BF40F000408F
:10027C00704712F100723CBF00F50000704700F0AF
:10028C00004343F0FE4040F4000070477FEA2262D6
:10029C0016BF08467FEA23630146420206BF5FEAA7
:1002AC00412390EA010F40F4800070474FF00003A7
:1002BC0004E000BF10F0004348BF40425FEA000C6E
:1002CC0008BF704743F0964301464FF000001CE016
:1002DC0050EA010208BF70474FF000030AE000BF6C
:1002EC0050EA010208BF704711F0004302D54042AA
:1002FC0061EB41015FEA010C02BF8446014600201C
:10030C0043F0B64308BFA3F18053A3F50003BCFA36
:10031C008CF2083AA3EBC25310DB01FA02FC6344E3
:10032C0000FA02FCC2F12002BCF1004F20FA02F2EA
:10033C0043EB020008BF20F00100704702F12002DD
:10034C0001FA02FCC2F1200250EA4C0021FA02F23E
:10035C0043EB020008BF20EADC7070474FF0FF0C43
:10036C001CEAD0521EBF1CEAD15392EA0C0F93EA3E
:10037C000C0F6FD01A4480EA010C400218BF5FEAE0
:10038C0041211ED04FF0006343EA501043EA511153
:10039C00A0FB01310CF00040B1F5000F3EBF49004D
:1003AC0041EAD3715B0040EA010062F17F02FD2A51
:1003BC001DD8B3F1004F40EBC25008BF20F0010034
:1003CC00704790F0000F0CF0004C08BF49024CEA4B
:1003DC00502040EA51207F3AC2BFD2F1FF0340EADD
:1003EC00C250704740F400004FF00003013A5DDC4E
:1003FC0012F1190FDCBF00F000407047C2F100028F
:10040C00410021FA02F1C2F1200200FA02FC5FEA7B
:10041C00310040F1000053EA4C0308BF20EADC70C5
:10042C00704792F0000F00F0004C02BF400010F437
:10043C00000F013AF9D040EA0C0093F0000F01F0E4
:10044C00004C02BF490011F4000F013BF9D041EA06
:10045C000C018FE70CEAD15392EA0C0F18BF93EA08
:10046C000C0F0AD030F0004C18BF31F0004CD8D132
:10047C0080EA010000F00040704790F0000F17BFB9
:10048C0090F0004F084691F0000F91F0004F14D0FF
:10049C0092EA0C0F01D142020FD193EA0C0F03D157
:1004AC004B0218BF084608D180EA010000F000405A
:1004BC0040F0FE4040F40000704740F0FE4040F435
:1004CC00400070474FF0FF0C1CEAD0521EBF1CEAD4
:1004DC00D15392EA0C0F93EA0C0F69D0A2EB0302F2
:1004EC0080EA010C49024FEA402037D04FF080538C
:1004FC0043EA111143EA10130CF000408B4238BF51
:10050C005B0042F17D024FF4000C8B4224BF5B1A5E
:10051C0040EA0C00B3EB510F24BFA3EB510340EAAC
:10052C005C00B3EB910F24BFA3EB910340EA9C005A
:10053C00B3EBD10F24BFA3EBD10340EADC001B01CA
:10054C0018BF5FEA1C1CE0D1FD2A3FF650AF8B426E
:10055C0040EBC25008BF20F0010070470CF0004C7B
:10056C004CEA50207F32C2BFD2F1FF0340EAC250A6
:10057C00704740F400004FF00003013A37E792F067
:10058C00000F00F0004C02BF400010F4000F013AC5
:10059C00F9D040EA0C0093F0000F01F0004C02BFC0
:1005AC00490011F4000F013BF9D041EA0C0195E729
:1005BC000CEAD15392EA0C0F08D142027FF47DAFC2
:1005CC0093EA0C0F7FF470AF084676E793EA0C0FB2
:1005DC0004D14B023FF44CAF08466EE730F0004CB0
:1005EC0018BF31F0004CCAD130F000427FF45CAF40
:1005FC0031F000437FF43CAF5FE700BF4FF0FF3CAE
:10060C0006E000BF4FF0010C02E000BF4FF0010C00
:10061C004DF804CD4FEA40024FEA41037FEA226CC9
:10062C0018BF7FEA236C11D001B052EA530C18BFEB
:10063C0090EA010F58BFB2EB030088BFC81738BF50
:10064C006FEAE17018BF40F0010070477FEA226C3E
:10065C0002D15FEA402C05D17FEA236CE4D15FEA3A
:10066C00412CE1D05DF8040B704700BF844608466E
:10067C006146FFE70FB5FFF7C9FF002848BF10F12F
:10068C00000F0FBD4DF808EDFFF7F4FF0CBF012074
:10069C0000205DF808FB00BF4DF808EDFFF7EAFFFE
:1006AC0034BF012000205DF808FB00BF4DF808EDB9
:1006BC00FFF7E0FF94BF012000205DF808FB00BFAE
:1006CC004DF808EDFFF7D2FF94BF012000205DF834
:1006DC0008FB00BF4DF808EDFFF7C8FF34BF012041
:1006EC0000205DF808FB00BF4FEA4002B2F1FE4F5C
:1006FC000FD34FF09E03B3EB12620DD94FEA0023D8
:10070C0043F0004310F0004F23FA02F018BF4042B0
:10071C0070474FF00000704712F1610F01D1420297
:10072C0005D110F0004008BF6FF0004070474FF04B
:10073C000000704780B400AF0F4B9B690E4A43F02A
:10074C00080393610D4B5B680C4A23F07F6323F421
:10075C0070235360094B5B68084A43F04C7343F4B5
:10076C0040335360054BDB68044A43F4E043D360E9
:10077C0000BFBD4680BC704700100240000C014019
:10078C0080B400AF164B9B69154A43F00803936184
:10079C00144B1B68134A23F070431360114B1B68F6
:1007AC00104A43F0004313600E4BDB680D4A43F0D4
:1007BC008003D3600B4B1B680A4A23F070631360F1
:1007CC00084B1B68074A43F000631360054BDB685A
:1007DC00044A43F04003D36000BFBD4680BC704761
:1007EC0000100240000C014080B500AF154B164ABA
:1007FC001A60144B154A5A60124B00229A60114B26
:10080C00AA22DA600F4B4FF480421A610D4B002282
:10081C005A610C4B00229A610A4B0022DA61094B97
:10082C0000221A62074802F0DFF80346002B01D0C1
:10083C0001F0BEF902220649024802F02DFA00BF6F
:10084C0080BD00BF5C01002000540040801A0600EF
:10085C007C00002080B582B000AF7860054B01228F
:10086C001A7002220449054802F016FA00BF083734
:10087C00BD4680BD780000207C0000205C0100207B
:10088C0080B582B000AF78607B681B680C4A9342DD
:10089C0012D10C4B1B690B4A43F400131361094B27
:1008AC001B69084A23F400131361FFF79DFF022212
:1008BC000549064802F0F0F900BF0837BD4680BD77
:1008CC0000540040001002407C0000205C0100201D
:1008DC0080B582B000AF78607B681B68A3F580732D
:1008EC000C2B78D801A252F823F000BF2D09000878
:1008FC003B09000849090008570900086509000868
:10090C0073090008810900088F0900089D09000877
:10091C00AB090008B9090008C7090008D509000887
:10092C007B6807332E49184600F074F854E07B6856
:10093C0007332C49184600F0E3F84DE07B68073389
:10094C002949184600F06EF946E07B6807332749C1
:10095C00184600F023F93FE07B680733244918461A
:10096C0000F0D2F938E07B6807332249184600F0D2
:10097C00EDF931E07B6807331F49184600F05EFA49
:10098C002AE07B6807331D49184600F0CFFA23E0B4
:10099C007B6807331A49184600F00DFB1CE07B6896
:1009AC0007331849184600F04BFB15E07B680733FA
:1009BC001549184600F088FB0EE07B680733134995
:1009CC00184600F0C6FB07E07B6807331049184651
:1009DC0000F004FC00E000BF00BF0837BD4680BD3E
:1009EC0080000020900000209C000020C20000200D
:1009FC00CA000020D0000020E4000020F8000020F5
:100A0C00020100200C010020160100202001002012
:100A1C002A010020B0B582B000AF786039607B68E5
:100A2C001B781B027A680132127813431846FFF7C1
:100A3C0041FC034630491846FFF790FC03461A4622
:100A4C003B681A607B6802331B781BB21B021AB21C
:100A5C007B6803331B781BB213431BB21846FFF79A
:100A6C0029FC034624491846FFF778FC03461A462E
:100A7C003B685A607B6804331B781BB21B021BB2A9
:100A8C001A467B6805331B7813431846FFF712FC94
:100A9C00034619491846FFF761FC03461A463B68A2
:100AAC009A607B6806331B781BB21B021AB27B68F8
:100ABC0007331B781BB213431BB29AB23B689A8163
:100ACC003B681B681846FFF70FFE04463B685B68E3
:100ADC001846FFF709FE05463B689B681846FFF76A
:100AEC0003FE03462A462146044801F0B1FB00BF31
:100AFC000837BD46B0BD00BF0AD7233C28510008BB
:100B0C0080B582B000AF786039607B681B781B02BF
:100B1C007A680132127813431846FFF7CBFB034671
:100B2C001C491846FFF71AFC03461A463B681A6024
:100B3C007B6802331B781BB21B021AB27B6803332F
:100B4C001B781BB213431BB29AB23B689A807B682A
:100B5C0005331B781A463B68DA807B6806331B78B2
:100B6C001BB21B021AB27B6807331B781BB21343F0
:100B7C001BB29AB23B681A813B681B681846FFF798
:100B8C00B3FD03461946044801F062FB00BF083769
:100B9C00BD4680BD0AD7233C7451000880B483B095
:100BAC0000AF786039607B681B781BB21B021AB2ED
:100BBC007B6801331B781BB213431BB29AB23B68A0
:100BCC001A807B6802331B781BB21B021AB27B683B
:100BDC0003331B781BB213431AB23B685A807B68F1
:100BEC0004331B781BB21B021AB27B6805331B78CB
:100BFC001BB213431BB29AB23B689A807B680633D4
:100C0C001B781BB21B021AB27B6807331B781BB212
:100C1C0013431BB29AB23B68DA8000BF0C37BD4657
:100C2C0080BC704780B487B000AF786039607B6857
:100C3C001B781BB21B021AB27B6801331B781BB2E8
:100C4C0013431BB2FB8100237B6112E0FA897B69A1
:100C5C0042FA03F303F00103002B14BF012300231A
:100C6C00D9B23A687B6913440A461A707B6901331E
:100C7C007B617B690F2BE9DD7B6802331B781BB230
:100C8C001B021AB27B6803331B781BB213431BB2D3
:100C9C00BB8100233B6111E0BA893B6942FA03F343
:100CAC0003F001023B691033002A14BF0122002219
:100CBC00D1B23A68D1543B6901333B613B69102B8B
:100CCC00EADD7B6804331B781BB21B021AB27B680B
:100CDC0005331B781BB213431BB29AB23B685A8480
:100CEC007B6806331B781BB21B021AB27B68073376
:100CFC001B781BB213431BB29AB23B689A8400BF99
:100D0C001C37BD4680BC704780B483B000AF7860A0
:100D1C0039607B681A783B681A707B6801331A78E3
:100D2C003B685A707B6802331B781BB21B021AB2E9
:100D3C007B6803331B781BB213431BB29AB23B681C
:100D4C005A8000BF0C37BD4680BC704780B584B05C
:100D5C0000AF786039607B681B781BB21B021AB23B
:100D6C007B6801331B781BB213431BB2FB81FB89DD
:100D7C001846FFF79FFA03462E491846FFF7EEFA7E
:100D8C0003462D491846FFF7DFF903461A463B6820
:100D9C001A607B6802331B781BB21B021AB27B6889
:100DAC0003331B781BB213431BB2BB81BB891846A0
:100DBC00FFF780FA03461F491846FFF7CFFA0346A0
:100DCC001D491846FFF7C0F903461A463B685A609E
:100DDC007B6804331B781BB21B021AB27B68053389
:100DEC001B781BB213431BB27B817B891846FFF720
:100DFC0061FA03460F491846FFF7B0FA03460E494D
:100E0C001846FFF7A1F903461A463B689A607B68BF
:100E1C0006331B781B027A68073212781343184684
:100E2C00FFF748FA02463B68DA6000BF1037BD4650
:100E3C0080BD00BFCDCCCC3D3393884380B584B00E
:100E4C0000AF786039607B681B781BB21B021AB24A
:100E5C007B6801331B781BB213431BB2FB81FB89EC
:100E6C001846FFF727FA03462E491846FFF776FA7D
:100E7C0003462D491846FFF767F903461A463B68A7
:100E8C001A607B6802331B781BB21B021AB27B6898
:100E9C0003331B781BB213431BB2BB81BB891846AF
:100EAC00FFF708FA03461F491846FFF757FA03469F
:100EBC001D491846FFF748F903461A463B685A6025
:100ECC007B6804331B781BB21B021AB27B68053398
:100EDC001B781BB213431BB27B817B891846FFF72F
:100EEC00E9F903460F491846FFF738FA03460E494D
:100EFC001846FFF729F903461A463B689A607B6847
:100F0C0006331B781B027A68073212781343184693
:100F1C00FFF7D0F902463B68DA6000BF1037BD46D8
:100F2C0080BD00BFCDCCCC3D3393884380B483B01F
:100F3C0000AF786039607B681B781BB21B021AB259
:100F4C007B6801331B781BB213431BB29AB23B680C
:100F5C001A807B6802331B781BB21B021AB27B68A7
:100F6C0003331B781BB213431BB29AB23B685A80F3
:100F7C007B6804331B781BB21B021AB27B680533E7
:100F8C001B781BB213431BB29AB23B689A807B68E6
:100F9C0006331B781BB21B021AB27B6807331B7813
:100FAC001BB213431BB29AB23B68DA8000BF0C37FA
:100FBC00BD4680BC704780B483B000AF78603960A8
:100FCC007B681B781BB21B021AB27B6801331B783F
:100FDC001BB213431BB29AB23B681A807B68023374
:100FEC001B781BB21B021AB27B6803331B781BB233
:100FFC0013431BB29AB23B685A807B6804331B784C
:10100C001BB21B021AB27B6805331B781BB213434D
:10101C001BB29AB23B689A807B6806331B781BB272
:10102C001B021AB27B6807331B781BB213431BB22B
:10103C009AB23B68DA8000BF0C37BD4680BC704763
:10104C0080B483B000AF786039607B681B781BB2CA
:10105C001B021AB27B6801331B781BB213431BB201
:10106C009AB23B689A807B6802331B781BB21B02D6
:10107C001AB27B6803331B781BB213431BB29AB2B0
:10108C003B681A807B6804331B781BB21B021AB2B4
:10109C007B6805331B781BB213431AB23B685A802A
:1010AC007B6806331B781BB21B021AB27B680733B2
:1010BC001B781BB213431BB29AB23B68DA8000BF99
:1010CC000C37BD4680BC704780B483B000AF7860ED
:1010DC0039607B681B781BB21B021AB27B68013328
:1010EC001B781BB213431BB29AB23B681A807B6805
:1010FC0002331B781BB21B021AB27B6803331B78BA
:10110C001BB213431BB29AB23B685A807B68043300
:10111C001B781BB21B021AB27B6805331B781BB2FF
:10112C0013431BB29AB23B689A807B6806331B78D8
:10113C001BB21B021AB27B6807331B781BB213431A
:10114C001BB29AB23B68DA8000BF0C37BD4680BC3C
:10115C00704780B483B000AF786039607B681B78CF
:10116C001BB21B021AB27B6801331B781BB21343F0
:10117C001BB29AB23B681A807B6802331B781BB295
:10118C001B021AB27B6803331B781BB213431BB2CE
:10119C009AB23B685A807B6804331B781BB21B02E3
:1011AC001AB27B6805331B781BB213431BB29AB27D
:1011BC003B689A807B6806331B781BB21B021AB201
:1011CC007B6807331B781BB213431BB29AB23B6884
:1011DC00DA8000BF0C37BD4680BC704780B483B04A
:1011EC0000AF786039607B681B781BB21B021AB2A7
:1011FC007B6801331B781BB213431BB29AB23B685A
:10120C001A807B6802331B781BB21B021AB27B68F4
:10121C0003331B781BB213431BB29AB23B685A8040
:10122C007B6804331B781BB21B021AB27B68053334
:10123C001B781BB213431BB29AB23B689A807B6833
:10124C0006331B781BB21B021AB27B6807331B7860
:10125C001BB213431BB29AB23B68DA8000BF0C3747
:10126C00BD4680BC7047000080B400AF124B9B6938
:10127C00114A43F008039361104B1B680F4A23F487
:10128C00804323F0440313600C4B1B680B4A43F45C
:10129C00405343F033031360084BDB68074A43F0B9
:1012AC000B03D360054BDB68044A23F00203D360C5
:1012BC0000BFBD4680BC704700100240000C0140CE
:1012CC0090B5ADF6040D00AF07F50063A3F2FC7307
:1012DC0018600023C7F8FC3700F05CFEC7F8E8077D
:1012EC0007F50063A3F2FC731B68C7F8E437D7F863
:1012FC00E837002B06D007F50063A3F2FC731B68DC
:10130C00002B01D10023F7E0D7F8E827D7F8E43712
:10131C00B2FBF3F3C7F8E0370123C7F8F837C0E0A6
:10132C000123C7F8F437B2E00123C7F8F037A4E083
:10133C00D7F8F427D7F8F03713440133C7F8DC3764
:10134C00D7F8F837D7F8DC2702FB03F3D7F8E027F8
:10135C009A4240F08D80D7F8F407FEF7A7FF0346BA
:10136C004FF07E511846FEF7F1FE03461C46D7F8A7
:10137C00DC07FEF79BFF034619462046FFF7A2F851
:10138C00034660491846FEF7E9FF0346C7F8D8370D
:10139C005D49D7F8D807FFF793F90346002B67D0C0
:1013AC005A49D7F8D807FFF781F90346002B5FD0CD
:1013BC000123C7F8EC3755E0D7F8F83798B207F5A2
:1013CC000063A3F5FF61D7F8FC2713469B00134479
:1013DC009B000B4402461A8007F50063A3F5FF61DE
:1013EC00D7F8FC2713469B0013449B000B44043393
:1013FC00D7F8F4271A6007F50063A3F5FF61D7F857
:10140C00FC2713469B0013449B000B440833D7F86E
:10141C00F0271A60D7F8EC1707F50063A3F5FF6007
:10142C00D7F8FC2713469B0013449B0003440C3352
:10143C00196007F50063A3F5FF61D7F8FC27134685
:10144C009B0013449B000B441033D7F8D8271A6029
:10145C00D7F8FC370133C7F8FC37D7F8EC37013332
:10146C00C7F8EC37D7F8EC37D7F8F0279A42A3D265
:10147C00D7F8F0370133C7F8F037D7F8F037082B27
:10148C007FF656AFD7F8F4370133C7F8F437D7F8EF
:10149C00F437102B7FF648AFD7F8F8370133C7F87D
:1014AC00F837D7F8F837B3F5806F7FF639AF184BAC
:1014BC00DA6907F50063A3F5FF631B88013B194646
:1014CC0007F50063A3F5FF63DB68013B1B061943BB
:1014DC0007F50063A3F5FF635B68013B1B0419432D
:1014EC0007F50063A3F5FF639B68013B1B050B43EA
:1014FC0007491343CB610123184607F60407BD4681
:10150C0090BD00BF0000C84200008C420000A04209
:10151C000064004080B400AF194BDB69184A43F0FB
:10152C000073D361164B9B69154A43F00103936119
:10153C00134B9B69124A43F008039361114B5B6890
:10154C00104A23F0F00353600E4B5B680D4A23F0F6
:10155C000F0353600B4B5B680A4A43F00403536060
:10156C00084B5B68074A43F0B0035360064B5B685B
:10157C00054A43F48043536000BFBD4680BC7047AE
:10158C0000100240000C01400000014080B582B008
:10159C0000AF7860FFF7BEFF2E4B1B682D4A23F07F
:1015AC00200313602B4B1B682A4A23F002031360A1
:1015BC00284B1B68274A43F00103136000BF254BDF
:1015CC005B6803F00103002BF9D07868FFF778FE15
:1015DC00204B1B681F4A23F00103136000BF1D4BF7
:1015EC005B6803F00103002BF9D11A4BD3F80032DE
:1015FC00184A43F00103C2F80032164B0022C3F81C
:10160C001C22144B0022C3F80422124B0122C3F8F3
:10161C000C22104B0022C3F814220E4B0022C3F8EC
:10162C0040220C4B0022C3F844220A4BD3F81C3244
:10163C00084A43F00103C2F81C32064BD3F80032BF
:10164C00044A23F00103C2F800320123184608377C
:10165C00BD4680BD0064004090B486B000AF3C46EF
:10166C0084E80F00494B9B6803F0E0533B61002377
:10167C007B613B6903F08063002B02D000237B610C
:10168C000EE03B6903F00063002B02D001237B6169
:10169C0006E03B6903F08053002B01D002237B61F1
:1016AC003A4A7B6918331B01134400221A603B79B8
:1016BC00002B0FD1354A7B6918331B0113441A6870
:1016CC003B685B0531491A437B6918331B010B449A
:1016DC001A6010E02D4A7B6918331B0113441A68F9
:1016EC003B68DB001343294943F004027B69183340
:1016FC001B010B441A60BB79244903F00F027B6970
:10170C0018331B010B4404331A60204A7B691833CD
:10171C001B0113441B681D4943F002027B691833FB
:10172C001B010B441A60194A7B6918331B011344C3
:10173C0004331B68154923F00F027B6918331B0116
:10174C000B4404331A60114A7B6918331B01134490
:10175C0004331B68BA790D491A437B6918331B0192
:10176C000B4404331A60094A7B6918331B01134478
:10177C001B68064943F001027B6918331B010B44BB
:10178C001A6000BF1837BD4690BC7047006400401B
:10179C0080B483B000AF0346FB71FB79002B09D1F9
:1017AC000B4BDB6803F00303002B14BF0123002356
:1017BC00DBB208E0064B1B6903F00303002B14BFDC
:1017CC0001230023DBB218460C37BD4680BC7047A2
:1017DC000064004080B485B000AF78600B46FB70AD
:1017EC00444AFB781B331B0113441B68DBB203F028
:1017FC000403DAB27B681A717B681B79002B0BD15E
:10180C003C4AFB781B331B0113441B685B0DC3F371
:10181C000A027B681A600AE0364AFB781B331B010C
:10182C0013441B68DB0823F060427B681A60314A62
:10183C00FB781B331B0113441B68DBB203F0020360
:10184C00DAB27B685A712B4AFB781B331B011344A9
:10185C0004331B68DBB203F00F03DAB27B689A71B6
:10186C000023FB7327E0FB7B032B10D8214AFB786A
:10187C001B01134403F5DC731A68FB7BDB00DA40B5
:10188C00FB7BD1B27A6813440A46DA7110E0194A2C
:10189C00FB781B01134403F5DE731A68FB7B043BD6
:1018AC00DB00DA40FB7BD1B27A6813440A46DA716A
:1018BC00FB7B0133FB737B689B79FA7B9A42D2D317
:1018CC00FB78002B06D10B4BDB680A4A43F0200354
:1018DC00D36008E0FB78012B05D1064B1B69054A48
:1018EC0043F020031361012318461437BD4680BC16
:1018FC00704700BF0064004080B400AF0D4B9B6983
:10190C000C4A43F0080393610B4B5B680A4A23F0C3
:10191C0070435360084B5B68074A43F04053536075
:10192C00054BDB68044A43F40043D36000BFBD465B
:10193C0080BC704700100240000C014080B500AF25
:10194C00174800F085FC174800F082FC164800F0A0
:10195C007FFC00F0A1FA0346144AA2FB03239B0C64
:10196C001946134800F074FC00F014FB03460F4AB0
:10197C00A2FB03239B0C19460E4800F069FC00F0F7
:10198C002FFB0346094AA2FB03239B0C19460A486A
:10199C0000F05EFC044800F05BFC00BF80BD00BFA3
:1019AC0088510008B4510008D851000883DE1B434D
:1019BC0000520008185200083052000880B588B058
:1019CC0002AF00F0A1FC00F011FA4FF4E13000F08E
:1019DC00BFFB0346002B01D100F0EAF84FF4E131D4
:1019EC00644800F035FC644800F032FC4FF4E13000
:1019FC0000F058FB0346002B01D100F0D9F8FFF79B
:101A0C009DFF4FF4E1315D4800F022FC5A4800F094
:101A1C001FFC4FF47A7000F099F9594800F018FC4B
:101A2C00554800F015FC5748FFF7B0FD0346002B56
:101A3C0007D1554800F00CFC544800F009FC00F0AC
:101A4C00B7F84FF4FA71524800F002FC4A4800F023
:101A5C00FFFB00F0F1FA4F4800F0FAFB464800F0AB
:101A6C00F7FBFEF767FE4C4B9B681B0B03F0010169
:101A7C00494B9B685B0B03F00102474B9B689B0B2C
:101A8C0003F00103454800F0E3FB3B4800F0E0FBAA
:101A9C00FFF732FF404B9B68DB0B03F00103194649
:101AAC003F4800F0D5FB344800F0D2FBFFF7DCFBDD
:101ABC00394B9B6803F00101374B9B685B0803F0C3
:101ACC000102354B9B68DB0803F00100324B9B682D
:101ADC005B0903F0010300930346324800F0B8FBA6
:101AEC00254800F0B5FBFEF74BFE2F4B1B683B6106
:101AFC000023FB750223BB75FB7D5B0018333B4455
:101B0C0033F8083C3B6000233B710823BB71002376
:101B1C00FB713B460FCBFFF79FFD0020FFF738FE14
:101B2C000346002B0BD03B4600211846FFF752FE14
:101B3C003B461846FEF7CCFE1C4800F089FB012002
:101B4C00FFF726FE0346002B0BD0184800F080FB55
:101B5C003B4601211846FFF73DFE3B461846FEF773
:101B6C00B7FEFB7D0133FB75FB7D012BC4D9002334
:101B7C00FB75C1E7A4520008DC520008185300089A
:101B8C005053000820A107007C5300089C53000808
:101B9C00D853000810540008000C014030540008C1
:101BAC006C54000898540008E4540008E0540008F1
:101BBC0080B400AF00BFBD4680BC704780B485B018
:101BCC0000AF154B9B69144A43F001039361124B10
:101BDC009B6903F00103BB60BB680F4BDB690E4ACA
:101BEC0043F08053D3610C4BDB6903F080537B6073
:101BFC007B680A4B5B68FB60FB6823F0E063FB606F
:101C0C00FB6843F08063FB60044AFB68536000BFD1
:101C1C001437BD4680BC70470010024000000140E4
:101C2C0080B588B000AF786007F1100300221A600D
:101C3C005A609A60DA607B681B681D4A934233D104
:101C4C001C4B9B691B4A43F008039361194B9B691E
:101C5C0003F00803FB60FB68C0233B6112237B612C
:101C6C000323FB6107F110031946134800F038FDFC
:101C7C00104BDB690F4A43F40013D3610D4BDB6946
:101C8C0003F40013BB60BB68002200211F2000F08E
:101C9C006AFC1F2000F083FC00220021202000F0B1
:101CAC0062FC202000F07BFC00BF2037BD4680BDCD
:101CBC000054004000100240000C014080B400AF02
:101CCC0000BFFDE780B400AF00BFFDE780B400AFFC
:101CDC0000BFFDE780B400AF00BFFDE780B400AFEC
:101CEC0000BFFDE780B400AF00BFBD4680BC7047AD
:101CFC0080B400AF00BFBD4680BC704780B400AF5D
:101D0C0000BFBD4680BC704780B500AF00F042FB01
:101D1C00034B1B680133024A136000BF80BD00BF38
:101D2C00B001002080B500AF024801F023F800BFDD
:101D3C0080BD00BF5C01002080B500AF024801F0FF
:101D4C008AF900BF80BD00BF5C01002080B582B065
:101D5C0000AF786000F0A0F802467B68B2FBF3F3AA
:101D6C00064A013B5360054B00229A60034B072245
:101D7C001A6000BF0837BD4680BD00BF10E000E010
:101D8C0080B586B000AF7860144A154BD31A7B61CE
:101D9C007B693B61134B1B68002B02D1114B124A20
:101DAC001A60104B1A687B6813443A699A4207D23E
:101DBC0002F022FD03460C221A604FF0FF3309E0BB
:101DCC00084B1B68FB60074B1A687B681344054A79
:101DDC001360FB6818461837BD4680BD00500020C4
:101DEC0000040000B4010020A803002080B400AF60
:101DFC00274B1B68264A43F48033136000BF244BE7
:101E0C001B6803F40033002BF9D0224B1B68214ACA
:101E1C0043F0040313601F4B1B681E4A43F010036E
:101E2C0013601B4B5B681A4A43F4E0135360184B66
:101E3C005B68174A43F480335360154B5B68144A54
:101E4C0043F480635360124B5B68114A23F4605374
:101E5C0053600F4B1B680E4A43F08073136000BF36
:101E6C000B4B1B6803F00073002BF9D0084B5B681D
:101E7C00074A43F00203536000BF054B5B6803F055
:101E8C000C03082BF9D100BF1846BD4680BC704727
:101E9C00001002400020024080B487B000AF264BF7
:101EAC00BB60254B7B60254B5B689B0803F00303F1
:101EBC003B603B68022B0DD03B68022B35D83B684E
:101ECC00002B03D03B68012B02D02EE07B682DE069
:101EDC00BB682BE0194B5B6803F48033002B10D0EC
:101EEC00164B5B6803F40033002B02D002233B61DA
:101EFC0001E001233B61BA683B69B2FBF3F3FB6081
:101F0C0002E07B685B08FB600C4B5B689B0C03F08E
:101F1C000F0302337B617B690F2B01D110237B6193
:101F2C00FB687A6902FB03F300E07B6818461C37F8
:101F3C00BD4680BC704700BF00127A000010024002
:101F4C00B0B592B000AF114B3C1D1D460FCD0FC468
:101F5C000FCD0FC40FCD0FC495E80F0084E80F0010
:101F6C000B4B5B681B0903F00F037B64FFF794FFBB
:101F7C0002467B6C9B0048333B4453F8443CB2FB19
:101F8C00F3F318464837BD46B0BD00BFE85400080F
:101F9C0000100240B0B58AB000AF0F4B3C1D1D467F
:101FAC000FCD0FC495E80F0084E80F000B4B5B6856
:101FBC001B0A03F007037B62FFF7C2FF02467B6A32
:101FCC009B0028333B4453F8243CB2FBF3F31846F4
:101FDC002837BD46B0BD00BF285500080010024090
:101FEC00B0B58AB000AF0F4B3C1D1D460FCD0FC4D2
:101FFC0095E80F0084E80F000B4B5B68DB0A03F0DD
:10200C0007037B62FFF79CFF02467B6A9B00283329
:10201C003B4453F8243CB2FBF3F318462837BD4637
:10202C00B0BD00BF285500080010024080B400AFBE
:10203C0000BFBD4680BC704780B483B000AF0023A6
:10204C007B6024E0164A7B681B01134400221A6053
:10205C00134A7B681B011344043300221A60104A94
:10206C007B681B0113440C3300221A700C4A7B68EA
:10207C001B011344083300221A60094A7B681B01B8
:10208C0013440D3300221A707B6801337B607B682C
:10209C00092BD7DD00BF00BF0C37BD4680BC704795
:1020AC00B801002080B584B000AF7860254B9B69E7
:1020BC00244A43F004039361224B9B69214A43F465
:1020CC0080439361204B5B681F4A23F47F6353600A
:1020DC001D4B5B681C4A43F0B00353601A4B5B68A2
:1020EC00194A43F480635360184B0022DA60FFF7FF
:1020FC0077FFF860FB68002B02D07B68002B01D1C6
:10210C0000231BE07B685A08FB681A447B68B2FB0F
:10211C00F3F3BB600D4ABB6893600C4BDB680B4A56
:10212C0043F4005343F00C03D360084BDB6803F417
:10213C000053002B01D1002300E001231846103777
:10214C00BD4680BD0010024000080140003801402F
:10215C0080B485B000AF7860234B9B69224A43F072
:10216C0008039361204BDB691F4A43F48023D3613E
:10217C001E4B5B681D4A23F4706353601B4B5B68FA
:10218C001A4A43F440735360184B5B68174A43F484
:10219C0000635360154B5B68144A23F4704353601F
:1021AC00124B5B68114A43F480435360104B00227E
:1021BC00DA60104BFB607B685A08FB681A447B683A
:1021CC00B2FBF3F3BB600A4ABB689360084BDB6855
:1021DC00074A43F4005343F00C03D3600123184621
:1021EC001437BD4680BC704700100240000C014003
:1021FC00004800400051250280B485B000AF7860E3
:10220C0039600023FB600FE000BF104B1B6803F02C
:10221C008003002BF9D07A68FB6813441A780B4BB7
:10222C005A60FB680133FB60FA683B689A42EBD357
:10223C0000BF064B1B6803F04003002BF9D000BF16
:10224C0000BF1437BD4680BC704700BF004800403B
:10225C000FB480B5C2B000AF07F58A7207F584736E
:10226C00A3F584731A6007F58473A3F58473381D82
:10227C001B68D7F810214FF4807102F0AFFAC7F841
:10228C000401D7F80431002B0FDDD7F80431B3F576
:10229C00807F03D94FF48073C7F80431D7F8042139
:1022AC003B1D11461846FFF7A7FF00BF07F58477C3
:1022BC00BD46BDE8804004B070470000FFF7B6FE95
:1022CC000B480C490C4A002302E0D458C450043388
:1022DC00C4188C42F9D3094A094C002301E013605D
:1022EC000432A242FBD302F08DFAFFF767FB704772
:1022FC00000000205C0000208C5500085C000020D1
:10230C00A4030020FEE7000080B500AF084B1B685B
:10231C00074A43F010031360032000F019F90F2053
:10232C0000F008F8FFF74AFC0023184680BD00BFF8
:10233C000020024080B582B000AF7860124B1A6862
:10234C00124B1B7819464FF47A73B3FBF1F3B2FBC3
:10235C00F3F3184600F031F90346002B01D00123AA
:10236C000EE07B680F2B0AD8002279684FF0FF3003
:10237C0000F0F9F8064A7B681360002300E00123A3
:10238C0018460837BD4680BD00000020080000201C
:10239C000400002080B400AF054B1B781A46054B97
:1023AC001B681344034A136000BFBD4680BC7047D2
:1023BC00080000205802002080B485B000AF78607F
:1023CC007B6803F00703FB600C4BDB68BB60BA68EF
:1023DC004FF6FF031340BB60FB681A02BB68134344
:1023EC0043F0BF6343F40033BB60044ABB68D36063
:1023FC0000BF1437BD4680BC704700BF00ED00E045
:10240C0080B400AF044BDB681B0A03F007031846CB
:10241C00BD4680BC704700BF00ED00E080B483B0C7
:10242C0000AF0346FB7197F90730002B0BDBFB79F0
:10243C0003F01F02064997F907305B09012000FAE7
:10244C0002F241F8232000BF0C37BD4680BC704718
:10245C0000E100E080B483B000AF03463960FB714B
:10246C0097F90730002B0ADB3B68DAB20C4997F975
:10247C0007301201D2B20B4483F800230AE03B6808
:10248C00DAB20849FB7903F00F03043B1201D2B214
:10249C000B441A7600BF0C37BD4680BC704700BF9A
:1024AC0000E100E000ED00E080B489B000AFF8601E
:1024BC00B9607A60FB6803F00703FB61FB69C3F149
:1024CC000703042B28BF0423BB61FB690433062BD1
:1024DC0002D9FB69033B00E000237B614FF0FF3224
:1024EC00BB6902FA03F3DA43BB681A407B699A4072
:1024FC004FF0FF317B6901FA03F3D9437B680B4042
:10250C00134318462437BD4680BC704780B582B053
:10251C0000AF78607B68013BB3F1807F01D301236E
:10252C000FE00A4A7B68013B53600F214FF0FF30EC
:10253C00FFF790FF054B00229A60044B07221A60AC
:10254C00002318460837BD4680BD00BF10E000E0F0
:10255C0080B582B000AF78607868FFF72DFF00BFC0
:10256C000837BD4680BD80B586B000AF0346B96064
:10257C007A60FB7300237B61FFF742FF78617A6816
:10258C00B9687869FFF790FF024697F90F3011464A
:10259C001846FFF75FFF00BF1837BD4680BD80B5FA
:1025AC0082B000AF0346FB7197F907301846FFF76E
:1025BC0035FF00BF0837BD4680BD80B582B000AF87
:1025CC0078607868FFF7A2FF034618460837BD46C7
:1025DC0080BD000080B584B000AF78600023FB7331
:1025EC007B6893F82130DBB2022B05D07B68042288
:1025FC009A630123FB7351E07B681B681A687B6844
:10260C001B6822F00E021A607B681B681A687B68D4
:10261C001B6822F001021A607B681B68224A9342F5
:10262C0029D07B681B68214A934222D07B681B68A7
:10263C001F4A93421AD07B681B681E4A934212D0E1
:10264C007B681B681C4A93420AD07B681B681B4A38
:10265C00934202D14FF480130EE04FF080730BE0E5
:10266C004FF4803308E04FF4805305E04FF480734F
:10267C0002E0102300E00123114A53607B68012221
:10268C0083F821207B68002283F820207B685B6B19
:10269C00002B03D07B685B6B78689847FB7B1846F4
:1026AC001037BD4680BD00BF080002401C00024030
:1026BC003000024044000240580002406C000240CE
:1026CC000000024080B483B000AF78607B6893F860
:1026DC002130DBB218460C37BD4680BC7047000079
:1026EC0080B48BB000AF7860396000237B6200232C
:1026FC003B6269E101227B6A02FA03F3FB613B68EE
:10270C001B68FA691340BB61BA69FB699A4240F0D5
:10271C0058813B685B689A4A93425ED0984A9342D0
:10272C0075D8984A934258D0964A93426FD8964A95
:10273C00934252D0944A934269D8944A93424CD0D3
:10274C00924A934263D8924A934246D0904A93421B
:10275C005DD8122B2AD8122B59D801A252F823F08B
:10276C00E7270008C1270008D32700081528000810
:10277C001B2800081B2800081B2800081B28000821
:10278C001B2800081B2800081B2800081B28000811
:10279C001B2800081B2800081B2800081B28000801
:1027AC001B280008C9270008DD270008794A934236
:1027BC0013D02CE03B68DB683B6229E03B68DB68AC
:1027CC0004333B6224E03B68DB6808333B621FE068
:1027DC003B68DB680C333B621AE03B689B68002B60
:1027EC0002D104233B6213E03B689B68012B05D1AB
:1027FC0008233B627B68FA691A6109E008233B6293
:10280C007B68FA695A6103E000233B6200E000BF79
:10281C00BB69FF2B01D87B6801E07B6804337B61CB
:10282C00BB69FF2B02D87B6A9B0002E07B6A083BEA
:10283C009B003B617B691A680F213B6901FA03F32A
:10284C00DB431A40396A3B6901FA03F31A437B698B
:10285C001A603B685B6803F08053002B00F0B1807A
:10286C004D4B9B694C4A43F0010393614A4B9B6966
:10287C0003F00103BB60BB68484A7B6A9B080233C8
:10288C0052F82330FB607B6A03F003039B000F229A
:10289C0002FA03F3DB43FA681340FB607B68404A9F
:1028AC00934213D07B683F4A93420DD07B683E4ADB
:1028BC00934207D07B683D4A934201D1032306E043
:1028CC00042304E0022302E0012300E000237A6ADF
:1028DC0002F0030292009340FA681343FB602F4905
:1028EC007B6A9B080233FA6841F823203B685B68DB
:1028FC0003F48013002B06D02D4B9A682C49BB692E
:10290C0013438B6006E02A4B9A68BB69DB4328496A
:10291C0013408B603B685B6803F40013002B06D0FC
:10292C00234BDA682249BB691343CB6006E0204B8A
:10293C00DA68BB69DB431E491340CB603B685B68BC
:10294C0003F40033002B06D0194B5A681849BB69A5
:10295C0013434B6006E0164B5A68BB69DB431449C2
:10296C0013404B603B685B6803F48033002B21D031
:10297C000F4B1A680E49BB6913430B6021E000BF73
:10298C000000321000003110000022100000211055
:10299C000000121000001110001002400000014055
:1029AC0000080140000C01400010014000140140DF
:1029BC00000401400B4B1A68BB69DB430949134007
:1029CC000B607B6A01337B623B681A687B6A22FA74
:1029DC0003F3002B7FF48EAE00BF00BF2C37BD4637
:1029EC0080BC70470004014080B584B000AF7860B3
:1029FC007B68002B01D101232BE17B6893F83D30E0
:102A0C00DBB2002B06D17B68002283F83C2078686F
:102A1C00FFF706F97B68242283F83D207B681B684E
:102A2C001A687B681B6822F001021A607B681B68BD
:102A3C001A687B681B6842F400421A607B681B684A
:102A4C001A687B681B6822F400421A6001F084FE4D
:102A5C00F8607B685B68814A934207D8FB68804AC0
:102A6C00934294BF01230023DBB206E0FB687D4A4E
:102A7C00934294BF01230023DBB2002B01D001232E
:102A8C00E7E0FB68784AA2FB03239B0CBB607B68E6
:102A9C001B685B6823F03F017B681B68BA680A43BC
:102AAC005A607B681B681B6A23F03F017B685B687C
:102ABC006A4A934202D8BB68013309E0BB684FF401
:102ACC00967202FB03F3694AA2FB03239B090133B1
:102ADC007A6812680B4313627B681B68DB6923F40A
:102AEC004F4222F0FF027B685B685C498B4219D82D
:102AFC00FB68591E7B685B685B00B1FBF3F3591CE8
:102B0C0040F6FC730B40002B0AD0FB68591E7B6807
:102B1C005B685B00B1FBF3F30133C3F30B0351E0D0
:102B2C0004234FE07B689B68002B11D1FB68581E77
:102B3C007B6859680B465B000B44B0FBF3F3013325
:102B4C00C3F30B03002B0CBF01230023DBB212E0F9
:102B5C00FB68581E7B6859680B469B000B44990018
:102B6C000B44B0FBF3F30133C3F30B03002B0CBF8B
:102B7C0001230023DBB2002B01D0012322E07B6870
:102B8C009B68002B0ED1FB68581E7B6859680B465E
:102B9C005B000B44B0FBF3F30133C3F30B0343F4BF
:102BAC0000430FE0FB68581E7B6859680B469B007E
:102BBC000B4499000B44B0FBF3F30133C3F30B0349
:102BCC0043F44043796809681343CB617B681B6805
:102BDC001B6823F0C0017B68DA697B681B6A1A43A7
:102BEC007B681B680A431A607B681B689B6823F42C
:102BFC00034323F0FF037A6811697A68D2681143A2
:102C0C007A6812680B4393607B681B68DB6823F05F
:102C1C00FF017B685A697B689B691A437B681B6858
:102C2C000A43DA607B681B681A687B681B6842F091
:102C3C0001021A607B6800221A647B68202283F8E8
:102C4C003D207B6800221A637B68002283F83E20BB
:102C5C00002318461037BD4680BD00BFA08601007A
:102C6C007F841E00FF083D0083DE1B43D34D6210A2
:102C7C0080B483B000AF78607B681B685B6903F03D
:102C8C008003802B03D17B681B6800221A6100BF74
:102C9C000C37BD4680BC704780B485B000AFF8607F
:102CAC00B9601346FB80FB6893F83D30DBB2202BF8
:102CBC0058D1BB68002B02D0FB88002B01D101231B
:102CCC0051E0FB6893F83C30012B01D102234AE020
:102CDC00FB68012283F83C20FB681B681B6803F02F
:102CEC000103012B07D0FB681B681A68FB681B6883
:102CFC0042F001021A60FB681B681A68FB681B68CB
:102D0C0022F400621A60FB68222283F83D20FB68E3
:102D1C00202283F83E20FB6800221A64FB68BA6804
:102D2C005A62FB68FA885A85FB685B8D9AB2FB681D
:102D3C001A85FB680E4ADA62FB681B681A68FB6826
:102D4C001B6842F480621A60FB68002283F83C2006
:102D5C00FB681B685A68FB681B6842F4E0625A60A7
:102D6C00002300E0022318461437BD4680BC704790
:102D7C000000FFFF80B588B000AF78600023BB6116
:102D8C007B681B685B687B617B68DB6A3B617B688B
:102D9C0093F83E30FB737B6893F83D30BB73FB7B41
:102DAC00102B03D0FB7B402B40F0C1807B681B6851
:102DBC009B69BB617B681B685B69FB61FB6903F00A
:102DCC000103002B0DD13B69B3F52A0F03D03B69EE
:102DDC00B3F12A4F01D1012300E00023012B00F0B5
:102DEC003281FB6903F00103002B0CD07B695B0A79
:102DFC0003F00103002B06D0786801F089FC786899
:102E0C0000F087FD92E0FB69DB0803F00103002B67
:102E1C0009D07B695B0A03F00103002B03D07868AF
:102E2C0000F0FCFD82E0FB695B0803F00103002B62
:102E3C0009D07B695B0A03F00103002B03D078688F
:102E4C0000F015FE72E0BB699B0803F00103002B38
:102E5C003BD07B681B685B6803F40063B3F5006FC1
:102E6C0000F0F380FB69DB0903F00103002B0FD0AA
:102E7C007B699B0A03F00103002B09D0FB699B08BB
:102E8C0003F00103002B03D1786800F0DFF94DE06B
:102E9C00FB699B0803F00103002B00F0D6807B69D3
:102EAC005B0A03F00103002B00F0CF80BB7B212BCE
:102EBC0003D1786800F066FAC7E0FB7B402B40F04A
:102ECC00C480786800F0D4FABFE07B681B685B684C
:102EDC0003F40063B3F5006F00F0B780FB699B0946
:102EEC0003F00103002B0FD07B699B0A03F0010355
:102EFC00002B09D0FB699B0803F00103002B03D1C5
:102F0C00786800F04DFB11E0FB699B0803F00103AE
:102F1C00002B00F09A807B695B0A03F00103002B05
:102F2C0000F09380786800F003FC8EE08DE07B6805
:102F3C001B6C002B04D07B681B685B69FB6107E092
:102F4C007B681B689B69BB617B681B685B69FB6169
:102F5C00FB695B0803F00103002B12D07B695B0A51
:102F6C0003F00103002B0CD07B681B6C002B03D0EF
:102F7C007B681B689B69BB61B969786800F0CEFF00
:102F8C0066E0FB691B0903F00103002B09D07B6988
:102F9C005B0A03F00103002B03D0786801F008F8FA
:102FAC0056E0BB7B212B02D0BB7B292B25D1FB69A7
:102FBC00DB0903F00103002B0FD07B699B0A03F0A4
:102FCC000103002B09D0FB699B0803F00103002BC4
:102FDC0003D1786800F0E6FE39E0FB699B0803F04A
:102FEC000103002B33D07B695B0A03F00103002B38
:102FFC002DD0786800F013FF29E0FB699B0903F0E2
:10300C000103002B0FD07B699B0A03F00103002BFB
:10301C0009D0FB699B0803F00103002B03D17868EE
:10302C0000F01DFF14E0FB699B0803F00103002B6B
:10303C000ED07B695B0A03F00103002B08D0786883
:10304C0000F04BFF04E000BF02E000BF00E000BF57
:10305C002037BD4680BD80B58AB000AF78607B68F4
:10306C001B685B693B627B681B685B68FB610023C8
:10307C007B627B6893F83E30FB763B6A1B0A03F05D
:10308C000103002B16D0FB691B0A03F00103002B74
:10309C0010D07B6A43F001037B627B681B686FF482
:1030AC0080725A617B681B681A687B681B6842F4E3
:1030BC0000421A603B6A5B0A03F00103002B0ED03E
:1030CC00FB691B0A03F00103002B08D07B6A43F059
:1030DC0002037B627B681B686FF400725A613B6A67
:1030EC009B0A03F00103002B3FD0FB691B0A03F082
:1030FC000103002B39D0FB7EBB767B685B8D9BB2CA
:10310C007B617B6893F83D30FB747B681B6BFB60C9
:10311C00BB7E202B12D17B69002B0FD1FB7C212B8A
:10312C0008D0FB7C292B05D0FB7C282B06D1FB6817
:10313C00212B03D1786801F06BF816E07B681B68D3
:10314C006FF480625A617B6A43F004037B62FB7EFE
:10315C00102B02D0FB7E402B07D17B681B681A68B2
:10316C007B681B6842F400721A603B6ADB0A03F04E
:10317C000103002B0ED0FB691B0A03F00103002B8B
:10318C0008D07B6A43F008037B627B681B686FF492
:10319C0000625A617B6A002B08D07B681A6C7B6AD0
:1031AC001A437B681A64786801F0A6F800BF2837C8
:1031BC00BD4680BD80B483B000AF786000BF0C37D3
:1031CC00BD4680BC704780B483B000AF786000BF50
:1031DC000C37BD4680BC704780B483B000AF7860BC
:1031EC0000BF0C37BD4680BC704780B483B000AFC5
:1031FC0078600B46FB7013463B8000BF0C37BD4616
:10320C0080BC704780B483B000AF786000BF0C37CF
:10321C00BD4680BC704780B483B000AF786000BFFF
:10322C000C37BD4680BC704780B483B000AF78606B
:10323C0000BF0C37BD4680BC704780B483B000AF74
:10324C00786000BF0C37BD4680BC704780B584B039
:10325C0000AF78607B6893F83D30FB737B6893F824
:10326C003E30BB737B68DB6ABB607B681B8D002BBD
:10327C0050D1FB7B212B4DD1BB68082B1DD0BB68DB
:10328C00202B1AD0BB6813F5803F16D07B681B68C7
:10329C005A687B681B6822F4E0625A607B681122D2
:1032AC001A637B68002283F83E207B68202283F817
:1032BC003D207868FFF77EFF60E07B681B685A68EA
:1032CC007B681B6822F4E0625A607B681B681A6892
:1032DC007B681B6842F400721A607B6800221A63D8
:1032EC007B68202283F83D207B6893F83E30DBB26C
:1032FC00402B07D17B68002283F83E207868FFF7CB
:10330C008AFF3BE07B68002283F83E207868FFF759
:10331C0051FF33E0FB7B212B05D0BB7B402B2DD108
:10332C00FB7B222B2AD17B685B8D9BB2002B08D1B7
:10333C007B681B685A687B681B6822F480625A6041
:10334C001CE07B6893F83E30DBB2402B03D17868ED
:10335C0000F08EF812E07B685B6A1A787B681B6859
:10336C001A617B685B6A5A1C7B685A627B685B8D4E
:10337C009BB2013B9AB27B685A85FFE700BF1037BE
:10338C00BD4680BD80B584B000AF78607B68DB6AD9
:10339C00FB607B6893F83D30DBB2212B64D17B68FA
:1033AC005B8D9BB2002B12D07B685B6A1A787B68B2
:1033BC001B681A617B685B6A5A1C7B685A627B6863
:1033CC005B8D9BB2013B9AB27B685A854CE0FB68E3
:1033DC00082B1DD0FB68202B1AD0FB6813F5803FFF
:1033EC0016D07B681B685A687B681B6822F4E06205
:1033FC005A607B6811221A637B68002283F83E2096
:10340C007B68202283F83D207868FFF7D3FE2BE001
:10341C007B681B685A687B681B6822F4E0625A6000
:10342C007B681B681A687B681B6842F400721A6020
:10343C007B6800221A637B68202283F83D207B681E
:10344C0093F83E30DBB2402B07D17B68002283F827
:10345C003E207868FFF7DFFE06E07B68002283F8E9
:10346C003E207868FFF7A6FE00BF1037BD4680BD32
:10347C0080B584B000AF78607B6893F83D30FB7307
:10348C007B681B6D002B1DD17B68DB6C012B0BD17A
:10349C007B689B6CDAB27B681B681A617B681B6D5E
:1034AC009A1C7B681A6577E07B689B6C9BB21B123D
:1034BC00DAB27B681B681A617B681B6D5A1C7B68CF
:1034CC001A6569E07B681B6D012B0BD17B689B6CCB
:1034DC00DAB27B681B681A617B681B6D5A1C7B68AF
:1034EC001A6559E07B681B6D022B52D1FB7B222B9A
:1034FC000DD17B681B681A687B681B6842F480726C
:10350C001A607B681B6D5A1C7B681A6544E07B68EB
:10351C005B8D9BB2002B15D0FB7B212B12D17B68D2
:10352C005B6A1A787B681B681A617B685B6A5A1C39
:10353C007B685A627B685B8D9BB2013B9AB27B685D
:10354C005A8529E07B685B8D9BB2002B24D1FB7BD9
:10355C00212B21D17B681B685A687B681B6822F47D
:10356C00E0625A607B681B681A687B681B6842F4CF
:10357C0000721A607B6800221A637B68202283F831
:10358C003D207B68002283F83E207868FFF743FEDD
:10359C0002E07868FFF76CFB00BF1037BD4680BDBA
:1035AC0080B584B000AF78607B6893F83D30DBB2B7
:1035BC00222B40F0B9807B68DB6AFB607B685B8DFB
:1035CC009BB2BB60BB68032B21D97B681B681A6953
:1035DC007B685B6AD2B21A707B685B6A5A1C7B6828
:1035EC005A627B685B8D9BB2013B9AB27B685A85B1
:1035FC007B685B8D9BB2032B40F096807B681B68CD
:10360C005A687B681B6822F480625A608CE07B6885
:10361C00DB6A022B7FD0BB68012B02D0BB68002B6E
:10362C0079D1786801F042F80346002B4CD17B68C5
:10363C001B681A687B681B6822F480621A607B68BE
:10364C001B685A687B681B6822F4E0625A607B68CE
:10365C001B681A697B685B6AD2B21A707B685B6AFA
:10366C005A1C7B685A627B685B8D9BB2013B9AB299
:10367C007B685A857B68202283F83D207B6893F811
:10368C003E30DBB2402B0AD17B68002283F83E200F
:10369C007B6800221A637868FFF7C6FD44E07B68FC
:1036AC00002283F83E20FB68082B02D0FB68202BFD
:1036BC0003D17B6800221A6302E07B6812221A6332
:1036CC007868FFF780FD2FE07B681B685A687B6881
:1036DC001B6822F4E0625A607B681B681A697B687D
:1036EC005B6AD2B21A707B685B6A5A1C7B685A623E
:1036FC007B685B8D9BB2013B9AB27B685A857B6879
:10370C00202283F83D207B68002283F83E207868D5
:10371C00FDF7B6F808E07B681B685A687B681B6885
:10372C0022F480625A60FFE700BF1037BD4680BDAF
:10373C0080B584B000AF78607B68DB6AFB607B6827
:10374C005B8D9BB2042B1BD17B681B685A687B6812
:10375C001B6822F480625A607B681B681A697B685C
:10376C005B6AD2B21A707B685B6A5A1C7B685A62BD
:10377C007B685B8D9BB2013B9AB27B685A85C4E037
:10378C007B685B8D9BB2032B29D17B681B685A68C5
:10379C007B681B6822F480625A60FB68042B0AD099
:1037AC00FB68022B07D07B681B681A687B681B6858
:1037BC0022F480621A607B681B681A697B685B6AFA
:1037CC00D2B21A707B685B6A5A1C7B685A627B683F
:1037DC005B8D9BB2013B9AB27B685A8595E07B6806
:1037EC005B8D9BB2022B7DD1FB68012B02D0FB6859
:1037FC00102B08D17B681B681A687B681B6822F445
:10380C0080621A6016E0FB68042B02D0FB68022B66
:10381C0008D17B681B681A687B681B6842F480625D
:10382C001A6007E07B681B681A687B681B6842F4A7
:10383C0000721A607B681B681A697B685B6AD2B27B
:10384C001A707B685B6A5A1C7B685A627B685B8D5A
:10385C009BB2013B9AB27B685A857B681B681A69DC
:10386C007B685B6AD2B21A707B685B6A5A1C7B6895
:10387C005A627B685B8D9BB2013B9AB27B685A851E
:10388C007B681B685A687B681B6822F440725A601C
:10389C007B68202283F83D207B6893F83E30DBB2B6
:1038AC00402B0AD17B68002283F83E207B680022E3
:1038BC001A637868FFF7B8FC27E07B68002283F86E
:1038CC003E20FB68082B02D0FB68202B03D17B68C1
:1038DC0000221A6302E07B6812221A637868FFF7F1
:1038EC0072FC12E07B681B681A697B685B6AD2B257
:1038FC001A707B685B6A5A1C7B685A627B685B8DAA
:10390C009BB2013B9AB27B685A8500BF1037BD460B
:10391C0080BD80B483B000AF78607B6893F83E3094
:10392C00DBB2402B17D17B681B6D002B09D17B6858
:10393C005B6CDBB21A467B681B6802F0FE021A61F4
:10394C0067E07B685B6CDBB243F00103DAB27B6847
:10395C001B681A615DE07B681B69B3F5804F33D13E
:10396C007B6893F83D30DBB2212B09D17B685B6C13
:10397C00DBB21A467B681B6802F0FE021A6108E093
:10398C007B685B6CDBB243F00103DAB27B681B68CB
:10399C001A617B685B6B002B04D07B685B6B9B6A4A
:1039AC00002B08D17B689B6B002B32D07B689B6B08
:1039BC009B6A002B2DD07B681B685A687B681B6840
:1039CC0042F400625A6024E07B681B6D002B0ED120
:1039DC007B685B6C9BB2DB11DBB203F00603DBB2E2
:1039EC0063F00F03DAB27B681B681A6111E07B6825
:1039FC001B6D012B0DD17B685B6C9BB2DB11DBB2B9
:103A0C0003F00603DBB263F00E03DAB27B681B68CB
:103A1C001A6100BF0C37BD4680BC704780B483B0C0
:103A2C0000AF78607B685B6CDAB27B681B681A61EC
:103A3C007B685B6B002B04D07B685B6B9B6A002BF9
:103A4C0008D17B689B6B002B0CD07B689B6B9B6AB3
:103A5C00002B07D07B681B685A687B681B6842F494
:103A6C0000625A6000BF0C37BD4680BC704780B402
:103A7C0091B000AF78607B6893F83E3087F83F30A8
:103A8C007B68DB6ABB637B681B6B7B637B6893F82F
:103A9C003D30DBB2222B40F074817B681B6D002B18
:103AAC000FD197F83F30402B0BD100233B637B6841
:103ABC001B685B693B637B681B689B693B633B6B67
:103ACC006BE17B681B6D002B1DD17B681B69B3F50B
:103ADC00404F18D10023FB627B681B685B69FB625B
:103AEC007B681B689B69FB62FB6A7B681B681A68B6
:103AFC007B681B6842F480721A607B681B6D5A1CD1
:103B0C007B681A6549E17B685B8D9BB2002B13D1F6
:103B1C000023BB627B681B685B69BB627B681B68AC
:103B2C009B69BB62BB6A7B681B681A687B681B68F5
:103B3C0042F400721A6020E17B685B8D9BB2012B12
:103B4C0040F08A80BB6B13F5803F37D17B681B68D4
:103B5C001A687B681B6822F480621A607B681B6899
:103B6C005B6803F40063B3F5006F13D17B681B68CB
:103B7C001A687B681B6822F480621A6000237B62DF
:103B8C007B681B685B697B627B681B689B697B62DB
:103B9C007B6AF2E000233B627B681B685B693B62DB
:103BAC007B681B689B693B623B6A7B681B681A6875
:103BBC007B681B6842F400721A60DEE0BB6B082B5A
:103BCC002ED0BB6B202B2BD07B6B122B02D1BB6B63
:103BDC00012B25D1BB6B042B0ED0BB6B022B0BD056
:103BEC00BB6B102B08D07B681B681A687B681B6842
:103BFC0022F480621A6007E07B681B681A687B6895
:103C0C001B6842F480621A600023FB617B681B68AE
:103C1C005B69FB617B681B689B69FB61FB69ACE0C2
:103C2C007B681B681A687B681B6822F480621A60C8
:103C3C000023BB617B681B685B69BB617B681B688D
:103C4C009B69BB61BB697B681B681A687B681B68D6
:103C5C0042F400721A6090E07B685B8D9BB2022B81
:103C6C0058D1BB6B042B21D0BB6B022B1ED0BB6B72
:103C7C00102B1BD07B681B681A687B681B6842F48E
:103C8C0000621A6000237B617B681B685B697B6147
:103C9C007B681B689B697B617B697B681B681A6806
:103CAC007B681B6822F480621A6012E07B681B68D8
:103CBC001A687B681B6842F480621A6000233B61BF
:103CCC007B681B685B693B617B681B689B693B611C
:103CDC003B697B681B685B6803F40063B3F5006F9A
:103CEC004BD1BB6B13F5803F0BD0BB6B012B08D0BA
:103CFC00BB6B082B05D0BB6B102B02D0BB6B202BE6
:103D0C003BD17B681B685A687B681B6842F4805205
:103D1C005A6032E07B681B681A687B681B6842F447
:103D2C0080621A607B681B685B6803F40063B3F500
:103D3C00006F17D1BB6B13F5803F0BD0BB6B012B06
:103D4C0008D0BB6B082B05D0BB6B102B02D0BB6B08
:103D5C00202B07D17B681B685A687B681B6842F470
:103D6C0080525A600023FB607B681B685B69FB60B8
:103D7C007B681B689B69FB60FB687B6800221A658B
:103D8C000BE00023BB607B681B685B69BB607B68D6
:103D9C001B689B69BB60BB68FFE700BF4437BD462F
:103DAC0080BC704780B584B000AF78607B6893F8B6
:103DBC003D30FB737B685B8D9BB2002B2BD07B68FB
:103DCC005B6A1A787B681B681A617B685B6A5A1C91
:103DDC007B685A627B685B8D9BB2013B9AB27B68B5
:103DEC005A857B685B8D9BB2002B14D1FB7B292BF6
:103DFC0011D17B681B685A687B681B6822F480624F
:103E0C005A607B6821221A637B68282283F83D2044
:103E1C007868FFF7E1F900BF1037BD4680BD80B46C
:103E2C0083B000AF78607B685B8D9BB2002B11D0A8
:103E3C007B685B6A1A787B681B681A617B685B6AB3
:103E4C005A1C7B685A627B685B8D9BB2013B9AB2B1
:103E5C007B685A8500BF0C37BD4680BC704780B567
:103E6C0084B000AF78607B6893F83D30FB737B685F
:103E7C005B8D9BB2002B2CD07B681B681A697B680E
:103E8C005B6AD2B21A707B685B6A5A1C7B685A6296
:103E9C007B685B8D9BB2013B9AB27B685A857B68D1
:103EAC005B8D9BB2002B14D1FB7B2A2B11D17B6831
:103EBC001B685A687B681B6822F480625A607B68B6
:103ECC0022221A637B68282283F83D207868FCF74D
:103EDC00C1FC00BF1037BD4680BD80B483B000AFBD
:103EEC0078607B685B8D9BB2002B12D07B681B6863
:103EFC001A697B685B6AD2B21A707B685B6A5A1C5F
:103F0C007B685A627B685B8D9BB2013B9AB27B6883
:103F1C005A8500BF0C37BD4680BC704780B584B055
:103F2C0000AF786039600023FB737B6893F83D30F9
:103F3C00DBB203F02803282B27D17B681B685A6857
:103F4C007B681B6822F480625A603B689B0803F014
:103F5C000103002B01D10123FB733B68DB0903F048
:103F6C000103002B03D17B68DB68BB8102E07B681B
:103F7C009B69BB817B68002283F83C20BA89FB7B60
:103F8C0019467868FFF731F90EE00023BB607B68B7
:103F9C001B685B69BB607B681B689B69BB60BB680B
:103FAC007B68002283F83C2000BF1037BD4680BDE3
:103FBC0080B584B000AF78607B6893F83D30FB73BC
:103FCC007B681B685A687B681B6822F4E0625A6045
:103FDC000023BB607B681B685B69BB607B681B68EC
:103FEC001A687B681B6842F001021A60BB687B6828
:103FFC001B681A687B681B6822F480621A607B68F5
:10400C001B685B6803F40063B3F5006F72D1FB7B34
:10401C00222B02D0FB7B2A2B35D17B689B6B1B6838
:10402C005B689AB27B685A857B685B8D9BB2002B70
:10403C0005D07B681B6C43F004027B681A647B68B8
:10404C001B685A687B681B6822F400625A607B68A4
:10405C009B6B1846FEF736FB0346012B49D07B6859
:10406C009B6B694A5A637B689B6B1846FEF7B2FAE6
:10407C000346002B3DD07B689B6B5B6B7A68926B25
:10408C001046984735E07B685B6B1B685B689AB29F
:10409C007B685A857B685B8D9BB2002B05D07B6857
:1040AC001B6C43F004027B681A647B681B685A68BB
:1040BC007B681B6822F400625A607B685B6B184655
:1040CC00FEF700FB0346012B14D07B685B6B4E4A5A
:1040DC005A637B685B6B1846FEF77CFA0346002B31
:1040EC0008D07B685B6B5B6B7A68526B10469847A9
:1040FC0000E000BF7B685B8D9BB2002B3ED07B68E1
:10410C001B685B6903F00403042B12D17B681B68EA
:10411C001A697B685B6AD2B21A707B685B6A5A1C3C
:10412C007B685A627B685B8D9BB2013B9AB27B6861
:10413C005A857B681B685B6903F04003402B12D1E6
:10414C007B681B681A697B685B6AD2B21A707B68E1
:10415C005B6A5A1C7B685A627B685B8D9BB2013B25
:10416C009AB27B685A857B685B8D9BB2002B05D01D
:10417C007B681B6C43F004027B681A647B681B6CC5
:10418C00002B03D0786800F0B7F839E0FB7B2A2BC2
:10419C0009D17B6800221A637B68282283F83D20B2
:1041AC007868FCF757FB7B6893F83D30DBB2282B23
:1041BC0011D17B68154ADA627B6800221A637B682E
:1041CC00202283F83D207B68002283F83E2078680B
:1041DC00FFF718F814E07B681B6B222B02D0FB7BDB
:1041EC00222B0DD17B6800221A637B68202283F876
:1041FC003D207B68002283F83E207868FCF72AFB80
:10420C0000BF1037BD4680BD694500080000FFFFA8
:10421C0080B584B000AF78607B6893F83D30FB7359
:10422C007B68DB6ABB60BB68082B02D0BB68202BA9
:10423C0029D1FB7B282B26D17B682E4ADA627B683E
:10424C001B685A687B681B6822F4E0625A607B68C2
:10425C001B686FF480625A617B681B681A687B6804
:10426C001B6822F480621A607B6800221A637B68E8
:10427C00202283F83D207B68002283F83E2078685A
:10428C00FEF7C0FF31E0FB7B212B29D17B68194A5B
:10429C00DA627B6821221A637B68202283F83D2036
:1042AC007B68002283F83E207B681B685A687B6819
:1042BC001B6822F4E0625A607B681B686FF48062B2
:1042CC005A617B681B681A687B681B6822F48062E1
:1042DC001A607868FEF7CCFC7868FEF77DFF04E086
:1042EC007B681B686FF480625A6100BF1037BD4653
:1042FC0080BD00BF0000FFFF80B584B000AF7860C8
:10430C007B6893F83D30FB737B6893F83E30BB734E
:10431C00BB7B102B02D0BB7B402B0AD1FB7B222B0F
:10432C0007D17B681B681A687B681B6822F40062E3
:10433C001A60FB7B03F02803282B07D17B68002233
:10434C001A637B68282283F83D2015E07B681B6884
:10435C005B6803F40063B3F5006F0AD0FB7B602B42
:10436C0007D07B68202283F83D207B68002283F8ED
:10437C003E207B6800221A637B681B685B6803F431
:10438C000063B3F5006F62D17B681B685A687B6869
:10439C001B6822F400625A607B685B6B93F82130D7
:1043AC00DBB2012B20D07B685B6B6A4A5A637B685B
:1043BC005B6B1846FEF70EF90346002B00F0898064
:1043CC007B681B681A687B681B6822F001021A6004
:1043DC007B68202283F83D207B685B6B5B6B7A6883
:1043EC00526B1046984774E07B689B6B594A5A6332
:1043FC007B689B6B1846FEF7EDF80346002B68D0E4
:10440C007B681B685B6903F04003402B0BD17B6816
:10441C001B681A697B685B6AD2B21A707B685B6A2C
:10442C005A1C7B685A627B681B681A687B681B681D
:10443C0022F001021A607B68202283F83D207B6801
:10444C009B6B5B6B7A68926B1046984741E07B687C
:10445C0093F83D30DBB2602B25D17B68202283F8AA
:10446C003D207B6800221A647B681B685B6903F043
:10447C004003402B0BD17B681B681A697B685B6A15
:10448C00D2B21A707B685B6A5A1C7B685A627B6872
:10449C001B681A687B681B6822F001021A60786836
:1044AC00FEF7CBFE15E07B681B685B6903F04003ED
:1044BC00402B0BD17B681B681A697B685B6AD2B294
:1044CC001A707B685B6A5A1C7B685A627868FCF7C6
:1044DC00D7F97B681B6CBB60BB6803F00103002B36
:1044EC000ED1BB6803F00203002B09D1BB6803F0AB
:1044FC000403002B04D1BB6803F00803002B07D086
:10450C007B681B685A687B681B6822F4E0625A60FF
:10451C007B6893F83D30FB737B681B6C03F00403E2
:10452C00042B13D1FB7B282B10D17B680A4ADA624F
:10453C007B6800221A637B68202283F83D207B680D
:10454C00002283F83E207868FEF75CFE00BF10372F
:10455C00BD4680BD694500080000FFFF80B586B0F0
:10456C0000AF78600023FB607B685B6A7B617B69D2
:10457C0093F83D30FB744B4B1B68DB084A4AA2FB9B
:10458C0003231A0A13469B001344DA00D31AFB6068
:10459C00FB68002B06D17B691B6C43F020027B6906
:1045AC001A640AE0FB68013BFB607B691B681B68B3
:1045BC0003F40073B3F5007FEAD07B695B6B002BCF
:1045CC0003D07B695B6B00229A627B699B6B002B2F
:1045DC0003D07B699B6B00229A627B691B681A680B
:1045EC007B691B6822F480621A607B6900225A8501
:1045FC007B695B6B002B03D07B695B6B00225A637E
:10460C007B699B6B002B03D07B699B6B00225A63ED
:10461C007B691B681A687B691B6822F001021A60AF
:10462C007B6993F83D30DBB2602B0ED17B69202285
:10463C0083F83D207B69002283F83E207B690022B1
:10464C001A647869FEF7F9FD27E0FB7C03F0280378
:10465C00282B17D17B691B681A687B691B6842F091
:10466C0001021A607B691B681A687B691B6842F43B
:10467C0080621A607B6900221A637B69282283F8A6
:10468C003D2007E07B69202283F83D207B690022D6
:10469C0083F83E207869FCF7F3F800BF1837BD4665
:1046AC0080BD00BF0000002089B5F81480B485B02F
:1046BC0000AF78600023FB60134B1B68DB08134AC8
:1046CC00A2FB03231A0A13469B001344FB60FB68EE
:1046DC00013BFB60FB68002B07D17B681B6C43F034
:1046EC0020027B681A64012308E07B681B681B6846
:1046FC0003F40073B3F5007FE9D000231846143798
:10470C00BD4680BC704700BF0000002089B5F8147E
:10471C0080B483B000AF78607B68DB6AB3F52A0F96
:10472C0003D17B680122DA6207E07B68DB6AB3F1B4
:10473C002A4F02D17B680822DA6200BF0C37BD46D3
:10474C0080BC704780B400AF024B1B681846BD4656
:10475C0080BC70470000002080B500AFFFF7F2FF6F
:10476C000246054B5B681B0A03F007030349CB5C4D
:10477C0022FA03F3184680BD001002404855000889
:10478C0030B51446002C05461A469BB005DA8B232F
:10479C0003604FF0FF301BB030BD4FF40273ADF827
:1047AC000C304FF0000319930CBF234604F1FF3378
:1047BC00029305934FF6FF7300910491ADF80E3000
:1047CC0069461E9B00F096F9431CBCBF8B232B60E3
:1047DC00002CE0D00022009B1A70DCE707B5009398
:1047EC0013460A46014603480068FFF7C9FF03B0A9
:1047FC005DF804FB0C000020014B1868704700BFEB
:10480C000C00002070B500260C4D0D4C641BA41040
:10481C00A64209D100F076FC00260A4D0A4C641B16
:10482C00A410A64205D170BD55F8043B984701363B
:10483C00EEE755F8043B98470136F2E7845500083B
:10484C008455000884550008885500087047704747
:10485C0038B50546002940D051F8043C0C1F002BFC
:10486C00B8BFE41800F0DEF81C4A136833B9636073
:10487C0014602846BDE8384000F0DAB8A34208D9E5
:10488C00206821188B4201BF19685B6809182160E8
:10489C00EDE71A465B680BB1A342FAD911685018C0
:1048AC00A0420BD120680144501883421160E0D122
:1048BC0018685B68084410605360DAE702D90C236F
:1048CC002B60D6E7206821188B4201BF19685B6802
:1048DC000918216063605460CBE738BDA003002049
:1048EC0070B50F4E0C463168054611B900F0A8FBA7
:1048FC0030602146284600F0A3FB431C03D14FF047
:10490C00FF34204670BDC41C24F00304A042F8D030
:10491C00211A284600F094FB0130F2D1EFE700BFDA
:10492C009C0300202DE9F843CD1C25F00305083528
:10493C000C2D38BF0C25002D064601DBA94204D9ED
:10494C000C2333600020BDE8F883DFF8D48000F03E
:10495C0069F8D8F800301C4644BB29463046FFF7AE
:10496C00BFFF431C044658D1D8F800402746002FFF
:10497C0043D1002C4BD023683946304604EB030955
:10498C0000F05EFB814542D1216830466D1A294604
:10499C00FFF7A6FF01303AD023682B442360D8F8E8
:1049AC0000305A6862BBC8F800700FE02268521BD6
:1049BC0020D40B2A17D96119A342256018BF59605E
:1049CC00636808BFC8F8001062514B60304600F0B5
:1049DC002FF804F10B00231D20F00700C21A1CBF96
:1049EC001B1AA350AFE76268A3420CBFC8F80020A3
:1049FC005A60EBE723466468AEE73C467F68B6E74F
:104A0C001A465B68A342FBD100235360DEE70C23FC
:104A1C003046336000F00CF894E70560D6E700BF31
:104A2C00A00300200148FFF711BF00BF980300202E
:104A3C000148FFF70CBF00BF980300202DE9F04799
:104A4C001F468E688246BE420C4690460B682DD897
:104A5C00B1F90C2012F4906F26D06569096905EB49
:104A6C004505A3EB010905EBD5757B1C4B446D107B
:104A7C009D4238BF1D46530527D52946FFF752FFE7
:104A8C00064660B34A46216900F0F8FAA38923F47C
:104A9C00906343F08003A38126614E4426603E461A
:104AAC006561A5EB0905A560BE4200D93E463246BC
:104ABC004146206800F0AAFA0020A3689B1BA36063
:104ACC00236833442360BDE8F0872A4600F0E4FAFB
:104ADC0006460028E0D150462169FFF7B9FE0C23A9
:104AEC00CAF80030A3894FF0FF3043F04003A38194
:104AFC00E9E700002DE9F04F98468B8907461B0625
:104B0C000D4614469DB010D50B6973B94021FFF7C3
:104B1C0009FF2860286130B90C233B604FF0FF304F
:104B2C001DB0BDE8F08F40236B6100230993202357
:104B3C008DF8293030234FF00109CDF80C80DFF8C7
:104B4C0098818DF82A3023469A4613F8012B0AB126
:104B5C00252AF9D1BAEB040B0BD05B462246294629
:104B6C003846FFF76BFF013000F0A780099A5A44D2
:104B7C0009929AF80030002B00F09F8000234FF030
:104B8C00FF32CDE905230AF1010A049307938DF84E
:104B9C0053301A935446052214F8011B4E4800F06A
:104BAC005FFA049AD8B9D00644BF20238DF853304D
:104BBC00110744BF2B238DF853309AF800302A2B61
:104BCC0015D0544600204FF00A0C079A214611F8D4
:104BDC00013B303B092B4BD9B0B1079214E0A0EB51
:104BEC00080309FA03F31343A2460493D2E7039B89
:104BFC00191D1B680391002BBBBF5B4242F00202E4
:104C0C0007930793B8BF049223782E2B0AD16378AD
:104C1C002A2B32D1039B02341A1D1B68039243EAE0
:104C2C00E3730593DFF8B4A003225046217800F01B
:104C3C0017FA38B14022049BA0EB0A0082401343C0
:104C4C000134049314F8011B062225488DF8281012
:104C5C0000F006FA002836D0224B1BBB039B07330F
:104C6C0023F0070308330393099B334409936AE742
:104C7C000C4601200CFB0232A8E700234FF00A0C73
:104C8C00194601340593204610F8012B303A092AB5
:104C9C0003D9002BC6D00591C4E7044601230CFBB5
:104CAC000121F0E703AB00932A4638460E4B04A9CA
:104CBC00AFF30080421C0646D6D1AB895B063FF5AC
:104CCC002DAF09982CE703AB00932A463846064BC8
:104CDC0004A900F07DF8EDE7505500085655000882
:104CEC005A55000800000000494A00082DE9F04719
:104CFC00164698468A680B6907469342B8BF134616
:104D0C00336091F843200C46DDF820900AB1013352
:104D1C0033602368990642BF3368023333602568D9
:104D2C0015F0060506D104F1190AE36832689B1ADE
:104D3C00AB422BDC94F843302268003B18BF0123B4
:104D4C00920630D44146384604F14302C84701303C
:104D5C0023D02368226903F00603042B14BF00251B
:104D6C0033684FF0000608BFE56804F11A0408BF69
:104D7C00ED1A54F8123C08BF25EAE5759342C4BFFE
:104D8C009B1AED18B5421AD1002008E001235246B7
:104D9C0041463846C847013003D14FF0FF30BDE8DB
:104DAC00F0870135C1E73020E11881F843005A1C27
:104DBC0094F845102244023382F84310C2E70123D1
:104DCC00224641463846C8470130E6D00136D9E77D
:104DDC002DE9FF470F7E9146782F80460C469A4668
:104DEC000C9E01F1430207D8622F0AD8002F00F065
:104DFC00D180582F00F0B88004F1420684F842703C
:104E0C003AE0A7F16303152BF6D801A151F823F072
:104E1C00754E0008894E0008054E0008054E000826
:104E2C00054E0008054E0008894E0008054E000886
:104E3C00054E0008054E0008054E0008874F000877
:104E4C00B34E0008414F0008054E0008054E0008FF
:104E5C00A94F0008054E0008B34E0008054E000887
:104E6C00054E0008494F000833681A1D1B68326054
:104E7C0004F1420684F8423001239CE03368206838
:104E8C00191D3160060601D51D6803E04506FBD5EA
:104E9C00B3F90050002D03DA2D236D4284F8433012
:104EAC000A23584811E021683368080653F8045B5C
:104EBC0002D4490648BFADB26F2F336014BF0A232A
:104ECC0008235048002184F843106668002EA66021
:104EDC0005DB21682E4321F0040121604BD01646DE
:104EEC00B5FBF3F103FB1157C75D06F8017D2F46A7
:104EFC00BB420D46F4D9082B0BD12368DF0708D52C
:104F0C00236961689942DEBF302306F8013C06F143
:104F1C00FF36921B22614B4621464046CDF800A03D
:104F2C0003AAFFF7E3FE01304AD14FF0FF3004B083
:104F3C00BDE8F087236843F02003236078273248CC
:104F4C0084F84570236831681F0651F8045B02D45D
:104F5C005F0648BFADB23160D90744BF43F02003B0
:104F6C0023601DB11023ADE72648E9E7236823F041
:104F7C0020032360F6E71646BDE733682568181D45
:104F8C00616930602E061B6801D5196002E0680665
:104F9C00FBD51980002316462361BCE7336800213A
:104FAC001A1D32601E686268304600F059F808B16C
:104FBC00801B606063682361002384F84330AAE798
:104FCC003246494640462369D0470130ADD023686C
:104FDC009B0713D4E068039B9842B8BF1846A6E71A
:104FEC000123324649464046D04701309DD0013519
:104FFC00E36803995B1AAB42F2DCEBE7002504F1A2
:10500C001906F5E76155000872550008884210B57D
:10501C0001EB020402D98442234607D8431EA14265
:10502C0008D011F8012B03F8012FF8E701460244D0
:10503C008A4200D110BD13F8014D02F8014DF7E77B
:10504C0038B50023054D044608462B60FCF798FE46
:10505C00431C02D12B6803B1236038BD940300209C
:10506C00034610B5C9B202449342184601D1002040
:10507C0003E0047801338C42F6D110BD0A4491420E
:10508C0000F1FF3300D1704710B511F8014B91427C
:10509C0003F8014FF9D110BD2DE9F0410746144634
:1050AC000D4621B91146BDE8F041FFF73BBC2AB9CA
:1050BC00FFF7CEFB25462846BDE8F08100F01AF834
:1050CC008442064602D8B4EB500FF4D82146384639
:1050DC00FFF728FC804608B94546ECE7B442224667
:1050EC00294628BF3246FFF7C9FF29463846FFF745
:1050FC00AFFBF1E751F8043C181F002BBCBF0B5859
:10510C00C0187047F8B500BFF8BC08BC9E46704785
:0C511C00F8B500BFF8BC08BC9E46704708
:10512800546F74616C5F566F6C746167653D25647C
:10513800204368617267655F616E645F4469736389
:1051480068617267655F43757272656E743D256448
:105158002052656D61696E696E675F436170616356
:105168006974793D25640A0D0000000046756C6C71
:105178005F43617061636974793D256420000000B4
:105188000D0A3D3D3D3D3D3D3D3D3D3D3D3D3D3DAA
:105198003D3D3D3D3D3D3D3D3D3D3D3D3D3D3D3D37
:1051A8003D3D3D3D3D3D3D0D0A0000004556412039
:1051B80044524956455F4D4F44455F53454C45431E
:1051C800544F5220262048564143200D0A00000023
:1051D8003D3D3D3D3D3D3D3D3D3D3D3D3D3D3D3DF7
:1051E8003D3D3D3D3D3D3D3D3D3D3D3D3D3D3D3DE7
:1051F8003D3D3D3D3D0D0A0053797374656D204377
:105208006C6F636B3A20256C75204D487A0D0A0047
:105218004150423120436C6F636B3A20256C7520F6
:105228004D487A0D0A0000004150423220436C6F0D
:10523800636B3A20256C75204D487A0D0A000000F2
:105248005B494E464F5D20436F6E666967757269AC
:105258006E672043414E2066696C746572732066E0
:105268006F7220435434204D4355206D657373612C
:105278006765732E2E2E0D0A00000000A1000000A5
:10528800AE000000AF000000B30000004050261838
:105298004050271857329618000000C05541525404
:1052A8003320696E697469616C697A6174696F6EBB
:1052B800206973206F6B202C626175645F62617571
:1052C800647261746520696E206B62707320256456
:1052D8003A0D0A003D3D3D3D3D3D3D3D3D3D3D3D99
:1052E8003D3D3D3D3D3D3D3D3D3D3D3D3D3D3D3DE6
:1052F8003D3D3D3D3D3D3D3D3D3D3D3D3D3D3D3DD6
:105308003D3D3D3D3D3D3D3D3D3D3D3D3D0D0A0065
:10531800554152543120696E697469616C697A61CA
:1053280074696F6E206973206F6B202C62617564DD
:105338005F626175647261746520696E206B62706A
:10534800732025643A0D0A007379737469636B20BE
:10535800636C6F636B20696E697469616C697A65E7
:105368006420666F72206D696C6C69207365636F69
:105378006E64200043414E20696E697469616C69EE
:105388007A6174696F6E206973204E4F54206F4B99
:105398000D0A00003D3D3D3D3D3D3D3D3D3D3D3D12
:1053A8003D3D3D3D3D3D3D3D3D3D3D3D3D3D3D3D25
:1053B8003D3D3D3D3D3D3D3D3D3D3D3D3D3D3D3D15
:1053C8003D3D3D3D3D3D3D3D3D3D0D0A000000005C
:1053D80043414E20696E697469616C697A617469C8
:1053E8006F6E206973206F6B202C626175645F6239
:1053F8006175647261746520696E202564206B6232
:1054080070733A0D0A0000005461736B207363686F
:105418006564756C617220697320696E697469616D
:105428006C697A65640D0A00426C6F77657220704A
:10543800696E732061726520696E697469616C694F
:105448007A65642050494E31323D25642050494EDA
:1054580031333D25642050494E31343D25640D0AD1
:1054680000000000436F6E64656E736F7220706990
:105478006E732061726520696E697469616C697AFE
:1054880065642050494E31353D2564200D0A0000E1
:105498004D6F746F725F636F6E74726F6C2070699A
:1054A8006E732061726520696E697469616C697ACE
:1054B80065642050494E303D25642050494E313DA9
:1054C8002564202050494E333D25642050494E35EF
:1054D8003D25640D0A0000000A00000000010101DA
:1054E80001000000010000000100000001000000B0
:1054F80001000000010000000100000001000000A0
:105508000200000004000000080000001000000075
:1055180040000000800000000001000000020000C0
:10552800010000000100000001000000010000006F
:105538000200000004000000080000001000000045
:105548000000000001020304232D302B2000686CAA
:105558004C0065666745464700303132333435368E
:1055680037383941424344454600303132333435C7
:0C557800363738396162636465660000F4
:0455840031010008E9
:045588000D01000809
:10558C0000127A0010000000010000001000002042
:10559C00000000005C020020C40200202C0300204C
:1055AC0000000000000000000000000000000000EF
:1055BC0000000000000000000000000000000000DF
:1055CC0000000000000000000000000000000000CF
:0C55DC00000000000000000000000000C3
:04000005080022C904
:00000001FF
