:020000040800F2
:1000000000500020A14B00088D41000895410008D8
:100010009D410008A5410008AD4100080000000016
:10002000000000000000000000000000B5410008D2
:10003000C141000800000000CD410008D94100087E
:10004000E94B0008E94B0008E94B0008E94B0008C0
:10005000E94B0008E94B0008E94B0008E94B0008B0
:10006000E94B0008E94B0008E94B0008E94B0008A0
:10007000E94B0008E94B0008E94B0008E94B000890
:10008000E94B0008E94B0008E94B0008E94B000880
:10009000E94B0008E94B0008E94B0008E94B000870
:1000A000E94B0008E94B0008E94B0008E94B000860
:1000B000E94B0008E94B0008E94B00084142000801
:1000C00055420008E94B0008E94B0008E94B0008DD
:1000D000E94B0008E94B0008E94B0008E94B000830
:1000E000E94B0008E94B0008E94B0008000000005C
:1000F0000000000000000000000000000000000000
:0C01000000000000000000005FF808F1A3
:1001100010B5054C237833B9044B13B10448AFF341
:1001200000800123237010BDF801002000000000B2
:10013000489D000808B5034B1BB103490348AFF3C2
:10014000008008BD00000000FC010020489D000860
:10015000034613F8012B002AFBD1181A0138704707
:1001600081F0004102E000BF83F0004330B54FEA68
:1001700041044FEA430594EA050F08BF90EA020FD5
:100180001FBF54EA000C55EA020C7FEA645C7FEA68
:10019000655C00F0E2804FEA5454D4EB5555B8BF8B
:1001A0006D420CDD2C4480EA020281EA030382EAFC
:1001B000000083EA010180EA020281EA0303362D8E
:1001C00088BF30BD11F0004F4FEA01314FF4801C61
:1001D0004CEA113102D0404261EB410113F0004F73
:1001E0004FEA03334CEA133302D0524263EB43032A
:1001F00094EA050F00F0A780A4F10104D5F1200EC8
:100200000DDB02FA0EFC22FA05F2801841F1000122
:1002100003FA0EF2801843FA05F359410EE0A5F1F6
:1002200020050EF1200E012A03FA0EFC28BF4CF027
:10023000020C43FA05F3C01851EBE37101F00045DD
:1002400007D54FF0000EDCF1000C7EEB00006EEBEA
:100250000101B1F5801F1BD3B1F5001F0CD3490874
:100260005FEA30004FEA3C0C04F101044FEA4452CB
:1002700012F5800F80F09A80BCF1004F08BF5FEA52
:10028000500C50F1000041EB045141EA050130BD32
:100290005FEA4C0C404141EB0101013C28BFB1F544
:1002A000801FE9D291F0000F04BF01460020B1FA8F
:1002B00081F308BF2033A3F10B03B3F120020CDA62
:1002C0000C3208DD02F1140CC2F10C0201FA0CF040
:1002D00021FA02F10CE002F11402D8BFC2F1200CA5
:1002E00001FA02F120FA0CFCDCBF41EA0C0190405B
:1002F000E41AA2BF01EB0451294330BD6FEA0404A4
:100300001F3C1CDA0C340EDC04F11404C4F120028E
:1003100020FA04F001FA02F340EA030021FA04F3A0
:1003200045EA030130BDC4F10C04C4F1200220FAF7
:1003300002F001FA04F340EA0300294630BD21FA35
:1003400004F0294630BD94F0000F83F4801306BFFB
:1003500081F480110134013D4EE77FEA645C18BFEF
:100360007FEA655C29D094EA050F08BF90EA020F86
:1003700005D054EA000C04BF1946104630BD91EA7E
:10038000030F1EBF0021002030BD5FEA545C05D181
:100390004000494128BF41F0004130BD14F58004C0
:1003A0003CBF01F5801130BD01F0004545F0FE4134
:1003B00041F470014FF0000030BD7FEA645C1ABF69
:1003C000194610467FEA655C1CBF0B46024650EAA0
:1003D000013406BF52EA033591EA030F41F40021CC
:1003E00030BD00BF90F0000F04BF0021704730B552
:1003F0004FF4806404F132044FF000054FF0000127
:1004000050E700BF90F0000F04BF0021704730B5E7
:100410004FF4806404F1320410F0004548BF4042BC
:100420004FF000013EE700BF42004FEAE2014FEA11
:1004300031014FEA02701FBF12F07F4393F07F4FEC
:1004400081F06051704732F07F4208BF704793F0EF
:100450007F4F04BF41F40021704730B54FF4607402
:1004600001F0004521F000411CE700BF50EA010205
:1004700008BF704730B54FF000050AE050EA0102AE
:1004800008BF704730B511F0004502D5404261EB1E
:1004900041014FF4806404F132045FEA915C3FF45F
:1004A000D8AE4FF003025FEADC0C18BF03325FEAFC
:1004B000DC0C18BF033202EBDC02C2F1200300FAAD
:1004C00003FC20FA02F001FA03FE40EA0E0021FAD2
:1004D00002F11444BDE600BF70B54FF0FF0C4CF4C0
:1004E000E06C1CEA11541DBF1CEA135594EA0C0F72
:1004F00095EA0C0F00F0DEF82C4481EA030621EAAD
:100500004C5123EA4C5350EA013518BF52EA0335E7
:1005100041F4801143F4801338D0A0FB02CE4FF099
:100520000005E1FB02E506F00042E0FB03E54FF0C9
:100530000006E1FB03569CF0000F18BF4EF0010EC1
:10054000A4F1FF04B6F5007F64F5407404D25FEABD
:100550004E0E6D4146EB060642EAC62141EA555170
:100560004FEAC52040EA5E504FEACE2EB4F1FD0CB2
:1005700088BFBCF5E06F1ED8BEF1004F08BF5FEA30
:10058000500E50F1000041EB045170BD06F00046E2
:1005900046EA010140EA020081EA0301B4EB5C048F
:1005A000C2BFD4EB0C0541EA045170BD41F4801187
:1005B0004FF0000E013C00F3AB8014F1360FDEBFAC
:1005C000002001F0004170BDC4F10004203C35DA88
:1005D0000C341BDC04F11404C4F1200500FA05F30B
:1005E00020FA04F001FA05F240EA020001F00042AC
:1005F00021F0004110EBD37021FA04F642EB060122
:100600005EEA430E08BF20EAD37070BDC4F10C044B
:10061000C4F1200500FA04F320FA05F001FA04F20F
:1006200040EA020001F0004110EBD37041F10001FB
:100630005EEA430E08BF20EAD37070BDC4F1200506
:1006400000FA05F24EEA020E20FA04F301FA05F26E
:1006500043EA020321FA04F001F0004121FA04F216
:1006600020EA020000EBD3705EEA430E08BF20EAE6
:10067000D37070BD94F0000F0FD101F00046400020
:1006800041EB010111F4801F08BF013CF7D041EAA2
:10069000060195F0000F18BF704703F000465200A6
:1006A00043EB030313F4801F08BF013DF7D043EA77
:1006B0000603704794EA0C0F0CEA135518BF95EA2D
:1006C0000C0F0CD050EA410618BF52EA4306D1D1B4
:1006D00081EA030101F000414FF0000070BD50EAD3
:1006E000410606BF1046194652EA430619D094EA5D
:1006F0000C0F02D150EA013613D195EA0C0F05D147
:1007000052EA03361CBF104619460AD181EA03019A
:1007100001F0004141F0FE4141F470014FF0000052
:1007200070BD41F0FE4141F4780170BD70B54FF0ED
:10073000FF0C4CF4E06C1CEA11541DBF1CEA13556D
:1007400094EA0C0F95EA0C0F00F0A7F8A4EB05044F
:1007500081EA030E52EA03354FEA013100F0888046
:100760004FEA03334FF0805545EA131343EA12630F
:100770004FEA022245EA111545EA10654FEA0026C4
:100780000EF000419D4208BF964244F1FD0404F57D
:10079000407402D25B084FEA3202B61A65EB0305D9
:1007A0005B084FEA32024FF480104FF4002CB6EB96
:1007B000020E75EB030E22BFB61A754640EA0C0016
:1007C0005B084FEA3202B6EB020E75EB030E22BF56
:1007D000B61A754640EA5C005B084FEA3202B6EB97
:1007E000020E75EB030E22BFB61A754640EA9C0056
:1007F0005B084FEA3202B6EB020E75EB030E22BF26
:10080000B61A754640EADC0055EA060E18D04FEAE3
:10081000051545EA16754FEA06164FEAC30343EA83
:1008200052734FEAC2025FEA1C1CC0D111F4801F50
:100830000BD141EA00014FF000004FF0004CB6E749
:1008400011F4801F04BF01430020B4F1FD0C88BFE8
:10085000BCF5E06F3FF6AFAEB5EB030C04BFB6EBF3
:10086000020C5FEA500C50F1000041EB045170BDE6
:100870000EF0004E4EEA113114EB5C04C2BFD4EB13
:100880000C0541EA045170BD41F480114FF0000E97
:10089000013C90E645EA060E8DE60CEA135594EA13
:1008A0000C0F08BF95EA0C0F3FF43BAF94EA0C0F16
:1008B0000AD150EA01347FF434AF95EA0C0F7FF48B
:1008C00025AF104619462CE795EA0C0F06D152EADF
:1008D00003353FF4FDAE1046194622E750EA4106C3
:1008E00018BF52EA43067FF4C5AE50EA41047FF4D4
:1008F0000DAF52EA43057FF4EBAE12E74FF0FF3C39
:1009000006E000BF4FF0010C02E000BF4FF0010C09
:100910004DF804CD4FEA410C7FEA6C5C4FEA430C82
:1009200018BF7FEA6C5C1BD001B050EA410C0CBFD1
:1009300052EA430C91EA030F02BF90EA020F002033
:10094000704710F1000F91EA030F58BF994208BF9A
:1009500090422CBFD8176FEAE37040F00100704757
:100960004FEA410C7FEA6C5C02D150EA013C07D1AE
:100970004FEA430C7FEA6C5CD6D152EA033CD3D0F9
:100980005DF8040B704700BF8446104662468C46F3
:100990001946634600E000BF01B5FFF7B7FF002826
:1009A00048BF10F1000F01BD4DF808EDFFF7F4FF4F
:1009B0000CBF012000205DF808FB00BF4DF808EDDA
:1009C000FFF7EAFF34BF012000205DF808FB00BFFD
:1009D0004DF808EDFFF7E0FF94BF012000205DF81F
:1009E00008FB00BF4DF808EDFFF7CEFF94BF0120D4
:1009F00000205DF808FB00BF4DF808EDFFF7C4FFCD
:100A000034BF012000205DF808FB00BF4FEA410C15
:100A10007FEA6C5C02D150EA013C0AD14FEA430CF8
:100A20007FEA6C5C02D152EA033C02D14FF0000035
:100A300070474FF0010070474FEA410212F5001273
:100A400015D211D56FF47873B3EB625212D94FEA15
:100A5000C12343F0004343EA505311F0004F23FAFF
:100A600002F018BF404270474FF00000704750EA54
:100A7000013005D111F0004008BF6FF00040704711
:100A80004FF00000704700BF80F0004002E000BF60
:100A900081F0004142001FBF5FEA410392EA030F69
:100AA0007FEA226C7FEA236C6AD04FEA1262D2EBB3
:100AB0001363C1BFD218414048404140B8BF5B42B8
:100AC000192B88BF704710F0004F40F4000020F051
:100AD0007F4018BF404211F0004F41F4000121F067
:100AE0007F4118BF494292EA030F3FD0A2F10102B1
:100AF00041FA03FC10EB0C00C3F1200301FA03F1EF
:100B000000F0004302D5494260EB4000B0F5000F11
:100B100013D3B0F1807F06D340084FEA310102F1D0
:100B20000102FE2A51D2B1F1004F40EBC25008BF82
:100B300020F0010040EA03007047490040EB00004C
:100B4000013A28BFB0F5000FEDD2B0FA80FCACF14D
:100B5000080CB2EB0C0200FA0CF0AABF00EBC2507A
:100B600052421843BCBFD0401843704792F0000F68
:100B700081F4000106BF80F400000132013BB5E7BB
:100B80004FEA41037FEA226C18BF7FEA236C21D031
:100B900092EA030F04D092F0000F08BF0846704796
:100BA00090EA010F1CBF0020704712F07F4F04D164
:100BB000400028BF40F00040704712F100723CBF77
:100BC00000F50000704700F0004343F0FE4040F4A1
:100BD000000070477FEA226216BF08467FEA23635F
:100BE0000146420206BF5FEA412390EA010F40F44A
:100BF000800070474FF0000304E000BF10F0004396
:100C000048BF40425FEA000C08BF704743F096437C
:100C100001464FF000001CE050EA010208BF704797
:100C20004FF000030AE000BF50EA010208BF70471E
:100C300011F0004302D5404261EB41015FEA010C33
:100C400002BF84460146002043F0B64308BFA3F12B
:100C50008053A3F50003BCFA8CF2083AA3EBC2530D
:100C600010DB01FA02FC634400FA02FCC2F120022C
:100C7000BCF1004F20FA02F243EB020008BF20F063
:100C80000100704702F1200201FA02FCC2F12002C9
:100C900050EA4C0021FA02F243EB020008BF20EABE
:100CA000DC7070474FF0FF0C1CEAD0521EBF1CEAEC
:100CB000D15392EA0C0F93EA0C0F6FD01A4480EADA
:100CC000010C400218BF5FEA41211ED04FF00063C3
:100CD00043EA501043EA5111A0FB01310CF00040EF
:100CE000B1F5000F3EBF490041EAD3715B0040EA15
:100CF000010062F17F02FD2A1DD8B3F1004F40EBE5
:100D0000C25008BF20F00100704790F0000F0CF0B7
:100D1000004C08BF49024CEA502040EA51207F3A7B
:100D2000C2BFD2F1FF0340EAC250704740F4000056
:100D30004FF00003013A5DDC12F1190FDCBF00F047
:100D400000407047C2F10002410021FA02F1C2F1F5
:100D5000200200FA02FC5FEA310040F1000053EA91
:100D60004C0308BF20EADC70704792F0000F00F0DF
:100D7000004C02BF400010F4000F013AF9D040EAE5
:100D80000C0093F0000F01F0004C02BF490011F479
:100D9000000F013BF9D041EA0C018FE70CEAD15377
:100DA00092EA0C0F18BF93EA0C0F0AD030F0004CF7
:100DB00018BF31F0004CD8D180EA010000F00040AB
:100DC000704790F0000F17BF90F0004F084691F069
:100DD000000F91F0004F14D092EA0C0F01D14202A3
:100DE0000FD193EA0C0F03D14B0218BF084608D16C
:100DF00080EA010000F0004040F0FE4040F40000B6
:100E0000704740F0FE4040F4400070474FF0FF0C48
:100E10001CEAD0521EBF1CEAD15392EA0C0F93EA8F
:100E20000C0F69D0A2EB030280EA010C49024FEAE1
:100E3000402037D04FF0805343EA111143EA10139A
:100E40000CF000408B4238BF5B0042F17D024FF452
:100E5000000C8B4224BF5B1A40EA0C00B3EB510F2D
:100E600024BFA3EB510340EA5C00B3EB910F24BF16
:100E7000A3EB910340EA9C00B3EBD10F24BFA3EB9B
:100E8000D10340EADC001B0118BF5FEA1C1CE0D163
:100E9000FD2A3FF650AF8B4240EBC25008BF20F016
:100EA000010070470CF0004C4CEA50207F32C2BF6A
:100EB000D2F1FF0340EAC250704740F400004FF007
:100EC0000003013A37E792F0000F00F0004C02BF38
:100ED000400010F4000F013AF9D040EA0C0093F002
:100EE000000F01F0004C02BF490011F4000F013B5C
:100EF000F9D041EA0C0195E70CEAD15392EA0C0FC4
:100F000008D142027FF47DAF93EA0C0F7FF470AFFB
:100F1000084676E793EA0C0F04D14B023FF44CAF3E
:100F200008466EE730F0004C18BF31F0004CCAD1D3
:100F300030F000427FF45CAF31F000437FF43CAF0F
:100F40005FE700BF4FF0FF3C06E000BF4FF0010C31
:100F500002E000BF4FF0010C4DF804CD4FEA400213
:100F60004FEA41037FEA226C18BF7FEA236C11D05D
:100F700001B052EA530C18BF90EA010F58BFB2EB10
:100F8000030088BFC81738BF6FEAE17018BF40F090
:100F9000010070477FEA226C02D15FEA402C05D144
:100FA0007FEA236CE4D15FEA412CE1D05DF8040BC9
:100FB000704700BF844608466146FFE70FB5FFF75C
:100FC000C9FF002848BF10F1000F0FBD4DF808ED14
:100FD000FFF7F4FF0CBF012000205DF808FB00BF05
:100FE0004DF808EDFFF7EAFF34BF012000205DF85F
:100FF00008FB00BF4DF808EDFFF7E0FF94BF0120AC
:1010000000205DF808FB00BF4DF808EDFFF7D2FFA8
:1010100094BF012000205DF808FB00BF4DF808EDEB
:10102000FFF7C8FF34BF012000205DF808FB00BFB8
:1010300080B400AF0F4B9B690E4A43F008039361E5
:101040000D4B5B680C4A23F07F6323F470235360DD
:10105000094B5B68084A43F04C7343F440335360D8
:10106000054BDB68044A43F4E043D36000BFBD4650
:1010700080BC704700100240000C014080B400AFFB
:10108000164B9B69154A43F008039361144B1B6888
:10109000134A23F070431360114B1B68104A43F04E
:1010A000004313600E4BDB680D4A43F08003D360AE
:1010B0000B4B1B680A4A23F070631360084B1B68D4
:1010C000074A43F000631360054BDB68044A43F0B2
:1010D0004003D36000BFBD4680BC70470010024093
:1010E000000C014080B483B000AF194B9B68DB0952
:1010F00003F00103002B0CBF01230023DBB2FB71C3
:10110000134B9B689B0903F00103002B0CBF0123C9
:101110000023DBB2BB71FB79002B04D0BB79002B21
:1011200001D101230FE0FB79002B04D1BB79002B07
:1011300001D0022307E0FB79002B04D1BB79002BFF
:1011400001D10023FFE718460C37BD4680BC70472D
:10115000000C014080B582B000AFFFF7C3FF03462B
:10116000FB71114B1B78FA799A4203D00F4B1B6825
:101170000F4A13600D4B1A680D4B1B68D21A0D4BAA
:101180001B689A4207D90C4B1B78FA799A4202D015
:10119000094AFB791370044AFB791370064B1B78DC
:1011A00018460837BD4680BD190200209005002072
:1011B00014020020000000201802002080B500AFBB
:1011C000154B164A1A60144B154A5A60124B0022EE
:1011D0009A60114BAA22DA600F4B4FF480421A61D9
:1011E0000D4B00225A610C4B00229A610A4B0022DF
:1011F000DA61094B00221A62074804F067F80346D7
:10120000002B01D002F0D4F902220649024804F072
:10121000B5F900BF80BD00BF380500200054004074
:10122000801A06001C02002080B582B000AF7860F2
:10123000054B01221A7002220449054804F09EF968
:1012400000BF0837BD4680BD1A0200201C020020E6
:101250003805002080B582B000AF78607B681B68DD
:101260000C4A934212D10C4B1B690B4A43F40013F6
:101270001361094B1B69084A23F400131361FFF73C
:101280009DFF02220549064804F078F900BF08379F
:10129000BD4680BD00540040001002401C020020EA
:1012A0003805002080B582B000AF78607B681B688D
:1012B000A3F580730C2B00F2CC8001A252F823F02E
:1012C000F51200080D13000825130008411300084B
:1012D0005D1300087913000895130008B113000886
:1012E000CD130008E3130008FF1300081B140008C7
:1012F000371400087B6807335849184600F0C8F8CF
:10130000564A937B43F001039373A3E07B68073352
:101310005349184600F03AF9504A937E43F00103CE
:10132000937697E07B6807334E49184600F0C4F97E
:101330004A4A92F8423043F0010382F8423089E091
:101340007B6807334849184600F072F9434A92F81F
:101350004C3043F0010382F84C307BE07B6807336C
:101360004249184600F01AFA3C4A92F8523043F0CB
:10137000010382F852306DE07B6807333C49184620
:1013800000F02EFA354A92F8623043F0010382F8F9
:1013900062305FE07B6807333649184600F098FA00
:1013A0002E4A92F8723043F0010382F8723051E015
:1013B0007B6807333049184600F002FB274A92F851
:1013C000823043F0010382F8823043E07B680733C8
:1013D0002A49184600F06CFB204B012283F892202A
:1013E00038E07B6807332649184600F0D9FB1B4AD2
:1013F00092F8A23043F0010382F8A2302AE07B6821
:1014000007332049184600F043FC144A92F8B230E2
:1014100043F0010382F8B2301CE07B6807331A49BD
:10142000184600F0ADFC0D4A92F8C23043F00103BB
:1014300082F8C2300EE07B6807331449184600F08A
:1014400017FD064A92F8D23043F0010382F8D230F9
:1014500000E000BF00BF0837BD4680BD200200206D
:10146000300200203C020020640200206E020020B6
:10147000740200208402002094020020A4020020B4
:10148000B4020020C4020020D4020020E4020020A4
:101490002DE9B04386B004AF786039607B681B7873
:1014A0001B027A680132127813431846FFF7A6FB35
:1014B000034634491846FFF7F5FB03461A463B68D6
:1014C0001A607B6802331B781BB21B021AB27B685E
:1014D00003331B781BB213431BB21846FFF78EFB76
:1014E000034628491846FFF7DDFB03461A463B68CA
:1014F0005A607B6804331B781BB21B021BB21A466E
:101500007B6805331B7813431846FFF777FB0346C8
:101510001C491846FFF7C6FB03461A463B689A600B
:101520007B6806331B781BB21B021AB27B68073339
:101530001B781BB213431BB29AB23B689A813B687B
:101540001B681846FEF770FF804689463B685B685B
:101550001846FEF769FF04460D463B689B6818462F
:10156000FEF762FF02460B46CDE90223CDE90045B6
:1015700042464B46044803F0DBFA00BF0837BD463D
:10158000BDE8B0830AD7233C609D000880B584B0D5
:1015900002AF786039607B681B781B027A68013281
:1015A000127813431846FFF729FB03461E491846D5
:1015B000FFF778FB03461A463B681A607B680233E4
:1015C0001B781BB21B021AB27B6803331B781BB259
:1015D00013431BB29AB23B689A807B6805331B7831
:1015E0001A463B68DA807B6806331B781BB21B0205
:1015F0001AB27B6807331B781BB213431BB29AB233
:101600003B681A813B681B681846FEF70DFF0246CF
:101610000B463968C9880091044803F089FA00BF75
:101620000837BD4680BD00BF0AD7233CB89D0008DF
:1016300080B483B000AF786039607B681B781BB2E0
:101640001B021AB27B6801331B781BB213431BB217
:101650009AB23B681A807B6802331B781BB21B026C
:101660001AB27B6803331B781BB213431AB23B6870
:101670005A807B6804331B781BB21B021AB27B684A
:1016800005331B781BB213431BB29AB23B689A8096
:101690007B6806331B781BB21B021AB27B680733C8
:1016A0001B781BB213431BB29AB23B68DA8000BFAF
:1016B0000C37BD4680BC704780B487B000AF7860FF
:1016C00039607B681B781BB21B021AB27B6801333E
:1016D0001B781BB213431BB2FB8100237B6112E01A
:1016E000FA897B6942FA03F303F00103002B14BF6C
:1016F00001230023D9B23A687B6913440A461A7061
:101700007B6901337B617B690F2BE9DD7B680233E9
:101710001B781BB21B021AB27B6803331B781BB207
:1017200013431BB2BB8100233B6111E0BA893B69C3
:1017300042FA03F303F001023B691033002A14BF9D
:1017400001220022D1B23A68D1543B6901333B6196
:101750003B69102BEADD7B6804331B781BB21B024C
:101760001AB27B6805331B781BB213431BB29AB2C3
:101770003B685A847B6806331B781BB21B021AB283
:101780007B6807331B781BB213431BB29AB23B68CA
:101790009A8400BF1C37BD4680BC704780B483B0BC
:1017A00000AF786039607B681A783B681A707B6894
:1017B00001331A783B685A707B6802331B781BB27E
:1017C0001B021AB27B6803331B781BB213431BB294
:1017D0009AB23B685A8000BF0C37BD4680BC704748
:1017E00080B584B000AF786039607B681B781BB22D
:1017F0001B021AB27B6801331B781BB213431BB266
:10180000FB81FB891846FFF7F9F903462E49184674
:10181000FFF748FA03462D491846FFF739F9034602
:101820001A463B681A607B6802331B781BB21B02A6
:101830001AB27B6803331B781BB213431BB2BB8104
:10184000BB891846FFF7DAF903461F491846FFF728
:1018500029FA03461D491846FFF71AF903461A46A6
:101860003B685A607B6804331B781BB21B021AB2B8
:101870007B6805331B781BB213431BB27B817B89CA
:101880001846FFF7BBF903460F491846FFF70AFA57
:1018900003460E491846FFF7FBF803461A463B6815
:1018A0009A607B6806331B781BB21B021AB27B68F6
:1018B00007331B781BB213431BB29AB23B689A8161
:1018C00000BF1037BD4680BDCDCCCC3D339388439F
:1018D00080B584B000AF786039607B681B781BB23C
:1018E0001B021AB27B6801331B781BB213431BB275
:1018F000FB81FB891846FFF781F903462E491846FC
:10190000FFF7D0F903462D491846FFF7C1F8034603
:101910001A463B681A607B6802331B781BB21B02B5
:101920001AB27B6803331B781BB213431BB2BB8113
:10193000BB891846FFF762F903461F491846FFF7AF
:10194000B1F903461D491846FFF7A2F803461A46A7
:101950003B685A607B6804331B781BB21B021AB2C7
:101960007B6805331B781BB213431BB27B817B89D9
:101970001846FFF743F903460F491846FFF792F957
:1019800003460E491846FFF783F803461A463B689C
:101990009A607B6806331B781BB21B021AB27B6805
:1019A00007331B781BB213431BB29AB23B689A8170
:1019B00000BF1037BD4680BDCDCCCC3D33938843AE
:1019C0002DE9B04386B004AF786039607B681B783E
:1019D0001B027A680132127813431846FFF70EF99A
:1019E000034631491846FFF711FA03461A463B6889
:1019F0001A607B6802331B781B027A680332127804
:101A000013431846FFF7FAF8034627491846FFF72D
:101A1000FDF903461A463B685A607B6804331B781D
:101A20001B027A680532127813431846FFF7E6F86E
:101A300003461D491846FFF7E9F903461A463B6875
:101A40009A607B6806331B781BB21B021AB27B6854
:101A500007331B781BB213431BB29AB23B689A81BF
:101A60003B681B681846FEF7DFFC804689463B68EA
:101A70005B681846FEF7D8FC04460D463B689B6839
:101A80001846FEF7D1FC02460B46CDE90223CDE90C
:101A9000004542464B46054803F04AF800BF083768
:101AA000BD46BDE8B08300BF00007A44DC9D00085D
:101AB0002DE9B04386B004AF786039607B681B784D
:101AC0001B027A680132127813431846FFF796F822
:101AD000034631491846FFF799F903461A463B6811
:101AE0001A607B6802331B781B027A680332127813
:101AF00013431846FFF782F8034627491846FFF7B5
:101B000085F903461A463B685A607B6804331B78A4
:101B10001B027A680532127813431846FFF76EF8F5
:101B200003461D491846FFF771F903461A463B68FC
:101B30009A607B6806331B781BB21B021AB27B6863
:101B400007331B781BB213431BB29AB23B689A81CE
:101B50003B681B681846FEF767FC804689463B6871
:101B60005B681846FEF760FC04460D463B689B68C0
:101B70001846FEF759FC02460B46CDE90223CDE993
:101B8000004542464B46054802F0D2FF00BF0837E9
:101B9000BD46BDE8B08300BF00007A44089E00083F
:101BA0002DE9B04386B004AF786039607B681B785C
:101BB0001B027A680132127813431846FFF71EF8A9
:101BC000034631491846FFF721F903461A463B6898
:101BD0001A607B6802331B781B027A680332127822
:101BE00013431846FFF70AF8034627491846FFF73C
:101BF0000DF903461A463B685A607B6804331B782C
:101C00001B027A680532127813431846FEF7F6FF76
:101C100003461D491846FFF7F9F803461A463B6884
:101C20009A607B6806331B781BB21B021AB27B6872
:101C300007331B781BB213431BB29AB23B689A81DD
:101C40003B681B681846FEF7EFFB804689463B68F9
:101C50005B681846FEF7E8FB04460D463B689B6848
:101C60001846FEF7E1FB02460B46CDE90223CDE91B
:101C7000004542464B46054802F05AFF00BF083770
:101C8000BD46BDE8B08300BF00007A44349E000822
:101C90002DE9B04386B004AF786039607B681B786B
:101CA0001B027A680132127813431846FEF7A6FF2A
:101CB000034631491846FFF7A9F803461A463B6820
:101CC0001A607B6802331B781B027A680332127831
:101CD00013431846FEF792FF034627491846FFF7BD
:101CE00095F803461A463B685A607B6804331B78B4
:101CF0001B027A680532127813431846FEF77EFFFE
:101D000003461D491846FFF781F803461A463B680B
:101D10009A607B6806331B781BB21B021AB27B6881
:101D200007331B781BB213431BB29AB23B689A81EC
:101D30003B681B681846FEF777FB804689463B6880
:101D40005B681846FEF770FB04460D463B689B68CF
:101D50001846FEF769FB02460B46CDE90223CDE9A2
:101D6000004542464B46054802F0E2FE00BF0837F8
:101D7000BD46BDE8B08300BF00007A44609E000805
:101D80002DE9B04386B004AF786039607B681B787A
:101D90001B027A680132127813431846FEF72EFFB1
:101DA000034631491846FFF731F803461A463B68A7
:101DB0001A607B6802331B781B027A680332127840
:101DC00013431846FEF71AFF034627491846FFF744
:101DD0001DF803461A463B685A607B6804331B783B
:101DE0001B027A680532127813431846FEF706FF85
:101DF00003461D491846FFF709F803461A463B6893
:101E00009A607B6806331B781BB21B021AB27B6890
:101E100007331B781BB213431BB29AB23B689A81FB
:101E20003B681B681846FEF7FFFA804689463B6808
:101E30005B681846FEF7F8FA04460D463B689B6857
:101E40001846FEF7F1FA02460B46CDE90223CDE92A
:101E5000004542464B46054802F06AFE00BF08377F
:101E6000BD46BDE8B08300BF00007A44909E0008E4
:101E700080B582B000AF786039607B681B781B0248
:101E80007A680132127813431846FEF7B7FE03460C
:101E900026491846FEF7BAFF03461A463B681A6001
:101EA0007B6802331B781B027A6803321278134373
:101EB0001846FEF7A3FE03461C491846FEF7A6FF88
:101EC00003461A463B685A607B6804331B781B0242
:101ED0007A680532127813431846FEF78FFE0346E0
:101EE00012491846FEF792FF03461A463B689A606D
:101EF0007B6806331B781BB21B021AB27B68073360
:101F00001B781BB213431BB29AB23B689A813B68A1
:101F10001B681846FEF788FA02460B46044802F092
:101F200007FE00BF0837BD4680BD00BF00007A44F1
:101F3000C09E000880B582B000AF78607B681B68E7
:101F4000484A93427ED0474A934200F28780B32B9F
:101F50002ED8A12BC0F08280A13B122B7ED801A2EB
:101F600052F823F0B91F00085D2000085D2000082A
:101F70005D2000085D2000085D2000085D2000084D
:101F80005D2000085D2000085D2000085D2000083D
:101F90005D2000085D200008D51F0008F11F000823
:101FA0005D2000085D2000085D2000080D2000086D
:101FB0002D4A934238D051E07B6807332B491846AD
:101FC00000F00EFC2A4A92F8F83143F0010382F83F
:101FD000F83143E07B6807332649184600F067FA7A
:101FE000234A92F8C83143F0010382F8C83135E042
:101FF0007B6807332049184600F0F7FA1C4A92F82C
:10200000843143F0010382F8843127E07B68073391
:102010001A49184600F06EF9154A92F8803043F0DC
:10202000010382F8803019E07B68073314491846B1
:1020300000F072FB0E4A92F8403143F0010382F83F
:1020400040310BE07B6807330949184600F0F8F887
:10205000074A137E43F00103137600BF00BF083721
:10206000BD4680BD40502718405026180805002066
:1020700038030020C0040020800400205803002002
:10208000580400202DE9B00F8BB000AFF860B960A4
:102090007A607B68002B02DD7B68402B04DD4FF00B
:1020A00000024FF0000351E04FF000024FF0000338
:1020B000C7E90823BB68002B00DA0733DB10FB619C
:1020C000BB685A4203F0070302F0070258BF5342AD
:1020D000BB6100237B6133E00023FB74FB69002BB1
:1020E0000EDBFB69072B0BDCFB69FA6813441B78DA
:1020F0001A46BB6942FA03F3DBB203F00103FB7437
:10210000D7E9082312EB020A43EB030B52465B4666
:10211000F97C00200C46054642EA040843EA05091A
:10212000C7E90889BB69013BBB61BB69002B04DAC5
:10213000FB690133FB610723BB617B6901337B6171
:102140007A697B689A42C7DBD7E9082310461946AB
:102150002C37BD46BDE8B00F70472DE9B00F8DB0EC
:1021600000AFF860B9607A607B68002B02DD7B68A5
:10217000402B04DD4FF000024FF0000356E04FF01B
:1021800000024FF00003C7E90A2300237B6247E007
:10219000BA687B6A1344FB61FB69002B00DA0733E2
:1021A000DB10BB61FB695A4203F0070302F0070230
:1021B00058BF53427B61002387F82330BB69002B53
:1021C0000FDBBB69072B0CDCBB69FA6813441B7877
:1021D0001A467B6942FA03F3DBB203F0010387F886
:1021E000233097F823300022984691467B6AA3F16A
:1021F0002001C3F1200209FA03F508FA01F10D43A9
:1022000028FA02F2154308FA03F4D7E90A2342EA4E
:10221000040A43EA050BC7E90AAB7B6A01337B6218
:102220007A6A7B689A42B3DBD7E90A2310461946DB
:102230003437BD46BDE8B00F704700000000000015
:1022400080B588B000AF786039603B68002B44D01F
:10225000202220217868FFF780FFC7E90601D7E92F
:102260000601FEF703F920A3D3E90023FEF734F9B2
:1022700002460B46104619464FF000024FF000038D
:10228000FDF774FF02460B463968C1E900231022AE
:1022900010217868FFF761FFC7E90401D7E904015D
:1022A000FEF7E4F802460B463968C1E90223102222
:1022B00000217868FFF751FFC7E90201D7E9020161
:1022C000FEF7D4F84FF00002094BFDF74DFF024630
:1022D0000B463968C1E9042300E000BF2037BD4642
:1022E00080BD00BFAFF300809A9999999999B93F41
:1022F0000000D04080B582B000AF786039603B68A4
:10230000002B00F0D08001221E217868FFF7BAFE72
:1023100002460B463B681A6001221F217868FFF7CE
:10232000B1FE02460B463B685A60012210217868D4
:10233000FFF7A8FE02460B463B689A600122112176
:102340007868FFF79FFE02460B463B68DA60012281
:1023500012217868FFF796FE02460B463B681A6129
:10236000012213217868FFF78DFE02460B463B6879
:102370005A61012214217868FFF784FE02460B4659
:102380003B689A61012215217868FFF77BFE0246BF
:102390000B463B68DA61012216217868FFF772FE6E
:1023A00002460B463B681A62012217217868FFF744
:1023B00069FE02460B463B685A6201220821786892
:1023C000FFF760FE02460B463B689A620122092134
:1023D0007868FFF757FE02460B463B68DA62012237
:1023E0000A217868FFF74EFE02460B463B681A63E7
:1023F00001220B217868FFF745FE02460B463B6839
:102400005A6301220C217868FFF73CFE02460B4616
:102410003B689A6301220D217868FFF733FE02467C
:102420000B463B68DA6301220E217868FFF72AFE2B
:1024300002460B463B681A6401220F217868FFF7B9
:1024400021FE02460B463B685A640122002178684F
:10245000FFF718FE02460B463B689A6403220721E9
:102460007868FFF70FFE02460B463B68DA640122EC
:1024700001217868FFF706FE02460B463B681A65A5
:10248000012202217868FFF7FDFD02460B463B68FA
:102490005A65032204217868FFF7F4FD02460B46D3
:1024A0003B689A6500E000BF0837BD4680BD80B537
:1024B00082B000AF786039603B68002B00F09180FB
:1024C00001221B217868FFF7DDFD02460B463B68C1
:1024D0001A6001221C217868FFF7D4FD02460B46E2
:1024E0003B685A60012227217868FFF7CBFD02463E
:1024F0000B463B689A60012204217868FFF7C2FD11
:1025000002460B463B68DA60012202217868FFF739
:10251000B9FD02460B463B681A6106221221786813
:10252000FFF7B0FD02460B463B685A6101220621C7
:102530007868FFF7A7FD02460B463B689A610222C6
:1025400009217868FFF79EFD02460B463B68DA6179
:1025500002220B217868FFF795FD02460B463B6887
:102560001A62012201217868FFF78CFD02460B46B2
:102570003B685A62012215217868FFF783FD024605
:102580000B463B689A62012207217868FFF77AFDC3
:1025900002460B463B68DA6204220F217868FFF797
:1025A00071FD02460B463B681A63022217217868C8
:1025B000FFF768FD02460B463B685A630122032180
:1025C0007868FFF75FFD02460B463B689A6301227D
:1025D00005217868FFF756FD02460B463B68DA6333
:1025E00000E000BF0837BD4680BD80B582B000AFB7
:1025F000786039603B68002B00F088800322092155
:102600007868FFF73FFD02460B463B681A600122DF
:102610000A217868FFF736FD02460B463B685A6090
:1026200001220B217868FFF72DFD02460B463B681F
:102630009A6001220C217868FFF724FD02460B46C0
:102640003B68DA6001220D217868FFF71BFD024626
:102650000B463B681A6101220E217868FFF712FDD4
:1026600002460B463B685A6101220F217868FFF74A
:1026700009FD02460B463B689A61012200217868F9
:10268000FFF700FD02460B463B68DA61012201219B
:102690007868FFF7F7FC02460B463B681A62012296
:1026A00002217868FFF7EEFC02460B463B685A624F
:1026B000012203217868FFF7E5FC02460B463B68E0
:1026C0009A62012204217868FFF7DCFC02460B467F
:1026D0003B68DA62012205217868FFF7D3FC0246E5
:1026E0000B463B681A63012206217868FFF7CAFC93
:1026F00002460B463B685A63012207217868FFF7C0
:10270000C1FC02460B463B689A6300E000BF0837F5
:10271000BD4680BD0000000080B582B000AF78608B
:1027200039603B68002B51D0082208217868FFF7F8
:1027300014FD02460B461346A3F128023B681A60BB
:10274000082200217868FFF708FD02460B46134671
:10275000A3F128023B685A60102210217868FFF725
:10276000FCFC02460B4610461946FDF77FFE1AA3F5
:10277000D3E90023FDF7B0FE02460B463968C1E9F4
:102780000223032238217868FFF7E7FC02460B4654
:102790003B681A61082230217868FFF7DEFC0246A8
:1027A0000B463B685A61082228217868FFF7D5FC60
:1027B00002460B463B689A61082220217868FFF7A1
:1027C000CCFC02460B463B68DA6100E000BF0837EC
:1027D000BD4680BDAFF300809A9999999999B93F08
:1027E00080B582B000AF786039600A22262178680F
:1027F000FFF748FC02460B4610461946FDF736FE29
:102800003BA3D3E90023FDF767FE02460B461046C3
:10281000194639A3D3E90023FDF7A6FC02460B466F
:102820003968C1E900230A2207217868FFF72AFCEA
:1028300002460B4610461946FDF718FE2CA3D3E9B5
:102840000023FDF749FE02460B463968C1E9022321
:102850000A2210217868FFF715FC02460B46104645
:102860001946FDF703FE22A3D3E90023FDF734FE4A
:1028700002460B46104619464FF00002224BFDF768
:1028800073FC02460B463968C1E904230F222C2150
:102890007868FFF7F7FB02460B461346A3F5804323
:1028A0001A463B689A610D220D217868FFF7EAFB12
:1028B00002460B4610461946FDF7D8FD0CA3D3E996
:1028C0000023FDF709FE02460B46104619460CA3ED
:1028D000D3E90023FDF748FC02460B463968C1E9FD
:1028E000082300BF0837BD4680BD00BFAFF300809E
:1028F0009A9999999999B93F6666666666A6424023
:102900009A999999999979400040504080B400AFC4
:10291000124B9B69114A43F008039361104B1B68EB
:102920000F4A23F4804323F0440313600C4B1B68CD
:102930000B4A43F4405343F033031360084BDB6806
:10294000074A43F00B03D360054BDB68044A23F0CE
:102950000203D36000BFBD4680BC70470010024038
:10296000000C014090B5ADF6040D00AF07F5006313
:10297000A3F2FC7318600023C7F8FC3701F024FEB3
:10298000C7F8E80707F50063A3F2FC731B68C7F8F4
:10299000E437D7F8E837002B06D007F50063A3F239
:1029A000FC731B68002B01D10023F7E0D7F8E82760
:1029B000D7F8E437B2FBF3F3C7F8E0370123C7F8E1
:1029C000F837C0E00123C7F8F437B2E00123C7F8B5
:1029D000F037A4E0D7F8F427D7F8F03713440133E1
:1029E000C7F8DC37D7F8F837D7F8DC2702FB03F352
:1029F000D7F8E0279A4240F08D80D7F8F407FEF729
:102A0000F9F803464FF07E511846FEF743F80346A7
:102A10001C46D7F8DC07FEF7EDF8034619462046BA
:102A2000FEF7F4F9034660491846FEF73BF9034602
:102A3000C7F8D8375D49D7F8D807FEF7E5FA034657
:102A4000002B67D05A49D7F8D807FEF7D3FA0346C8
:102A5000002B5FD00123C7F8EC3755E0D7F8F837E3
:102A600098B207F50063A3F5FF61D7F8FC2713467A
:102A70009B0013449B000B4402461A8007F5006339
:102A8000A3F5FF61D7F8FC2713469B0013449B0076
:102A90000B440433D7F8F4271A6007F50063A3F555
:102AA000FF61D7F8FC2713469B0013449B000B449F
:102AB0000833D7F8F0271A60D7F8EC1707F500634A
:102AC000A3F5FF60D7F8FC2713469B0013449B0037
:102AD00003440C33196007F50063A3F5FF61D7F8D1
:102AE000FC2713469B0013449B000B441033D7F87C
:102AF000D8271A60D7F8FC370133C7F8FC37D7F866
:102B0000EC370133C7F8EC37D7F8EC37D7F8F027B4
:102B10009A42A3D2D7F8F0370133C7F8F037D7F885
:102B2000F037082B7FF656AFD7F8F4370133C7F8E4
:102B3000F437D7F8F437102B7FF648AFD7F8F837CB
:102B40000133C7F8F837D7F8F837B3F5806F7FF659
:102B500039AF184BDA6907F50063A3F5FF631B88EB
:102B6000013B194607F50063A3F5FF63DB68013BF2
:102B70001B06194307F50063A3F5FF635B68013B80
:102B80001B04194307F50063A3F5FF639B68013B32
:102B90001B050B4307491343CB610123184607F676
:102BA0000407BD4690BD00BF0000C84200008C4233
:102BB0000000A0420064004080B400AF194BDB6904
:102BC000184A43F00073D361164B9B69154A43F0D2
:102BD00001039361134B9B69124A43F0080393610D
:102BE000114B5B68104A23F0F00353600E4B5B6897
:102BF0000D4A23F00F0353600B4B5B680A4A43F006
:102C000004035360084B5B68074A43F0B00353600A
:102C1000064B5B68054A43F48043536000BFBD46E2
:102C200080BC704700100240000C014000000140D1
:102C300080B582B000AF7860FFF7BEFF374B1B68EE
:102C4000364A23F020031360344B1B68334A23F0C9
:102C500002031360314B1B68304A43F001031360D9
:102C600000BF2E4B5B6803F00103002BF9D078689E
:102C7000FFF778FE294B1B68284A43F04003136096
:102C8000264B1B68254A43F040031360234B1B6807
:102C9000224A43F004031360204B1B681F4A23F0B1
:102CA0000103136000BF1D4B5B6803F00103002BA1
:102CB000F9D11A4BD3F80032184A43F00103C2F895
:102CC0000032164B0022C3F81C22144B0022C3F81A
:102CD0000422124B0122C3F80C22104B0022C3F82D
:102CE00014220E4B0022C3F840220C4B0022C3F8E2
:102CF00044220A4BD3F81C32084A43F00103C2F8BD
:102D00001C32064BD3F80032044A23F00103C2F808
:102D10000032012318460837BD4680BD00640040DC
:102D200080B483B000AF314B9B697B602F4B9B69B4
:102D300003F00403002B14BF01230023DBB2FB705C
:102D40002A4B9B6903F00203002B14BF01230023CD
:102D5000DBB2BB70254B9B6903F00103002B14BF52
:102D600001230023DBB27B70FB78002B03D0204BC8
:102D700000221A7010E0BB78002B03D01C4B0022FD
:102D80001A7009E07B78002B03D0194B00221A70CF
:102D900002E0174B01221A707B6803F00403002B3A
:102DA0001FD0124B1B6803F04003002B19D10F4BAF
:102DB0001B680E4A43F00103136000BF0B4B5B68B6
:102DC00003F00103002BF9D0084B1B68074A23F0DE
:102DD0000103136000BF054B5B6803F00103002B88
:102DE000F9D100BF0C37BD4680BC7047006400407D
:102DF0000400002090B486B000AF3C4684E80F0089
:102E0000494B9B6803F0E0533B6100237B613B69C6
:102E100003F08063002B02D000237B610EE03B694E
:102E200003F00063002B02D001237B6106E03B69C5
:102E300003F08053002B01D002237B613A4A7B6967
:102E400018331B01134400221A603B79002B0FD169
:102E5000354A7B6918331B0113441A683B685B05CC
:102E600031491A437B6918331B010B441A6010E087
:102E70002D4A7B6918331B0113441A683B68DB0039
:102E80001343294943F004027B6918331B010B44A7
:102E90001A60BB79244903F00F027B6918331B01C8
:102EA0000B4404331A60204A7B6918331B01134416
:102EB0001B681D4943F002027B6918331B010B4458
:102EC0001A60194A7B6918331B01134404331B68C9
:102ED000154923F00F027B6918331B010B4404339F
:102EE0001A60114A7B6918331B01134404331B68B1
:102EF000BA790D491A437B6918331B010B4404331B
:102F00001A60094A7B6918331B0113441B68064980
:102F100043F001027B6918331B010B441A6000BFA8
:102F20001837BD4690BC70470064004080B483B041
:102F300000AF0346FB71FB79002B06D1084BDB6821
:102F4000DBB203F00303DBB205E0054B1B69DBB228
:102F500003F00303DBB218460C37BD4680BC704754
:102F60000064004080B485B000AF78600B46FB7011
:102F7000444AFB781B331B0113441B68DBB203F08C
:102F80000403DAB27B681A717B681B79002B0BD1C2
:102F90003C4AFB781B331B0113441B685B0DC3F3D6
:102FA0000A027B681A600AE0364AFB781B331B0171
:102FB00013441B68DB0823F060427B681A60314AC7
:102FC000FB781B331B0113441B68DBB203F00203C5
:102FD000DAB27B685A712B4AFB781B331B0113440E
:102FE00004331B68DBB203F00F03DAB27B689A711B
:102FF0000023FB7327E0FB7B032B10D8214AFB78CF
:103000001B01134403F5DC731A68FB7BDB00DA4019
:10301000FB7BD1B27A6813440A46DA7110E0194A90
:10302000FB781B01134403F5DE731A68FB7B043B3A
:10303000DB00DA40FB7BD1B27A6813440A46DA71CE
:10304000FB7B0133FB737B689B79FA7B9A42D2D37B
:10305000FB78002B06D10B4BDB680A4A43F02003B8
:10306000D36008E0FB78012B05D1064B1B69054AAC
:1030700043F020031361012318461437BD4680BC7A
:10308000704700BF0064004080B400AF0D4B9B69E7
:103090000C4A43F0080393610B4B5B680A4A23F028
:1030A00070435360084B5B68074A43F040535360DA
:1030B000054BDB68044A43F40043D36000BFBD46C0
:1030C00080BC704700100240000C014080B500AF8A
:1030D000174801F02DFD174801F02AFD164801F0B0
:1030E00027FD01F0F3F90346144AA2FB03239B0CCE
:1030F0001946134801F01CFD01F066FA03460F4A19
:10310000A2FB03239B0C19460E4801F011FD01F0B0
:1031100081FA0346094AA2FB03239B0C19460A487D
:1031200001F006FD044801F003FD00BF80BD00BFB3
:10313000D49E0008009F0008249F000883DE1B43E4
:103140004C9F0008649F00087C9F000880B487B0F3
:1031500000AFF860B9607A60FB703F4BD3F81C3267
:103160000121FA6801FA02F2D24311463A4A0B40B1
:10317000C2F81C32384BD3F804320121FA6801FA44
:1031800002F21146344A0B43C2F80432324BD3F8F0
:103190000C320121FA6801FA02F211462E4A0B4361
:1031A000C2F80C3297F82030002B17D0BB68DB0038
:1031B00043F004037B617B68DB0043F004033B6165
:1031C0002549FB6848337A6941F83320224AFB6875
:1031D0004833DB0013443A695A600EE01E49BB686D
:1031E0005A05FB68483341F833201B497B685A0570
:1031F000FB684833DB000B445A60FB78002B0DD191
:10320000154BD3F814320121FA6801FA02F2D243C5
:103210001146114A0B40C2F814320BE00E4BD3F8A2
:1032200014320121FA6801FA02F211460A4A0B43EC
:10323000C2F81432084BD3F81C320121FA6801FAA3
:1032400002F21146044A0B43C2F81C3200BF1C377D
:10325000BD4680BC704700BF0064004080B590B0A0
:1032600002AFF860B9607A603B6000237B634C4B2F
:10327000D3F800324A4A43F00103C2F80032002377
:103280003B6324E03B6B9B00FA6813441B687B6143
:103290003B6B0133BA689A4206DD3B6B01339B00FE
:1032A000FA6813441B6804E03B6B9B00FA68134404
:1032B0001B683B61786B431C7B63002300930023F6
:1032C0003A697969FFF742FF3B6B02333B633A6B24
:1032D000BB689A42D6DB0023FB6224E0FB6A9B00BA
:1032E0007A6813441B68FB61FB6A01333A689A42AF
:1032F00006DDFB6A01339B007A6813441B6804E017
:10330000FB6A9B007A6813441B68BB61786B431CA3
:103310007B63012300930023BA69F969FFF716FF65
:10332000FB6A0233FB62FA6A3B689A42D6DB0023EF
:10333000BB6224E0BB6A9B003A6C13441B687B624F
:10334000BB6A01337A6C9A4206DDBB6A01339B008B
:103350003A6C13441B6804E0BB6A9B003A6C13444C
:103360001B683B62786B431C7B6300230093012343
:103370003A6A796AFFF7EAFEBB6A0233BB62BA6A4D
:103380007B6C9A42D6DB064BD3F80032044A23F01A
:103390000103C2F8003200BF3837BD4680BD00BF10
:1033A00000640040B0B594B002AF144B07F138048C
:1033B0000FCB84E80F00124B07F108041D460FCD18
:1033C0000FC40FCD0FC495E80F0084E80F000D4A1D
:1033D0003B4692E8030083E803003A4607F13800D1
:1033E0000C23019307F10803009302230421FFF744
:1033F00035FF00BF4837BD46B0BD00BF949F0008F1
:10340000A49F0008D49F000880B582B002AF01F0ED
:10341000EDFB01F005F84FF4E13001F099FA0346B5
:10342000002B01D100F0C4F84FF4E1314E4801F017
:103430007FFB4E4801F07CFB4FF4E13001F01EFAB7
:103440000346002B01D100F0B3F8FFF73FFE4FF425
:10345000E131474801F06CFB444801F069FB4FF44F
:103460007A7000F001FF434801F062FB3F4801F031
:103470005FFB4148FFF7DCFB0346002B07D13F48C9
:1034800001F056FB3E4801F053FB00F091F8FFF7C6
:1034900089FF4FF4FA713B4801F04AFB334801F0D1
:1034A00047FB01F0E3F8384801F042FB2F4801F0F8
:1034B0003FFBFDF7BDFD354B9B681B0B03F0010186
:1034C000324B9B685B0B03F00102304B9B689B0BFC
:1034D00003F001032E4801F02BFB244801F028FBE8
:1034E000FFF7D2FD294B9B68DB0B03F00103194664
:1034F000284801F01DFB1D4801F01AFBFFF706FAF2
:10350000224B9B6803F00101204B9B685B0803F092
:1035100001021E4B9B68DB0803F001001B4B9B68FC
:103520005B0903F00103009303461B4801F000FB15
:103530000E4801F0FDFAFDF7A1FD1849322001F017
:10354000CBF81749642001F0C7F81649002001F0B4
:10355000C3F81549642001F0BFF81449322001F086
:10356000BBF801F007F9FCE7DC9F000814A0000895
:1035700050A0000888A0000820A10700B4A00008FF
:10358000D4A0000810A1000848A10008000C0140C8
:1035900068A10008A4A10008D0A1000845360008D1
:1035A00009370008BD35000861370008693B00088D
:1035B00080B400AF00BFBD4680BC704780B584B00A
:1035C00000AF0020FFF7B2FC0346002B12D0194BCE
:1035D00000221A60184B01221A603B46002118464F
:1035E000FFF7C0FC3B46184601F05EFA3B46184622
:1035F000FEF7A0FC0120FFF799FC0346002B12D038
:103600000E4B00221A600E4B01221A603B4601212C
:103610001846FFF7A7FC3B46184601F045FA3B4623
:103620001846FDF73FFEFFF77BFB00BF1037BD4696
:1036300080BD00BF9C05002094050020A00500204F
:103640009805002080B584B000AFFDF783FD0346E8
:103650001A46274B1A70264B1A78264B1B789A422B
:1036600029D0234B1A78234B1A70234BDB68224A4C
:1036700043F00B03D3601E4B1B78022B06D0022BAA
:1036800019DC002B09D0012B0ED014E01A4BDB689B
:10369000194A23F00103D3600DE0174BDB68164A8B
:1036A00023F00203D36006E0134BDB68124A23F0D9
:1036B0000803D36000BF40F223133B600823BB71B3
:1036C0000B4B1B78FB710D4B1B78DBB23B720C4B29
:1036D0001B68DBB27B720B4B1B68DBB2BB723B46D9
:1036E000184601F0E1F900BF1037BD4680BD00BFAC
:1036F0008D0500208C050020000C014004000020F6
:10370000940500209805002080B584B000AF114BCF
:103710001B781A46104B33F812303B6000233B7184
:103720000823BB713B460FCBFFF764FB094B1B78AB
:103730000133DAB2074B1A70064B1A78074B1B7825
:103740009A4202D3034B00221A7000BF1037BD46C5
:1037500080BD00BF8E050020080000202200002050
:103760002DE9F04FA5B014AFB24B93F8F83103F048
:103770000103DBB2002B27D0AE4BD3E97489AD4BEC
:10378000D3E97623AB49D1E97801AA4CD4F8E841D2
:10379000E517A246AB46A74C04F5F875D5E90045F8
:1037A000CDE90645CDE904ABCDE90201CDE9002321
:1037B00042464B46A04801F0BBF99E4A92F8F831C8
:1037C00023F0010382F8F8319A4B93F8C83103F0E3
:1037D0000103DBB2002B6AD0964BD3F88831FB6330
:1037E000944BD3F88C21BA63924BD3F89001786351
:1037F000904BD3F894018F4BD3F898418D4BD3F86D
:103800009C518C4BD3F8A0618A4BD3F8A4C1C7F864
:1038100030C0884BD3F8A8E1C7F82CE0854BD3F82B
:10382000AC81C7F82880834BD3F8B091C7F82490B7
:10383000804BD3F8B4A1C7F820A07E4BD3F8B8B121
:10384000C7F81CB07B4BD3F8BC117A4BD3F8C0211E
:10385000784BD3F8C4310C930B920A91D7F81CB073
:10386000CDF824B0D7F820A0CDF820A0D7F8249028
:10387000CDF81C90D7F82880CDF81880D7F82CE028
:10388000CDF814E0D7F830C0CDF810C003960295FB
:10389000019400907B6BBA6BF96B684801F048F9B2
:1038A000644A92F8C83123F0010382F8C831614BB1
:1038B00093F8843103F00103DBB2002B61D05D4B40
:1038C000D3F84831FB635B4BD3F84C21BA63594BB7
:1038D000D3F850017863574BD3F85411554BD3F8B4
:1038E0005801544BD3F85C41524BD3F86051514BC3
:1038F000D3F864614F4BD3F868C1C7F830C04D4B63
:10390000D3F86CE1C7F82CE04A4BD3F87081C7F8C4
:103910002880484BD3F87491C7F82490454BD3F8CE
:1039200078A1C7F820A0434BD3F87C21414BD3F8B2
:1039300080310B930A92D7F820A0CDF824A0D7F8B5
:103940002490CDF82090D7F82880CDF81C80D7F8A7
:103950002CE0CDF818E0D7F830C0CDF814C00496AC
:1039600003950294019000917B6BBA6BF96B34481C
:1039700001F0DEF82F4A92F8843123F0010382F837
:1039800084312C4B93F8803003F00103DBB2002B21
:1039900000F08E80274B1B6AFB63264B5A6ABA6382
:1039A000244B986A7863234BDC6A3C63214B1D6B84
:1039B000FD62204B5E6BBE621E4BD3F838C0C7F869
:1039C00024C01C4BD3F83CE0C7F820E0194BD3F8D7
:1039D0004080C7F81C80174BD3F84490C7F8189064
:1039E000144BD3F848A0C7F814A0124BD3F84CB02E
:1039F000C7F810B00F4B196DF9600E4B586DB860D9
:103A00000C4B9C6D7C600B4BDD6D3D60094B1E6E5D
:103A1000084B5D6E074B9C6E064BD86E054B196FBD
:103A2000044B5A6F034B9B6F13931292119110909A
:103A300008E000BF3803002018A200085CA20008BC
:103A4000D4A200080F940E950D963D680C957C68E5
:103A50000B94B8680A90F9680991D7F810B0CDF8BE
:103A600020B0D7F814A0CDF81CA0D7F81890CDF846
:103A70001890D7F81C80CDF81480D7F820E0CDF846
:103A800010E0D7F824C0CDF80CC0BE6A0296FD6ADB
:103A900001953C6B00947B6BBA6BF96B2E4801F07F
:103AA00047F82E4A92F8803023F0010382F88030E4
:103AB0002A4B93F8403103F00103DBB2002B27D0EF
:103AC000264A92F8403123F0010382F84031234B1B
:103AD000D3F82061214BD3F82431FB631F4BD3E98A
:103AE0004A231E49D1F830111C48D0F834011B4C30
:103AF000D4F83841194DD5F83C51059504940390FC
:103B00000291CDE90023FA6B3146154801F010F817
:103B1000124B1B7E03F00103DBB2002B16D00F4BC0
:103B2000D3E900450D4BD3E902230C49D1E9040147
:103B3000CDE90201CDE9002322462B46094800F0D9
:103B4000F7FF064A137E23F00103137600BF4437C4
:103B5000BD46BDE8F08F00BF44A300083803002035
:103B6000ECA3000838A400082DE9F04399B010AF89
:103B7000AD4B9B7B03F00103DBB2002B25D0AA4A9F
:103B8000937B23F001039373A74B1B681846FCF744
:103B90004BFC80468946A44B5B681846FCF744FC06
:103BA00004460D46A04B9B681846FCF73DFC0246B8
:103BB0000B469D4989890491CDE90223CDE9004551
:103BC00042464B46994800F0B3FF974B9B7E03F06B
:103BD0000103DBB2002B19D0934A937E23F001033B
:103BE0009376914B1B691846FCF71EFC02460B4668
:103BF0008D49898A08468C49C98A0C468A49098BAD
:103C00000291019400908A4800F092FF864B93F84D
:103C1000423003F00103DBB2002B65D0824A92F8F8
:103C2000423023F0010382F842307F4B1B7F9C46D9
:103C30007D4B5B7F9E467C4B9B7F98467A4BDB7F20
:103C40001D46794B93F820301E46774B93F8213070
:103C5000FB61754B93F82230BB61734B93F82330B3
:103C60007B61714B93F824303B616F4B93F82530A7
:103C7000FB606D4B93F82630BB606B4B93F827309D
:103C80007B60694B93F828303B60674B93F8293091
:103C90001C46654B93F82A301846634B93F82B303B
:103CA0001946614BDB8F1A465F4BB3F840300E93D9
:103CB0000D920C910B900A943A6809927A680892D6
:103CC000BA680792FA6806923A6905927A6904928C
:103CD000BA690392FB6902930196009543467246C6
:103CE0006146544800F024FF4F4B93F84C3003F0EA
:103CF0000103DBB2002B1AD04B4A92F84C3023F070
:103D0000010382F84C30484BB3F844301946464B17
:103D1000B3F946301A46444BB3F848301846424B84
:103D2000B3F84A3000930346434800F001FF3E4B8E
:103D300093F8523003F00103DBB2002B14D03A4A5F
:103D400092F8523023F0010382F85230364B93F848
:103D50004E301946344B93F84F301A46324BB3F875
:103D60005030364800F0E4FE2F4B93F8623003F0F9
:103D70000103DBB2002B28D02B4A92F8623023F0EB
:103D8000010382F86230284B5B6D1846FCF74CFB50
:103D900080468946244B9B6D1846FCF745FB04463C
:103DA0000D46214BDB6D1846FCF73EFB02460B46E9
:103DB0001D49B1F860100491CDE90223CDE9004519
:103DC00042464B461E4800F0B3FE174B93F8723044
:103DD00003F00103DBB2002B1FD0134A92F87230BC
:103DE00023F0010382F872300F4B5B6E1846FCF72C
:103DF0001BFB04460D460C4B9B6E1846FCF714FB50
:103E000002460B460849B1F870100291CDE9002333
:103E100022462B460B4800F08BFE034B93F8823072
:103E200003F00103DBB20FE02002002068A40008C9
:103E3000C0A4000804A500089CA50008E4A500088B
:103E40001CA600085CA60008002B28D0884A92F81F
:103E5000823023F0010382F88230854B5B6F184675
:103E6000FCF7E2FA80468946814B9B6F1846FCF7C7
:103E7000DBFA04460D467E4BDB6F1846FCF7D4FA9E
:103E800002460B467A49B1F880100491CDE902232D
:103E9000CDE9004542464B46764800F049FE744B5A
:103EA00093F89230002B28D0714B002283F8922097
:103EB0006F4BD3F884301846FCF7B6FA8046894633
:103EC0006B4BD3F888301846FCF7AEFA04460D4623
:103ED000674BD3F88C301846FCF7A6FA02460B461F
:103EE0006349B1F890100491CDE90223CDE9004572
:103EF00042464B46604800F01BFE5D4B93F8A230F3
:103F000003F00103DBB2002B2BD0594A92F8A23008
:103F100023F0010382F8A230554BD3F894301846B1
:103F2000FCF782FA80468946514BD3F89830184600
:103F3000FCF77AFA04460D464D4BD3F89C301846F0
:103F4000FCF772FA02460B464949B1F8A0100491F9
:103F5000CDE90223CDE9004542464B46474800F0F3
:103F6000E7FD434B93F8B23003F00103DBB2002BC3
:103F70002BD03F4A92F8B23023F0010382F8B230DE
:103F80003B4BD3F8A4301846FCF74EFA80468946DE
:103F9000374BD3F8A8301846FCF746FA04460D46CE
:103FA000334BD3F8AC301846FCF73EFA02460B46CA
:103FB0002F49B1F8B0100491CDE90223CDE90045B5
:103FC00042464B462E4800F0B3FD294B93F8C230D1
:103FD00003F00103DBB2002B2BD0254A92F8C2304C
:103FE00023F0010382F8C230214BD3F8B4301846D5
:103FF000FCF71AFA804689461D4BD3F8B8301846AC
:10400000FCF712FA04460D46194BD3F8BC3018469B
:10401000FCF70AFA02460B461549B1F8C0100491A4
:10402000CDE90223CDE9004542464B46154800F054
:104030007FFD0F4B93F8D23003F00103DBB2002B6E
:1040400011D00B4A92F8D23023F0010382F8D2301B
:10405000074BD3F8C4301846FCF7E6F902460B4686
:10406000094800F065FD00BF2437BD46BDE8F08378
:10407000200200208CA60008C8A6000804A700089B
:1040800040A7000880A70008C0A7000880B485B03A
:1040900000AF154B9B69144A43F001039361124B27
:1040A0009B6903F00103BB60BB680F4BDB690E4AE1
:1040B00043F08053D3610C4BDB6903F080537B608A
:1040C0007B680A4B5B68FB60FB6823F0E063FB6086
:1040D000FB6843F08063FB60044AFB68536000BFE9
:1040E0001437BD4680BC70470010024000000140FC
:1040F00080B588B000AF786007F1100300221A6025
:104100005A609A60DA607B681B681D4A934233D11B
:104110001C4B9B691B4A43F008039361194B9B6935
:1041200003F00803FB60FB68C0233B6112237B6143
:104130000323FB6107F110031946134800F042FF07
:10414000104BDB690F4A43F40013D3610D4BDB695D
:1041500003F40013BB60BB68002200211F2000F0A5
:1041600074FE1F2000F08DFE00220021202000F0B0
:104170006CFE202000F085FE00BF2037BD4680BDCC
:104180000054004000100240000C014080B400AF19
:1041900000BFFDE780B400AF00BFFDE780B400AF13
:1041A00000BFFDE780B400AF00BFFDE780B400AF03
:1041B00000BFFDE780B400AF00BFBD4680BC7047C4
:1041C00080B400AF00BFBD4680BC704780B400AF74
:1041D00000BFBD4680BC704780B500AF00F04CFD0D
:1041E000124B1B680133114A1360114B1B6840F2DC
:1041F000DB52934205D80E4B1B6801330C4A136007
:1042000002E00C4B00221A600B4B1B6840F2DB52A1
:10421000934205D8084B1B680133074A136002E03C
:10422000064B00221A6000BF80BD00BF9005002031
:104230009C05002094050020A00500209805002082
:1042400080B500AF024801F007FA00BF80BD00BF93
:104250003805002080B500AF024801F06EFB00BFBA
:1042600080BD00BF3805002080B582B000AF786007
:1042700000F02CF902467B68B2FBF3F3064A013BDF
:104280005360054B00229A60034B07221A6000BF5F
:104290000837BD4680BD00BF10E000E080B400AF2D
:1042A00001231846BD4680BC704780B582B000AF80
:1042B0007860396003F0C4FC034616221A604FF0A0
:1042C000FF3318460837BD4680BD80B582B000AFC9
:1042D00078604FF0FF317868FFF7E7FF00BFFDE738
:1042E00080B586B000AFF860B9607A6000237B616A
:1042F0000AE0AFF300800146BB685A1CBA60CAB23C
:104300001A707B6901337B617A697B689A42F0DBC2
:104310007B6818461837BD4680BD80B586B000AFB3
:10432000F860B9607A6000237B6109E0BB685A1CC1
:10433000BA601B781846AFF300807B6901337B615C
:104340007A697B689A42F1DB7B6818461837BD466C
:1043500080BD80B483B000AF78604FF0FF33184663
:104360000C37BD4680BC704780B483B000AF786026
:1043700039603B684FF400525A60002318460C37EE
:10438000BD4680BC704780B483B000AF7860012325
:1043900018460C37BD4680BC704780B485B000AF6E
:1043A000F860B9607A60002318461437BD4680BCB7
:1043B0007047000080B586B000AF7860144A154B96
:1043C000D31A7B617B693B61134B1B68002B02D1C5
:1043D000114B124A1A60104B1A687B6813443A69F1
:1043E0009A4207D203F02CFC03460C221A604FF0CD
:1043F000FF3309E0084B1B68FB60074B1A687B68BA
:104400001344054A1360FB6818461837BD4680BD43
:104410000050002000040000A405002098070020A0
:1044200080B400AF274B1B68264A43F480331360E7
:1044300000BF244B1B6803F40033002BF9D0224B40
:104440001B68214A43F0040313601F4B1B681E4A7C
:1044500043F0100313601B4B5B681A4A43F4E013EC
:104460005360184B5B68174A43F480335360154B15
:104470005B68144A43F480635360124B5B68114AD3
:1044800023F4605353600F4B1B680E4A43F0807354
:10449000136000BF0B4B1B6803F00073002BF9D0B7
:1044A000084B5B68074A43F00203536000BF054BAB
:1044B0005B6803F00C03082BF9D100BF1846BD461A
:1044C00080BC7047001002400020024080B487B0DA
:1044D00000AF264BBB60254B7B60254B5B689B0880
:1044E00003F003033B603B68022B0DD03B68022BBB
:1044F00035D83B68002B03D03B68012B02D02EE05F
:104500007B682DE0BB682BE0194B5B6803F48033BC
:10451000002B10D0164B5B6803F40033002B02D045
:1045200002233B6101E001233B61BA683B69B2FBB6
:10453000F3F3FB6002E07B685B08FB600C4B5B689D
:104540009B0C03F00F0302337B617B690F2B01D1BE
:1045500010237B61FB687A6902FB03F300E07B6850
:1045600018461C37BD4680BC704700BF00127A0059
:1045700000100240B0B592B000AF114B3C1D1D467B
:104580000FCD0FC40FCD0FC40FCD0FC495E80F0092
:1045900084E80F000B4B5B681B0903F00F037B647F
:1045A000FFF794FF02467B6C9B0048333B4453F873
:1045B000443CB2FBF3F318464837BD46B0BD00BFDC
:1045C000D8A7000800100240B0B58AB000AF0F4B6A
:1045D0003C1D1D460FCD0FC495E80F0084E80F0069
:1045E0000B4B5B681B0A03F007037B62FFF7C2FFFC
:1045F00002467B6A9B0028333B4453F8243CB2FBC1
:10460000F3F318462837BD46B0BD00BF18A8000810
:1046100000100240B0B58AB000AF0F4B3C1D1D46E4
:104620000FCD0FC495E80F0084E80F000B4B5B68BB
:10463000DB0A03F007037B62FFF79CFF02467B6AFD
:104640009B0028333B4453F8243CB2FBF3F3184659
:104650002837BD46B0BD00BF18A8000800100240B2
:1046600080B400AF00BFBD4680BC704780B483B04B
:1046700000AF00237B6024E0164A7B681B011344D3
:1046800000221A60134A7B681B0113440433002282
:104690001A60104A7B681B0113440C3300221A7005
:1046A0000C4A7B681B011344083300221A60094A34
:1046B0007B681B0113440D3300221A707B680133A1
:1046C0007B607B68092BD7DD00BF00BF0C37BD4680
:1046D00080BC7047A805002080B485B000AF78602A
:1046E00039600023FB6037E0204AFB681B0113445C
:1046F0000C331B78002B2CD11C4AFB681B01134484
:1047000008331B68002B24D1184AFB681B01134493
:104710000C3301221A70164B1A681449FB681B01EE
:104720000B4404331A60114AFB681B0113440D3318
:1047300000221A700D4AFB681B0113447A681A6044
:104740000A4AFB681B01134408333A681A60FB6885
:1047500007E0FB680133FB60FB68092BC4DD4FF009
:10476000FF3318461437BD4680BC7047A8050020AB
:104770009005002080B582B000AF00237B603CE054
:10478000224A7B681B0113440C331B78002B31D069
:104790001E4A7B681B01134408331B68002B29D079
:1047A0001B4B1A6819497B681B010B4404331B68B7
:1047B000D21A16497B681B010B441B689A4219D90F
:1047C000134B1A6811497B681B010B4404331A60B0
:1047D0000E4A7B681B01134408331B6898470B4A39
:1047E0007B681B0113440D331B78012B02D17868C1
:1047F00000F010F87B6801337B607B68092BBFDD1C
:1048000000BF00BF0837BD4680BD00BFA80500201F
:104810009005002080B483B000AF78607B68002BE7
:1048200024DB7B68092B21DC134A7B681B011344C2
:104830000C3300221A70104A7B681B0113440433A6
:1048400000221A600C4A7B681B0113440D330022BE
:104850001A70094A7B681B01134400221A60064A39
:104860007B681B011344083300221A6000BF0C3719
:10487000BD4680BC704700BFA805002080B584B04D
:1048800000AF78602D4B9B692C4A43F00403936181
:104890002A4B9B69294A43F480439361274B5B6908
:1048A000264A43F001035361254B5B68244A23F4F5
:1048B0007F635360224B5B68214A43F0B00353602F
:1048C0001F4B5B681E4A43F4806353601D4B0022FC
:1048D000DA60FFF79FFEF860FB68002B02D07B6870
:1048E000002B01D1002324E07B685A08FB681A449E
:1048F0007B68B2FBF3F3BB60124ABB689360114B59
:10490000DB68104A43F4005343F00C03D3600E4BB2
:1049100000221A600C4B0D4A9A600B4B90221A60D1
:10492000084BDB6803F40053002B01D1002300E0A7
:10493000012318461037BD4680BD00BF001002405D
:1049400000080140003801404400024004380140A2
:1049500080B485B000AF7860234B9B69224A43F056
:1049600008039361204BDB691F4A43F48023D36122
:104970001E4B5B681D4A23F4706353601B4B5B68DE
:104980001A4A43F440735360184B5B68174A43F468
:1049900000635360154B5B68144A23F47043536003
:1049A000124B5B68114A43F480435360104B002262
:1049B000DA60104BFB607B685A08FB681A447B681E
:1049C000B2FBF3F3BB600A4ABB689360084BDB6839
:1049D000074A43F4005343F00C03D3600123184605
:1049E0001437BD4680BC704700100240000C0140E7
:1049F000004800400051250280B485B000AF7860C7
:104A000039600023FB600FE000BF104B1B6803F010
:104A10008003002BF9D07A68FB6813441A780B4B9B
:104A20005A60FB680133FB60FA683B689A42EBD33B
:104A300000BF064B1B6803F04003002BF9D000BFFA
:104A400000BF1437BD4680BC704700BF003801402E
:104A500080B485B000AF786039600023FB600FE060
:104A600000BF104B1B6803F08003002BF9D07A685D
:104A7000FB6813441A780B4B5A60FB680133FB60E8
:104A8000FA683B689A42EBD300BF064B1B6803F001
:104A90004003002BF9D000BF00BF1437BD4680BCD7
:104AA000704700BF0048004080B588B000AF786014
:104AB00000BF1E4B1B6803F08003002BF9D01B4B7B
:104AC000AA225A607B681B68DBB2FB737B681B6899
:104AD0001B0ADBB2BB737B681B681B0CDBB27B73EE
:104AE0007B681B681B0EDBB23B737B689B793B7456
:104AF0000023FB610DE0FB6905337968FA690A441C
:104B00000732127820333B4403F8142CFB6901333D
:104B1000FB61FB69072BEEDD07F10C030D21184645
:104B2000FFF76AFF00BF2037BD4680BD0038014057
:104B30000FB480B5ADF5007D00AF07F5037207F542
:104B40000073A3F5FE731A6007F50073A3F5FE73F7
:104B500007F108001B68D7F808224FF4FA7103F038
:104B60000FF8C7F8FC01D7F8FC31002B10DDD7F89F
:104B7000FC31B3F5FA7F03D94FF4FA73C7F8FC316F
:104B8000D7F8FC2107F1080311461846FFF760FF2C
:104B900000BF07F50077BD46BDE8804004B0704710
:104BA000FFF75EFD0B480C490C4A002302E0D45885
:104BB000C4500433C4188C42F9D3094A094C002369
:104BC00001E013600432A242FBD303F03FF8FEF78A
:104BD0001BFC704700000020F8010020C4AB000857
:104BE000F801002098070020FEE7000080B500AF24
:104BF000084B1B68074A43F010031360032000F0C2
:104C000019F90F2000F008F8FFF740FA00231846C2
:104C100080BD00BF0020024080B582B000AF786048
:104C2000124B1A68124B1B7819464FF47A73B3FB78
:104C3000F1F3B2FBF3F3184600F031F90346002B11
:104C400001D001230EE07B680F2B0AD8002279687F
:104C50004FF0FF3000F0F9F8064A7B68136000233C
:104C600000E0012318460837BD4680BD240000201F
:104C70002C0000202800002080B400AF054B1B78DA
:104C80001A46054B1B681344034A136000BFBD4618
:104C900080BC70472C0000204806002080B485B0FE
:104CA00000AF78607B6803F00703FB600C4BDB68A8
:104CB000BB60BA684FF6FF031340BB60FB681A0283
:104CC000BB68134343F0BF6343F40033BB60044A43
:104CD000BB68D36000BF1437BD4680BC704700BFBF
:104CE00000ED00E080B400AF044BDB681B0A03F06A
:104CF00007031846BD4680BC704700BF00ED00E0CA
:104D000080B483B000AF0346FB7197F90730002BE6
:104D10000BDBFB7903F01F02064997F907305B09AB
:104D2000012000FA02F241F8232000BF0C37BD46F3
:104D300080BC704700E100E080B483B000AF034660
:104D40003960FB7197F90730002B0ADB3B68DAB258
:104D50000C4997F907301201D2B20B4483F80023B3
:104D60000AE03B68DAB20849FB7903F00F03043B21
:104D70001201D2B20B441A7600BF0C37BD4680BC7C
:104D8000704700BF00E100E000ED00E080B489B0B2
:104D900000AFF860B9607A60FB6803F00703FB615D
:104DA000FB69C3F10703042B28BF0423BB61FB6924
:104DB0000433062B02D9FB69033B00E000237B612F
:104DC0004FF0FF32BB6902FA03F3DA43BB681A40C3
:104DD0007B699A404FF0FF317B6901FA03F3D943B5
:104DE0007B680B40134318462437BD4680BC704790
:104DF00080B582B000AF78607B68013BB3F1807F03
:104E000001D301230FE00A4A7B68013B53600F2165
:104E10004FF0FF30FFF790FF054B00229A60044BE4
:104E200007221A60002318460837BD4680BD00BF20
:104E300010E000E080B582B000AF78607868FFF7DE
:104E40002DFF00BF0837BD4680BD80B586B000AFDE
:104E50000346B9607A60FB7300237B61FFF742FF72
:104E600078617A68B9687869FFF790FF024697F928
:104E70000F3011461846FFF75FFF00BF1837BD46D9
:104E800080BD80B582B000AF0346FB7197F9073053
:104E90001846FFF735FF00BF0837BD4680BD80B517
:104EA00082B000AF78607868FFF7A2FF034618462B
:104EB0000837BD4680BD000080B584B000AF786083
:104EC0000023FB737B6893F82130DBB2022B05D003
:104ED0007B6804229A630123FB7351E07B681B68A3
:104EE0001A687B681B6822F00E021A607B681B68D8
:104EF0001A687B681B6822F001021A607B681B68D5
:104F0000224A934229D07B681B68214A934222D0CF
:104F10007B681B681F4A93421AD07B681B681E4A35
:104F2000934212D07B681B681C4A93420AD07B686C
:104F30001B681B4A934202D14FF480130EE04FF0DE
:104F400080730BE04FF4803308E04FF4805305E0AA
:104F50004FF4807302E0102300E00123114A5360F4
:104F60007B68012283F821207B68002283F82020BF
:104F70007B685B6B002B03D07B685B6B7868984722
:104F8000FB7B18461037BD4680BD00BF08000240BD
:104F90001C00024030000240440002405800024021
:104FA0006C0002400000024080B483B000AF786023
:104FB0007B6893F82130DBB218460C37BD4680BCC5
:104FC0007047000080B48BB000AF78603960002378
:104FD0007B6200233B6269E101227B6A02FA03F3F0
:104FE000FB613B681B68FA691340BB61BA69FB69E6
:104FF0009A4240F058813B685B689A4A93425ED07F
:10500000984A934275D8984A934258D0964A934208
:105010006FD8964A934252D0944A934269D8944AA0
:1050200093424CD0924A934263D8924A934246D0DC
:10503000904A93425DD8122B2AD8122B59D801A23C
:1050400052F823F0BF50000899500008AB500008F8
:10505000ED500008F3500008F3500008F35000082A
:10506000F3500008F3500008F3500008F350000814
:10507000F3500008F3500008F3500008F350000804
:10508000F3500008F3500008A1500008B550000884
:10509000794A934213D02CE03B68DB683B6229E0FD
:1050A0003B68DB6804333B6224E03B68DB68083321
:1050B0003B621FE03B68DB680C333B621AE03B68F5
:1050C0009B68002B02D104233B6213E03B689B6882
:1050D000012B05D108233B627B68FA691A6109E05C
:1050E00008233B627B68FA695A6103E000233B6254
:1050F00000E000BFBB69FF2B01D87B6801E07B6843
:1051000004337B61BB69FF2B02D87B6A9B0002E002
:105110007B6A083B9B003B617B691A680F213B69F6
:1051200001FA03F3DB431A40396A3B6901FA03F3DE
:105130001A437B691A603B685B6803F08053002B5D
:1051400000F0B1804D4B9B694C4A43F001039361E1
:105150004A4B9B6903F00103BB60BB68484A7B6A0A
:105160009B08023352F82330FB607B6A03F0030391
:105170009B000F2202FA03F3DB43FA681340FB6043
:105180007B68404A934213D07B683F4A93420DD0DC
:105190007B683E4A934207D07B683D4A934201D1E7
:1051A000032306E0042304E0022302E0012300E0DD
:1051B00000237A6A02F0030292009340FA681343D4
:1051C000FB602F497B6A9B080233FA6841F8232071
:1051D0003B685B6803F48013002B06D02D4B9A6864
:1051E0002C49BB6913438B6006E02A4B9A68BB6964
:1051F000DB43284913408B603B685B6803F4001372
:10520000002B06D0234BDA682249BB691343CB60DD
:1052100006E0204BDA68BB69DB431E491340CB60D4
:105220003B685B6803F40033002B06D0194B5A68C7
:105230001849BB6913434B6006E0164B5A68BB69BB
:10524000DB43144913404B603B685B6803F48033D5
:10525000002B21D00F4B1A680E49BB6913430B601A
:1052600021E000BF000032100000311000002210C9
:105270000000211000001210000011100010024068
:105280000000014000080140000C014000100140F6
:1052900000140140000401400B4B1A68BB69DB435A
:1052A000094913400B607B6A01337B623B681A68D3
:1052B0007B6A22FA03F3002B7FF48EAE00BF00BF9F
:1052C0002C37BD4680BC70470004014080B584B0D7
:1052D00000AF78607B68002B01D101232BE17B6854
:1052E00093F83D30DBB2002B06D17B68002283F8B7
:1052F0003C207868FEF7FCFE7B68242283F83D2082
:105300007B681B681A687B681B6822F001021A60C0
:105310007B681B681A687B681B6842F400421A604D
:105320007B681B681A687B681B6822F400421A605D
:1053300001F084FEF8607B685B68814A934207D87D
:10534000FB68804A934294BF01230023DBB206E04E
:10535000FB687D4A934294BF01230023DBB2002BFC
:1053600001D00123E7E0FB68784AA2FB03239B0CF2
:10537000BB607B681B685B6823F03F017B681B6830
:10538000BA680A435A607B681B681B6A23F03F01B6
:105390007B685B686A4A934202D8BB68013309E0C4
:1053A000BB684FF4967202FB03F3694AA2FB032326
:1053B0009B0901337A6812680B4313627B681B6890
:1053C000DB6923F44F4222F0FF027B685B685C4993
:1053D0008B4219D8FB68591E7B685B685B00B1FB88
:1053E000F3F3591C40F6FC730B40002B0AD0FB680A
:1053F000591E7B685B685B00B1FBF3F30133C3F3B9
:105400000B0351E004234FE07B689B68002B11D114
:10541000FB68581E7B6859680B465B000B44B0FB69
:10542000F3F30133C3F30B03002B0CBF0123002361
:10543000DBB212E0FB68581E7B6859680B469B0084
:105440000B4499000B44B0FBF3F30133C3F30B039C
:10545000002B0CBF01230023DBB2002B01D0012362
:1054600022E07B689B68002B0ED1FB68581E7B688E
:1054700059680B465B000B44B0FBF3F30133C3F3F5
:105480000B0343F400430FE0FB68581E7B68596828
:105490000B469B000B4499000B44B0FBF3F3013324
:1054A000C3F30B0343F44043796809681343CB61AA
:1054B0007B681B681B6823F0C0017B68DA697B6826
:1054C0001B6A1A437B681B680A431A607B681B6867
:1054D0009B6823F4034323F0FF037A6811697A6819
:1054E000D26811437A6812680B4393607B681B682B
:1054F000DB6823F0FF017B685A697B689B691A436C
:105500007B681B680A43DA607B681B681A687B68E3
:105510001B6842F001021A607B6800221A647B68F3
:10552000202283F83D207B6800221A637B680022DA
:1055300083F83E20002318461037BD4680BD00BFCB
:10554000A08601007F841E00FF083D0083DE1B4310
:10555000D34D621080B483B000AF78607B681B6865
:105560005B6903F08003802B03D17B681B680022FA
:105570001A6100BF0C37BD4680BC704780B485B04F
:1055800000AFF860B9601346FB80FB6893F83D30CC
:10559000DBB2202B58D1BB68002B02D0FB88002B3C
:1055A00001D1012351E0FB6893F83C30012B01D17C
:1055B00002234AE0FB68012283F83C20FB681B6859
:1055C0001B6803F00103012B07D0FB681B681A68F6
:1055D000FB681B6842F001021A60FB681B681A68CE
:1055E000FB681B6822F400621A60FB68222283F8C1
:1055F0003D20FB68202283F83E20FB6800221A64CD
:10560000FB68BA685A62FB68FA885A85FB685B8D4A
:105610009AB2FB681A85FB680E4ADA62FB681B685F
:105620001A68FB681B6842F480621A60FB680022FB
:1056300083F83C20FB681B685A68FB681B6842F4CF
:10564000E0625A60002300E0022318461437BD468A
:1056500080BC70470000FFFF80B588B000AF786065
:105660000023BB617B681B685B687B617B68DB6ACE
:105670003B617B6893F83E30FB737B6893F83D3069
:10568000BB73FB7B102B03D0FB7B402B40F0C18016
:105690007B681B689B69BB617B681B685B69FB61FE
:1056A000FB6903F00103002B0DD13B69B3F52A0F11
:1056B00003D03B69B3F12A4F01D1012300E000235D
:1056C000012B00F03281FB6903F00103002B0CD0A9
:1056D0007B695B0A03F00103002B06D0786801F0B8
:1056E00089FC786800F087FD92E0FB69DB0803F035
:1056F0000103002B09D07B695B0A03F00103002B37
:1057000003D0786800F0FCFD82E0FB695B0803F0E1
:105710000103002B09D07B695B0A03F00103002B16
:1057200003D0786800F015FE72E0BB699B0803F0B7
:105730000103002B3BD07B681B685B6803F40063AC
:10574000B3F5006F00F0F380FB69DB0903F00103A0
:10575000002B0FD07B699B0A03F00103002B09D0BB
:10576000FB699B0803F00103002B03D1786800F06C
:10577000DFF94DE0FB699B0803F00103002B00F00B
:10578000D6807B695B0A03F00103002B00F0CF8019
:10579000BB7B212B03D1786800F066FAC7E0FB7B66
:1057A000402B40F0C480786800F0D4FABFE07B68FA
:1057B0001B685B6803F40063B3F5006F00F0B7800B
:1057C000FB699B0903F00103002B0FD07B699B0A47
:1057D00003F00103002B09D0FB699B0803F00103D0
:1057E000002B03D1786800F04DFB11E0FB699B08AA
:1057F00003F00103002B00F09A807B695B0A03F041
:105800000103002B00F09380786800F003FC8EE029
:105810008DE07B681B6C002B04D07B681B685B6988
:10582000FB6107E07B681B689B69BB617B681B6849
:105830005B69FB61FB695B0803F00103002B12D07D
:105840007B695B0A03F00103002B0CD07B681B6CA7
:10585000002B03D07B681B689B69BB61B9697868C2
:1058600000F0CEFF66E0FB691B0903F00103002B8B
:1058700009D07B695B0A03F00103002B03D0786831
:1058800001F008F856E0BB7B212B02D0BB7B292B13
:1058900025D1FB69DB0903F00103002B0FD07B69E5
:1058A0009B0A03F00103002B09D0FB699B0803F05E
:1058B0000103002B03D1786800F0E6FE39E0FB69B4
:1058C0009B0803F00103002B33D07B695B0A03F0D4
:1058D0000103002B2DD0786800F013FF29E0FB694D
:1058E0009B0903F00103002B0FD07B699B0A03F097
:1058F0000103002B09D0FB699B0803F00103002B77
:1059000003D1786800F01DFF14E0FB699B0803F0E9
:105910000103002B0ED07B695B0A03F00103002B0F
:1059200008D0786800F04BFF04E000BF02E000BF41
:1059300000E000BF2037BD4680BD80B58AB000AF13
:1059400078607B681B685B693B627B681B685B688F
:10595000FB6100237B627B6893F83E30FB763B6AF9
:105960001B0A03F00103002B16D0FB691B0A03F08E
:105970000103002B10D07B6A43F001037B627B683C
:105980001B686FF480725A617B681B681A687B68B9
:105990001B6842F400421A603B6A5B0A03F0010391
:1059A000002B0ED0FB691B0A03F00103002B08D06B
:1059B0007B6A43F002037B627B681B686FF40072B2
:1059C0005A613B6A9B0A03F00103002B3FD0FB693D
:1059D0001B0A03F00103002B39D0FB7EBB767B68EA
:1059E0005B8D9BB27B617B6893F83D30FB747B6879
:1059F0001B6BFB60BB7E202B12D17B69002B0FD170
:105A0000FB7C212B08D0FB7C292B05D0FB7C282B91
:105A100006D1FB68212B03D1786801F06BF816E002
:105A20007B681B686FF480625A617B6A43F00403F1
:105A30007B62FB7E102B02D0FB7E402B07D17B6864
:105A40001B681A687B681B6842F400721A603B6A24
:105A5000DB0A03F00103002B0ED0FB691B0A03F0E5
:105A60000103002B08D07B6A43F008037B627B684C
:105A70001B686FF400625A617B6A002B08D07B6858
:105A80001A6C7B6A1A437B681A64786801F0A6F87E
:105A900000BF2837BD4680BD80B483B000AF7860BA
:105AA00000BF0C37BD4680BC704780B483B000AFE8
:105AB000786000BF0C37BD4680BC704780B483B0AF
:105AC00000AF786000BF0C37BD4680BC704780B423
:105AD00083B000AF78600B46FB7013463B8000BF7D
