:020000040800F2
:1000000000500020414A0008DD3F0008E53F00089D
:10001000ED3F0008F53F0008FD3F0008000000002C
:100020000000000000000000000000000540000883
:1000300011400008000000001D4000082940000891
:10004000894A0008894A0008894A0008894A000844
:10005000894A0008894A0008894A0008894A000834
:10006000894A0008894A0008894A0008894A000824
:10007000894A0008894A0008894A0008894A000814
:10008000894A0008894A0008894A0008894A000804
:10009000894A0008894A0008894A0008894A0008F4
:1000A000894A0008894A0008894A0008894A0008E4
:1000B000894A0008894A0008894A00084540000822
:1000C00059400008894A0008894A0008894A0008FE
:1000D000894A0008894A0008894A0008894A0008B4
:1000E000894A0008894A0008894A0008000000007F
:1000F0000000000000000000000000000000000000
:0C01000000000000000000005FF808F1A3
:1001100010B5054C237833B9044B13B10448AFF341
:1001200000800123237010BD80000020000000002B
:100130008878000808B5034B1BB103490348AFF3A7
:10014000008008BD000000008400002088780008BE
:1001500070B54FF0FF0C4CF4E06C1CEA11541DBF5D
:100160001CEA135594EA0C0F95EA0C0F00F0DEF828
:100170002C4481EA030621EA4C5123EA4C5350EA0D
:10018000013518BF52EA033541F4801143F480135E
:1001900038D0A0FB02CE4FF00005E1FB02E506F0EF
:1001A0000042E0FB03E54FF00006E1FB03569CF044
:1001B000000F18BF4EF0010EA4F1FF04B6F5007F4A
:1001C00064F5407404D25FEA4E0E6D4146EB0606BC
:1001D00042EAC62141EA55514FEAC52040EA5E5045
:1001E0004FEACE2EB4F1FD0C88BFBCF5E06F1ED8EF
:1001F000BEF1004F08BF5FEA500E50F1000041EB26
:10020000045170BD06F0004646EA010140EA0200D2
:1002100081EA0301B4EB5C04C2BFD4EB0C0541EAF4
:10022000045170BD41F480114FF0000E013C00F309
:10023000AB8014F1360FDEBF002001F0004170BD2D
:10024000C4F10004203C35DA0C341BDC04F1140446
:10025000C4F1200500FA05F320FA04F001FA05F2D2
:1002600040EA020001F0004221F0004110EBD3709F
:1002700021FA04F642EB06015EEA430E08BF20EACB
:10028000D37070BDC4F10C04C4F1200500FA04F36E
:1002900020FA05F001FA04F240EA020001F0004100
:1002A00010EBD37041F100015EEA430E08BF20EA73
:1002B000D37070BDC4F1200500FA05F24EEA020EBB
:1002C00020FA04F301FA05F243EA020321FA04F0EA
:1002D00001F0004121FA04F220EA020000EBD370A1
:1002E0005EEA430E08BF20EAD37070BD94F0000FA1
:1002F0000FD101F00046400041EB010111F4801FD5
:1003000008BF013CF7D041EA060195F0000F18BF85
:10031000704703F00046520043EB030313F4801FC1
:1003200008BF013DF7D043EA0603704794EA0C0F7B
:100330000CEA135518BF95EA0C0F0CD050EA410691
:1003400018BF52EA4306D1D181EA030101F000410E
:100350004FF0000070BD50EA410606BF1046194636
:1003600052EA430619D094EA0C0F02D150EA013642
:1003700013D195EA0C0F05D152EA03361CBF104683
:1003800019460AD181EA030101F0004141F0FE4122
:1003900041F470014FF0000070BD41F0FE4141F4A6
:1003A000780170BD81F0004102E000BF83F000439E
:1003B00030B54FEA41044FEA430594EA050F08BF00
:1003C00090EA020F1FBF54EA000C55EA020C7FEAC4
:1003D000645C7FEA655C00F0E2804FEA5454D4EB41
:1003E0005555B8BF6D420CDD2C4480EA020281EA0B
:1003F000030382EA000083EA010180EA020281EA43
:100400000303362D88BF30BD11F0004F4FEA013194
:100410004FF4801C4CEA113102D0404261EB4101A3
:1004200013F0004F4FEA03334CEA133302D0524229
:1004300063EB430394EA050F00F0A780A4F10104E5
:10044000D5F1200E0DDB02FA0EFC22FA05F280181F
:1004500041F1000103FA0EF2801843FA05F3594105
:100460000EE0A5F120050EF1200E012A03FA0EFC84
:1004700028BF4CF0020C43FA05F3C01851EBE371AE
:1004800001F0004507D54FF0000EDCF1000C7EEBCB
:1004900000006EEB0101B1F5801F1BD3B1F5001F09
:1004A0000CD349085FEA30004FEA3C0C04F1010428
:1004B0004FEA445212F5800F80F09A80BCF1004F51
:1004C00008BF5FEA500C50F1000041EB045141EAD3
:1004D000050130BD5FEA4C0C404141EB0101013C9C
:1004E00028BFB1F5801FE9D291F0000F04BF01468B
:1004F0000020B1FA81F308BF2033A3F10B03B3F15D
:1005000020020CDA0C3208DD02F1140CC2F10C02EC
:1005100001FA0CF021FA02F10CE002F11402D8BF4A
:10052000C2F1200C01FA02F120FA0CFCDCBF41EA16
:100530000C019040E41AA2BF01EB0451294330BDE5
:100540006FEA04041F3C1CDA0C340EDC04F11404C2
:10055000C4F1200220FA04F001FA02F340EA030099
:1005600021FA04F345EA030130BDC4F10C04C4F1DF
:10057000200220FA02F001FA04F340EA03002946BF
:1005800030BD21FA04F0294630BD94F0000F83F409
:10059000801306BF81F480110134013D4EE77FEAEC
:1005A000645C18BF7FEA655C29D094EA050F08BF38
:1005B00090EA020F05D054EA000C04BF1946104619
:1005C00030BD91EA030F1EBF0021002030BD5FEA5D
:1005D000545C05D14000494128BF41F0004130BD85
:1005E00014F580043CBF01F5801130BD01F00045D9
:1005F00045F0FE4141F470014FF0000030BD7FEA4C
:10060000645C1ABF194610467FEA655C1CBF0B4646
:10061000024650EA013406BF52EA033591EA030F5D
:1006200041F4002130BD00BF90F0000F04BF002155
:10063000704730B54FF4806404F132044FF0000588
:100640004FF0000150E700BF90F0000F04BF002101
:10065000704730B54FF4806404F1320410F0004567
:1006600048BF40424FF000013EE700BF42004FEA62
:10067000E2014FEA31014FEA02701FBF12F07F43DF
:1006800093F07F4F81F06051704732F07F4208BF96
:10069000704793F07F4F04BF41F40021704730B59D
:1006A0004FF4607401F0004521F000411CE700BFE9
:1006B00050EA010208BF704730B54FF000050AE06C
:1006C00050EA010208BF704730B511F0004502D56D
:1006D000404261EB41014FF4806404F132045FEA6F
:1006E000915C3FF4D8AE4FF003025FEADC0C18BF18
:1006F00003325FEADC0C18BF033202EBDC02C2F10A
:10070000200300FA03FC20FA02F001FA03FE40EA9B
:100710000E0021FA02F11444BDE600BF4FF0FF3C89
:1007200006E000BF4FF0010C02E000BF4FF0010CEB
:100730004DF804CD4FEA410C7FEA6C5C4FEA430C64
:1007400018BF7FEA6C5C1BD001B050EA410C0CBFB3
:1007500052EA430C91EA030F02BF90EA020F002015
:10076000704710F1000F91EA030F58BF994208BF7C
:1007700090422CBFD8176FEAE37040F00100704739
:100780004FEA410C7FEA6C5C02D150EA013C07D190
:100790004FEA430C7FEA6C5CD6D152EA033CD3D0DB
:1007A0005DF8040B704700BF8446104662468C46D5
:1007B0001946634600E000BF01B5FFF7B7FF002808
:1007C00048BF10F1000F01BD4DF808EDFFF7F4FF31
:1007D0000CBF012000205DF808FB00BF4DF808EDBC
:1007E000FFF7EAFF34BF012000205DF808FB00BFDF
:1007F0004DF808EDFFF7E0FF94BF012000205DF801
:1008000008FB00BF4DF808EDFFF7CEFF94BF0120B5
:1008100000205DF808FB00BF4DF808EDFFF7C4FFAE
:1008200034BF012000205DF808FB00BF4FEA410201
:1008300012F5001215D211D56FF47873B3EB625232
:1008400012D94FEAC12343F0004343EA505311F059
:10085000004F23FA02F018BF404270474FF00000EB
:10086000704750EA013005D111F0004008BF6FF029
:10087000004070474FF00000704700BF80F000401C
:1008800002E000BF81F0004142001FBF5FEA410368
:1008900092EA030F7FEA226C7FEA236C6AD04FEA68
:1008A0001262D2EB1363C1BFD218414048404140AD
:1008B000B8BF5B42192B88BF704710F0004F40F45F
:1008C000000020F07F4018BF404211F0004F41F47B
:1008D000000121F07F4118BF494292EA030F3FD047
:1008E000A2F1010241FA03FC10EB0C00C3F120035A
:1008F00001FA03F100F0004302D5494260EB4000E9
:10090000B0F5000F13D3B0F1807F06D340084FEA53
:10091000310102F10102FE2A51D2B1F1004F40EB48
:10092000C25008BF20F0010040EA030070474900B0
:1009300040EB0000013A28BFB0F5000FEDD2B0FA4D
:1009400080FCACF1080CB2EB0C0200FA0CF0AABF70
:1009500000EBC25052421843BCBFD040184370470E
:1009600092F0000F81F4000106BF80F40000013214
:10097000013BB5E74FEA41037FEA226C18BF7FEAEB
:10098000236C21D092EA030F04D092F0000F08BF2D
:100990000846704790EA010F1CBF0020704712F014
:1009A0007F4F04D1400028BF40F00040704712F153
:1009B00000723CBF00F50000704700F0004343F0B8
:1009C000FE4040F4000070477FEA226216BF0846EE
:1009D0007FEA23630146420206BF5FEA412390EAB1
:1009E000010F40F4800070474FF0000304E000BFA7
:1009F00010F0004348BF40425FEA000C08BF704758
:100A000043F0964301464FF000001CE050EA01021B
:100A100008BF70474FF000030AE000BF50EA010230
:100A200008BF704711F0004302D5404261EB41011D
:100A30005FEA010C02BF84460146002043F0B64342
:100A400008BFA3F18053A3F50003BCFA8CF2083A67
:100A5000A3EBC25310DB01FA02FC634400FA02FC70
:100A6000C2F12002BCF1004F20FA02F243EB020077
:100A700008BF20F00100704702F1200201FA02FCD9
:100A8000C2F1200250EA4C0021FA02F243EB0200CC
:100A900008BF20EADC7070474FF0FF0C1CEAD05210
:100AA0001EBF1CEAD15392EA0C0F93EA0C0F6FD0D1
:100AB0001A4480EA010C400218BF5FEA41211ED0AF
:100AC0004FF0006343EA501043EA5111A0FB01319B
:100AD0000CF00040B1F5000F3EBF490041EAD37170
:100AE0005B0040EA010062F17F02FD2A1DD8B3F1EC
:100AF000004F40EBC25008BF20F00100704790F05B
:100B0000000F0CF0004C08BF49024CEA502040EAAC
:100B100051207F3AC2BFD2F1FF0340EAC250704772
:100B200040F400004FF00003013A5DDC12F1190FB0
:100B3000DCBF00F000407047C2F10002410021FA22
:100B400002F1C2F1200200FA02FC5FEA310040F13A
:100B5000000053EA4C0308BF20EADC70704792F0B3
:100B6000000F00F0004C02BF400010F4000F013AEB
:100B7000F9D040EA0C0093F0000F01F0004C02BFE6
:100B8000490011F4000F013BF9D041EA0C018FE755
:100B90000CEAD15392EA0C0F18BF93EA0C0F0AD05B
:100BA00030F0004C18BF31F0004CD8D180EA010081
:100BB00000F00040704790F0000F17BF90F0004F1A
:100BC000084691F0000F91F0004F14D092EA0C0FFC
:100BD00001D142020FD193EA0C0F03D14B0218BF8F
:100BE000084608D180EA010000F0004040F0FE40D5
:100BF00040F40000704740F0FE4040F44000704771
:100C00004FF0FF0C1CEAD0521EBF1CEAD15392EAEF
:100C10000C0F93EA0C0F69D0A2EB030280EA010CDF
:100C200049024FEA402037D04FF0805343EA111178
:100C300043EA10130CF000408B4238BF5B0042F1D6
:100C40007D024FF4000C8B4224BF5B1A40EA0C007B
:100C5000B3EB510F24BFA3EB510340EA5C00B3EBAD
:100C6000910F24BFA3EB910340EA9C00B3EBD10F9B
:100C700024BFA3EBD10340EADC001B0118BF5FEAED
:100C80001C1CE0D1FD2A3FF650AF8B4240EBC25016
:100C900008BF20F0010070470CF0004C4CEA5020D7
:100CA0007F32C2BFD2F1FF0340EAC250704740F426
:100CB00000004FF00003013A37E792F0000F00F018
:100CC000004C02BF400010F4000F013AF9D040EA96
:100CD0000C0093F0000F01F0004C02BF490011F42A
:100CE000000F013BF9D041EA0C0195E70CEAD15322
:100CF00092EA0C0F08D142027FF47DAF93EA0C0F09
:100D00007FF470AF084676E793EA0C0F04D14B02EC
:100D10003FF44CAF08466EE730F0004C18BF31F09E
:100D2000004CCAD130F000427FF45CAF31F0004398
:100D30007FF43CAF5FE700BF4FF0FF3C06E000BF31
:100D40004FF0010C02E000BF4FF0010C4DF804CD54
:100D50004FEA40024FEA41037FEA226C18BF7FEA64
:100D6000236C11D001B052EA530C18BF90EA010F66
:100D700058BFB2EB030088BFC81738BF6FEAE170F5
:100D800018BF40F0010070477FEA226C02D15FEA91
:100D9000402C05D17FEA236CE4D15FEA412CE1D0FD
:100DA0005DF8040B704700BF844608466146FFE7C4
:100DB0000FB5FFF7C9FF002848BF10F1000F0FBDA6
:100DC0004DF808EDFFF7F4FF0CBF012000205DF89F
:100DD00008FB00BF4DF808EDFFF7EAFF34BF012024
:100DE00000205DF808FB00BF4DF808EDFFF7E0FFBD
:100DF00094BF012000205DF808FB00BF4DF808ED0E
:100E0000FFF7D2FF94BF012000205DF808FB00BF70
:100E10004DF808EDFFF7C8FF34BF012000205DF852
:100E200008FB00BF7BB972B90029BEBF00204FF09C
:100E3000004106E008BF00281CBF6FF000414FF0E2
:100E4000FF3000F0F5B9ADF1080C6DE904CE0029D2
:100E500009DB002B1ADB00F06BF8DDF804E0DDE9BC
:100E6000022304B07047404261EB4101002B1BDBC1
:100E700000F05EF8DDF804E0DDE9022304B0404252
:100E800061EB4101524263EB43037047524263EB13
:100E9000430300F04DF8DDF804E0DDE9022304B07F
:100EA000404261EB41017047524263EB430300F063
:100EB0003FF8DDF804E0DDE9022304B0524263EBC1
:100EC0004303704738B50022002304460D46FFF760
:100ED00085FC28B920462946BDE8384000F00AB80C
:100EE000204605F1004100F005F8404261EB410168
:100EF00038BD00BFD0B500220B4B06460F46FFF7AA
:100F000027F900F097F90446FFF78EFB0022074B04
:100F1000FFF71EF902460B4630463946FFF746FA00
:100F200000F088F92146D0BD0000F03D0000F041FE
:100F30002DE9F047089D8E4604468846002B4AD18D
:100F40008A42174662D9B2FA82F64EB1C6F1200340
:100F500001FA06F820FA03F3B74043EA0808B44060
:100F60004FEA174EB8FBFEF11FFA87FC0EFB118803
:100F700001FB0CF2230C43EA08439A4209D9FB18FF
:100F800001F1FF3080F0EB809A4240F2E8800239B4
:100F90003B449A1AB2FBFEF00EFB102200FB0CFC45
:100FA000A3B243EA02439C4509D9FB1800F1FF3282
:100FB00080F0D7809C4540F2D4803B44023840EA20
:100FC00001400021A3EB0C031DB10022F340C5E951
:100FD0000032BDE8F0878B4205D90DB1C5E90001AB
:100FE00000210846F5E7B3FA83F1002946D173459D
:100FF00002D3824200F20881841A6EEB03020120C0
:101000009046002DE5D0C5E90048E2E7002A00F04F
:101010009180B2FA82F6002E40F0A5808A1A012152
:10102000030C4FEA174E80B2BCB2B2FBFEFC0EFBC3
:101030001C2243EA024304FB0CF29A4207D9FB1834
:101040000CF1FF3802D29A4200F2E380C4469B1AA8
:10105000B3FBFEF20EFB123302FB04F440EA03433F
:101060009C4207D9FB1802F1FF3002D29C4200F2E9
:10107000CD8002461B1B42EA0C40A5E7C1F12006C9
:101080008B4022FA06F71F432EFA06FA4FEA174959
:10109000BAFBF9F80EFA01FE20FA06F309FB18AACA
:1010A0001FFA87FC43EA0E0300FA01FE08FB0CF06E
:1010B0001C0C44EA0A44A04202FA01F20AD93C1983
:1010C00008F1FF3A80F09E80A04240F29B80A8F198
:1010D00002083C44241A98B2B4FBF9F309FB134408
:1010E00003FB0CFC40EA0444A44509D93C1903F174
:1010F000FF3080F08580A44540F28280023B3C4472
:1011000043EA0840A4EB0C04A0FB028C6445434670
:10111000E14664D361D05DB1BEEB030264EB090428
:1011200004FA06F622FA01F31E43CC40C5E9006436
:1011300000214EE7B1FBF2FC010C41EA0E4180B206
:1011400040EA01423B46B1FBF7F138463C46B8461F
:10115000BE462026A2EB080241EA0C4165E70146A3
:1011600017E710462BE7C6F120012EFA01FCB74025
:101170000EFA06FE20FA01F141EA0E014FEA174E7F
:10118000BCFBFEF8BCB20EFB18CC08FB04F90A0C41
:1011900042EA0C42B04091454FEA104380B23ED93A
:1011A000BA1808F1FF3C01D291451FD8A2EB090201
:1011B000B2FBFEF909FB04F80EFB192A8AB242EAD7
:1011C0000A42424529D2BA1809F1FF31C2D242453A
:1011D000C0D2A9F102013A44BCE7C6459BD2B8EBA4
:1011E00002036CEB070C0138E14694E7A7EB090911
:1011F0004A44B2FBFEF9A8F1020C09FB04F8DBE754
:1012000003467DE7D04665E70846FAE63B44023AE6
:1012100030E7ACF1020C3B4419E749469AE7A2EBF0
:101220000902B2FBFEF9C44609FB04F8C4E700BF9B
:10123000704700BF4A0011D212F5001211D20DD52D
:101240006FF47873B3EB62520ED44FEAC12343F0CC
:10125000004343EA505323FA02F070474FF0000076
:10126000704750EA013002D14FF0FF3070474FF025
:101270000000704780B400AF0F4B9B690E4A43F0EB
:10128000080393610D4B5B680C4A23F07F6323F4E2
:1012900070235360094B5B68084A43F04C7343F476
:1012A00040335360054BDB68044A43F4E043D360AA
:1012B00000BFBD4680BC704700100240000C0140DA
:1012C00080B400AF164B9B69154A43F00803936145
:1012D000144B1B68134A23F070431360114B1B68B7
:1012E000104A43F0004313600E4BDB680D4A43F095
:1012F0008003D3600B4B1B680A4A23F070631360B2
:10130000084B1B68074A43F000631360054BDB681A
:10131000044A43F04003D36000BFBD4680BC704721
:1013200000100240000C014080B483B000AF194BA4
:101330009B68DB0903F00103002B0CBF0123002392
:10134000DBB2FB71134B9B689B0903F00103002B7D
:101350000CBF01230023DBB2BB71FB79002B04D04F
:10136000BB79002B01D101230FE0FB79002B04D1C5
:10137000BB79002B01D0022307E0FB79002B04D1BD
:10138000BB79002B01D10023FFE718460C37BD467F
:1013900080BC7047000C014080B582B000AFFFF701
:1013A000C3FF0346FB71114B1B78FA799A4203D0B5
:1013B0000F4B1B680F4A13600D4B1A680D4B1B68CF
:1013C000D21A0D4B1B689A4207D90C4B1B78FA793D
:1013D0009A4202D0094AFB791370044AFB791370D0
:1013E000064B1B7818460837BD4680BDA10000207B
:1013F000D80300209C00002000000020A000002056
:1014000080B500AF154B164A1A60144B154A5A6046
:10141000124B00229A60114BAA22DA600F4B4FF454
:1014200080421A610D4B00225A610C4B00229A61D6
:101430000A4B0022DA61094B00221A62074803F0C6
:1014400095FE0346002B01D002F09EFC02220649C5
:10145000024803F0E3FF00BF80BD00BF800300200F
:1014600000540040801A0600A400002080B582B01D
:1014700000AF7860054B01221A700222044905482A
:1014800003F0CCFF00BF0837BD4680BDA20000209E
:10149000A40000208003002080B582B000AF7860F7
:1014A0007B681B680C4A934212D10C4B1B690B4A98
:1014B00043F400131361094B1B69084A23F400131A
:1014C0001361FFF79DFF02220549064803F0A6FFBE
:1014D00000BF0837BD4680BD0054004000100240E8
:1014E000A40000208003002080B582B000AF7860A7
:1014F0007B681B68A3F580730C2B78D801A252F887
:1015000023F000BF391500084715000855150008DD
:1015100063150008711500087F1500088D15000877
:101520009B150008A9150008B7150008C515000887
:10153000D3150008E11500087B6807332E491846CB
:1015400000F074F854E07B6807332C49184600F02B
:10155000EBF84DE07B6807332949184600F07AF92B
:1015600046E07B6807332749184600F02FF93FE033
:101570007B6807332449184600F0DEF938E07B68C1
:1015800007332249184600F0F9F931E07B68073348
:101590001F49184600F06AFA2AE07B6807331D49A4
:1015A000184600F0DBFA23E07B6807331A49184637
:1015B00000F04CFB1CE07B6807331849184600F02C
:1015C000BDFB15E07B6807331549184600F02EFC7B
:1015D0000EE07B6807331349184600F09FFC07E0D4
:1015E0007B6807331049184600F010FD00E000BF8B
:1015F00000BF0837BD4680BDA8000020B80000200D
:10160000C4000020EA000020F2000020F8000020C2
:1016100008010020180100202801002038010020C6
:101620004801002058010020680100202DE9B04346
:1016300086B004AF786039607B681B781B027A68DB
:101640000132127813431846FFF7D2F903463449A2
:101650001846FFF721FA03461A463B681A607B6872
:1016600002331B781BB21B021AB27B6803331B7850
:101670001BB213431BB21846FFF7BAF903462849B9
:101680001846FFF709FA03461A463B685A607B681A
:1016900004331B781BB21B021BB21A467B6805334E
:1016A0001B7813431846FFF7A3F903461C49184655
:1016B000FFF7F2F903461A463B689A607B680633E7
:1016C0001B781BB21B021AB27B6807331B781BB254
:1016D00013431BB29AB23B689A813B681B68184659
:1016E000FEF7C4FF804689463B685B681846FEF7F4
:1016F000BDFF04460D463B689B681846FEF7B6FFE3
:1017000002460B46CDE90223CDE9004542464B4651
:10171000044803F05FF900BF0837BD46BDE8B08359
:101720000AD7233CA078000880B584B002AF786067
:1017300039607B681B781B027A6801321278134388
:101740001846FFF755F903461E491846FFF7A4F956
:1017500003461A463B681A607B6802331B781BB24B
:101760001B021AB27B6803331B781BB213431BB2F4
:101770009AB23B689A807B6805331B781A463B68AF
:10178000DA807B6806331B781BB21B021AB27B68B7
:1017900007331B781BB213431BB29AB23B681A8102
:1017A0003B681B681846FEF761FF02460B46396826
:1017B000C9880091044803F00DF900BF0837BD4601
:1017C00080BD00BF0AD7233CF878000880B483B0FE
:1017D00000AF786039607B681B781BB21B021AB2BD
:1017E0007B6801331B781BB213431BB29AB23B6870
:1017F0001A807B6802331B781BB21B021AB27B680B
:1018000003331B781BB213431AB23B685A807B68C0
:1018100004331B781BB21B021AB27B6805331B789A
:101820001BB213431BB29AB23B689A807B680633A3
:101830001B781BB21B021AB27B6807331B781BB2E2
:1018400013431BB29AB23B68DA8000BF0C37BD4627
:1018500080BC704780B487B000AF786039607B6827
:101860001B781BB21B021AB27B6801331B781BB2B8
:1018700013431BB2FB8100237B6112E0FA897B6971
:1018800042FA03F303F00103002B14BF01230023EA
:10189000D9B23A687B6913440A461A707B690133EE
:1018A0007B617B690F2BE9DD7B6802331B781BB200
:1018B0001B021AB27B6803331B781BB213431BB2A3
:1018C000BB8100233B6111E0BA893B6942FA03F313
:1018D00003F001023B691033002A14BF01220022E9
:1018E000D1B23A68D1543B6901333B613B69102B5B
:1018F000EADD7B6804331B781BB21B021AB27B68DB
:1019000005331B781BB213431BB29AB23B685A844F
:101910007B6806331B781BB21B021AB27B68073345
:101920001B781BB213431BB29AB23B689A8400BF68
:101930001C37BD4680BC704780B483B000AF786070
:1019400039607B681A783B681A707B6801331A78B3
:101950003B685A707B6802331B781BB21B021AB2B9
:101960007B6803331B781BB213431BB29AB23B68EC
:101970005A8000BF0C37BD4680BC704780B584B02C
:1019800000AF786039607B681B781BB21B021AB20B
:101990007B6801331B781BB213431BB2FB81FB89AD
:1019A0001846FFF725F803462E491846FFF774F846
:1019B00003462D491846FEF765FF03461A463B6865
:1019C0001A607B6802331B781BB21B021AB27B6859
:1019D00003331B781BB213431BB2BB81BB89184670
:1019E000FFF706F803461F491846FFF755F8034668
:1019F0001D491846FEF746FF03461A463B685A60E3
:101A00007B6804331B781BB21B021AB27B68053358
:101A10001B781BB213431BB27B817B891846FEF7F0
:101A2000E7FF03460F491846FFF736F803460E490D
:101A30001846FEF727FF03461A463B689A607B6804
:101A400006331B781BB21B021AB27B6807331B7864
:101A50001BB213431BB29AB23B689A8100BF103786
:101A6000BD4680BDCDCCCC3D3393884380B584B09A
:101A700000AF786039607B681B781BB21B021AB21A
:101A80007B6801331B781BB213431BB2FB81FB89BC
:101A90001846FEF7ADFF03462E491846FEF7FCFF39
:101AA00003462D491846FEF7EDFE03461A463B68ED
:101AB0001A607B6802331B781BB21B021AB27B6868
:101AC00003331B781BB213431BB2BB81BB8918467F
:101AD000FEF78EFF03461F491846FEF7DDFF03465B
:101AE0001D491846FEF7CEFE03461A463B685A606B
:101AF0007B6804331B781BB21B021AB27B68053368
:101B00001B781BB213431BB27B817B891846FEF7FF
:101B10006FFF03460F491846FEF7BEFF03460E4906
:101B20001846FEF7AFFE03461A463B689A607B688C
:101B300006331B781BB21B021AB27B6807331B7873
:101B40001BB213431BB29AB23B689A8100BF103795
:101B5000BD4680BDCDCCCC3D339388432DE9B04309
:101B600086B004AF786039607B681B781B027A68A6
:101B70000132127813431846FEF73AFF0346314903
:101B80001846FFF73DF803461A463B681A607B6823
:101B900002331B781B027A6803321278134318460B
:101BA000FEF726FF034627491846FFF729F80346A4
:101BB0001A463B685A607B6804331B781B027A68BC
:101BC0000532127813431846FEF712FF03461D49EB
:101BD0001846FFF715F803461A463B689A607B687B
:101BE00006331B781BB21B021AB27B6807331B78C3
:101BF0001BB213431BB29AB23B689A813B681B68C5
:101C00001846FEF733FD804689463B685B681846F8
:101C1000FEF72CFD04460D463B689B681846FEF710
:101C200025FD02460B46CDE90223CDE9004542469B
:101C30004B46054802F0CEFE00BF0837BD46BDE862
:101C4000B08300BF00007A441C7900082DE9B0433E
:101C500086B004AF786039607B681B781B027A68B5
:101C60000132127813431846FEF7C2FE034631498B
:101C70001846FEF7C5FF03461A463B681A607B68A4
:101C800002331B781B027A6803321278134318461A
:101C9000FEF7AEFE034627491846FEF7B1FF03469E
:101CA0001A463B685A607B6804331B781B027A68CB
:101CB0000532127813431846FEF79AFE03461D4973
:101CC0001846FEF79DFF03461A463B689A607B68FC
:101CD00006331B781BB21B021AB27B6807331B78D2
:101CE0001BB213431BB29AB23B689A813B681B68D4
:101CF0001846FEF7BBFC804689463B685B68184681
:101D0000FEF7B4FC04460D463B689B681846FEF798
:101D1000ADFC02460B46CDE90223CDE90045424623
:101D20004B46054802F056FE00BF0837BD46BDE8E9
:101D3000B08300BF00007A44487900082DE9B04321
:101D400086B004AF786039607B681B781B027A68C4
:101D50000132127813431846FEF74AFE0346314912
:101D60001846FEF74DFF03461A463B681A607B682B
:101D700002331B781B027A68033212781343184629
:101D8000FEF736FE034627491846FEF739FF03469D
:101D90001A463B685A607B6804331B781B027A68DA
:101DA0000532127813431846FEF722FE03461D49FA
:101DB0001846FEF725FF03461A463B689A607B6883
:101DC00006331B781BB21B021AB27B6807331B78E1
:101DD0001BB213431BB29AB23B689A813B681B68E3
:101DE0001846FEF743FC804689463B685B68184608
:101DF000FEF73CFC04460D463B689B681846FEF720
:101E000035FC02460B46CDE90223CDE900454246AA
:101E10004B46054802F0DEFD00BF0837BD46BDE871
:101E2000B08300BF00007A44747900082DE9B04304
:101E300086B004AF786039607B681B781B027A68D3
:101E40000132127813431846FEF7D2FD034631499A
:101E50001846FEF7D5FE03461A463B681A607B68B3
:101E600002331B781B027A68033212781343184638
:101E7000FEF7BEFD034627491846FEF7C1FE03469E
:101E80001A463B685A607B6804331B781B027A68E9
:101E90000532127813431846FEF7AAFD03461D4982
:101EA0001846FEF7ADFE03461A463B689A607B680B
:101EB00006331B781BB21B021AB27B6807331B78F0
:101EC0001BB213431BB29AB23B689A813B681B68F2
:101ED0001846FEF7CBFB804689463B685B68184690
:101EE000FEF7C4FB04460D463B689B681846FEF7A8
:101EF000BDFB02460B46CDE90223CDE90045424633
:101F00004B46054802F066FD00BF0837BD46BDE8F8
:101F1000B08300BF00007A44A07900082DE9B043E7
:101F200086B004AF786039607B681B781B027A68E2
:101F30000132127813431846FEF75AFD0346314921
:101F40001846FEF75DFE03461A463B681A607B683A
:101F500002331B781B027A68033212781343184647
:101F6000FEF746FD034627491846FEF749FE03469D
:101F70001A463B685A607B6804331B781B027A68F8
:101F80000532127813431846FEF732FD03461D4909
:101F90001846FEF735FE03461A463B689A607B6892
:101FA00006331B781BB21B021AB27B6807331B78FF
:101FB0001BB213431BB29AB23B689A813B681B6801
:101FC0001846FEF753FB804689463B685B68184617
:101FD000FEF74CFB04460D463B689B681846FEF72F
:101FE00045FB02460B46CDE90223CDE900454246BA
:101FF0004B46054802F0EEFC00BF0837BD46BDE881
:10200000B08300BF00007A44D079000880B582B068
:1020100000AF786039607B681B781B027A680132F8
:10202000127813431846FEF7E3FC03462649184688
:10203000FEF7E6FD03461A463B681A607B680233EA
:102040001B781B027A680332127813431846FEF796
:10205000CFFC03461C491846FEF7D2FD03461A463C
:102060003B685A607B6804331B781B027A68053230
:10207000127813431846FEF7BBFC03461249184674
:10208000FEF7BEFD03461A463B689A607B6806333E
:102090001B781BB21B021AB27B6807331B781BB27A
:1020A00013431BB29AB23B689A813B681B6818467F
:1020B000FEF7DCFA02460B46044802F08BFC00BF38
:1020C0000837BD4680BD00BF00007A44007A000892
:1020D00080B582B000AF78607B681B68B3F1404F79
:1020E00073D0B3F1404F71D83A4A934266D0394A1F
:1020F00093426BD8384A934259D0374A934265D8B5
:10210000B32B2DD8A12B61D3A13B122B5ED801A2FA
:1021100052F823F069210008CD210008CD210008E4
:10212000CD210008CD210008CD210008CD210008D7
:10213000CD210008CD210008CD210008CD210008C7
:10214000CD210008CD210008772100088521000855
:10215000CD210008CD210008CD21000893210008E1
:102160001E4A93421CD031E07B6807331C49184655
:1021700000F0AEFF2AE07B6807331A49184600F0EA
:102180007FFB23E07B6807331749184600F0D0FC3B
:102190001CE07B6807331549184600F08BF915E001
:1021A0007B6807331249184600F0D6FE0EE07B68C4
:1021B00007331049184600F0FFF807E07B68073343
:1021C0000D49184600F0F8FD00E000BF00BF0837D9
:1021D000BD4680BD573296184050271840502618EB
:1021E0005803002014030020D8020020D001002052
:1021F000B8020020B8010020300200202DE9B00F05
:102200008BB000AFF860B9607A607B68002B02DDAC
:102210007B68402B04DD4FF000024FF0000351E0DB
:102220004FF000024FF00003C7E90823BB68002B02
:1022300000DA0733DB10FB61BB685A4203F0070387
:1022400002F0070258BF5342BB6100237B6133E0B9
:102250000023FB74FB69002B0EDBFB69072B0BDCF7
:10226000FB69FA6813441B781A46BB6942FA03F308
:10227000DBB203F00103FB74D7E9082312EB020A77
:1022800043EB030B52465B46F97C00200C460546A7
:1022900042EA040843EA0509C7E90889BB69013B2A
:1022A000BB61BB69002B04DAFB690133FB610723C7
:1022B000BB617B6901337B617A697B689A42C7DBCA
:1022C000D7E90823104619462C37BD46BDE8B00FA4
:1022D00070472DE9B00F8DB000AFF860B9607A603B
:1022E0007B68002B02DD7B68402B04DD4FF0000291
:1022F0004FF0000356E04FF000024FF00003C7E933
:102300000A2300237B6247E0BA687B6A1344FB61BF
:10231000FB69002B00DA0733DB10BB61FB695A4213
:1023200003F0070302F0070258BF53427B6100230A
:1023300087F82330BB69002B0FDBBB69072B0CDC54
:10234000BB69FA6813441B781A467B6942FA03F3A7
:10235000DBB203F0010387F8233097F82330002223
:10236000984691467B6AA3F12001C3F1200209FA45
:1023700003F508FA01F10D4328FA02F2154308FAB1
:1023800003F4D7E90A2342EA040A43EA050BC7E942
:102390000AAB7B6A01337B627A6A7B689A42B3DB61
:1023A000D7E90A23104619463437BD46BDE8B00FB9
:1023B000704700000000000080B588B000AF786072
:1023C00039603B68002B62D0202220217868FFF71B
:1023D00080FFC7E90601D7E90601FEF769F92EA3D8
:1023E000D3E90023FDF7B4FE02460B46104619461A
:1023F0004FF000024FF00003FDF7DAFF02460B46F4
:102400003968C1E90023102210217868FFF761FFC5
:10241000C7E90401D7E90401FEF74AF902460B4671
:102420003968C1E90223102200217868FFF751FFC3
:10243000C7E90201D7E90201FEF73AF94FF00002BD
:10244000174BFDF7B3FF02460B463968C1E9042379
:10245000144802F051F93B68D3E90001032202F06D
:1024600061F9114802F048F93B68D3E902010322FF
:1024700002F058F90D4802F03FF93B68D3E9040136
:10248000032202F04FF90A4802F036F900E000BFDB
:102490002037BD4680BD00BF9A9999999999B93F57
:1024A0000000D040147A0008247A0008387A000826
:1024B0004C7A000880B582B000AF786039603B6824
:1024C000002B00F0A28101221E217868FFF796FE02
:1024D00002460B463B681A6001221F217868FFF70D
:1024E0008DFE02460B463B685A6001221021786837
:1024F000FFF784FE02460B463B689A6001221121D9
:102500007868FFF77BFE02460B463B68DA600122E3
:1025100012217868FFF772FE02460B463B681A618B
:10252000012213217868FFF769FE02460B463B68DB
:102530005A61012214217868FFF760FE02460B46BB
:102540003B689A61012215217868FFF757FE024621
:102550000B463B68DA61012216217868FFF74EFED0
:1025600002460B463B681A62012217217868FFF782
:1025700045FE02460B463B685A62012208217868F4
:10258000FFF73CFE02460B463B689A620122092196
:102590007868FFF733FE02460B463B68DA62012299
:1025A0000A217868FFF72AFE02460B463B681A6349
:1025B00001220B217868FFF721FE02460B463B689B
:1025C0005A6301220C217868FFF718FE02460B4679
:1025D0003B689A6301220D217868FFF70FFE0246DF
:1025E0000B463B68DA6301220E217868FFF706FE8E
:1025F00002460B463B681A6401220F217868FFF7F8
:10260000FDFD02460B463B685A64012200217868B2
:10261000FFF7F4FD02460B463B689A64032207214C
:102620007868FFF7EBFD02460B463B68DA6401224F
:1026300001217868FFF7E2FD02460B463B681A6508
:10264000012202217868FFF7D9FD02460B463B685C
:102650005A65032204217868FFF7D0FD02460B4635
:102660003B689A656B4802F047F83B681B6819465F
:10267000694802F0AFF9694802F03EF83B685B68D0
:102680001946654802F0A6F9654802F035F83B683E
:102690009B681946634802F09DF9634802F02CF8E4
:1026A0003B68DB6819465C4802F094F95F4802F029
:1026B00023F83B681B691946574802F08BF95C48C0
:1026C00002F01AF83B685B691946534802F082F938
:1026D000584802F011F83B689B691946564802F0C9
:1026E00079F9564802F008F83B68DB6919464A4810
:1026F00002F070F9524801F0FFFF3B681B6A19466F
:10270000454802F067F94F4801F0F6FF3B685B6A05
:102710001946414802F05EF94B4801F0EDFF3B6875
:102720009B6A19463C4802F055F9484801F0E4FF1D
:102730003B68DB6A1946384802F04CF9444801F01E
:10274000DBFF3B681B6B1946334802F043F94148F5
:1027500001F0D2FF3B685B6B1946374802F03AF94B
:102760003D4801F0C9FF3B689B6B19462A4802F0BF
:1027700031F93A4801F0C0FF3B68DB6B1946264847
:1027800002F028F9364801F0B7FF3B681B6C194688
:10279000214802F01FF9334801F0AEFF3B685B6C43
:1027A00019461D4802F016F92F4801F0A5FF3B68B5
:1027B0009B6C1946184802F00DF92C4801F09CFF5B
:1027C0003B68DB6C1946144802F004F9284801F014
:1027D00093FF3B681B6D19460F4802F0FBF8254834
:1027E00001F08AFF3B685B6D1946134802F0F2F86E
:1027F000214801F081FF3B689B6D1946064802F0B5
:10280000E9F81E4801F078FF00E000BF0837BD4638
:1028100080BD00BF7C7A0008907A0008947A000896
:10282000B07A0008C87A0008CC7A0008E87A000874
:10283000007B0008187B0008347B00083C7B000804
:10284000587B0008747B0008907B0008A87B000878
:10285000C47B0008DC7B0008F87B0008147C0008BF
:102860002C7C0008447C00085C7C0008787C000814
:10287000947C0008B07C0008C47C00084C7A0008F6
:1028800080B582B000AF786039603B68002B00F003
:10289000248101221B217868FFF7B0FC02460B4619
:1028A0003B681A6001221C217868FFF7A7FC0246EA
:1028B0000B463B685A60012227217868FFF79EFC8F
:1028C00002460B463B689A60012204217868FFF7B4
:1028D00095FC02460B463B68DA60012202217868CB
:1028E000FFF78CFC02460B463B681A610622122158
:1028F0007868FFF783FC02460B463B685A61012269
:1029000006217868FFF77AFC02460B463B689A611D
:10291000022209217868FFF771FC02460B463B68EA
:10292000DA6102220B217868FFF768FC02460B4649
:102930003B681A62012201217868FFF75FFC0246BA
:102940000B463B685A62012215217868FFF756FC56
:1029500002460B463B689A62012207217868FFF71E
:102960004DFC02460B463B68DA6204220F21786870
:10297000FFF744FC02460B463B681A63022217210C
:102980007868FFF73BFC02460B463B685A6301221E
:1029900003217868FFF732FC02460B463B689A63D6
:1029A000012205217868FFF729FC02460B463B68A7
:1029B000DA634C4801F0A0FE3B681B6819464A48A0
:1029C00002F008F8494801F097FE3B685B68194639
:1029D000454801F0FFFF464801F08EFE3B689B68CA
:1029E0001946414801F0F6FF424801F085FE3B6878
:1029F000DB6819463C4801F0EDFF3F4801F07CFEE2
:102A00003B681B691946384801F0E4FF3B4801F078
:102A100073FE3B685B691946334801F0DBFF3848B9
:102A200001F06AFE3B689B691946364801F0D2FF07
:102A3000354801F061FE3B68DB6919462A4801F020
:102A4000C9FF324801F058FE3B681B6A1946264808
:102A500001F0C0FF2E4801F04FFE3B685B6A19464B
:102A6000214801F0B7FF2B4801F046FE3B689B6A06
:102A700019461D4801F0AEFF274801F03DFE3B68B6
:102A8000DB6A1946184801F0A5FF244801F034FE1E
:102A90003B681B6B1946144801F09CFF204801F06D
:102AA0002BFE3B685B6B1946164801F093FF1D48EF
:102AB00001F022FE3B689B6B19460B4801F08AFF30
:102AC000194801F019FE3B68DB6B1946064801F016
:102AD00081FF164801F010FE00E000BF0837BD4638
:102AE00080BD00BFDC7C0008907A00082C7C0008C8
:102AF000EC7C0008087D0008207D0008387D000877
:102B0000587D0008347B0008707D0008907D000827
:102B1000A87D0008C47D0008E47D0008FC7D000855
:102B2000187E0008387E0008547E00084C7A0008A1
:102B300080B582B000AF786039603B68002B00F050
:102B40001281032209217868FFF758FB02460B46E1
:102B50003B681A6001220A217868FFF74FFB0246A2
:102B60000B463B685A6001220B217868FFF746FB51
:102B700002460B463B689A6001220C217868FFF7F9
:102B80003DFB02460B463B68DA6001220D21786866
:102B9000FFF734FB02460B463B681A6101220E2107
:102BA0007868FFF72BFB02460B463B685A6101220F
:102BB0000F217868FFF722FB02460B463B689A61BB
:102BC000012200217868FFF719FB02460B463B689B
:102BD000DA61012201217868FFF710FB02460B46FB
:102BE0003B681A62012202217868FFF707FB024660
:102BF0000B463B685A62012203217868FFF7FEFA10
:102C000002460B463B689A62012204217868FFF76E
:102C1000F5FA02460B463B68DA6201220521786824
:102C2000FFF7ECFA02460B463B681A6301220621C5
:102C30007868FFF7E3FA02460B463B685A630122C5
:102C400007217868FFF7DAFA02460B463B689A6379
:102C5000474801F051FD3B681B681946454801F0A3
:102C6000B9FE454801F048FD3B685B68194641489C
:102C700001F0B0FE414801F03FFD3B689B681946FA
:102C80003C4801F0A7FE3E4801F036FD3B68DB689A
:102C90001946384801F09EFE3A4801F02DFD3B6888
:102CA0001B691946334801F095FE374801F024FDB1
:102CB0003B685B6919462F4801F08CFE334801F0F0
:102CC0001BFD3B689B691946314801F083FE314882
:102CD00001F012FD3B68DB691946264801F07AFED7
:102CE0002D4801F009FD3B681B6A1946214801F097
:102CF00071FE2A4801F000FD3B685B6A19461D48D9
:102D000001F068FE264801F0F7FC3B689B6A194613
:102D1000184801F05FFE234801F0EEFC3B68DB6AD7
:102D20001946144801F056FE1F4801F0E5FC3B68C7
:102D30001B6B19460F4801F04DFE1C4801F0DCFCEE
:102D40003B685B6B1946124801F044FE184801F0DD
:102D5000D3FC3B689B6B1946064801F03BFE1548C7
:102D600001F0CAFC00E000BF0837BD4680BD00BFCF
:102D70006C7E0008907A0008847E0008A47E00081B
:102D8000C07E0008DC7E0008F87E0008187F00087E
:102D9000347B00083C7F00085C7F00087C7F0008D3
:102DA000947F0008AC7F0008C87F0008E47F00081B
:102DB000008000084C7A000880B582B000AF7860CF
:102DC00039603B68002B00F0C18001220021786847
:102DD000FFF77FFA02460B4610461946FDF768FCDE
:102DE00002460B463968C1E90023012201217868B7
:102DF000FFF76FFA02460B4610461946FDF758FCDE
:102E000002460B463968C1E9022301220221786893
:102E1000FFF75FFA02460B4610461946FDF748FCDD
:102E200002460B463968C1E9042301220321786870
:102E3000FFF74FFA02460B4610461946FDF738FCDD
:102E400002460B463968C1E906230122042178684D
:102E5000FFF73FFA02460B4610461946FDF728FCDD
:102E600002460B463968C1E908230122052178682A
:102E7000FFF72FFA02460B4610461946FDF718FCDD
:102E800002460B463968C1E90A2301220621786807
:102E9000FFF71FFA02460B4610461946FDF708FCDD
:102EA00002460B463968C1E90C23012207217868E4
:102EB000FFF70FFA02460B4610461946FDF7F8FBDE
:102EC00002460B463968C1E90E23012208217868C1
:102ED000FFF7FFF902460B4610461946FDF7E8FBDF
:102EE00002460B463968C1E910230122092178689E
:102EF000FFF7EFF902460B4610461946FDF7D8FBDF
:102F000002460B463968C1E9122301220A2178687A
:102F1000FFF7DFF902460B4610461946FDF7C8FBDE
:102F200002460B463968C1E9142301220B21786857
:102F3000FFF7CFF902460B4610461946FDF7B8FBDE
:102F400002460B463968C1E9162300E000BF083786
:102F5000BD4680BD0000000080B582B000AF786043
:102F600039603B68002B00F09480082208217868C3
:102F7000FFF7AFF902460B461346A3F128023B6860
:102F80001A60082200217868FFF7A3F902460B4671
:102F90001346A3F128023B685A601022102178687A
:102FA000FFF797F902460B4610461946FDF780FBDE
:102FB0003BA3D3E90023FDF7CBF802460B46396863
:102FC000C1E90223032238217868FFF782F902461B
:102FD0000B463B681A61082230217868FFF779F9BF
:102FE00002460B463B685A61082228217868FFF7A1
:102FF00070F902460B463B689A61082220217868E6
:10300000FFF767F902460B463B68DA61264801F094
:1030100073FB3B681B681946244801F0DBFC24481D
:1030200001F06AFB3B685B681946204801F0D2FC5E
:10303000204801F061FB3B68D3E90201032201F063
:1030400071FB1D4801F058FB3B681B691946174886
:1030500001F0C0FC194801F04FFB3B685B69194661
:10306000124801F0B7FC164801F046FB3B689B692B
:1030700019460E4801F0AEFC124801F03DFB3B68DA
:10308000DB691946104801F0A5FC104801F034FB3B
:1030900000E000BF0837BD4680BD00BFAFF3008031
:1030A0009A9999999999B93F1C800008907A0008DB
:1030B0003080000844800008588000086C800008B8
:1030C0008080000894800008347B00084C7A000857
:1030D00080B582B000AF786039600A222621786816
:1030E000FFF78CF802460B4610461946FDF7E0FA4A
:1030F00053A3D3E90023FDF72BF802460B461046F5
:10310000194651A3D3E90023FDF750F902460B46B7
:103110003968C1E900230A2207217868FFF76EF8B1
:1031200002460B4610461946FDF7C2FA44A3D3E9FE
:103130000023FDF70DF802460B463968C1E902236A
:103140000A2210217868FFF759F802460B4610460C
:103150001946FDF7ADFA3AA3D3E90023FCF7F8FFCF
:1031600002460B46104619464FF000023A4BFDF757
:103170001DF902460B463968C1E904230F222C21B0
:103180007868FFF73BF802460B461346A3F58043E9
:103190001A463B689A610D220D217868FFF72EF8D8
:1031A00002460B4610461946FDF782FA24A3D3E9DE
:1031B0000023FCF7CDFF02460B461046194624A318
:1031C000D3E90023FDF7F2F802460B463968C1E95E
:1031D0000823224801F090FA3B68D3E9000103225A
:1031E00001F0A0FA1E4801F087FA3B68D3E902011A
:1031F000032201F097FA1B4801F07EFA3B68D3E9FD
:103200000401032201F08EFA174801F075FA3B68B9
:103210009B691946154801F0DDFB154801F06CFA71
:103220003B68D3E90801032201F07CFA114801F060
:1032300063FA114801F060FA00BF0837BD4680BD4F
:103240009A9999999999B93F6666666666A64240C9
:103250009A9999999999794000405040AC8000081A
:10326000C4800008D0800008E0800008E8800008E2
:10327000F0800008FC8000084C7A000880B400AFA1
:10328000124B9B69114A43F008039361104B1B6872
:103290000F4A23F4804323F0440313600C4B1B6854
:1032A0000B4A43F4405343F033031360084BDB688D
:1032B000074A43F00B03D360054BDB68044A23F055
:1032C0000203D36000BFBD4680BC704700100240BF
:1032D000000C014090B5ADF6040D00AF07F500639A
:1032E000A3F2FC7318600023C7F8FC3700F0E2FF7C
:1032F000C7F8E80707F50063A3F2FC731B68C7F87B
:10330000E437D7F8E837002B06D007F50063A3F2BF
:10331000FC731B68002B01D10023F7E0D7F8E827E6
:10332000D7F8E437B2FBF3F3C7F8E0370123C7F867
:10333000F837C0E00123C7F8F437B2E00123C7F83B
:10334000F037A4E0D7F8F427D7F8F0371344013367
:10335000C7F8DC37D7F8F837D7F8DC2702FB03F3D8
:10336000D7F8E0279A4240F08D80D7F8F407FDF7B0
:103370003BFB03464FF07E511846FDF785FA0346A6
:103380001C46D7F8DC07FDF72FFB034619462046FD
:10339000FDF736FC034660491846FDF77DFB034602
:1033A000C7F8D8375D49D7F8D807FDF727FD03469A
:1033B000002B67D05A49D7F8D807FDF715FD03460B
:1033C000002B5FD00123C7F8EC3755E0D7F8F8376A
:1033D00098B207F50063A3F5FF61D7F8FC27134601
:1033E0009B0013449B000B4402461A8007F50063C0
:1033F000A3F5FF61D7F8FC2713469B0013449B00FD
:103400000B440433D7F8F4271A6007F50063A3F5DB
:10341000FF61D7F8FC2713469B0013449B000B4425
:103420000833D7F8F0271A60D7F8EC1707F50063D0
:10343000A3F5FF60D7F8FC2713469B0013449B00BD
:1034400003440C33196007F50063A3F5FF61D7F857
:10345000FC2713469B0013449B000B441033D7F802
:10346000D8271A60D7F8FC370133C7F8FC37D7F8EC
:10347000EC370133C7F8EC37D7F8EC37D7F8F0273B
:103480009A42A3D2D7F8F0370133C7F8F037D7F80C
:10349000F037082B7FF656AFD7F8F4370133C7F86B
:1034A000F437D7F8F437102B7FF648AFD7F8F83752
:1034B0000133C7F8F837D7F8F837B3F5806F7FF6E0
:1034C00039AF184BDA6907F50063A3F5FF631B8872
:1034D000013B194607F50063A3F5FF63DB68013B79
:1034E0001B06194307F50063A3F5FF635B68013B07
:1034F0001B04194307F50063A3F5FF639B68013BB9
:103500001B050B4307491343CB610123184607F6FC
:103510000407BD4690BD00BF0000C84200008C42B9
:103520000000A0420064004080B400AF194BDB698A
:10353000184A43F00073D361164B9B69154A43F058
:1035400001039361134B9B69124A43F00803936193
:10355000114B5B68104A23F0F00353600E4B5B681D
:103560000D4A23F00F0353600B4B5B680A4A43F08C
:1035700004035360084B5B68074A43F0B003536091
:10358000064B5B68054A43F48043536000BFBD4669
:1035900080BC704700100240000C01400000014058
:1035A00080B582B000AF7860FFF7BEFF2E4B1B687E
:1035B0002D4A23F0200313602B4B1B682A4A23F06B
:1035C00002031360284B1B68274A43F00103136072
:1035D00000BF254B5B6803F00103002BF9D078682E
:1035E000FFF778FE204B1B681F4A23F0010313608E
:1035F00000BF1D4B5B6803F00103002BF9D11A4B90
:10360000D3F80032184A43F00103C2F80032164BD7
:103610000022C3F81C22144B0022C3F80422124BD0
:103620000122C3F80C22104B0022C3F814220E4BC7
:103630000022C3F840220C4B0022C3F844220A4B5C
:10364000D3F81C32084A43F00103C2F81C32064B7F
:10365000D3F80032044A23F00103C2F800320123F8
:1036600018460837BD4680BD0064004090B486B05F
:1036700000AF3C4684E80F00494B9B6803F0E053E1
:103680003B6100237B613B6903F08063002B02D028
:1036900000237B610EE03B6903F00063002B02D046
:1036A00001237B6106E03B6903F08053002B01D0CE
:1036B00002237B613A4A7B6918331B0113440022C1
:1036C0001A603B79002B0FD1354A7B6918331B01F7
:1036D00013441A683B685B0531491A437B69183308
:1036E0001B010B441A6010E02D4A7B6918331B0143
:1036F00013441A683B68DB001343294943F0040272
:103700007B6918331B010B441A60BB79244903F011
:103710000F027B6918331B010B4404331A60204AE3
:103720007B6918331B0113441B681D4943F00202D7
:103730007B6918331B010B441A60194A7B691833E3
:103740001B01134404331B68154923F00F027B69E6
:1037500018331B010B4404331A60114A7B69183378
:103760001B01134404331B68BA790D491A437B6962
:1037700018331B010B4404331A60094A7B69183360
:103780001B0113441B68064943F001027B6918338F
:103790001B010B441A6000BF1837BD4690BC704730
:1037A0000064004080B489B000AFF8607A601A46C7
:1037B0000B46FB721346BB720023FB776E4BD3F8AC
:1037C00000326D4A43F00103C2F800320023BB7798
:1037D00067E0FB7F0D2B69D8674BD3F80C32FA7F7B
:1037E000012101FA02F2D2431146634A0B40C2F8AA
:1037F0000C32614BD3F80432FA7F012101FA02F254
:1038000011465D4A0B43C2F804325B4BD3F81432C5
:10381000FA7F012101FA02F2D2431146564A0B40C7
:10382000C2F81432BB7F9B00FA6813441B689BB23A
:10383000C3F30A037B83BB7F5A1CFB7A9A420ADAE2
:10384000BB7F01339B00FA6813441B689BB2C3F330
:103850000A039BB200E000233B837B8B5A013B8B26
:103860005B0542EA0301444AFB7F483342F83310C8
:10387000414AFB7F4833DB00134400225A603E4B31
:10388000D3F81C32FA7F012101FA02F211463A4ABA
:103890000B43C2F81C32FB7F0133FB77BB7F023343
:1038A000BB77BA7FFB7A9A4293D300E000BF002334
:1038B0007B774EE0FB7F0D2B50D82F4BD3F80C328B
:1038C000FA7F012101FA02F211462B4A0B43C2F89A
:1038D0000C32294BD3F80432FA7F012101FA02F2AB
:1038E0001146254A0B43C2F80432234BD3F8143255
:1038F000FA7F012101FA02F211461F4A0B43C2F876
:1039000014327B7F9B007A6813441B68DB0043F012
:1039100004037B611849FB7F48337A6941F83320FF
:10392000154AFB7F4833DB00134400225A60124BD8
:10393000D3F81C32FA7F012101FA02F211460E4A35
:103940000B43C2F81C32FB7F0133FB777B7F0133D3
:103950007B777A7FBB7A9A42ACD300E000BF064BFC
:10396000D3F80032044A23F00103C2F8003200BF4A
:103970002437BD4680BC70470064004080B483B0EB
:1039800000AF0346FB71FB79002B09D10B4BDB68C1
:1039900003F00303002B14BF01230023DBB208E074
:1039A000064B1B6903F00303002B14BF0123002304
:1039B000DBB218460C37BD4680BC7047006400403F
:1039C00080B485B000AF78600B46FB70444AFB784A
:1039D0001B331B0113441B68DBB203F00403DAB290
:1039E0007B681A717B681B79002B0BD13C4AFB78F2
:1039F0001B331B0113441B685B0DC3F30A027B6876
:103A00001A600AE0364AFB781B331B0113441B681B
:103A1000DB0823F060427B681A60314AFB781B3375
:103A20001B0113441B68DBB203F00203DAB27B68AC
:103A30005A712B4AFB781B331B01134404331B6858
:103A4000DBB203F00F03DAB27B689A710023FB73D9
:103A500027E0FB7B032B10D8214AFB781B01134482
:103A600003F5DC731A68FB7BDB00DA40FB7BD1B229
:103A70007A6813440A46DA7110E0194AFB781B0190
:103A8000134403F5DE731A68FB7B043BDB00DA406A
:103A9000FB7BD1B27A6813440A46DA71FB7B0133AF
:103AA000FB737B689B79FA7B9A42D2D3FB78002B1D
:103AB00006D10B4BDB680A4A43F02003D36008E0D1
:103AC000FB78012B05D1064B1B69054A43F0200307
:103AD0001361012318461437BD4680BC704700BFF0
:103AE0000064004080B400AF0D4B9B690C4A43F06A
:103AF000080393610B4B5B680A4A23F070435360E1
:103B0000084B5B68074A43F040535360054BDB6842
:103B1000044A43F40043D36000BFBD4680BC7047F5
:103B200000100240000C014080B500AF174800F0C3
:103B300051FF174800F04EFF164800F04BFF00F011
:103B40003BFB0346144AA2FB03239B0C1946134874
:103B500000F040FF00F0AEFB03460F4AA2FB032338
:103B60009B0C19460E4800F035FF00F0C9FB0346D8
:103B7000094AA2FB03239B0C19460A4800F02AFFBE
:103B8000044800F027FF00BF80BD00BF008100088F
:103B90002C8100085081000883DE1B4378810008D7
:103BA00090810008A8810008B0B590B000AF0F4B1D
:103BB00007F110041D460FCD0FC40FCD0FC495E8BB
:103BC0000F0084E80F000A4A3B1D07CA83E807007C
:103BD0003A1D07F1100003230C21FFF7E3FD054810
:103BE00000F0F8FE00BF4037BD46B0BDFC810008C4
:103BF0002C820008C081000880B582B002AF00F0BE
:103C000045FF00F083FA4FF4E13000F003FD034676
:103C1000002B01D100F0B8F84FF4E1314A4800F030
:103C2000D9FE4A4800F0D6FE4FF4E13000F09CFC8B
:103C30000346002B01D100F0A7F8FFF775FF4FF402
:103C4000E131434800F0C6FE404800F0C3FE4FF4A7
:103C50007A7000F00BFA3F4800F0BCFE3B4800F0E1
:103C6000B9FE3D48FFF79CFC0346002B07D13B48BB
:103C700000F0B0FE3A4800F0ADFE00F085F8FFF726
:103C800093FF4FF4FA71374800F0A4FE2F4800F07C
:103C9000A1FE00F061FB344800F09CFE2B4800F0D0
:103CA00099FEFDF7E7FA314B9B681B0B03F001010E
:103CB0002E4B9B685B0B03F001022C4B9B689B0B0C
:103CC00003F001032A4800F085FE204800F082FE40
:103CD000FFF708FF254B9B68DB0B03F00103194638
:103CE000244800F077FE194800F074FEFFF7C6FA8A
:103CF0001E4B9B6803F001011C4B9B685B0803F0A3
:103D000001021A4B9B68DB0803F00100174B9B680C
:103D10005B0903F0010300930346174800F05AFEC5
:103D20000A4800F057FEFDF7CBFA1449322000F0A4
:103D300049FB1349022000F045FB1249142000F012
:103D400041FB00F08DFBFCE7388200087082000820
:103D5000AC820008E482000820A10700108300085C
:103D6000308300086C830008A4830008000C014025
:103D7000C4830008008400082C840008053E000865
:103D8000853E0008953D000880B400AF00BFBD46E9
:103D900080BC704780B584B000AF10E03B46002186
:103DA0001846FFF70DFE3B461846FDF79DFB3B46C8
:103DB0001846FEF78DF93B46184600F0D3FD00206B
:103DC000FFF7DCFD0346002BE8D110E03B46012164
:103DD0001846FFF7F5FD3B461846FDF785FB3B46C9
:103DE0001846FEF775F93B46184600F0BBFD01206A
:103DF000FFF7C4FD0346002BE8D100BF00BF10371A
:103E0000BD4680BD80B500AFFDF7C6FA03461A4631
:103E1000194B1A70184B1A78184B1B789A4229D0F4
:103E2000154B1A78154B1A70154BDB68144A43F082
:103E30000B03D360104B1B78022B06D0022B19DC2E
:103E4000002B09D0012B0ED014E00D4BDB680C4A7F
:103E500023F00103D3600DE0094BDB68084A23F02F
:103E60000203D36006E0064BDB68054A23F0080333
:103E7000D36000BF00BF80BDD5030020D403002065
:103E8000000C014080B584B000AF114B1B781A467E
:103E9000104B33F812303B6000233B710823BB7199
:103EA0003B460FCBFFF7E2FB094B1B780133DAB23D
:103EB000074B1A70064B1A78074B1B789A4202D3AD
:103EC000034B00221A7000BF1037BD4680BD00BFF3
:103ED000D6030020040000201E00002080B485B01E
:103EE00000AF154B9B69144A43F001039361124BD9
:103EF0009B6903F00103BB60BB680F4BDB690E4A93
:103F000043F08053D3610C4BDB6903F080537B603B
:103F10007B680A4B5B68FB60FB6823F0E063FB6037
:103F2000FB6843F08063FB60044AFB68536000BF9A
:103F30001437BD4680BC70470010024000000140AD
:103F400080B588B000AF786007F1100300221A60D6
:103F50005A609A60DA607B681B681D4A934233D1CD
:103F60001C4B9B691B4A43F008039361194B9B69E7
:103F700003F00803FB60FB68C0233B6112237B61F5
:103F80000323FB6107F110031946134800F06AFF91
:103F9000104BDB690F4A43F40013D3610D4BDB690F
:103FA00003F40013BB60BB68002200211F2000F057
:103FB0009CFE1F2000F0B5FE00220021202000F012
:103FC00094FE202000F0ADFE00BF2037BD4680BD2E
:103FD0000054004000100240000C014080B400AFCB
:103FE00000BFFDE780B400AF00BFFDE780B400AFC5
:103FF00000BFFDE780B400AF00BFFDE780B400AFB5
:1040000000BFFDE780B400AF00BFBD4680BC704775
:1040100080B400AF00BFBD4680BC704780B400AF25
:1040200000BFBD4680BC704780B500AF00F074FD96
:10403000034B1B680133024A136000BF80BD00BF01
:10404000D803002080B500AF024801F055FA00BF48
:1040500080BD00BF8003002080B500AF024801F0A2
:10406000BCFB00BF80BD00BF8003002080B582B0D4
:1040700000AF786000F0A0F802467B68B2FBF3F373
:10408000064A013B5360054B00229A60034B07220E
:104090001A6000BF0837BD4680BD00BF10E000E0D9
:1040A00080B586B000AF7860144A154BD31A7B6197
:1040B0007B693B61134B1B68002B02D1114B124AE9
:1040C0001A60104B1A687B6813443A699A4207D207
:1040D00002F054FF03460C221A604FF0FF3309E050
:1040E000084B1B68FB60074B1A687B681344054A42
:1040F0001360FB6818461837BD4680BD005000208D
:1041000000040000DC030020D005002080B400AFD4
:10411000274B1B68264A43F48033136000BF244BAF
:104120001B6803F40033002BF9D0224B1B68214A93
:1041300043F0040313601F4B1B681E4A43F0100337
:1041400013601B4B5B681A4A43F4E0135360184B2F
:104150005B68174A43F480335360154B5B68144A1D
:1041600043F480635360124B5B68114A23F460533D
:1041700053600F4B1B680E4A43F08073136000BFFF
:104180000B4B1B6803F00073002BF9D0084B5B68E6
:10419000074A43F00203536000BF054B5B6803F01E
:1041A0000C03082BF9D100BF1846BD4680BC7047F0
:1041B000001002400020024080B487B000AF264BC0
:1041C000BB60254B7B60254B5B689B0803F00303BA
:1041D0003B603B68022B0DD03B68022B35D83B6817
:1041E000002B03D03B68012B02D02EE07B682DE032
:1041F000BB682BE0194B5B6803F48033002B10D0B5
:10420000164B5B6803F40033002B02D002233B61A2
:1042100001E001233B61BA683B69B2FBF3F3FB6049
:1042200002E07B685B08FB600C4B5B689B0C03F057
:104230000F0302337B617B690F2B01D110237B615C
:10424000FB687A6902FB03F300E07B6818461C37C1
:10425000BD4680BC704700BF00127A0000100240CB
:10426000B0B592B000AF114B3C1D1D460FCD0FC431
:104270000FCD0FC40FCD0FC495E80F0084E80F00D9
:104280000B4B5B681B0903F00F037B64FFF794FF84
:1042900002467B6C9B0048333B4453F8443CB2FBE2
:1042A000F3F318464837BD46B0BD00BF748400081C
:1042B00000100240B0B58AB000AF0F4B3C1D1D4648
:1042C0000FCD0FC495E80F0084E80F000B4B5B681F
:1042D0001B0A03F007037B62FFF7C2FF02467B6AFB
:1042E0009B0028333B4453F8243CB2FBF3F31846BD
:1042F0002837BD46B0BD00BFB4840008001002409E
:10430000B0B58AB000AF0F4B3C1D1D460FCD0FC49A
:1043100095E80F0084E80F000B4B5B68DB0A03F0A5
:1043200007037B62FFF79CFF02467B6A9B002833F2
:104330003B4453F8243CB2FBF3F318462837BD4600
:10434000B0BD00BFB48400080010024080B400AFCC
:1043500000BFBD4680BC704780B483B000AF00236F
:104360007B6024E0164A7B681B01134400221A601C
:10437000134A7B681B011344043300221A60104A5D
:104380007B681B0113440C3300221A700C4A7B68B3
:104390001B011344083300221A60094A7B681B0181
:1043A00013440D3300221A707B6801337B607B68F5
:1043B000092BD7DD00BF00BF0C37BD4680BC70475E
:1043C000E003002080B485B000AF7860396000233E
:1043D000FB6037E0204AFB681B0113440C331B7859
:1043E000002B2CD11C4AFB681B01134408331B68AB
:1043F000002B24D1184AFB681B0113440C33012203
:104400001A70164B1A681449FB681B010B440433DD
:104410001A60114AFB681B0113440D3300221A7005
:104420000D4AFB681B0113447A681A600A4AFB684C
:104430001B01134408333A681A60FB6807E0FB6805
:104440000133FB60FB68092BC4DD4FF0FF331846D6
:104450001437BD4680BC7047E0030020D80300201D
:1044600080B582B000AF00237B603CE0224A7B68CD
:104470001B0113440C331B78002B31D01E4A7B6880
:104480001B01134408331B68002B29D01B4B1A68EF
:1044900019497B681B010B4404331B68D21A164967
:1044A0007B681B010B441B689A4219D9134B1A688D
:1044B00011497B681B010B4404331A600E4A7B6868
:1044C0001B01134408331B6898470B4A7B681B0188
:1044D00013440D331B78012B02D1786800F010F8DB
:1044E0007B6801337B607B68092BBFDD00BF00BFA9
:1044F0000837BD4680BD00BFE0030020D803002080
:1045000080B483B000AF78607B68002B24DB7B68CD
:10451000092B21DC134A7B681B0113440C33002256
:104520001A70104A7B681B011344043300221A607E
:104530000C4A7B681B0113440D3300221A70094A90
:104540007B681B01134400221A60064A7B681B012A
:104550001344083300221A6000BF0C37BD4680BCEC
:10456000704700BFE003002080B584B000AF7860E2
:10457000254B9B69244A43F004039361224B9B69BA
:10458000214A43F480439361204B5B681F4A23F424
:104590007F6353601D4B5B681C4A43F0B00353605C
:1045A0001A4B5B68194A43F480635360184B00222E
:1045B000DA60FFF7A5FEF860FB68002B02D07B688D
:1045C000002B01D100231BE07B685A08FB681A44CA
:1045D0007B68B2FBF3F3BB600D4ABB6893600C4B86
:1045E000DB680B4A43F4005343F00C03D360084BE1
:1045F000DB6803F40053002B01D1002300E001230A
:1046000018461037BD4680BD00100240000801402A
:104610000038014080B485B000AF7860234B9B69BF
:10462000224A43F008039361204BDB691F4A43F49D
:104630008023D3611E4B5B681D4A23F47063536073
:104640001B4B5B681A4A43F440735360184B5B681A
:10465000174A43F400635360154B5B68144A23F414
:1046600070435360124B5B68114A43F480435360BC
:10467000104B0022DA60104BFB607B685A08FB6825
:104680001A447B68B2FBF3F3BB600A4ABB689360D1
:10469000084BDB68074A43F4005343F00C03D36034
:1046A000012318461437BD4680BC704700100240F5
:1046B000000C0140004800400051250280B483B046
:1046C00000AF0346FB7100BF0A4B1B6803F0800379
:1046D000002BF9D0074AFB79536000BF054B1B68DC
:1046E00003F04003002BF9D000BF00BF0C37BD46DC
:1046F00080BC70470048004080B582B000AF786051
:1047000006E07B685A1C7A601B781846FFF7D6FFD4
:104710007B681B78002BF4D100BF00BF0837BD4673
:1047200080BD0000B0B59CB000AFC7E902011346E0
:10473000FB710023FB664FF000024FF00003D7E946
:104740000201FCF74BF80346002B0DD0FB6E5A1C00
:10475000FA6670333B442D2203F84C2CBC68FB688E
:1047600083F00045C7E90245D7E90201FCF7AAFB3F
:1047700002460B46C7E91823D7E91801FBF7A0FF4B
:1047800002460B46D7E90201FBF710FE02460B4634
:10479000C7E9162300237B65D7E918014FF00A0209
:1047A0004FF00003FCF73EFBD2B27B6D591C7965DC
:1047B0003032D2B270333B4403F8602CD7E9180191
:1047C0004FF00A024FF00003FCF72CFB02460B46A9
:1047D000C7E91823D7E91823012A73F10003DBDAAC
:1047E0007B6D013B3B650EE0FB6E5A1CFA6607F1E0
:1047F00010013A6D0A44127870333B4403F84C2C94
:104800003B6D013B3B653B6D002BEDDAFB6E5A1CAB
:10481000FA6670333B442E2203F84C2C0023FB64D1
:104820002BE04FF00002224BD7E91601FBF790FC7A
:1048300002460B46C7E91623D7E91601FBF7F6FF38
:1048400003467B647B6CDAB2FB6E591CF96630322E
:10485000D2B270333B4403F84C2C786CFBF7F4FE77
:1048600002460B46D7E91601FBF7A0FD02460B46B0
:10487000C7E91623FB6C0133FB64FB79FA6C9A429F
:10488000CFDB0023BB640AE007F12402BB6C1344B6
:104890001B781846FFF712FFBB6C0133BB64BA6C80
:1048A000FB6E9A42F0DB00BF00BF7037BD46B0BD63
:1048B0000000244080B485B000AF786039600023E8
:1048C000FB600FE000BF104B1B6803F08003002B60
:1048D000F9D07A68FB6813441A780B4B5A60FB686E
:1048E0000133FB60FA683B689A42EBD300BF064B8A
:1048F0001B6803F04003002BF9D000BF00BF143742
:10490000BD4680BC704700BF0038014080B485B010
:1049100000AF786039600023FB600FE000BF104BF0
:104920001B6803F08003002BF9D07A68FB681344FE
:104930001A780B4B5A60FB680133FB60FA683B68DE
:104940009A42EBD300BF064B1B6803F04003002BD9
:10495000F9D000BF00BF1437BD4680BC704700BF10
:104960000048004080B588B000AF78607B681B6865
:10497000DBB2FB737B681B681B0ADBB2BB737B6813
:104980001B681B0CDBB27B737B681B681B0EDBB2E6
:104990003B737B689B793B740023FB610DE0FB69F3
:1049A00005337968FA690A440732127820333B44A8
:1049B00003F8142CFB690133FB61FB69072BEEDD67
:1049C00007F10C030D211846FFF774FF00BF2037D5
:1049D000BD4680BD0FB480B5C2B000AF07F58A7286
:1049E00007F58473A3F584731A6007F58473A3F540
:1049F0008473381D1B68D7F810214FF4807102F0C2
:104A0000AFFAC7F80401D7F80431002B0FDDD7F84F
:104A10000431B3F5807F03D94FF48073C7F80431B4
:104A2000D7F804213B1D11461846FFF76FFF00BF62
:104A300007F58477BD46BDE8804004B070470000AC
:104A4000FFF784FC0B480C490C4A002302E0D458C1
:104A5000C4500433C4188C42F9D3094A094C0023CA
:104A600001E013600432A242FBD302F08DFAFFF79B
:104A7000C3F87047000000207C000020208500085B
:104A800080000020CC050020FEE7000080B500AFCC
:104A9000084B1B68074A43F010031360032000F023
:104AA00019F90F2000F008F8FFF718FA002318464C
:104AB00080BD00BF0020024080B582B000AF7860AA
:104AC000124B1A68124B1B7819464FF47A73B3FBDA
:104AD000F1F3B2FBF3F3184600F031F90346002B73
:104AE00001D001230EE07B680F2B0AD800227968E1
:104AF0004FF0FF3000F0F9F8064A7B68136000239E
:104B000000E0012318460837BD4680BD2000002084
:104B1000280000202400002080B400AF054B1B7843
:104B20001A46054B1B681344034A136000BFBD4679
:104B300080BC7047280000208004002080B485B02D
:104B400000AF78607B6803F00703FB600C4BDB6809
:104B5000BB60BA684FF6FF031340BB60FB681A02E4
:104B6000BB68134343F0BF6343F40033BB60044AA4
:104B7000BB68D36000BF1437BD4680BC704700BF20
:104B800000ED00E080B400AF044BDB681B0A03F0CB
:104B900007031846BD4680BC704700BF00ED00E02B
:104BA00080B483B000AF0346FB7197F90730002B48
:104BB0000BDBFB7903F01F02064997F907305B090D
:104BC000012000FA02F241F8232000BF0C37BD4655
:104BD00080BC704700E100E080B483B000AF0346C2
:104BE0003960FB7197F90730002B0ADB3B68DAB2BA
:104BF0000C4997F907301201D2B20B4483F8002315
:104C00000AE03B68DAB20849FB7903F00F03043B82
:104C10001201D2B20B441A7600BF0C37BD4680BCDD
:104C2000704700BF00E100E000ED00E080B489B013
:104C300000AFF860B9607A60FB6803F00703FB61BE
:104C4000FB69C3F10703042B28BF0423BB61FB6985
:104C50000433062B02D9FB69033B00E000237B6190
:104C60004FF0FF32BB6902FA03F3DA43BB681A4024
:104C70007B699A404FF0FF317B6901FA03F3D94316
:104C80007B680B40134318462437BD4680BC7047F1
:104C900080B582B000AF78607B68013BB3F1807F64
:104CA00001D301230FE00A4A7B68013B53600F21C7
:104CB0004FF0FF30FFF790FF054B00229A60044B46
:104CC00007221A60002318460837BD4680BD00BF82
:104CD00010E000E080B582B000AF78607868FFF740
:104CE0002DFF00BF0837BD4680BD80B586B000AF40
:104CF0000346B9607A60FB7300237B61FFF742FFD4
:104D000078617A68B9687869FFF790FF024697F989
:104D10000F3011461846FFF75FFF00BF1837BD463A
:104D200080BD80B582B000AF0346FB7197F90730B4
:104D30001846FFF735FF00BF0837BD4680BD80B578
:104D400082B000AF78607868FFF7A2FF034618468C
:104D50000837BD4680BD000080B584B000AF7860E4
:104D60000023FB737B6893F82130DBB2022B05D064
:104D70007B6804229A630123FB7351E07B681B6804
:104D80001A687B681B6822F00E021A607B681B6839
:104D90001A687B681B6822F001021A607B681B6836
:104DA000224A934229D07B681B68214A934222D031
:104DB0007B681B681F4A93421AD07B681B681E4A97
:104DC000934212D07B681B681C4A93420AD07B68CE
:104DD0001B681B4A934202D14FF480130EE04FF040
:104DE00080730BE04FF4803308E04FF4805305E00C
:104DF0004FF4807302E0102300E00123114A536056
:104E00007B68012283F821207B68002283F8202020
:104E10007B685B6B002B03D07B685B6B7868984783
:104E2000FB7B18461037BD4680BD00BF080002401E
:104E30001C00024030000240440002405800024082
:104E40006C0002400000024080B483B000AF786084
:104E50007B6893F82130DBB218460C37BD4680BC26
:104E60007047000080B48BB000AF786039600023D9
:104E70007B6200233B6269E101227B6A02FA03F351
:104E8000FB613B681B68FA691340BB61BA69FB6947
:104E90009A4240F058813B685B689A4A93425ED0E0
:104EA000984A934275D8984A934258D0964A93426A
:104EB0006FD8964A934252D0944A934269D8944A02
:104EC00093424CD0924A934263D8924A934246D03E
:104ED000904A93425DD8122B2AD8122B59D801A29E
:104EE00052F823F05F4F0008394F00084B4F00087D
:104EF0008D4F0008934F0008934F0008934F000810
:104F0000934F0008934F0008934F0008934F0008F9
:104F1000934F0008934F0008934F0008934F0008E9
:104F2000934F0008934F0008414F0008554F000869
:104F3000794A934213D02CE03B68DB683B6229E05E
:104F40003B68DB6804333B6224E03B68DB68083382
:104F50003B621FE03B68DB680C333B621AE03B6856
:104F60009B68002B02D104233B6213E03B689B68E3
:104F7000012B05D108233B627B68FA691A6109E0BD
:104F800008233B627B68FA695A6103E000233B62B5
:104F900000E000BFBB69FF2B01D87B6801E07B68A4
:104FA00004337B61BB69FF2B02D87B6A9B0002E064
:104FB0007B6A083B9B003B617B691A680F213B6958
:104FC00001FA03F3DB431A40396A3B6901FA03F340
:104FD0001A437B691A603B685B6803F08053002BBF
:104FE00000F0B1804D4B9B694C4A43F00103936143
:104FF0004A4B9B6903F00103BB60BB68484A7B6A6C
:105000009B08023352F82330FB607B6A03F00303F2
:105010009B000F2202FA03F3DB43FA681340FB60A4
:105020007B68404A934213D07B683F4A93420DD03D
:105030007B683E4A934207D07B683D4A934201D148
:10504000032306E0042304E0022302E0012300E03E
:1050500000237A6A02F0030292009340FA68134335
:10506000FB602F497B6A9B080233FA6841F82320D2
:105070003B685B6803F48013002B06D02D4B9A68C5
:105080002C49BB6913438B6006E02A4B9A68BB69C5
:10509000DB43284913408B603B685B6803F40013D3
:1050A000002B06D0234BDA682249BB691343CB603F
:1050B00006E0204BDA68BB69DB431E491340CB6036
:1050C0003B685B6803F40033002B06D0194B5A6829
:1050D0001849BB6913434B6006E0164B5A68BB691D
:1050E000DB43144913404B603B685B6803F4803337
:1050F000002B21D00F4B1A680E49BB6913430B607C
:1051000021E000BF0000321000003110000022102A
:1051100000002110000012100000111000100240C9
:105120000000014000080140000C01400010014057
:1051300000140140000401400B4B1A68BB69DB43BB
:10514000094913400B607B6A01337B623B681A6834
:105150007B6A22FA03F3002B7FF48EAE00BF00BF00
:105160002C37BD4680BC70470004014080B584B038
:1051700000AF78607B68002B01D101232BE17B68B5
:1051800093F83D30DBB2002B06D17B68002283F818
:105190003C207868FEF7D4FE7B68242283F83D200B
:1051A0007B681B681A687B681B6822F001021A6022
:1051B0007B681B681A687B681B6842F400421A60AF
:1051C0007B681B681A687B681B6822F400421A60BF
:1051D00001F084FEF8607B685B68814A934207D8DF
:1051E000FB68804A934294BF01230023DBB206E0B0
:1051F000FB687D4A934294BF01230023DBB2002B5E
:1052000001D00123E7E0FB68784AA2FB03239B0C53
:10521000BB607B681B685B6823F03F017B681B6891
:10522000BA680A435A607B681B681B6A23F03F0117
:105230007B685B686A4A934202D8BB68013309E025
:10524000BB684FF4967202FB03F3694AA2FB032387
:105250009B0901337A6812680B4313627B681B68F1
:10526000DB6923F44F4222F0FF027B685B685C49F4
:105270008B4219D8FB68591E7B685B685B00B1FBE9
:10528000F3F3591C40F6FC730B40002B0AD0FB686B
:10529000591E7B685B685B00B1FBF3F30133C3F31A
:1052A0000B0351E004234FE07B689B68002B11D176
:1052B000FB68581E7B6859680B465B000B44B0FBCB
:1052C000F3F30133C3F30B03002B0CBF01230023C3
:1052D000DBB212E0FB68581E7B6859680B469B00E6
:1052E0000B4499000B44B0FBF3F30133C3F30B03FE
:1052F000002B0CBF01230023DBB2002B01D00123C4
:1053000022E07B689B68002B0ED1FB68581E7B68EF
:1053100059680B465B000B44B0FBF3F30133C3F356
:105320000B0343F400430FE0FB68581E7B68596889
:105330000B469B000B4499000B44B0FBF3F3013385
:10534000C3F30B0343F44043796809681343CB610B
:105350007B681B681B6823F0C0017B68DA697B6887
:105360001B6A1A437B681B680A431A607B681B68C8
:105370009B6823F4034323F0FF037A6811697A687A
:10538000D26811437A6812680B4393607B681B688C
:10539000DB6823F0FF017B685A697B689B691A43CD
:1053A0007B681B680A43DA607B681B681A687B6845
:1053B0001B6842F001021A607B6800221A647B6855
:1053C000202283F83D207B6800221A637B6800223C
:1053D00083F83E20002318461037BD4680BD00BF2D
:1053E000A08601007F841E00FF083D0083DE1B4372
:1053F000D34D621080B483B000AF78607B681B68C7
:105400005B6903F08003802B03D17B681B6800225B
:105410001A6100BF0C37BD4680BC704780B485B0B0
:1054200000AFF860B9601346FB80FB6893F83D302D
:10543000DBB2202B58D1BB68002B02D0FB88002B9D
:1054400001D1012351E0FB6893F83C30012B01D1DD
:1054500002234AE0FB68012283F83C20FB681B68BA
:105460001B6803F00103012B07D0FB681B681A6857
:10547000FB681B6842F001021A60FB681B681A682F
:10548000FB681B6822F400621A60FB68222283F822
:105490003D20FB68202283F83E20FB6800221A642E
:1054A000FB68BA685A62FB68FA885A85FB685B8DAC
:1054B0009AB2FB681A85FB680E4ADA62FB681B68C1
:1054C0001A68FB681B6842F480621A60FB6800225D
:1054D00083F83C20FB681B685A68FB681B6842F431
:1054E000E0625A60002300E0022318461437BD46EC
:1054F00080BC70470000FFFF80B588B000AF7860C7
:105500000023BB617B681B685B687B617B68DB6A2F
:105510003B617B6893F83E30FB737B6893F83D30CA
:10552000BB73FB7B102B03D0FB7B402B40F0C18077
:105530007B681B689B69BB617B681B685B69FB615F
:10554000FB6903F00103002B0DD13B69B3F52A0F72
:1055500003D03B69B3F12A4F01D1012300E00023BE
:10556000012B00F03281FB6903F00103002B0CD00A
:105570007B695B0A03F00103002B06D0786801F019
:1055800089FC786800F087FD92E0FB69DB0803F096
:105590000103002B09D07B695B0A03F00103002B98
:1055A00003D0786800F0FCFD82E0FB695B0803F043
:1055B0000103002B09D07B695B0A03F00103002B78
:1055C00003D0786800F015FE72E0BB699B0803F019
:1055D0000103002B3BD07B681B685B6803F400630E
:1055E000B3F5006F00F0F380FB69DB0903F0010302
:1055F000002B0FD07B699B0A03F00103002B09D01D
:10560000FB699B0803F00103002B03D1786800F0CD
:10561000DFF94DE0FB699B0803F00103002B00F06C
:10562000D6807B695B0A03F00103002B00F0CF807A
:10563000BB7B212B03D1786800F066FAC7E0FB7BC7
:10564000402B40F0C480786800F0D4FABFE07B685B
:105650001B685B6803F40063B3F5006F00F0B7806C
:10566000FB699B0903F00103002B0FD07B699B0AA8
:1056700003F00103002B09D0FB699B0803F0010331
:10568000002B03D1786800F04DFB11E0FB699B080B
:1056900003F00103002B00F09A807B695B0A03F0A2
:1056A0000103002B00F09380786800F003FC8EE08B
:1056B0008DE07B681B6C002B04D07B681B685B69EA
:1056C000FB6107E07B681B689B69BB617B681B68AB
:1056D0005B69FB61FB695B0803F00103002B12D0DF
:1056E0007B695B0A03F00103002B0CD07B681B6C09
:1056F000002B03D07B681B689B69BB61B969786824
:1057000000F0CEFF66E0FB691B0903F00103002BEC
:1057100009D07B695B0A03F00103002B03D0786892
:1057200001F008F856E0BB7B212B02D0BB7B292B74
:1057300025D1FB69DB0903F00103002B0FD07B6946
:105740009B0A03F00103002B09D0FB699B0803F0BF
:105750000103002B03D1786800F0E6FE39E0FB6915
:105760009B0803F00103002B33D07B695B0A03F035
:105770000103002B2DD0786800F013FF29E0FB69AE
:105780009B0903F00103002B0FD07B699B0A03F0F8
:105790000103002B09D0FB699B0803F00103002BD8
:1057A00003D1786800F01DFF14E0FB699B0803F04B
:1057B0000103002B0ED07B695B0A03F00103002B71
:1057C00008D0786800F04BFF04E000BF02E000BFA3
:1057D00000E000BF2037BD4680BD80B58AB000AF75
:1057E00078607B681B685B693B627B681B685B68F1
:1057F000FB6100237B627B6893F83E30FB763B6A5B
:105800001B0A03F00103002B16D0FB691B0A03F0EF
:105810000103002B10D07B6A43F001037B627B689D
:105820001B686FF480725A617B681B681A687B681A
:105830001B6842F400421A603B6A5B0A03F00103F2
:10584000002B0ED0FB691B0A03F00103002B08D0CC
:105850007B6A43F002037B627B681B686FF4007213
:105860005A613B6A9B0A03F00103002B3FD0FB699E
:105870001B0A03F00103002B39D0FB7EBB767B684B
:105880005B8D9BB27B617B6893F83D30FB747B68DA
:105890001B6BFB60BB7E202B12D17B69002B0FD1D1
:1058A000FB7C212B08D0FB7C292B05D0FB7C282BF3
:1058B00006D1FB68212B03D1786801F06BF816E064
:1058C0007B681B686FF480625A617B6A43F0040353
:1058D0007B62FB7E102B02D0FB7E402B07D17B68C6
:1058E0001B681A687B681B6842F400721A603B6A86
:1058F000DB0A03F00103002B0ED0FB691B0A03F047
:105900000103002B08D07B6A43F008037B627B68AD
:105910001B686FF400625A617B6A002B08D07B68B9
:105920001A6C7B6A1A437B681A64786801F0A6F8DF
:1059300000BF2837BD4680BD80B483B000AF78601B
:1059400000BF0C37BD4680BC704780B483B000AF49
:10595000786000BF0C37BD4680BC704780B483B010
:1059600000AF786000BF0C37BD4680BC704780B484
:1059700083B000AF78600B46FB7013463B8000BFDE
:105980000C37BD4680BC704780B483B000AF7860F0
:1059900000BF0C37BD4680BC704780B483B000AFF9
:1059A000786000BF0C37BD4680BC704780B483B0C0
:1059B00000AF786000BF0C37BD4680BC704780B434
:1059C00083B000AF786000BF0C37BD4680BC704725
:1059D00080B584B000AF78607B6893F83D30FB738E
:1059E0007B6893F83E30BB737B68DB6ABB607B6887
:1059F0001B8D002B50D1FB7B212B4DD1BB68082B7D
:105A00001DD0BB68202B1AD0BB6813F5803F16D081
:105A10007B681B685A687B681B6822F4E0625A60E6
:105A20007B6811221A637B68002283F83E207B6822
:105A3000202283F83D207868FFF77EFF60E07B68D6
:105A40001B685A687B681B6822F4E0625A607B68B6
:105A50001B681A687B681B6842F400721A607B68D6
:105A600000221A637B68202283F83D207B6893F82C
:105A70003E30DBB2402B07D17B68002283F83E200A
:105A80007868FFF78AFF3BE07B68002283F83E20BE
:105A90007868FFF751FF33E0FB7B212B05D0BB7B00
:105AA000402B2DD1FB7B222B2AD17B685B8D9BB2B7
:105AB000002B08D17B681B685A687B681B6822F43E
:105AC00080625A601CE07B6893F83E30DBB2402B6A
:105AD00003D1786800F08EF812E07B685B6A1A7870
