:020000040800F2
:1000000000500020313B0008453200084D32000806
:10001000553200085D32000865320008000000001B
:100020000000000000000000000000006D32000829
:100030007932000800000000853200089132000883
:10004000793B0008793B0008793B0008793B0008C0
:10005000793B0008793B0008793B0008793B0008B0
:10006000793B0008793B0008793B0008793B0008A0
:10007000793B0008793B0008793B0008793B000890
:10008000793B0008793B0008793B0008793B000880
:10009000793B0008793B0008793B0008793B000870
:1000A000793B0008793B0008793B0008793B000860
:1000B000793B0008793B0008793B0008AD32000825
:1000C000C1320008793B0008793B0008793B000801
:1000D000793B0008793B0008793B0008793B000830
:1000E000793B0008793B0008793B000800000000DC
:1000F0000000000000000000000000000000000000
:0C01000000000000000000005FF808F1A3
:1001100010B5054C237833B9044B13B10448AFF341
:1001200000800123237010BD60000020000000004B
:100130007869000808B5034B1BB103490348AFF3C6
:10014000008008BD000000006400002078690008FD
:1001500070B54FF0FF0C4CF4E06C1CEA11541DBF5D
:100160001CEA135594EA0C0F95EA0C0F00F0DEF828
:100170002C4481EA030621EA4C5123EA4C5350EA0D
:10018000013518BF52EA033541F4801143F480135E
:1001900038D0A0FB02CE4FF00005E1FB02E506F0EF
:1001A0000042E0FB03E54FF00006E1FB03569CF044
:1001B000000F18BF4EF0010EA4F1FF04B6F5007F4A
:1001C00064F5407404D25FEA4E0E6D4146EB0606BC
:1001D00042EAC62141EA55514FEAC52040EA5E5045
:1001E0004FEACE2EB4F1FD0C88BFBCF5E06F1ED8EF
:1001F000BEF1004F08BF5FEA500E50F1000041EB26
:10020000045170BD06F0004646EA010140EA0200D2
:1002100081EA0301B4EB5C04C2BFD4EB0C0541EAF4
:10022000045170BD41F480114FF0000E013C00F309
:10023000AB8014F1360FDEBF002001F0004170BD2D
:10024000C4F10004203C35DA0C341BDC04F1140446
:10025000C4F1200500FA05F320FA04F001FA05F2D2
:1002600040EA020001F0004221F0004110EBD3709F
:1002700021FA04F642EB06015EEA430E08BF20EACB
:10028000D37070BDC4F10C04C4F1200500FA04F36E
:1002900020FA05F001FA04F240EA020001F0004100
:1002A00010EBD37041F100015EEA430E08BF20EA73
:1002B000D37070BDC4F1200500FA05F24EEA020EBB
:1002C00020FA04F301FA05F243EA020321FA04F0EA
:1002D00001F0004121FA04F220EA020000EBD370A1
:1002E0005EEA430E08BF20EAD37070BD94F0000FA1
:1002F0000FD101F00046400041EB010111F4801FD5
:1003000008BF013CF7D041EA060195F0000F18BF85
:10031000704703F00046520043EB030313F4801FC1
:1003200008BF013DF7D043EA0603704794EA0C0F7B
:100330000CEA135518BF95EA0C0F0CD050EA410691
:1003400018BF52EA4306D1D181EA030101F000410E
:100350004FF0000070BD50EA410606BF1046194636
:1003600052EA430619D094EA0C0F02D150EA013642
:1003700013D195EA0C0F05D152EA03361CBF104683
:1003800019460AD181EA030101F0004141F0FE4122
:1003900041F470014FF0000070BD41F0FE4141F4A6
:1003A000780170BD81F0004102E000BF83F000439E
:1003B00030B54FEA41044FEA430594EA050F08BF00
:1003C00090EA020F1FBF54EA000C55EA020C7FEAC4
:1003D000645C7FEA655C00F0E2804FEA5454D4EB41
:1003E0005555B8BF6D420CDD2C4480EA020281EA0B
:1003F000030382EA000083EA010180EA020281EA43
:100400000303362D88BF30BD11F0004F4FEA013194
:100410004FF4801C4CEA113102D0404261EB4101A3
:1004200013F0004F4FEA03334CEA133302D0524229
:1004300063EB430394EA050F00F0A780A4F10104E5
:10044000D5F1200E0DDB02FA0EFC22FA05F280181F
:1004500041F1000103FA0EF2801843FA05F3594105
:100460000EE0A5F120050EF1200E012A03FA0EFC84
:1004700028BF4CF0020C43FA05F3C01851EBE371AE
:1004800001F0004507D54FF0000EDCF1000C7EEBCB
:1004900000006EEB0101B1F5801F1BD3B1F5001F09
:1004A0000CD349085FEA30004FEA3C0C04F1010428
:1004B0004FEA445212F5800F80F09A80BCF1004F51
:1004C00008BF5FEA500C50F1000041EB045141EAD3
:1004D000050130BD5FEA4C0C404141EB0101013C9C
:1004E00028BFB1F5801FE9D291F0000F04BF01468B
:1004F0000020B1FA81F308BF2033A3F10B03B3F15D
:1005000020020CDA0C3208DD02F1140CC2F10C02EC
:1005100001FA0CF021FA02F10CE002F11402D8BF4A
:10052000C2F1200C01FA02F120FA0CFCDCBF41EA16
:100530000C019040E41AA2BF01EB0451294330BDE5
:100540006FEA04041F3C1CDA0C340EDC04F11404C2
:10055000C4F1200220FA04F001FA02F340EA030099
:1005600021FA04F345EA030130BDC4F10C04C4F1DF
:10057000200220FA02F001FA04F340EA03002946BF
:1005800030BD21FA04F0294630BD94F0000F83F409
:10059000801306BF81F480110134013D4EE77FEAEC
:1005A000645C18BF7FEA655C29D094EA050F08BF38
:1005B00090EA020F05D054EA000C04BF1946104619
:1005C00030BD91EA030F1EBF0021002030BD5FEA5D
:1005D000545C05D14000494128BF41F0004130BD85
:1005E00014F580043CBF01F5801130BD01F00045D9
:1005F00045F0FE4141F470014FF0000030BD7FEA4C
:10060000645C1ABF194610467FEA655C1CBF0B4646
:10061000024650EA013406BF52EA033591EA030F5D
:1006200041F4002130BD00BF90F0000F04BF002155
:10063000704730B54FF4806404F132044FF0000588
:100640004FF0000150E700BF90F0000F04BF002101
:10065000704730B54FF4806404F1320410F0004567
:1006600048BF40424FF000013EE700BF42004FEA62
:10067000E2014FEA31014FEA02701FBF12F07F43DF
:1006800093F07F4F81F06051704732F07F4208BF96
:10069000704793F07F4F04BF41F40021704730B59D
:1006A0004FF4607401F0004521F000411CE700BFE9
:1006B00050EA010208BF704730B54FF000050AE06C
:1006C00050EA010208BF704730B511F0004502D56D
:1006D000404261EB41014FF4806404F132045FEA6F
:1006E000915C3FF4D8AE4FF003025FEADC0C18BF18
:1006F00003325FEADC0C18BF033202EBDC02C2F10A
:10070000200300FA03FC20FA02F001FA03FE40EA9B
:100710000E0021FA02F11444BDE600BF4FF0FF3C89
:1007200006E000BF4FF0010C02E000BF4FF0010CEB
:100730004DF804CD4FEA410C7FEA6C5C4FEA430C64
:1007400018BF7FEA6C5C1BD001B050EA410C0CBFB3
:1007500052EA430C91EA030F02BF90EA020F002015
:10076000704710F1000F91EA030F58BF994208BF7C
:1007700090422CBFD8176FEAE37040F00100704739
:100780004FEA410C7FEA6C5C02D150EA013C07D190
:100790004FEA430C7FEA6C5CD6D152EA033CD3D0DB
:1007A0005DF8040B704700BF8446104662468C46D5
:1007B0001946634600E000BF01B5FFF7B7FF002808
:1007C00048BF10F1000F01BD4DF808EDFFF7F4FF31
:1007D0000CBF012000205DF808FB00BF4DF808EDBC
:1007E000FFF7EAFF34BF012000205DF808FB00BFDF
:1007F0004DF808EDFFF7E0FF94BF012000205DF801
:1008000008FB00BF4DF808EDFFF7CEFF94BF0120B5
:1008100000205DF808FB00BF4DF808EDFFF7C4FFAE
:1008200034BF012000205DF808FB00BF4FEA410201
:1008300012F5001215D211D56FF47873B3EB625232
:1008400012D94FEAC12343F0004343EA505311F059
:10085000004F23FA02F018BF404270474FF00000EB
:10086000704750EA013005D111F0004008BF6FF029
:10087000004070474FF00000704700BF4A0011D29F
:1008800012F5001211D20DD56FF47873B3EB6252EA
:100890000ED44FEAC12343F0004343EA505323FAF6
:1008A00002F070474FF00000704750EA013002D16B
:1008B0004FF0FF3070474FF00000704780F000406D
:1008C00002E000BF81F0004142001FBF5FEA410328
:1008D00092EA030F7FEA226C7FEA236C6AD04FEA28
:1008E0001262D2EB1363C1BFD2184140484041406D
:1008F000B8BF5B42192B88BF704710F0004F40F41F
:10090000000020F07F4018BF404211F0004F41F43A
:10091000000121F07F4118BF494292EA030F3FD006
:10092000A2F1010241FA03FC10EB0C00C3F1200319
:1009300001FA03F100F0004302D5494260EB4000A8
:10094000B0F5000F13D3B0F1807F06D340084FEA13
:10095000310102F10102FE2A51D2B1F1004F40EB08
:10096000C25008BF20F0010040EA03007047490070
:1009700040EB0000013A28BFB0F5000FEDD2B0FA0D
:1009800080FCACF1080CB2EB0C0200FA0CF0AABF30
:1009900000EBC25052421843BCBFD04018437047CE
:1009A00092F0000F81F4000106BF80F400000132D4
:1009B000013BB5E74FEA41037FEA226C18BF7FEAAB
:1009C000236C21D092EA030F04D092F0000F08BFED
:1009D0000846704790EA010F1CBF0020704712F0D4
:1009E0007F4F04D1400028BF40F00040704712F113
:1009F00000723CBF00F50000704700F0004343F078
:100A0000FE4040F4000070477FEA226216BF0846AD
:100A10007FEA23630146420206BF5FEA412390EA70
:100A2000010F40F4800070474FF0000304E000BF66
:100A300010F0004348BF40425FEA000C08BF704717
:100A400043F0964301464FF000001CE050EA0102DB
:100A500008BF70474FF000030AE000BF50EA0102F0
:100A600008BF704711F0004302D5404261EB4101DD
:100A70005FEA010C02BF84460146002043F0B64302
:100A800008BFA3F18053A3F50003BCFA8CF2083A27
:100A9000A3EBC25310DB01FA02FC634400FA02FC30
:100AA000C2F12002BCF1004F20FA02F243EB020037
:100AB00008BF20F00100704702F1200201FA02FC99
:100AC000C2F1200250EA4C0021FA02F243EB02008C
:100AD00008BF20EADC7070474FF0FF0C1CEAD052D0
:100AE0001EBF1CEAD15392EA0C0F93EA0C0F6FD091
:100AF0001A4480EA010C400218BF5FEA41211ED06F
:100B00004FF0006343EA501043EA5111A0FB01315A
:100B10000CF00040B1F5000F3EBF490041EAD3712F
:100B20005B0040EA010062F17F02FD2A1DD8B3F1AB
:100B3000004F40EBC25008BF20F00100704790F01A
:100B4000000F0CF0004C08BF49024CEA502040EA6C
:100B500051207F3AC2BFD2F1FF0340EAC250704732
:100B600040F400004FF00003013A5DDC12F1190F70
:100B7000DCBF00F000407047C2F10002410021FAE2
:100B800002F1C2F1200200FA02FC5FEA310040F1FA
:100B9000000053EA4C0308BF20EADC70704792F073
:100BA000000F00F0004C02BF400010F4000F013AAB
:100BB000F9D040EA0C0093F0000F01F0004C02BFA6
:100BC000490011F4000F013BF9D041EA0C018FE715
:100BD0000CEAD15392EA0C0F18BF93EA0C0F0AD01B
:100BE00030F0004C18BF31F0004CD8D180EA010041
:100BF00000F00040704790F0000F17BF90F0004FDA
:100C0000084691F0000F91F0004F14D092EA0C0FBB
:100C100001D142020FD193EA0C0F03D14B0218BF4E
:100C2000084608D180EA010000F0004040F0FE4094
:100C300040F40000704740F0FE4040F44000704730
:100C40004FF0FF0C1CEAD0521EBF1CEAD15392EAAF
:100C50000C0F93EA0C0F69D0A2EB030280EA010C9F
:100C600049024FEA402037D04FF0805343EA111138
:100C700043EA10130CF000408B4238BF5B0042F196
:100C80007D024FF4000C8B4224BF5B1A40EA0C003B
:100C9000B3EB510F24BFA3EB510340EA5C00B3EB6D
:100CA000910F24BFA3EB910340EA9C00B3EBD10F5B
:100CB00024BFA3EBD10340EADC001B0118BF5FEAAD
:100CC0001C1CE0D1FD2A3FF650AF8B4240EBC250D6
:100CD00008BF20F0010070470CF0004C4CEA502097
:100CE0007F32C2BFD2F1FF0340EAC250704740F4E6
:100CF00000004FF00003013A37E792F0000F00F0D8
:100D0000004C02BF400010F4000F013AF9D040EA55
:100D10000C0093F0000F01F0004C02BF490011F4E9
:100D2000000F013BF9D041EA0C0195E70CEAD153E1
:100D300092EA0C0F08D142027FF47DAF93EA0C0FC8
:100D40007FF470AF084676E793EA0C0F04D14B02AC
:100D50003FF44CAF08466EE730F0004C18BF31F05E
:100D6000004CCAD130F000427FF45CAF31F0004358
:100D70007FF43CAF5FE700BF4FF0FF3C06E000BFF1
:100D80004FF0010C02E000BF4FF0010C4DF804CD14
:100D90004FEA40024FEA41037FEA226C18BF7FEA24
:100DA000236C11D001B052EA530C18BF90EA010F26
:100DB00058BFB2EB030088BFC81738BF6FEAE170B5
:100DC00018BF40F0010070477FEA226C02D15FEA51
:100DD000402C05D17FEA236CE4D15FEA412CE1D0BD
:100DE0005DF8040B704700BF844608466146FFE784
:100DF0000FB5FFF7C9FF002848BF10F1000F0FBD66
:100E00004DF808EDFFF7F4FF0CBF012000205DF85E
:100E100008FB00BF4DF808EDFFF7EAFF34BF0120E3
:100E200000205DF808FB00BF4DF808EDFFF7E0FF7C
:100E300094BF012000205DF808FB00BF4DF808EDCD
:100E4000FFF7D2FF94BF012000205DF808FB00BF30
:100E50004DF808EDFFF7C8FF34BF012000205DF812
:100E600008FB00BF7BB972B90029BEBF00204FF05C
:100E7000004106E008BF00281CBF6FF000414FF0A2
:100E8000FF3000F0F5B9ADF1080C6DE904CE002992
:100E900009DB002B1ADB00F06BF8DDF804E0DDE97C
:100EA000022304B07047404261EB4101002B1BDB81
:100EB00000F05EF8DDF804E0DDE9022304B0404212
:100EC00061EB4101524263EB43037047524263EBD3
:100ED000430300F04DF8DDF804E0DDE9022304B03F
:100EE000404261EB41017047524263EB430300F023
:100EF0003FF8DDF804E0DDE9022304B0524263EB81
:100F00004303704738B50022002304460D46FFF71F
:100F100065FC28B920462946BDE8384000F00AB8EB
:100F2000204605F1004100F005F8404261EB410127
:100F300038BD00BFD0B500220B4B06460F46FFF769
:100F400007F9FFF79BFC0446FFF76EFB0022074BF7
:100F5000FFF7FEF802460B4630463946FFF726FA01
:100F6000FFF78CFC2146D0BD0000F03D0000F041B1
:100F70002DE9F047089D8E4604468846002B4AD14D
:100F80008A42174662D9B2FA82F64EB1C6F1200300
:100F900001FA06F820FA03F3B74043EA0808B44020
:100FA0004FEA174EB8FBFEF11FFA87FC0EFB1188C3
:100FB00001FB0CF2230C43EA08439A4209D9FB18BF
:100FC00001F1FF3080F0EB809A4240F2E880023974
:100FD0003B449A1AB2FBFEF00EFB102200FB0CFC05
:100FE000A3B243EA02439C4509D9FB1800F1FF3242
:100FF00080F0D7809C4540F2D4803B44023840EAE0
:1010000001400021A3EB0C031DB10022F340C5E910
:101010000032BDE8F0878B4205D90DB1C5E900016A
:1010200000210846F5E7B3FA83F1002946D173455C
:1010300002D3824200F20881841A6EEB030201207F
:101040009046002DE5D0C5E90048E2E7002A00F00F
:101050009180B2FA82F6002E40F0A5808A1A012112
:10106000030C4FEA174E80B2BCB2B2FBFEFC0EFB83
:101070001C2243EA024304FB0CF29A4207D9FB18F4
:101080000CF1FF3802D29A4200F2E380C4469B1A68
:10109000B3FBFEF20EFB123302FB04F440EA0343FF
:1010A0009C4207D9FB1802F1FF3002D29C4200F2A9
:1010B000CD8002461B1B42EA0C40A5E7C1F1200689
:1010C0008B4022FA06F71F432EFA06FA4FEA174919
:1010D000BAFBF9F80EFA01FE20FA06F309FB18AA8A
:1010E0001FFA87FC43EA0E0300FA01FE08FB0CF02E
:1010F0001C0C44EA0A44A04202FA01F20AD93C1943
:1011000008F1FF3A80F09E80A04240F29B80A8F157
:1011100002083C44241A98B2B4FBF9F309FB1344C7
:1011200003FB0CFC40EA0444A44509D93C1903F133
:10113000FF3080F08580A44540F28280023B3C4431
:1011400043EA0840A4EB0C04A0FB028C6445434630
:10115000E14664D361D05DB1BEEB030264EB0904E8
:1011600004FA06F622FA01F31E43CC40C5E90064F6
:1011700000214EE7B1FBF2FC010C41EA0E4180B2C6
:1011800040EA01423B46B1FBF7F138463C46B846DF
:10119000BE462026A2EB080241EA0C4165E7014663
:1011A00017E710462BE7C6F120012EFA01FCB740E5
:1011B0000EFA06FE20FA01F141EA0E014FEA174E3F
:1011C000BCFBFEF8BCB20EFB18CC08FB04F90A0C01
:1011D00042EA0C42B04091454FEA104380B23ED9FA
:1011E000BA1808F1FF3C01D291451FD8A2EB0902C1
:1011F000B2FBFEF909FB04F80EFB192A8AB242EA97
:101200000A42424529D2BA1809F1FF31C2D24245F9
:10121000C0D2A9F102013A44BCE7C6459BD2B8EB63
:1012200002036CEB070C0138E14694E7A7EB0909D0
:101230004A44B2FBFEF9A8F1020C09FB04F8DBE713
:1012400003467DE7D04665E70846FAE63B44023AA6
:1012500030E7ACF1020C3B4419E749469AE7A2EBB0
:101260000902B2FBFEF9C44609FB04F8C4E700BF5B
:10127000704700BF80B400AF0E4B9B690D4A43F02E
:10128000080393610C4B5B680B4A9BB253600A4B9B
:101290005B68094A43F04C7343F440335360064B98
:1012A000DB68054A43F4E043D36000BFBD4680BC21
:1012B000704700BF00100240000C014080B500AF35
:1012C000154B164A1A60144B154A5A60124B0022ED
:1012D0009A60114BAA22DA600F4B4FF480421A61D8
:1012E0000D4B00225A610C4B00229A610A4B0022DE
:1012F000DA61094B00221A62074802F0AFFF034689
:10130000002B01D001F06CFE02220649024803F0D6
:10131000FDF800BF80BD00BF400300200054004026
:10132000801A06008000002080B582B000AF78608F
:10133000054B01221A7002220449054803F0E6F821
:1013400000BF0837BD4680BD7C0000208000002023
:101350004003002080B582B000AF78607B681B68D6
:101360000C4A934212D10C4B1B690B4A43F40013F5
:101370001361094B1B69084A23F400131361FFF73B
:101380009DFF02220549064803F0C0F800BF083758
:10139000BD4680BD00540040001002408000002087
:1013A00040030020B0B586B004AF78607B68D3E915
:1013B00000457B68D3E902237968D1E90401CDE9CE
:1013C0000201CDE9002322462B46034802F07EFBB2
:1013D00000BF0837BD46B0BD9069000880B586B033
:1013E00000AF7860114802F071FB00237B6113E0CD
:1013F0007B69DB007A681344D3E90023C7E9022341
:10140000D7E90201FFF73AFA03461946084802F005
:101410005DFB7B6901337B617B69172BE8DD054848
:1014200002F054FB00BF1837BD4680BDBC69000800
:10143000CC690008D06900082DE9B04FA6B016AFFE
:10144000F863304802F042FBFB6B18CBC7E90C3461
:10145000FB6BD3E90212C7E90A12FB6BD3E9040163
:10146000C7E90801FB6BD3E90645C7E90645FB6BF5
:10147000D3E90889C7E90489FB6BD3E90A9AC7E96C
:10148000029AFB6BD3E90CABC7E900ABFB6BD3E96A
:101490000EABFB6BD3E91089FB6BD3E91245FB6BF9
:1014A000D3E91401FB6BD3E91623CDE91423CDE96D
:1014B0001201CDE91045CDE90E89CDE90CABD7E994
:1014C00000ABCDE90AABD7E9029ACDE9089AD7E992
:1014D0000489CDE90689D7E90645CDE90445D7E970
:1014E0000801CDE90201D7E90A12CDE90012D7E9D6
:1014F0000C23054802F0EAFA00BF4037BD46BDE8BC
:10150000B08F00BFD4690008E06900082DE9F04FF2
:101510008BB008AF78607B68D3E900AB7B68D3E918
:1015200002237968D1E904017C6804F11805D5E942
:1015300000457E68D6E90889CDE90689CDE90445EC
:10154000CDE90201CDE9002352465B46034802F093
:10155000BDFA00BF0C37BD46BDE8F08F806A0008B9
:1015600080B582B000AF78607B681B68B3F1404FF4
:1015700000F09180B3F1404F00F28E80484A9342D0
:101580007FD0474A934200F28780464A93426ED00A
:10159000444A934200F28080434A934260D0424AD8
:1015A000934279D8B32B2DD8A12B75D3A13B122B05
:1015B00072D801A252F823F00F16000899160008FD
:1015C000991600089916000899160008991600083F
:1015D000991600089916000899160008991600082F
:1015E0009916000899160008991600082316000895
:1015F0003116000899160008991600089916000877
:101600003F16000840F2AA32934222D044E07B68A1
:1016100007332649184600F02AFF2448FFF776FFD3
:101620003AE07B6807332249184600F012FE33E0A7
:101630007B6807331F49184600F00DFD2CE07B68DE
:1016400007331D49184600F079F91B48FFF7C6FE1D
:1016500022E07B6807331949184600F0CDFB1BE0F8
:101660007B6807331649184600F078FC14E07B6865
:1016700007331449184600F007F91248FFF792FEA5
:101680000AE07B6807331049184600F0E5FA0E4877
:10169000FFF7D2FE00E000BF00BF0837BD4680BDA7
:1016A0001701F4980060A9980020A9981803002059
:1016B0009802002020020020A0000020C00100208D
:1016C000E801002088000020600100202DE9B00F13
:1016D0008BB000AFF860B9607A607B68002B02DDE8
:1016E0007B68402B04DD4FF000024FF0000351E017
:1016F0004FF000024FF00003C7E90823BB68002B3E
:1017000000DA0733DB10FB61BB685A4203F00703C2
:1017100002F0070258BF5342BB6100237B6133E0F4
:101720000023FB74FB69002B0EDBFB69072B0BDC32
:10173000FB69FA6813441B781A46BB6942FA03F343
:10174000DBB203F00103FB74D7E9082312EB020AB2
:1017500043EB030B52465B46F97C00200C460546E2
:1017600042EA040843EA0509C7E90889BB69013B65
:10177000BB61BB69002B04DAFB690133FB61072302
:10178000BB617B6901337B617A697B689A42C7DB05
:10179000D7E90823104619462C37BD46BDE8B00FDF
:1017A00070472DE9B00F8DB000AFF860B9607A6076
:1017B0007B68002B02DD7B68402B04DD4FF00002CC
:1017C0004FF0000356E04FF000024FF00003C7E96E
:1017D0000A2300237B6247E0BA687B6A1344FB61FB
:1017E000FB69002B00DA0733DB10BB61FB695A424F
:1017F00003F0070302F0070258BF53427B61002346
:1018000087F82330BB69002B0FDBBB69072B0CDC8F
:10181000BB69FA6813441B781A467B6942FA03F3E2
:10182000DBB203F0010387F8233097F8233000225E
:10183000984691467B6AA3F12001C3F1200209FA80
:1018400003F508FA01F10D4328FA02F2154308FAEC
:1018500003F4D7E90A2342EA040A43EA050BC7E97D
:101860000AAB7B6A01337B627A6A7B689A42B3DB9C
:10187000D7E90A23104619463437BD46BDE8B00FF4
:10188000704700000000000080B588B000AF7860AD
:1018900039603B68002B44D0202220217868FFF774
:1018A00080FFC7E90601D7E90601FEF701FF20A383
:1018B000D3E90023FEF74CFC02460B4610461946BE
:1018C0004FF000024FF00003FEF772FD02460B4698
:1018D0003968C1E90023082218217868FFF761FF01
:1018E000C7E90401D7E90401FEF7E2FE02460B4610
:1018F0003968C1E90223102200217868FFF751FFFF
:10190000C7E90201D7E90201FEF7D2FE4FF000025B
:10191000094BFEF74BFD02460B463968C1E904232B
:1019200000E000BF2037BD4680BD00BFAFF30080A0
:101930009A9999999999B93F0000D04080B582B0A1
:1019400000AF786039603B68002B00F0818108228D
:1019500000217868FFF725FF02460B46104619461E
:10196000FEF7A6FE02460B463968C1E900230822AD
:1019700008217868FFF715FF02460B461046194606
:10198000FEF796FE02460B463968C1E9022308229B
:1019900010217868FFF705FF02460B4610461946EE
:1019A000FEF786FE02460B463968C1E90423082289
:1019B00018217868FFF7F5FE02460B4610461946D7
:1019C000FEF776FE02460B463968C1E90623082277
:1019D00020217868FFF7E5FE02460B4610461946BF
:1019E000FEF766FE02460B463968C1E90823082265
:1019F00028217868FFF7D5FE02460B4610461946A7
:101A0000FEF756FE02460B463968C1E90A23082252
:101A100030217868FFF7C5FE02460B46104619468E
:101A2000FEF746FE02460B463968C1E90C23082240
:101A300038217868FFF7B5FE02460B461046194676
:101A4000FEF736FE02460B463968C1E90E2308222E
:101A500040217868FFF7A5FE02460B46104619465E
:101A6000FEF726FE02460B463968C1E9102308221C
:101A700048217868FFF795FE02460B461046194646
:101A8000FEF716FE02460B463968C1E9122308220A
:101A900050217868FFF785FE02460B46104619462E
:101AA000FEF706FE02460B463968C1E914230822F8
:101AB00058217868FFF775FE02460B461046194616
:101AC000FEF7F6FD02460B463968C1E916230822E7
:101AD00060217868FFF765FE02460B4610461946FE
:101AE000FEF7E6FD02460B463968C1E918230822D5
:101AF00068217868FFF755FE02460B4610461946E6
:101B0000FEF7D6FD02460B463968C1E91A230822C2
:101B100070217868FFF745FE02460B4610461946CD
:101B2000FEF7C6FD02460B463968C1E91C230822B0
:101B300078217868FFF735FE02460B4610461946B5
:101B4000FEF7B6FD02460B463968C1E91E2308229E
:101B500080217868FFF725FE02460B46104619469D
:101B6000FEF7A6FD02460B463968C1E9202308228C
:101B700088217868FFF715FE02460B461046194685
:101B8000FEF796FD02460B463968C1E9222308227A
:101B900090217868FFF705FE02460B46104619466D
:101BA000FEF786FD02460B463968C1E92423082268
:101BB00098217868FFF7F5FD02460B461046194656
:101BC000FEF776FD02460B463968C1E92623082256
:101BD000A0217868FFF7E5FD02460B46104619463E
:101BE000FEF766FD02460B463968C1E92823082244
:101BF000A8217868FFF7D5FD02460B461046194626
:101C0000FEF756FD02460B463968C1E92A23082231
:101C1000B0217868FFF7C5FD02460B46104619460D
:101C2000FEF746FD02460B463968C1E92C2308221F
:101C3000B8217868FFF7B5FD02460B4610461946F5
:101C4000FEF736FD02460B463968C1E92E2300E057
:101C500000BF0837BD4680BD80B582B000AF786058
:101C600039603B68002B00F0C180012200217868B8
:101C7000FFF797FD02460B4610461946FEF718FD82
:101C800002460B463968C1E9002301220121786828
:101C9000FFF787FD02460B4610461946FEF708FD82
:101CA00002460B463968C1E9022301220221786805
:101CB000FFF777FD02460B4610461946FEF7F8FC83
:101CC00002460B463968C1E90423012203217868E2
:101CD000FFF767FD02460B4610461946FEF7E8FC83
:101CE00002460B463968C1E90623012204217868BF
:101CF000FFF757FD02460B4610461946FEF7D8FC83
:101D000002460B463968C1E908230122052178689B
:101D1000FFF747FD02460B4610461946FEF7C8FC82
:101D200002460B463968C1E90A2301220621786878
:101D3000FFF737FD02460B4610461946FEF7B8FC82
:101D400002460B463968C1E90C2301220721786855
:101D5000FFF727FD02460B4610461946FEF7A8FC82
:101D600002460B463968C1E90E2301220821786832
:101D7000FFF717FD02460B4610461946FEF798FC82
:101D800002460B463968C1E910230122092178680F
:101D9000FFF707FD02460B4610461946FEF788FC82
:101DA00002460B463968C1E9122301220A217868EC
:101DB000FFF7F7FC02460B4610461946FEF778FC83
:101DC00002460B463968C1E9142301220B217868C9
:101DD000FFF7E7FC02460B4610461946FEF768FC83
:101DE00002460B463968C1E9162300E000BF0837F8
:101DF000BD4680BD0000000080B582B000AF7860B5
:101E000039603B68002B00F094801122072178682C
:101E1000FFF75CFC02460B4610461946FEF748FCED
:101E200047A3D3E90023FEF793F902460B46104679
:101E300019464FF00002464BFEF7B8FA02460B4631
:101E40003968C1E900233B68D3E90001032201F0AE
:101E500049FD404801F030FD092223217868FFF751
:101E600035FC02460B4610461946FEF721FC024699
:101E70000B463968C1E902233B68D3E9020103221A
:101E800001F030FD334801F017FD08222921786860
:101E9000FFF71CFC02460B4610461946FEF708FCED
:101EA00002460B463968C1E904233B68D3E90401C3
:101EB000032201F017FD274801F0FEFC09221C2136
:101EC0007868FFF703FC02460B4610461946FEF7FA
:101ED000EFFB02460B463968C1E906233B68D3E9AC
:101EE0000601032201F0FEFC1A4801F0E5FC0A227B
:101EF00016217868FFF7EAFB02460B4610461946A2
:101F0000FEF7D6FB10A3D3E90023FEF721F9024622
:101F10000B463968C1E908233B68D3E9080103226D
:101F200001F0E0FC0B4801F0C7FC0B4801F0C4FCD9
:101F300000E000BF0837BD4680BD00BFAFF30080A2
:101F40007B14AE47E17A843F9A9999999999B93F60
:101F500000407F40B86A0008BC6A000880B582B0C3
:101F600000AF786039603B68002B70D002220721F7
:101F70007868FFF7ABFB02460B4610461946FEF7A2
:101F800097FB02460B463968C1E90023022205216E
:101F90007868FFF79BFB02460B4610461946FEF792
:101FA00087FB02460B463968C1E90223022203215E
:101FB0007868FFF78BFB02460B4610461946FEF782
:101FC00077FB02460B463968C1E90423022201214E
:101FD0007868FFF77BFB02460B4610461946FEF772
:101FE00067FB02460B463968C1E906230222382105
:101FF0007868FFF76BFB02460B4610461946FEF762
:1020000057FB02460B463968C1E9082302223621F4
:102010007868FFF75BFB02460B4610461946FEF751
:1020200047FB02460B463968C1E90A2308223021E2
:102030007868FFF74BFB02460B4610461946FEF741
:1020400037FB02460B463968C1E90C2300E000BFAC
:102050000837BD4680BD80B582B000AF786039607A
:102060003B68002B00F0F180082200217868FFF720
:1020700098FB02460B4610461946FEF719FB02462E
:102080000B463968C1E90023082208217868FFF768
:1020900088FB02460B4610461946FEF709FB02462E
:1020A0000B463968C1E90223082210217868FFF73E
:1020B00078FB02460B4610461946FEF7F9FA02462F
:1020C0000B463968C1E90423082218217868FFF714
:1020D00068FB02460B4610461946FEF7E9FA02462F
:1020E0000B463968C1E90623082220217868FFF7EA
:1020F00058FB02460B4610461946FEF7D9FA02462F
:102100000B463968C1E90823082228217868FFF7BF
:1021100048FB02460B4610461946FEF7C9FA02462E
:102120000B463968C1E90A23082230217868FFF795
:1021300038FB02460B4610461946FEF7B9FA02462E
:102140000B463968C1E90C23082238217868FFF76B
:1021500028FB02460B4610461946FEF7A9FA02462E
:102160000B463968C1E90E23082240217868FFF741
:1021700018FB02460B4610461946FEF799FA02462E
:102180000B463968C1E91023082248217868FFF717
:1021900008FB02460B4610461946FEF789FA02462E
:1021A0000B463968C1E91223082250217868FFF7ED
:1021B000F8FA02460B4610461946FEF779FA02462F
:1021C0000B463968C1E91423082258217868FFF7C3
:1021D000E8FA02460B4610461946FEF769FA02462F
:1021E0000B463968C1E91623082260217868FFF799
:1021F000D8FA02460B4610461946FEF759FA02462F
:102200000B463968C1E91823082268217868FFF76E
:10221000C8FA02460B4610461946FEF749FA02462E
:102220000B463968C1E91A23082270217868FFF744
:10223000B8FA02460B4610461946FEF739FA02462E
:102240000B463968C1E91C2300E000BF0837BD46D2
:1022500080BD80B582B000AF786039603B68002BEC
:1022600000F00181082200217868FFF79AFA0246FF
:102270000B4610461946FEF71BFA02460B46396814
:10228000C1E90023082208217868FFF78AFA02468C
:102290000B4610461946FEF70BFA02460B46396804
:1022A000C1E90223082210217868FFF77AFA024672
:1022B0000B4610461946FEF7FBF902460B463968F5
:1022C000C1E90423082218217868FFF76AFA024658
:1022D0000B4610461946FEF7EBF902460B463968E5
:1022E000C1E90623082220217868FFF75AFA02463E
:1022F0000B4610461946FEF7DBF902460B463968D5
:10230000C1E90823082228217868FFF74AFA024623
:102310000B4610461946FEF7CBF902460B463968C4
:10232000C1E90A23082230217868FFF73AFA024609
:102330000B4610461946FEF7BBF902460B463968B4
:10234000C1E90C23082238217868FFF72AFA0246EF
:102350000B4610461946FEF7ABF902460B463968A4
:10236000C1E90E23082240217868FFF71AFA0246D5
:102370000B4610461946FEF79BF902460B46396894
:10238000C1E91023082248217868FFF70AFA0246BB
:102390000B4610461946FEF78BF902460B46396884
:1023A000C1E91223082250217868FFF7FAF90246A2
:1023B0000B4610461946FEF77BF902460B46396874
:1023C000C1E91423082258217868FFF7EAF9024688
:1023D0000B4610461946FEF76BF902460B46396864
:1023E000C1E91623082260217868FFF7DAF902466E
:1023F0000B4610461946FEF75BF902460B46396854
:10240000C1E91823082268217868FFF7CAF9024653
:102410000B4610461946FEF74BF902460B46396843
:10242000C1E91A23082270217868FFF7BAF9024639
:102430000B4610461946FEF73BF902460B46396833
:10244000C1E91C23082278217868FFF7AAF902461F
:102450000B4610461946FEF72BF902460B46396823
:10246000C1E91E2300E000BF0837BD4680BD80B52E
:1024700082B000AF786039603B68002B50D00822F2
:1024800000217868FFF78DF902460B461046194681
:10249000FEF70EF902460B463968C1E9002308220F
:1024A00008217868FFF77DF902460B461046194669
:1024B000FEF7FEF802460B463968C1E902230822FE
:1024C00010217868FFF76DF902460B461046194651
:1024D000FEF7EEF802460B463968C1E904230822EC
:1024E00018217868FFF75DF902460B461046194639
:1024F000FEF7DEF802460B463968C1E906230822DA
:1025000020217868FFF74DF902460B461046194620
:10251000FEF7CEF802460B463968C1E9082300E011
:1025200000BF0837BD4680BD80B400AF104B9B692B
:102530000F4A43F0080393610E4B1B680D4A03F0EA
:10254000704313600B4B1A680A490B4B13430B6023
:10255000084BDB68074A23F02B03D360054BDB688D
:10256000044A43F00203D36000BFBD4680BC7047FD
:1025700000100240000C01403330300090B5ADF641
:10258000040D00AF07F50063A3F2FC73186000238D
:10259000C7F8FC3700F0C2FFC7F8E80707F500638B
:1025A000A3F2FC731B68C7F8E437D7F8E837002BB1
:1025B00006D007F50063A3F2FC731B68002B01D162
:1025C0000023F7E0D7F8E827D7F8E437B2FBF3F3B6
:1025D000C7F8E0370123C7F8F837C0E00123C7F890
:1025E000F437B2E00123C7F8F037A4E0D7F8F427B6
:1025F000D7F8F03713440133C7F8DC37D7F8F8378A
:10260000D7F8DC2702FB03F3D7F8E0279A4240F023
:102610008D80D7F8F407FEF707FA03464FF07E5196
:102620001846FEF751F903461C46D7F8DC07FEF7BB
:10263000FBF9034619462046FEF702FB03466049B4
:102640001846FEF749FA0346C7F8D8375D49D7F868
:10265000D807FEF7F3FB0346002B67D05A49D7F89B
:10266000D807FEF7E1FB0346002B5FD00123C7F834
:10267000EC3755E0D7F8F83798B207F50063A3F5C3
:10268000FF61D7F8FC2713469B0013449B000B44C3
:1026900002461A8007F50063A3F5FF61D7F8FC270F
:1026A00013469B0013449B000B440433D7F8F427D4
:1026B0001A6007F50063A3F5FF61D7F8FC271346FE
:1026C0009B0013449B000B440833D7F8F0271A6093
:1026D000D7F8EC1707F50063A3F5FF60D7F8FC27E0
:1026E00013469B0013449B0003440C33196007F509
:1026F0000063A3F5FF61D7F8FC2713469B00134442
:102700009B000B441033D7F8D8271A60D7F8FC3752
:102710000133C7F8FC37D7F8EC370133C7F8EC378B
:10272000D7F8EC37D7F8F0279A42A3D2D7F8F0378A
:102730000133C7F8F037D7F8F037082B7FF656AFDC
:10274000D7F8F4370133C7F8F437D7F8F437102B3C
:102750007FF648AFD7F8F8370133C7F8F837D7F81E
:10276000F837B3F5806F7FF639AF184BDA6907F5A4
:102770000063A3F5FF631B88013B194607F500635F
:10278000A3F5FF63DB68013B1B06194307F50063F4
:10279000A3F5FF635B68013B1B04194307F5006366
:1027A000A3F5FF639B68013B1B050B4307491343DC
:1027B000CB610123184607F60407BD4690BD00BF54
:1027C0000000C84200008C420000A04200640040AB
:1027D00080B582B000AF78602B4B9B692A4A43F0EA
:1027E00009039361284BDB69274A43F00073D361E7
:1027F000264B5B68254A43F480435360244B5B6857
:10280000234A23F00F035360214B5B68204A43F0B7
:10281000040353601E4B5B681D4A23F0F0035360B2
:102820001B4B5B681A4A43F0B0035360194B1B689B
:10283000184A23F020031360164B1B68154A23F037
:1028400002031360134B1B68124A43F00103136029
:1028500000BF104B5B6803F00103002BF9D07868D0
:10286000FFF78CFE0B4B1B680A4A23F00103136031
:1028700000BF084B5B6803F00103002BF9D1012373
:1028800018460837BD4680BD0010024000000140D8
:10289000000C01400064004090B488B000AF3C469A
:1028A00084E80F00664B9B6803F0E0537B614FF0B8
:1028B000FF33FB617B6903F08063002B02D00023B0
:1028C000FB610EE07B6903F00063002B02D0012363
:1028D000FB6106E07B6903F08053002B01D00223EB
:1028E000FB61574AFB6918331B01134400221A602D
:1028F0003B79002B0FD1524AFB6918331B0113445B
:102900001A683B685B054E491A43FB6918331B0183
:102910000B441A6010E04A4AFB6918331B01134448
:102920001A683B68DB001343454943F00402FB6926
:1029300018331B010B441A60414AFB6918331B0111
:10294000134404331B683E4923F00F02FB6918331C
:102950001B010B4404331A60394AFB6918331B010D
:10296000134404331B68BA7935491A43FB69183399
:102970001B010B4404331A60314AFB691B011344E9
:1029800003F5C47300221A602D4AFB691B0113442E
:1029900003F5C67300221A600023FB7639E0FB7E44
:1029A000032B19D8264AFB691B01134403F5C47392
:1029B0001B68FA7E20323A4412F8192C1146FA7E2E
:1029C000D20001FA02F21E491A43FB691B010B44B3
:1029D00003F5C4731A6019E0194AFB691B0113441B
:1029E00003F5C6731B68FA7E20323A4412F8192C9C
:1029F0001146FA7E043AD20001FA02F210491A4353
:102A0000FB691B010B4403F5C6731A60FB7E01339F
:102A1000FB76BB79FA7E9A42C1D3094AFB69183327
:102A20001B0113441B68064943F00102FB6918337C
:102A30001B010B441A6000BF2037BD4690BC704795
:102A40000064004080B487B000AFF8607A601A4636
:102A50000B46FB721346BB72FA7ABB7A13440E2BF9
:102A600000F3BB805F4BD3F800325E4A43F00103B2
:102A7000C2F800320023FB750023BB754BE0594BB5
:102A8000D3F80432FA7D012101FA02F21146554AC7
:102A90000B43C2F80432534BD3F80C32FA7D0121B8
:102AA00001FA02F2D24311464E4A0B40C2F80C32F0
:102AB0004C4BD3F81432FA7D012101FA02F2D243D1
:102AC0001146484A0B40C2F81432BB7D5B00FA68DD
:102AD00013441B881A464349FB7D5201483341F891
:102AE0003320404AFB7D4833DB0013444FF6E0724D
:102AF0005A603C4BD3F81C32FA7D012101FA02F2F4
:102B00001146384A0B43C2F81C32FB7D0133FB757A
:102B1000BB7D0133BB75BA7DFB7A9A42AFD30023EC
:102B20007B754DE02F4BD3F80432FA7D012101FA79
:102B300002F211462B4A0B43C2F80432294BD3F858
:102B40000C32FA7D012101FA02F21146254A0B43AB
:102B5000C2F80C32234BD3F81432FA7D012101FA6A
:102B600002F211461F4A0B43C2F814327B7D9B00D0
:102B70007A6813441B681B0C99B21A4AFB7D4833D0
:102B800042F833107B7D9B007A6813441B6899B22E
:102B9000144AFB7D4833DB0013445960114BD3F8D2
:102BA0001C32FA7D012101FA02F211460D4A0B4353
:102BB000C2F81C32FB7D0133FB757B7D01337B75D5
:102BC0007A7DBB7A9A42ADD3064BD3F80032054AE0
:102BD00023F00103C2F8003200E000BF1C37BD46FD
:102BE00080BC70470064004080B485B000AF0346ED
:102BF0003960FB71FB79002B02D1394BFB6001E09E
:102C0000384BFB60FB681B6803F00403002B0AD100
:102C10003B6800221A71FB681B685B0DC3F30A0254
:102C20003B681A6007E03B6801221A71FB681B6869
:102C3000DA083B681A60FB681B685B08DBB203F0CC
:102C40000103DAB23B685A71FB685B68DBB203F0E0
:102C50000F03DAB23B689A71FB689B68DAB23B6893
:102C6000DA71FB689B681B0ADAB23B681A72FB6870
:102C70009B681B0CDAB23B685A72FB689B681B0EA0
:102C8000DAB23B689A72FB68DB68DAB23B68DA72E8
:102C9000FB68DB681B0ADAB23B681A73FB68DB6807
:102CA0001B0CDAB23B685A73FB68DB681B0EDAB2A6
:102CB0003B689A73FB79002B06D10B4BDB680A4A01
:102CC00043F02003D36005E0074B1B69064A43F03D
:102CD00020031361012318461437BD4680BC70479A
:102CE000B0650040C06500400064004080B584B01D
:102CF00000AF786039600023FB607B68002B02D056
:102D00003B68002B2AD100232FE01A4BDB6803F02D
:102D10000303002B0ED0FB681B017A68134419468D
:102D20000020FFF761FF0346002B17D0FB6801333B
:102D3000FB6013E00F4B1B6903F00303002B12D061
:102D4000FB681B017A68134419460120FFF74CFF0A
:102D50000346002B02D0FB680133FB60FA683B6836
:102D60009A42D2D300E000BFFB6818461037BD4638
:102D700080BD00BF0064004080B400AF0D4B9B6974
:102D80000C4A43F0080393610B4B5B680A4A23F03B
:102D900070435360084B5B68074A43F040535360ED
:102DA000054BDB68044A43F40043D36000BFBD46D3
:102DB00080BC704700100240000C014080B500AF9D
:102DC000174800F083FE174800F080FE164800F018
:102DD0007DFE00F025FB0346144AA2FB03239B0C57
:102DE0001946134800F072FE00F098FB03460F4AA4
:102DF000A2FB03239B0C19460E4800F067FE00F06F
:102E0000B3FB0346094AA2FB03239B0C19460A485D
:102E100000F05CFE044800F059FE00BF80BD00BF1A
:102E2000C46A0008F06A0008146B000883DE1B43C4
:102E30003C6B0008546B00086C6B000890B589B0BF
:102E400000AF0C4A07F1140307CA03C31A800A4BE8
:102E50003C1D0FCB84E80F003A1D07F1140004233A
:102E60000521FFF7EFFD054800F030FE00BF2437D5
:102E7000BD4690BDC06B0008CC6B0008846B000899
:102E800080B582B002AF00F079FE00F073FA4FF423
:102E9000E13000F09DFC0346002B01D100F0A0F8CA
:102EA000FFF78CFF4FF4E1313F4800F00FFE3F4841
:102EB00000F00CFE4FF47A7000F00CFA3C4800F081
:102EC00005FE3A4800F002FE3A48FFF781FC03464F
:102ED000002B07D1384800F0F9FD384800F0F6FD26
:102EE00000F07EF8FFF7AAFF4FF4FA71344800F0C3
:102EF000EDFD2E4800F0EAFD00F062FB314800F0E5
:102F0000E5FD2A4800F0E2FDFEF7B4F92E4B9B6880
:102F10001B0B03F001012C4B9B685B0B03F00102C0
:102F2000294B9B689B0B03F00103284800F0CEFD62
:102F30001E4800F0CBFDFFF71FFF234B9B68DB0B08
:102F400003F001031946224800F0C0FD174800F0C5
:102F5000BDFDFFF7E9FA1C4B9B6803F001011A4B1A
:102F60009B685B0803F00102174B9B68DB0803F0CA
:102F70000100154B9B685B0903F0010300930346B6
:102F8000144800F0A3FD094800F0A0FDFEF796F9F3
:102F90001149322000F04AFB1049642000F046FB42
:102FA00000F092FBFCE700BFDC6B0008146C00082B
:102FB000506C000820A107007C6C00089C6C000885
:102FC000D86C0008106D0008000C0140306D00083E
:102FD0006C6D0008986D000845300008113100083C
:102FE00080B400AF00BFBD4680BC704780B485B0E0
:102FF00000AF0346FB710023FB730023BB7318E093
:10300000FA7BFB795340DBB25BB2002B08DA97F90D
:103010000F305B005BB283F007035BB2FB7302E02F
:10302000FB7B5B00FB73FB795B00FB71BB7B0133BC
:10303000BB73BB7B072BE3D9FB7B18461437BD461C
:1030400080BC704780B500AF2E4B1B78002B57D04B
:103050002C4B00221A702C4B1B781846FFF7C6FF2A
:1030600003461A46284B5B789A4249D1274BDB68C6
:10307000264A23F02B03D360234B1B78443B0F2BB2
:103080003ED801A252F823F0E530000801310008D3
:103090000131000801310008013100080131000848
:1030A0000131000801310008013100080131000838
:1030B000D730000801310008013100080131000853
:1030C000C9300008F3300008104BDB680F4A43F0AA
:1030D0000103D36014E00D4BDB680C4A43F002039C
:1030E000D3600DE0094BDB68084A43F00803D36066
:1030F00006E0064BDB68054A43F02003D36000BFBF
:1031000000BF80BD7C00002080000020000C01403A
:1031100080B584B000AF07E03B461846FEF720FAC2
:103120003B460FCBFFF7B8FB3B4601211846FFF7A4
:10313000DDFD0346002BEFD100BF00BF1037BD46B9
:1031400080BD000080B485B000AF154B9B69144A68
:1031500043F001039361124B9B6903F00103BB60D1
:10316000BB680F4BDB690E4A43F08053D3610C4BB5
:10317000DB6903F080537B607B680A4B5B68FB6014
:10318000FB6823F0E063FB60FB6843F08063FB6057
:10319000044AFB68536000BF1437BD4680BC7047CB
:1031A000001002400000014080B588B000AF786098
:1031B00007F1100300221A605A609A60DA607B6897
:1031C0001B681D4A934233D11C4B9B691B4A43F039
:1031D00008039361194B9B6903F00803FB60FB68CC
:1031E000C0233B6112237B610323FB6107F11003C2
:1031F0001946134800F0AEFE104BDB690F4A43F44A
:103200000013D3610D4BDB6903F40013BB60BB6893
:10321000002200211F2000F0E0FD1F2000F0F9FD3A
:1032200000220021202000F0D8FD202000F0F1FD38
:1032300000BF2037BD4680BD005400400010024052
:10324000000C014080B400AF00BFFDE780B400AFC8
:1032500000BFFDE780B400AF00BFFDE780B400AF62
:1032600000BFFDE780B400AF00BFFDE780B400AF52
:1032700000BFBD4680BC704780B400AF00BFBD46F4
:1032800080BC704780B400AF00BFBD4680BC7047B3
:1032900080B500AF00F0B8FC034B1B680133024A55
:1032A000136000BF80BD00BF9403002080B500AF55
:1032B000024801F099F900BF80BD00BF4003002023
:1032C00080B500AF024801F000FB00BF80BD00BF29
:1032D0004003002080B582B000AF786000F0A0F815
:1032E00002467B68B2FBF3F3064A013B5360054B91
:1032F00000229A60034B07221A6000BF0837BD46C0
:1033000080BD00BF10E000E080B586B000AF7860FF
:10331000144A154BD31A7B617B693B61134B1B68C5
:10332000002B02D1114B124A1A60104B1A687B68AD
:1033300013443A699A4207D202F098FE03460C22DF
:103340001A604FF0FF3309E0084B1B68FB60074B26
:103350001A687B681344054A1360FB6818461837DF
:10336000BD4680BD005000200004000098030020EE
:103370008805002080B400AF274B1B68264A43F421
:103380008033136000BF244B1B6803F40033002B11
:10339000F9D0224B1B68214A43F0040313601F4BF2
:1033A0001B681E4A43F0100313601B4B5B681A4AEC
:1033B00043F4E0135360184B5B68174A43F48033BF
:1033C0005360154B5B68144A43F480635360124B9F
:1033D0005B68114A23F4605353600F4B1B680E4A1D
:1033E00043F08073136000BF0B4B1B6803F0007346
:1033F000002BF9D0084B5B68074A43F00203536087
:1034000000BF054B5B6803F00C03082BF9D100BF2C
:103410001846BD4680BC70470010024000200240A4
:1034200080B487B000AF264BBB60254B7B60254B3B
:103430005B689B0803F003033B603B68022B0DD0E5
:103440003B68022B35D83B68002B03D03B68012B2F
:1034500002D02EE07B682DE0BB682BE0194B5B6847
:1034600003F48033002B10D0164B5B6803F4003359
:10347000002B02D002233B6101E001233B61BA68CB
:103480003B69B2FBF3F3FB6002E07B685B08FB6027
:103490000C4B5B689B0C03F00F0302337B617B6971
:1034A0000F2B01D110237B61FB687A6902FB03F3C8
:1034B00000E07B6818461C37BD4680BC704700BFE3
:1034C00000127A0000100240B0B592B000AF114B6C
:1034D0003C1D1D460FCD0FC40FCD0FC40FCD0FC423
:1034E00095E80F0084E80F000B4B5B681B0903F0A5
:1034F0000F037B64FFF794FF02467B6C9B0048330D
:103500003B4453F8443CB2FBF3F318464837BD46FE
:10351000B0BD00BFE06D000800100240B0B58AB039
:1035200000AF0F4B3C1D1D460FCD0FC495E80F009B
:1035300084E80F000B4B5B681B0A03F007037B62F8
:10354000FFF7C2FF02467B6A9B0028333B4453F8D7
:10355000243CB2FBF3F318462837BD46B0BD00BF8C
:10356000206E000800100240B0B58AB000AF0F4BCB
:103570003C1D1D460FCD0FC495E80F0084E80F00D9
:103580000B4B5B68DB0A03F007037B62FFF79CFFD2
:1035900002467B6A9B0028333B4453F8243CB2FB31
:1035A000F3F318462837BD46B0BD00BF206E0008B3
:1035B0000010024080B400AF00BFBD4680BC704721
:1035C00080B483B000AF00237B6024E0164A7B68A0
:1035D0001B01134400221A60134A7B681B01134429
:1035E000043300221A60104A7B681B0113440C3319
:1035F00000221A700C4A7B681B0113440833002216
:103600001A60094A7B681B0113440D3300221A70AB
:103610007B6801337B607B68092BD7DD00BF00BF6F
:103620000C37BD4680BC70479C03002080B485B039
:1036300000AF786039600023FB6037E0204AFB6808
:103640001B0113440C331B78002B2CD11C4AFB6844
:103650001B01134408331B68002B24D1184AFB6854
:103660001B0113440C3301221A70164B1A681449BB
:10367000FB681B010B4404331A60114AFB681B01F1
:1036800013440D3300221A700D4AFB681B011344CA
:103690007A681A600A4AFB681B01134408333A68C7
:1036A0001A60FB6807E0FB680133FB60FB68092BCD
:1036B000C4DD4FF0FF3318461437BD4680BC704759
:1036C0009C0300209403002080B582B000AF00234B
:1036D0007B603CE0224A7B681B0113440C331B785F
:1036E000002B31D01E4A7B681B01134408331B6832
:1036F000002B29D01B4B1A6819497B681B010B440E
:1037000004331B68D21A16497B681B010B441B68E3
:103710009A4219D9134B1A6811497B681B010B4453
:1037200004331A600E4A7B681B01134408331B687C
:1037300098470B4A7B681B0113440D331B78012B00
:1037400002D1786800F010F87B6801337B607B68F9
:10375000092BBFDD00BF00BF0837BD4680BD00BFDD
:103760009C0300209403002080B483B000AF7860F5
:103770007B68002B24DB7B68092B21DC134A7B68E8
:103780001B0113440C3300221A70104A7B681B0182
:103790001344043300221A600C4A7B681B01134453
:1037A0000D3300221A70094A7B681B011344002262
:1037B0001A60064A7B681B011344083300221A6012
:1037C00000BF0C37BD4680BC704700BF9C03002083
:1037D00080B584B000AF7860254B9B69244A43F0E4
:1037E00004039361224B9B69214A43F48043936114
:1037F000204B5B681F4A23F47F6353601D4B5B685B
:103800001C4A43F0B00353601A4B5B68194A43F4F7
:1038100080635360184B0022DA60FFF7A5FEF86062
:10382000FB68002B02D07B68002B01D100231BE03A
:103830007B685A08FB681A447B68B2FBF3F3BB60F1
:103840000D4ABB6893600C4BDB680B4A43F4005392
:1038500043F00C03D360084BDB6803F40053002BE8
:1038600001D1002300E0012318461037BD4680BD7A
:1038700000100240000801400038014080B483B0CD
:1038800000AF0346FB7100BF0A4B1B6803F08003C7
:10389000002BF9D0074AFB79536000BF054B1B682A
:1038A00003F04003002BF9D000BF00BF0C37BD462A
:1038B00080BC70470038014080B582B000AF7860AE
:1038C00006E07B685A1C7A601B781846FFF7D6FF23
:1038D0007B681B78002BF4D100BF00BF0837BD46C2
:1038E00080BD0000B0B59CB000AFC7E9020113462F
:1038F000FB710023FB664FF000024FF00003D7E995
:103900000201FCF76BFF0346002B0DD0FB6E5A1C27
:10391000FA6670333B442D2203F84C2CBC68FB68DC
:1039200083F00045C7E90245D7E90201FDF7EAFA4D
:1039300002460B46C7E91823D7E91801FCF7C0FE79
:1039400002460B46D7E90201FCF730FD02460B4662
:10395000C7E9162300237B65D7E918014FF00A0257
:103960004FF00003FDF77EFAD2B27B6D591C7965EA
:103970003032D2B270333B4403F8602CD7E91801DF
:103980004FF00A024FF00003FDF76CFA02460B46B7
:10399000C7E91823D7E91823012A73F10003DBDAFA
:1039A0007B6D013B3B650EE0FB6E5A1CFA6607F12E
:1039B00010013A6D0A44127870333B4403F84C2CE2
:1039C0003B6D013B3B653B6D002BEDDAFB6E5A1CFA
:1039D000FA6670333B442E2203F84C2C0023FB6420
:1039E0002BE04FF00002224BD7E91601FCF7B0FBA9
:1039F00002460B46C7E91623D7E91601FCF716FF66
:103A000003467B647B6CDAB2FB6E591CF96630327C
:103A1000D2B270333B4403F84C2C786CFCF714FEA4
:103A200002460B46D7E91601FCF7C0FC02460B46DE
:103A3000C7E91623FB6C0133FB64FB79FA6C9A42ED
:103A4000CFDB0023BB640AE007F12402BB6C134404
:103A50001B781846FFF712FFBB6C0133BB64BA6CCE
:103A6000FB6E9A42F0DB00BF00BF7037BD46B0BDB1
:103A70000000244080B485B000AF78603960002336
:103A8000FB600FE000BF104B1B6803F08003002BAE
:103A9000F9D07A68FB6813441A780B4B5A60FB68BC
:103AA0000133FB60FA683B689A42EBD300BF064BD8
:103AB0001B6803F04003002BF9D000BF00BF143790
:103AC000BD4680BC704700BF003801400FB480B5D0
:103AD000C2B000AF07F58A7207F58473A3F584734B
:103AE0001A6007F58473A3F58473381D1B68D7F833
:103AF00010214FF4807102F0ABFAC7F80401D7F837
:103B00000431B3F5807F03D94FF48073C7F80431D3
:103B1000D7F804213B1D11461846FFF7ABFF00BF45
:103B200007F58477BD46BDE8804004B070470000CB
:103B3000FFF740FD0B480C490C4A002302E0D45823
:103B4000C4500433C4188C42F9D3094A094C0023E9
:103B500001E013600432A242FBD302F08DFAFFF7BA
:103B60008FF97047000000205C0000208C6E000878
:103B70006000002088050020FEE7000080B500AF4F
:103B8000084B1B68074A43F010031360032000F042
:103B900019F90F2000F008F8FFF7D4FA00231846AF
:103BA00080BD00BF0020024080B582B000AF7860C9
:103BB000124B1A68124B1B7819464FF47A73B3FBF9
:103BC000F1F3B2FBF3F3184600F031F90346002B92
:103BD00001D001230EE07B680F2B0AD80022796800
:103BE0004FF0FF3000F0F9F8064A7B6813600023BD
:103BF00000E0012318460837BD4680BD00000020C4
:103C0000080000200400002080B400AF054B1B78A2
:103C10001A46054B1B681344034A136000BFBD4698
:103C200080BC7047080000203C04002080B485B0B0
:103C300000AF78607B6803F00703FB600C4BDB6828
:103C4000BB60BA684FF6FF031340BB60FB681A0203
:103C5000BB68134343F0BF6343F40033BB60044AC3
:103C6000BB68D36000BF1437BD4680BC704700BF3F
:103C700000ED00E080B400AF044BDB681B0A03F0EA
:103C800007031846BD4680BC704700BF00ED00E04A
:103C900080B483B000AF0346FB7197F90730002B67
:103CA0000BDBFB7903F01F02064997F907305B092C
:103CB000012000FA02F241F8232000BF0C37BD4674
:103CC00080BC704700E100E080B483B000AF0346E1
:103CD0003960FB7197F90730002B0ADB3B68DAB2D9
:103CE0000C4997F907301201D2B20B4483F8002334
:103CF0000AE03B68DAB20849FB7903F00F03043BA2
:103D00001201D2B20B441A7600BF0C37BD4680BCFC
:103D1000704700BF00E100E000ED00E080B489B032
:103D200000AFF860B9607A60FB6803F00703FB61DD
:103D3000FB69C3F10703042B28BF0423BB61FB69A4
:103D40000433062B02D9FB69033B00E000237B61AF
:103D50004FF0FF32BB6902FA03F3DA43BB681A4043
:103D60007B699A404FF0FF317B6901FA03F3D94335
:103D70007B680B40134318462437BD4680BC704710
:103D800080B582B000AF78607B68013BB3F1807F83
:103D900001D301230FE00A4A7B68013B53600F21E6
:103DA0004FF0FF30FFF790FF054B00229A60044B65
:103DB00007221A60002318460837BD4680BD00BFA1
:103DC00010E000E080B582B000AF78607868FFF75F
:103DD0002DFF00BF0837BD4680BD80B586B000AF5F
:103DE0000346B9607A60FB7300237B61FFF742FFF3
:103DF00078617A68B9687869FFF790FF024697F9A9
:103E00000F3011461846FFF75FFF00BF1837BD4659
:103E100080BD80B582B000AF0346FB7197F90730D3
:103E20001846FFF735FF00BF0837BD4680BD80B597
:103E300082B000AF78607868FFF7A2FF03461846AB
:103E40000837BD4680BD000080B584B000AF786003
:103E50000023FB737B6893F82130DBB2022B05D083
:103E60007B6804229A630123FB7351E07B681B6823
:103E70001A687B681B6822F00E021A607B681B6858
:103E80001A687B681B6822F001021A607B681B6855
:103E9000224A934229D07B681B68214A934222D050
:103EA0007B681B681F4A93421AD07B681B681E4AB6
:103EB000934212D07B681B681C4A93420AD07B68ED
:103EC0001B681B4A934202D14FF480130EE04FF05F
:103ED00080730BE04FF4803308E04FF4805305E02B
:103EE0004FF4807302E0102300E00123114A536075
:103EF0007B68012283F821207B68002283F8202040
:103F00007B685B6B002B03D07B685B6B78689847A2
:103F1000FB7B18461037BD4680BD00BF080002403D
:103F20001C000240300002404400024058000240A1
:103F30006C0002400000024080B483B000AF7860A3
:103F40007B6893F82130DBB218460C37BD4680BC45
:103F50007047000080B48BB000AF786039600023F8
:103F60007B6200233B6269E101227B6A02FA03F370
:103F7000FB613B681B68FA691340BB61BA69FB6966
:103F80009A4240F058813B685B689A4A93425ED0FF
:103F9000984A934275D8984A934258D0964A934289
:103FA0006FD8964A934252D0944A934269D8944A21
:103FB00093424CD0924A934263D8924A934246D05D
:103FC000904A93425DD8122B2AD8122B59D801A2BD
:103FD00052F823F04F400008294000083B400008F9
:103FE0007D400008834000088340000883400008AB
:103FF0008340000883400008834000088340000895
:104000008340000883400008834000088340000884
:104010008340000883400008314000084540000804
:10402000794A934213D02CE03B68DB683B6229E07D
:104030003B68DB6804333B6224E03B68DB680833A1
:104040003B621FE03B68DB680C333B621AE03B6875
:104050009B68002B02D104233B6213E03B689B6802
:10406000012B05D108233B627B68FA691A6109E0DC
:1040700008233B627B68FA695A6103E000233B62D4
:1040800000E000BFBB69FF2B01D87B6801E07B68C3
:1040900004337B61BB69FF2B02D87B6A9B0002E083
:1040A0007B6A083B9B003B617B691A680F213B6977
:1040B00001FA03F3DB431A40396A3B6901FA03F35F
:1040C0001A437B691A603B685B6803F08053002BDE
:1040D00000F0B1804D4B9B694C4A43F00103936162
:1040E0004A4B9B6903F00103BB60BB68484A7B6A8B
:1040F0009B08023352F82330FB607B6A03F0030312
:104100009B000F2202FA03F3DB43FA681340FB60C3
:104110007B68404A934213D07B683F4A93420DD05C
:104120007B683E4A934207D07B683D4A934201D167
:10413000032306E0042304E0022302E0012300E05D
:1041400000237A6A02F0030292009340FA68134354
:10415000FB602F497B6A9B080233FA6841F82320F1
:104160003B685B6803F48013002B06D02D4B9A68E4
:104170002C49BB6913438B6006E02A4B9A68BB69E4
:10418000DB43284913408B603B685B6803F40013F2
:10419000002B06D0234BDA682249BB691343CB605E
:1041A00006E0204BDA68BB69DB431E491340CB6055
:1041B0003B685B6803F40033002B06D0194B5A6848
:1041C0001849BB6913434B6006E0164B5A68BB693C
:1041D000DB43144913404B603B685B6803F4803356
:1041E000002B21D00F4B1A680E49BB6913430B609B
:1041F00021E000BF0000321000003110000022104A
:1042000000002110000012100000111000100240E8
:104210000000014000080140000C01400010014076
:1042200000140140000401400B4B1A68BB69DB43DA
:10423000094913400B607B6A01337B623B681A6853
:104240007B6A22FA03F3002B7FF48EAE00BF00BF1F
:104250002C37BD4680BC70470004014080B584B057
:1042600000AF78607B68002B01D101232BE17B68D4
:1042700093F83D30DBB2002B06D17B68002283F837
:104280003C207868FEF790FF7B68242283F83D206D
:104290007B681B681A687B681B6822F001021A6041
:1042A0007B681B681A687B681B6842F400421A60CE
:1042B0007B681B681A687B681B6822F400421A60DE
:1042C00001F084FEF8607B685B68814A934207D8FE
:1042D000FB68804A934294BF01230023DBB206E0CF
:1042E000FB687D4A934294BF01230023DBB2002B7D
:1042F00001D00123E7E0FB68784AA2FB03239B0C73
:10430000BB607B681B685B6823F03F017B681B68B0
:10431000BA680A435A607B681B681B6A23F03F0136
:104320007B685B686A4A934202D8BB68013309E044
:10433000BB684FF4967202FB03F3694AA2FB0323A6
:104340009B0901337A6812680B4313627B681B6810
:10435000DB6923F44F4222F0FF027B685B685C4913
:104360008B4219D8FB68591E7B685B685B00B1FB08
:10437000F3F3591C40F6FC730B40002B0AD0FB688A
:10438000591E7B685B685B00B1FBF3F30133C3F339
:104390000B0351E004234FE07B689B68002B11D195
:1043A000FB68581E7B6859680B465B000B44B0FBEA
:1043B000F3F30133C3F30B03002B0CBF01230023E2
:1043C000DBB212E0FB68581E7B6859680B469B0005
:1043D0000B4499000B44B0FBF3F30133C3F30B031D
:1043E000002B0CBF01230023DBB2002B01D00123E3
:1043F00022E07B689B68002B0ED1FB68581E7B680F
:1044000059680B465B000B44B0FBF3F30133C3F375
:104410000B0343F400430FE0FB68581E7B685968A8
:104420000B469B000B4499000B44B0FBF3F30133A4
:10443000C3F30B0343F44043796809681343CB612A
:104440007B681B681B6823F0C0017B68DA697B68A6
:104450001B6A1A437B681B680A431A607B681B68E7
:104460009B6823F4034323F0FF037A6811697A6899
:10447000D26811437A6812680B4393607B681B68AB
:10448000DB6823F0FF017B685A697B689B691A43EC
:104490007B681B680A43DA607B681B681A687B6864
:1044A0001B6842F001021A607B6800221A647B6874
:1044B000202283F83D207B6800221A637B6800225B
:1044C00083F83E20002318461037BD4680BD00BF4C
:1044D000A08601007F841E00FF083D0083DE1B4391
:1044E000D34D621080B483B000AF78607B681B68E6
:1044F0005B6903F08003802B03D17B681B6800227B
:104500001A6100BF0C37BD4680BC704780B485B0CF
:1045100000AFF860B9601346FB80FB6893F83D304C
:10452000DBB2202B58D1BB68002B02D0FB88002BBC
:1045300001D1012351E0FB6893F83C30012B01D1FC
:1045400002234AE0FB68012283F83C20FB681B68D9
:104550001B6803F00103012B07D0FB681B681A6876
:10456000FB681B6842F001021A60FB681B681A684E
:10457000FB681B6822F400621A60FB68222283F841
:104580003D20FB68202283F83E20FB6800221A644D
:10459000FB68BA685A62FB68FA885A85FB685B8DCB
:1045A0009AB2FB681A85FB680E4ADA62FB681B68E0
:1045B0001A68FB681B6842F480621A60FB6800227C
:1045C00083F83C20FB681B685A68FB681B6842F450
:1045D000E0625A60002300E0022318461437BD460B
:1045E00080BC70470000FFFF80B588B000AF7860E6
:1045F0000023BB617B681B685B687B617B68DB6A4F
:104600003B617B6893F83E30FB737B6893F83D30E9
:10461000BB73FB7B102B03D0FB7B402B40F0C18096
:104620007B681B689B69BB617B681B685B69FB617E
:10463000FB6903F00103002B0DD13B69B3F52A0F91
:1046400003D03B69B3F12A4F01D1012300E00023DD
:10465000012B00F03281FB6903F00103002B0CD029
:104660007B695B0A03F00103002B06D0786801F038
:1046700089FC786800F087FD92E0FB69DB0803F0B5
:104680000103002B09D07B695B0A03F00103002BB7
:1046900003D0786800F0FCFD82E0FB695B0803F062
:1046A0000103002B09D07B695B0A03F00103002B97
:1046B00003D0786800F015FE72E0BB699B0803F038
:1046C0000103002B3BD07B681B685B6803F400632D
:1046D000B3F5006F00F0F380FB69DB0903F0010321
:1046E000002B0FD07B699B0A03F00103002B09D03C
:1046F000FB699B0803F00103002B03D1786800F0ED
:10470000DFF94DE0FB699B0803F00103002B00F08B
:10471000D6807B695B0A03F00103002B00F0CF8099
:10472000BB7B212B03D1786800F066FAC7E0FB7BE6
:10473000402B40F0C480786800F0D4FABFE07B687A
:104740001B685B6803F40063B3F5006F00F0B7808B
:10475000FB699B0903F00103002B0FD07B699B0AC7
:1047600003F00103002B09D0FB699B0803F0010350
:10477000002B03D1786800F04DFB11E0FB699B082A
:1047800003F00103002B00F09A807B695B0A03F0C1
:104790000103002B00F09380786800F003FC8EE0AA
:1047A0008DE07B681B6C002B04D07B681B685B6909
:1047B000FB6107E07B681B689B69BB617B681B68CA
:1047C0005B69FB61FB695B0803F00103002B12D0FE
:1047D0007B695B0A03F00103002B0CD07B681B6C28
:1047E000002B03D07B681B689B69BB61B969786843
:1047F00000F0CEFF66E0FB691B0903F00103002B0C
:1048000009D07B695B0A03F00103002B03D07868B1
:1048100001F008F856E0BB7B212B02D0BB7B292B93
:1048200025D1FB69DB0903F00103002B0FD07B6965
:104830009B0A03F00103002B09D0FB699B0803F0DE
:104840000103002B03D1786800F0E6FE39E0FB6934
:104850009B0803F00103002B33D07B695B0A03F054
:104860000103002B2DD0786800F013FF29E0FB69CD
:104870009B0903F00103002B0FD07B699B0A03F017
:104880000103002B09D0FB699B0803F00103002BF7
:1048900003D1786800F01DFF14E0FB699B0803F06A
:1048A0000103002B0ED07B695B0A03F00103002B90
:1048B00008D0786800F04BFF04E000BF02E000BFC2
:1048C00000E000BF2037BD4680BD80B58AB000AF94
:1048D00078607B681B685B693B627B681B685B6810
:1048E000FB6100237B627B6893F83E30FB763B6A7A
:1048F0001B0A03F00103002B16D0FB691B0A03F00F
:104900000103002B10D07B6A43F001037B627B68BC
:104910001B686FF480725A617B681B681A687B6839
:104920001B6842F400421A603B6A5B0A03F0010311
:10493000002B0ED0FB691B0A03F00103002B08D0EB
:104940007B6A43F002037B627B681B686FF4007232
:104950005A613B6A9B0A03F00103002B3FD0FB69BD
:104960001B0A03F00103002B39D0FB7EBB767B686A
:104970005B8D9BB27B617B6893F83D30FB747B68F9
:104980001B6BFB60BB7E202B12D17B69002B0FD1F0
:10499000FB7C212B08D0FB7C292B05D0FB7C282B12
:1049A00006D1FB68212B03D1786801F06BF816E083
:1049B0007B681B686FF480625A617B6A43F0040372
:1049C0007B62FB7E102B02D0FB7E402B07D17B68E5
:1049D0001B681A687B681B6842F400721A603B6AA5
:1049E000DB0A03F00103002B0ED0FB691B0A03F066
:1049F0000103002B08D07B6A43F008037B627B68CD
:104A00001B686FF400625A617B6A002B08D07B68D8
:104A10001A6C7B6A1A437B681A64786801F0A6F8FE
:104A200000BF2837BD4680BD80B483B000AF78603A
:104A300000BF0C37BD4680BC704780B483B000AF68
:104A4000786000BF0C37BD4680BC704780B483B02F
:104A500000AF786000BF0C37BD4680BC704780B4A3
:104A600083B000AF78600B46FB7013463B8000BFFD
:104A70000C37BD4680BC704780B483B000AF78600F
:104A800000BF0C37BD4680BC704780B483B000AF18
:104A9000786000BF0C37BD4680BC704780B483B0DF
:104AA00000AF786000BF0C37BD4680BC704780B453
:104AB00083B000AF786000BF0C37BD4680BC704744
:104AC00080B584B000AF78607B6893F83D30FB73AD
:104AD0007B6893F83E30BB737B68DB6ABB607B68A6
:104AE0001B8D002B50D1FB7B212B4DD1BB68082B9C
:104AF0001DD0BB68202B1AD0BB6813F5803F16D0A1
:104B00007B681B685A687B681B6822F4E0625A6005
:104B10007B6811221A637B68002283F83E207B6841
:104B2000202283F83D207868FFF77EFF60E07B68F5
:104B30001B685A687B681B6822F4E0625A607B68D5
:104B40001B681A687B681B6842F400721A607B68F5
:104B500000221A637B68202283F83D207B6893F84B
:104B60003E30DBB2402B07D17B68002283F83E2029
:104B70007868FFF78AFF3BE07B68002283F83E20DD
:104B80007868FFF751FF33E0FB7B212B05D0BB7B1F
:104B9000402B2DD1FB7B222B2AD17B685B8D9BB2D6
:104BA000002B08D17B681B685A687B681B6822F45D
:104BB00080625A601CE07B6893F83E30DBB2402B89
:104BC00003D1786800F08EF812E07B685B6A1A788F
:104BD0007B681B681A617B685B6A5A1C7B685A6237
:104BE0007B685B8D9BB2013B9AB27B685A85FFE77D
:104BF00000BF1037BD4680BD80B584B000AF78607F
:104C00007B68DB6AFB607B6893F83D30DBB2212B6D
:104C100064D17B685B8D9BB2002B12D07B685B6A92
:104C20001A787B681B681A617B685B6A5A1C7B6810
:104C30005A627B685B8D9BB2013B9AB27B685A8556
:104C40004CE0FB68082B1DD0FB68202B1AD0FB68BA
:104C500013F5803F16D07B681B685A687B681B6819
:104C600022F4E0625A607B6811221A637B6800229A
:104C700083F83E207B68202283F83D207868FFF788
:104C8000D3FE2BE07B681B685A687B681B6822F4A4
:104C9000E0625A607B681B681A687B681B6842F494
:104CA00000721A607B6800221A637B68202283F8F6
:104CB0003D207B6893F83E30DBB2402B07D17B6808
:104CC000002283F83E207868FFF7DFFE06E07B686D
:104CD000002283F83E207868FFF7A6FE00BF103759
:104CE000BD4680BD80B584B000AF78607B6893F826
:104CF0003D30FB737B681B6D002B1DD17B68DB6C2B
:104D0000012B0BD17B689B6CDAB27B681B681A6144
:104D10007B681B6D9A1C7B681A6577E07B689B6CCF
:104D20009BB21B12DAB27B681B681A617B681B6D31
:104D30005A1C7B681A6569E07B681B6D012B0BD1DF
:104D40007B689B6CDAB27B681B681A617B681B6DA1
:104D50005A1C7B681A6559E07B681B6D022B52D187
:104D6000FB7B222B0DD17B681B681A687B681B6854
:104D700042F480721A607B681B6D5A1C7B681A654E
:104D800044E07B685B8D9BB2002B15D0FB7B212B15
:104D900012D17B685B6A1A787B681B681A617B6832
:104DA0005B6A5A1C7B685A627B685B8D9BB2013BD5
:104DB0009AB27B685A8529E07B685B8D9BB2002B99
:104DC00024D1FB7B212B21D17B681B685A687B682F
:104DD0001B6822F4E0625A607B681B681A687B6873
:104DE0001B6842F400721A607B6800221A637B68B9
:104DF000202283F83D207B68002283F83E207868DB
:104E0000FFF743FE02E07868FFF76CFB00BF103746
:104E1000BD4680BD80B584B000AF78607B6893F8F4
:104E20003D30DBB2222B40F0B9807B68DB6AFB604F
:104E30007B685B8D9BB2BB60BB68032B21D97B6811
:104E40001B681A697B685B6AD2B21A707B685B6AFE
:104E50005A1C7B685A627B685B8D9BB2013B9AB29D
:104E60007B685A857B685B8D9BB2032B40F09680F4
:104E70007B681B685A687B681B6822F480625A60F2
:104E80008CE07B68DB6A022B7FD0BB68012B02D0F1
:104E9000BB68002B79D1786801F042F80346002BFB
:104EA0004CD17B681B681A687B681B6822F480629F
:104EB0001A607B681B685A687B681B6822F4E06292
:104EC0005A607B681B681A697B685B6AD2B21A7089
:104ED0007B685B6A5A1C7B685A627B685B8D9BB2FD
:104EE000013B9AB27B685A857B68202283F83D207B
:104EF0007B6893F83E30DBB2402B0AD17B680022FE
:104F000083F83E207B6800221A637868FFF7C6FDAD
:104F100044E07B68002283F83E20FB68082B02D027
:104F2000FB68202B03D17B6800221A6302E07B68B8
:104F300012221A637868FFF780FD2FE07B681B68F8
:104F40005A687B681B6822F4E0625A607B681B68C1
:104F50001A697B685B6AD2B21A707B685B6A5A1CFA
:104F60007B685A627B685B8D9BB2013B9AB27B681F
:104F70005A857B68202283F83D207B68002283F8D5
:104F80003E207868FCF7E6F908E07B681B685A6801
:104F90007B681B6822F480625A60FFE700BF10370D
:104FA000BD4680BD80B584B000AF78607B68DB6AA9
:104FB000FB607B685B8D9BB2042B1BD17B681B68FD
:104FC0005A687B681B6822F480625A607B681B68A1
:104FD0001A697B685B6AD2B21A707B685B6A5A1C7A
:104FE0007B685A627B685B8D9BB2013B9AB27B689F
:104FF0005A85C4E07B685B8D9BB2032B29D17B680B
:105000001B685A687B681B6822F480625A60FB68E0
:10501000042B0AD0FB68022B07D07B681B681A6838
:105020007B681B6822F480621A607B681B681A69BF
:105030007B685B6AD2B21A707B685B6A5A1C7B68B9
:105040005A627B685B8D9BB2013B9AB27B685A8542
:1050500095E07B685B8D9BB2022B7DD1FB68012BB9
:1050600002D0FB68102B08D17B681B681A687B682C
:105070001B6822F480621A6016E0FB68042B02D0E1
:10508000FB68022B08D17B681B681A687B681B6869
:1050900042F480621A6007E07B681B681A687B68CC
:1050A0001B6842F400721A607B681B681A697B688F
:1050B0005B6AD2B21A707B685B6A5A1C7B685A6260
:1050C0007B685B8D9BB2013B9AB27B685A857B689B
:1050D0001B681A697B685B6AD2B21A707B685B6A6C
:1050E0005A1C7B685A627B685B8D9BB2013B9AB20B
:1050F0007B685A857B681B685A687B681B6822F44A
:1051000040725A607B68202283F83D207B6893F8C8
:105110003E30DBB2402B0AD17B68002283F83E2070
:105120007B6800221A637868FFF7B8FC27E07B6889
:10513000002283F83E20FB68082B02D0FB68202B5E
:1051400003D17B6800221A6302E07B6812221A6393
:105150007868FFF772FC12E07B681B681A697B684D
:105160005B6AD2B21A707B685B6A5A1C7B685A62AF
:105170007B685B8D9BB2013B9AB27B685A8500BF0E
:105180001037BD4680BD80B483B000AF78607B68C7
:1051900093F83E30DBB2402B17D17B681B6D002BA0
:1051A00009D17B685B6CDBB21A467B681B6802F036
:1051B000FE021A6167E07B685B6CDBB243F00103BF
:1051C000DAB27B681B681A615DE07B681B69B3F526
:1051D000804F33D17B6893F83D30DBB2212B09D16E
:1051E0007B685B6CDBB21A467B681B6802F0FE02D0
:1051F0001A6108E07B685B6CDBB243F00103DAB252
:105200007B681B681A617B685B6B002B04D07B6832
:105210005B6B9B6A002B08D17B689B6B002B32D0A9
:105220007B689B6B9B6A002B2DD07B681B685A6840
:105230007B681B6842F400625A6024E07B681B6D47
:10524000002B0ED17B685B6C9BB2DB11DBB203F0F1
:105250000603DBB263F00F03DAB27B681B681A61E6
:1052600011E07B681B6D012B0DD17B685B6C9BB2E1
:10527000DB11DBB203F00603DBB263F00E03DAB23C
:105280007B681B681A6100BF0C37BD4680BC704745
:1052900080B483B000AF78607B685B6CDAB27B6807
:1052A0001B681A617B685B6B002B04D07B685B6BAF
:1052B0009B6A002B08D17B689B6B002B0CD07B6812
:1052C0009B6B9B6A002B07D07B681B685A687B68C6
:1052D0001B6842F400625A6000BF0C37BD4680BCB8
:1052E000704780B491B000AF78607B6893F83E302F
:1052F00087F83F307B68DB6ABB637B681B6B7B6333
:105300007B6893F83D30DBB2222B40F074817B68E0
:105310001B6D002B0FD197F83F30402B0BD1002392
:105320003B637B681B685B693B637B681B689B69AD
:105330003B633B6B6BE17B681B6D002B1DD17B6876
:105340001B69B3F5404F18D10023FB627B681B68D3
:105350005B69FB627B681B689B69FB62FB6A7B681D
:105360001B681A687B681B6842F480721A607B684D
:105370001B6D5A1C7B681A6549E17B685B8D9BB28B
:10538000002B13D10023BB627B681B685B69BB6287
:105390007B681B689B69BB62BB6A7B681B681A6879
:1053A0007B681B6842F400721A6020E17B685B8DA9
:1053B0009BB2012B40F08A80BB6B13F5803F37D145
:1053C0007B681B681A687B681B6822F480621A601D
:1053D0007B681B685B6803F40063B3F5006F13D14F
:1053E0007B681B681A687B681B6822F480621A60FD
:1053F00000237B627B681B685B697B627B681B6840
:105400009B697B627B6AF2E000233B627B681B68DE
:105410005B693B627B681B689B693B623B6A7B689C
:105420001B681A687B681B6842F400721A60DEE031
:10543000BB6B082B2ED0BB6B202B2BD07B6B122B86
:1054400002D1BB6B012B25D1BB6B042B0ED0BB6BE8
:10545000022B0BD0BB6B102B08D07B681B681A6823
:105460007B681B6822F480621A6007E07B681B6817
:105470001A687B681B6842F480621A600023FB6133
:105480007B681B685B69FB617B681B689B69FB61D0
:10549000FB69ACE07B681B681A687B681B6822F4B8
:1054A00080621A600023BB617B681B685B69BB611B
:1054B0007B681B689B69BB61BB697B681B681A685A
:1054C0007B681B6842F400721A6090E07B685B8D19
:1054D0009BB2022B58D1BB6B042B21D0BB6B022B90
:1054E0001ED0BB6B102B1BD07B681B681A687B68B7
:1054F0001B6842F400621A6000237B617B681B68B2
:105500005B697B617B681B689B697B617B697B68EE
:105510001B681A687B681B6822F480621A6012E0BC
:105520007B681B681A687B681B6842F480621A609B
:1055300000233B617B681B685B693B617B681B6880
:105540009B693B613B697B681B685B6803F4006394
:10555000B3F5006F4BD1BB6B13F5803F0BD0BB6B2A
:10556000012B08D0BB6B082B05D0BB6B102B02D0D6
:10557000BB6B202B3BD17B681B685A687B681B6820
:1055800042F480525A6032E07B681B681A687B687C
:105590001B6842F480621A607B681B685B6803F4D6
:1055A0000063B3F5006F17D1BB6B13F5803F0BD0D1
:1055B000BB6B012B08D0BB6B082B05D0BB6B102B32
:1055C00002D0BB6B202B07D17B681B685A687B68B5
:1055D0001B6842F480525A600023FB607B681B68A2
:1055E0005B69FB607B681B689B69FB60FB687B6891
:1055F00000221A650BE00023BB607B681B685B69B7
:10560000BB607B681B689B69BB60BB68FFE700BF32
:105610004437BD4680BC704780B584B000AF786029
:105620007B6893F83D30FB737B685B8D9BB2002BEE
:105630002BD07B685B6A1A787B681B681A617B6871
:105640005B6A5A1C7B685A627B685B8D9BB2013B2C
:105650009AB27B685A857B685B8D9BB2002B14D114
:10566000FB7B292B11D17B681B685A687B681B6800
:1056700022F480625A607B6821221A637B682822A8
:1056800083F83D207868FFF7E1F900BF1037BD4689
:1056900080BD80B483B000AF78607B685B8D9BB2C7
:1056A000002B11D07B685B6A1A787B681B681A61D3
:1056B0007B685B6A5A1C7B685A627B685B8D9BB215
:1056C000013B9AB27B685A8500BF0C37BD4680BC4F
:1056D000704780B584B000AF78607B6893F83D3048
:1056E000FB737B685B8D9BB2002B2CD07B681B68A7
:1056F0001A697B685B6AD2B21A707B685B6A5A1C53
:105700007B685A627B685B8D9BB2013B9AB27B6877
:105710005A857B685B8D9BB2002B14D1FB7B2A2BB7
:1057200011D17B681B685A687B681B6822F4806211
:105730005A607B6822221A637B68282283F83D2006
:105740007868FBF7F1FD00BF1037BD4680BD80B41F
:1057500083B000AF78607B685B8D9BB2002B12D06A
:105760007B681B681A697B685B6AD2B21A707B68B7
:105770005B6A5A1C7B685A627B685B8D9BB2013BFB
:105780009AB27B685A8500BF0C37BD4680BC704713
:1057900080B584B000AF786039600023FB737B680C
:1057A00093F83D30DBB203F02803282B27D17B6828
:1057B0001B685A687B681B6822F480625A603B68E9
:1057C0009B0803F00103002B01D10123FB733B680D
:1057D000DB0903F00103002B03D17B68DB68BB818D
:1057E00002E07B689B69BB817B68002283F83C20D8
:1057F000BA89FB7B19467868FFF731F90EE0002380
:10580000BB607B681B685B69BB607B681B689B69CE
:10581000BB60BB687B68002283F83C2000BF103768
:10582000BD4680BD80B584B000AF78607B6893F8DA
:105830003D30FB737B681B685A687B681B6822F4E9
:10584000E0625A600023BB607B681B685B69BB60D9
:105850007B681B681A687B681B6842F001021A604B
:10586000BB687B681B681A687B681B6822F48062CF
:105870001A607B681B685B6803F40063B3F5006F14
:1058800072D1FB7B222B02D0FB7B2A2B35D17B688C
:105890009B6B1B685B689AB27B685A857B685B8DE3
:1058A0009BB2002B05D07B681B6C43F004027B6825
:1058B0001A647B681B685A687B681B6822F4006264
:1058C0005A607B689B6B1846FEF736FB0346012B3C
:1058D00049D07B689B6B694A5A637B689B6B18460F
:1058E000FEF7B2FA0346002B3DD07B689B6B5B6BE7
:1058F0007A68926B1046984735E07B685B6B1B6853
:105900005B689AB27B685A857B685B8D9BB2002B83
:1059100005D07B681B6C43F004027B681A647B68CB
:105920001B685A687B681B6822F400625A607B68B7
:105930005B6B1846FEF700FB0346012B14D07B6817
:105940005B6B4E4A5A637B685B6B1846FEF77CFACA
:105950000346002B08D07B685B6B5B6B7A68526BED
:105960001046984700E000BF7B685B8D9BB2002B20
:105970003ED07B681B685B6903F00403042B12D1E3
:105980007B681B681A697B685B6AD2B21A707B6895
:105990005B6A5A1C7B685A627B685B8D9BB2013BD9
:1059A0009AB27B685A857B681B685B6903F0400389
:1059B000402B12D17B681B681A697B685B6AD2B284
:1059C0001A707B685B6A5A1C7B685A627B685B8DC5
:1059D0009BB2013B9AB27B685A857B685B8D9BB218
:1059E000002B05D07B681B6C43F004027B681A64B3
:1059F0007B681B6C002B03D0786800F0B7F839E0A7
:105A0000FB7B2A2B09D17B6800221A637B68282242
:105A100083F83D207868FBF787FC7B6893F83D307E
:105A2000DBB2282B11D17B68154ADA627B68002231
:105A30001A637B68202283F83D207B68002283F86C
:105A40003E207868FFF718F814E07B681B6B222B68
:105A500002D0FB7B222B0DD17B6800221A637B686E
:105A6000202283F83D207B68002283F83E2078685E
:105A7000FBF75AFC00BF1037BD4680BDD15D000862
:105A80000000FFFF80B584B000AF78607B6893F8BA
:105A90003D30FB737B68DB6ABB60BB68082B02D0C0
:105AA000BB68202B29D1FB7B282B26D17B682E4A73
:105AB000DA627B681B685A687B681B6822F4E062C4
:105AC0005A607B681B686FF480625A617B681B6850
:105AD0001A687B681B6822F480621A607B68002267
