:020000040800F2
:10000000005000204D3B0008FD3200080533000879
:100010000D330008153300081D33000800000000F0
:100020000000000000000000000000002533000870
:1000300031330008000000003D3300084933000858
:10004000953B0008953B0008953B0008953B000850
:10005000953B0008953B0008953B0008953B000840
:10006000953B0008953B0008953B0008953B000830
:10007000953B0008953B0008953B0008953B000820
:10008000953B0008953B0008953B0008953B000810
:10009000953B0008953B0008953B0008953B000800
:1000A000953B0008953B0008953B0008953B0008F0
:1000B000953B0008953B0008953B00086533000818
:1000C00079330008953B0008953B0008953B0008F4
:1000D000953B0008953B0008953B0008953B0008C0
:1000E000953B0008953B0008953B00080000000088
:1000F0000000000000000000000000000000000000
:0C01000000000000000000005FF808F1A3
:1001100010B5054C237833B9044B13B10448AFF341
:1001200000800123237010BD60000020000000004B
:100130009469000808B5034B1BB103490348AFF3AA
:10014000008008BD000000006400002094690008E1
:1001500070B54FF0FF0C4CF4E06C1CEA11541DBF5D
:100160001CEA135594EA0C0F95EA0C0F00F0DEF828
:100170002C4481EA030621EA4C5123EA4C5350EA0D
:10018000013518BF52EA033541F4801143F480135E
:1001900038D0A0FB02CE4FF00005E1FB02E506F0EF
:1001A0000042E0FB03E54FF00006E1FB03569CF044
:1001B000000F18BF4EF0010EA4F1FF04B6F5007F4A
:1001C00064F5407404D25FEA4E0E6D4146EB0606BC
:1001D00042EAC62141EA55514FEAC52040EA5E5045
:1001E0004FEACE2EB4F1FD0C88BFBCF5E06F1ED8EF
:1001F000BEF1004F08BF5FEA500E50F1000041EB26
:10020000045170BD06F0004646EA010140EA0200D2
:1002100081EA0301B4EB5C04C2BFD4EB0C0541EAF4
:10022000045170BD41F480114FF0000E013C00F309
:10023000AB8014F1360FDEBF002001F0004170BD2D
:10024000C4F10004203C35DA0C341BDC04F1140446
:10025000C4F1200500FA05F320FA04F001FA05F2D2
:1002600040EA020001F0004221F0004110EBD3709F
:1002700021FA04F642EB06015EEA430E08BF20EACB
:10028000D37070BDC4F10C04C4F1200500FA04F36E
:1002900020FA05F001FA04F240EA020001F0004100
:1002A00010EBD37041F100015EEA430E08BF20EA73
:1002B000D37070BDC4F1200500FA05F24EEA020EBB
:1002C00020FA04F301FA05F243EA020321FA04F0EA
:1002D00001F0004121FA04F220EA020000EBD370A1
:1002E0005EEA430E08BF20EAD37070BD94F0000FA1
:1002F0000FD101F00046400041EB010111F4801FD5
:1003000008BF013CF7D041EA060195F0000F18BF85
:10031000704703F00046520043EB030313F4801FC1
:1003200008BF013DF7D043EA0603704794EA0C0F7B
:100330000CEA135518BF95EA0C0F0CD050EA410691
:1003400018BF52EA4306D1D181EA030101F000410E
:100350004FF0000070BD50EA410606BF1046194636
:1003600052EA430619D094EA0C0F02D150EA013642
:1003700013D195EA0C0F05D152EA03361CBF104683
:1003800019460AD181EA030101F0004141F0FE4122
:1003900041F470014FF0000070BD41F0FE4141F4A6
:1003A000780170BD81F0004102E000BF83F000439E
:1003B00030B54FEA41044FEA430594EA050F08BF00
:1003C00090EA020F1FBF54EA000C55EA020C7FEAC4
:1003D000645C7FEA655C00F0E2804FEA5454D4EB41
:1003E0005555B8BF6D420CDD2C4480EA020281EA0B
:1003F000030382EA000083EA010180EA020281EA43
:100400000303362D88BF30BD11F0004F4FEA013194
:100410004FF4801C4CEA113102D0404261EB4101A3
:1004200013F0004F4FEA03334CEA133302D0524229
:1004300063EB430394EA050F00F0A780A4F10104E5
:10044000D5F1200E0DDB02FA0EFC22FA05F280181F
:1004500041F1000103FA0EF2801843FA05F3594105
:100460000EE0A5F120050EF1200E012A03FA0EFC84
:1004700028BF4CF0020C43FA05F3C01851EBE371AE
:1004800001F0004507D54FF0000EDCF1000C7EEBCB
:1004900000006EEB0101B1F5801F1BD3B1F5001F09
:1004A0000CD349085FEA30004FEA3C0C04F1010428
:1004B0004FEA445212F5800F80F09A80BCF1004F51
:1004C00008BF5FEA500C50F1000041EB045141EAD3
:1004D000050130BD5FEA4C0C404141EB0101013C9C
:1004E00028BFB1F5801FE9D291F0000F04BF01468B
:1004F0000020B1FA81F308BF2033A3F10B03B3F15D
:1005000020020CDA0C3208DD02F1140CC2F10C02EC
:1005100001FA0CF021FA02F10CE002F11402D8BF4A
:10052000C2F1200C01FA02F120FA0CFCDCBF41EA16
:100530000C019040E41AA2BF01EB0451294330BDE5
:100540006FEA04041F3C1CDA0C340EDC04F11404C2
:10055000C4F1200220FA04F001FA02F340EA030099
:1005600021FA04F345EA030130BDC4F10C04C4F1DF
:10057000200220FA02F001FA04F340EA03002946BF
:1005800030BD21FA04F0294630BD94F0000F83F409
:10059000801306BF81F480110134013D4EE77FEAEC
:1005A000645C18BF7FEA655C29D094EA050F08BF38
:1005B00090EA020F05D054EA000C04BF1946104619
:1005C00030BD91EA030F1EBF0021002030BD5FEA5D
:1005D000545C05D14000494128BF41F0004130BD85
:1005E00014F580043CBF01F5801130BD01F00045D9
:1005F00045F0FE4141F470014FF0000030BD7FEA4C
:10060000645C1ABF194610467FEA655C1CBF0B4646
:10061000024650EA013406BF52EA033591EA030F5D
:1006200041F4002130BD00BF90F0000F04BF002155
:10063000704730B54FF4806404F132044FF0000588
:100640004FF0000150E700BF90F0000F04BF002101
:10065000704730B54FF4806404F1320410F0004567
:1006600048BF40424FF000013EE700BF42004FEA62
:10067000E2014FEA31014FEA02701FBF12F07F43DF
:1006800093F07F4F81F06051704732F07F4208BF96
:10069000704793F07F4F04BF41F40021704730B59D
:1006A0004FF4607401F0004521F000411CE700BFE9
:1006B00050EA010208BF704730B54FF000050AE06C
:1006C00050EA010208BF704730B511F0004502D56D
:1006D000404261EB41014FF4806404F132045FEA6F
:1006E000915C3FF4D8AE4FF003025FEADC0C18BF18
:1006F00003325FEADC0C18BF033202EBDC02C2F10A
:10070000200300FA03FC20FA02F001FA03FE40EA9B
:100710000E0021FA02F11444BDE600BF4FF0FF3C89
:1007200006E000BF4FF0010C02E000BF4FF0010CEB
:100730004DF804CD4FEA410C7FEA6C5C4FEA430C64
:1007400018BF7FEA6C5C1BD001B050EA410C0CBFB3
:1007500052EA430C91EA030F02BF90EA020F002015
:10076000704710F1000F91EA030F58BF994208BF7C
:1007700090422CBFD8176FEAE37040F00100704739
:100780004FEA410C7FEA6C5C02D150EA013C07D190
:100790004FEA430C7FEA6C5CD6D152EA033CD3D0DB
:1007A0005DF8040B704700BF8446104662468C46D5
:1007B0001946634600E000BF01B5FFF7B7FF002808
:1007C00048BF10F1000F01BD4DF808EDFFF7F4FF31
:1007D0000CBF012000205DF808FB00BF4DF808EDBC
:1007E000FFF7EAFF34BF012000205DF808FB00BFDF
:1007F0004DF808EDFFF7E0FF94BF012000205DF801
:1008000008FB00BF4DF808EDFFF7CEFF94BF0120B5
:1008100000205DF808FB00BF4DF808EDFFF7C4FFAE
:1008200034BF012000205DF808FB00BF4FEA410201
:1008300012F5001215D211D56FF47873B3EB625232
:1008400012D94FEAC12343F0004343EA505311F059
:10085000004F23FA02F018BF404270474FF00000EB
:10086000704750EA013005D111F0004008BF6FF029
:10087000004070474FF00000704700BF80F000401C
:1008800002E000BF81F0004142001FBF5FEA410368
:1008900092EA030F7FEA226C7FEA236C6AD04FEA68
:1008A0001262D2EB1363C1BFD218414048404140AD
:1008B000B8BF5B42192B88BF704710F0004F40F45F
:1008C000000020F07F4018BF404211F0004F41F47B
:1008D000000121F07F4118BF494292EA030F3FD047
:1008E000A2F1010241FA03FC10EB0C00C3F120035A
:1008F00001FA03F100F0004302D5494260EB4000E9
:10090000B0F5000F13D3B0F1807F06D340084FEA53
:10091000310102F10102FE2A51D2B1F1004F40EB48
:10092000C25008BF20F0010040EA030070474900B0
:1009300040EB0000013A28BFB0F5000FEDD2B0FA4D
:1009400080FCACF1080CB2EB0C0200FA0CF0AABF70
:1009500000EBC25052421843BCBFD040184370470E
:1009600092F0000F81F4000106BF80F40000013214
:10097000013BB5E74FEA41037FEA226C18BF7FEAEB
:10098000236C21D092EA030F04D092F0000F08BF2D
:100990000846704790EA010F1CBF0020704712F014
:1009A0007F4F04D1400028BF40F00040704712F153
:1009B00000723CBF00F50000704700F0004343F0B8
:1009C000FE4040F4000070477FEA226216BF0846EE
:1009D0007FEA23630146420206BF5FEA412390EAB1
:1009E000010F40F4800070474FF0000304E000BFA7
:1009F00010F0004348BF40425FEA000C08BF704758
:100A000043F0964301464FF000001CE050EA01021B
:100A100008BF70474FF000030AE000BF50EA010230
:100A200008BF704711F0004302D5404261EB41011D
:100A30005FEA010C02BF84460146002043F0B64342
:100A400008BFA3F18053A3F50003BCFA8CF2083A67
:100A5000A3EBC25310DB01FA02FC634400FA02FC70
:100A6000C2F12002BCF1004F20FA02F243EB020077
:100A700008BF20F00100704702F1200201FA02FCD9
:100A8000C2F1200250EA4C0021FA02F243EB0200CC
:100A900008BF20EADC7070474FF0FF0C1CEAD05210
:100AA0001EBF1CEAD15392EA0C0F93EA0C0F6FD0D1
:100AB0001A4480EA010C400218BF5FEA41211ED0AF
:100AC0004FF0006343EA501043EA5111A0FB01319B
:100AD0000CF00040B1F5000F3EBF490041EAD37170
:100AE0005B0040EA010062F17F02FD2A1DD8B3F1EC
:100AF000004F40EBC25008BF20F00100704790F05B
:100B0000000F0CF0004C08BF49024CEA502040EAAC
:100B100051207F3AC2BFD2F1FF0340EAC250704772
:100B200040F400004FF00003013A5DDC12F1190FB0
:100B3000DCBF00F000407047C2F10002410021FA22
:100B400002F1C2F1200200FA02FC5FEA310040F13A
:100B5000000053EA4C0308BF20EADC70704792F0B3
:100B6000000F00F0004C02BF400010F4000F013AEB
:100B7000F9D040EA0C0093F0000F01F0004C02BFE6
:100B8000490011F4000F013BF9D041EA0C018FE755
:100B90000CEAD15392EA0C0F18BF93EA0C0F0AD05B
:100BA00030F0004C18BF31F0004CD8D180EA010081
:100BB00000F00040704790F0000F17BF90F0004F1A
:100BC000084691F0000F91F0004F14D092EA0C0FFC
:100BD00001D142020FD193EA0C0F03D14B0218BF8F
:100BE000084608D180EA010000F0004040F0FE40D5
:100BF00040F40000704740F0FE4040F44000704771
:100C00004FF0FF0C1CEAD0521EBF1CEAD15392EAEF
:100C10000C0F93EA0C0F69D0A2EB030280EA010CDF
:100C200049024FEA402037D04FF0805343EA111178
:100C300043EA10130CF000408B4238BF5B0042F1D6
:100C40007D024FF4000C8B4224BF5B1A40EA0C007B
:100C5000B3EB510F24BFA3EB510340EA5C00B3EBAD
:100C6000910F24BFA3EB910340EA9C00B3EBD10F9B
:100C700024BFA3EBD10340EADC001B0118BF5FEAED
:100C80001C1CE0D1FD2A3FF650AF8B4240EBC25016
:100C900008BF20F0010070470CF0004C4CEA5020D7
:100CA0007F32C2BFD2F1FF0340EAC250704740F426
:100CB00000004FF00003013A37E792F0000F00F018
:100CC000004C02BF400010F4000F013AF9D040EA96
:100CD0000C0093F0000F01F0004C02BF490011F42A
:100CE000000F013BF9D041EA0C0195E70CEAD15322
:100CF00092EA0C0F08D142027FF47DAF93EA0C0F09
:100D00007FF470AF084676E793EA0C0F04D14B02EC
:100D10003FF44CAF08466EE730F0004C18BF31F09E
:100D2000004CCAD130F000427FF45CAF31F0004398
:100D30007FF43CAF5FE700BF4FF0FF3C06E000BF31
:100D40004FF0010C02E000BF4FF0010C4DF804CD54
:100D50004FEA40024FEA41037FEA226C18BF7FEA64
:100D6000236C11D001B052EA530C18BF90EA010F66
:100D700058BFB2EB030088BFC81738BF6FEAE170F5
:100D800018BF40F0010070477FEA226C02D15FEA91
:100D9000402C05D17FEA236CE4D15FEA412CE1D0FD
:100DA0005DF8040B704700BF844608466146FFE7C4
:100DB0000FB5FFF7C9FF002848BF10F1000F0FBDA6
:100DC0004DF808EDFFF7F4FF0CBF012000205DF89F
:100DD00008FB00BF4DF808EDFFF7EAFF34BF012024
:100DE00000205DF808FB00BF4DF808EDFFF7E0FFBD
:100DF00094BF012000205DF808FB00BF4DF808ED0E
:100E0000FFF7D2FF94BF012000205DF808FB00BF70
:100E10004DF808EDFFF7C8FF34BF012000205DF852
:100E200008FB00BF7BB972B90029BEBF00204FF09C
:100E3000004106E008BF00281CBF6FF000414FF0E2
:100E4000FF3000F0F5B9ADF1080C6DE904CE0029D2
:100E500009DB002B1ADB00F06BF8DDF804E0DDE9BC
:100E6000022304B07047404261EB4101002B1BDBC1
:100E700000F05EF8DDF804E0DDE9022304B0404252
:100E800061EB4101524263EB43037047524263EB13
:100E9000430300F04DF8DDF804E0DDE9022304B07F
:100EA000404261EB41017047524263EB430300F063
:100EB0003FF8DDF804E0DDE9022304B0524263EBC1
:100EC0004303704738B50022002304460D46FFF760
:100ED00085FC28B920462946BDE8384000F00AB80C
:100EE000204605F1004100F005F8404261EB410168
:100EF00038BD00BFD0B500220B4B06460F46FFF7AA
:100F000027F900F097F90446FFF78EFB0022074B04
:100F1000FFF71EF902460B4630463946FFF746FA00
:100F200000F088F92146D0BD0000F03D0000F041FE
:100F30002DE9F047089D8E4604468846002B4AD18D
:100F40008A42174662D9B2FA82F64EB1C6F1200340
:100F500001FA06F820FA03F3B74043EA0808B44060
:100F60004FEA174EB8FBFEF11FFA87FC0EFB118803
:100F700001FB0CF2230C43EA08439A4209D9FB18FF
:100F800001F1FF3080F0EB809A4240F2E8800239B4
:100F90003B449A1AB2FBFEF00EFB102200FB0CFC45
:100FA000A3B243EA02439C4509D9FB1800F1FF3282
:100FB00080F0D7809C4540F2D4803B44023840EA20
:100FC00001400021A3EB0C031DB10022F340C5E951
:100FD0000032BDE8F0878B4205D90DB1C5E90001AB
:100FE00000210846F5E7B3FA83F1002946D173459D
:100FF00002D3824200F20881841A6EEB03020120C0
:101000009046002DE5D0C5E90048E2E7002A00F04F
:101010009180B2FA82F6002E40F0A5808A1A012152
:10102000030C4FEA174E80B2BCB2B2FBFEFC0EFBC3
:101030001C2243EA024304FB0CF29A4207D9FB1834
:101040000CF1FF3802D29A4200F2E380C4469B1AA8
:10105000B3FBFEF20EFB123302FB04F440EA03433F
:101060009C4207D9FB1802F1FF3002D29C4200F2E9
:10107000CD8002461B1B42EA0C40A5E7C1F12006C9
:101080008B4022FA06F71F432EFA06FA4FEA174959
:10109000BAFBF9F80EFA01FE20FA06F309FB18AACA
:1010A0001FFA87FC43EA0E0300FA01FE08FB0CF06E
:1010B0001C0C44EA0A44A04202FA01F20AD93C1983
:1010C00008F1FF3A80F09E80A04240F29B80A8F198
:1010D00002083C44241A98B2B4FBF9F309FB134408
:1010E00003FB0CFC40EA0444A44509D93C1903F174
:1010F000FF3080F08580A44540F28280023B3C4472
:1011000043EA0840A4EB0C04A0FB028C6445434670
:10111000E14664D361D05DB1BEEB030264EB090428
:1011200004FA06F622FA01F31E43CC40C5E9006436
:1011300000214EE7B1FBF2FC010C41EA0E4180B206
:1011400040EA01423B46B1FBF7F138463C46B8461F
:10115000BE462026A2EB080241EA0C4165E70146A3
:1011600017E710462BE7C6F120012EFA01FCB74025
:101170000EFA06FE20FA01F141EA0E014FEA174E7F
:10118000BCFBFEF8BCB20EFB18CC08FB04F90A0C41
:1011900042EA0C42B04091454FEA104380B23ED93A
:1011A000BA1808F1FF3C01D291451FD8A2EB090201
:1011B000B2FBFEF909FB04F80EFB192A8AB242EAD7
:1011C0000A42424529D2BA1809F1FF31C2D242453A
:1011D000C0D2A9F102013A44BCE7C6459BD2B8EBA4
:1011E00002036CEB070C0138E14694E7A7EB090911
:1011F0004A44B2FBFEF9A8F1020C09FB04F8DBE754
:1012000003467DE7D04665E70846FAE63B44023AE6
:1012100030E7ACF1020C3B4419E749469AE7A2EBF0
:101220000902B2FBFEF9C44609FB04F8C4E700BF9B
:10123000704700BF4A0011D212F5001211D20DD52D
:101240006FF47873B3EB62520ED44FEAC12343F0CC
:10125000004343EA505323FA02F070474FF0000076
:10126000704750EA013002D14FF0FF3070474FF025
:101270000000704780B400AF0F4B9B690E4A43F0EB
:10128000080393610D4B5B680C4A23F07F6323F4E2
:1012900070235360094B5B68084A43F04C7343F476
:1012A00040335360054BDB68044A43F4E043D360AA
:1012B00000BFBD4680BC704700100240000C0140DA
:1012C00080B400AF164B9B69154A43F00803936145
:1012D000144B1B68134A23F070431360114B1B68B7
:1012E000104A43F0004313600E4BDB680D4A43F095
:1012F0008003D3600B4B1B680A4A23F070631360B2
:10130000084B1B68074A43F000631360054BDB681A
:10131000044A43F04003D36000BFBD4680BC704721
:1013200000100240000C014080B483B000AF194BA4
:101330009B68DB0903F00103002B0CBF0123002392
:10134000DBB2FB71134B9B689B0903F00103002B7D
:101350000CBF01230023DBB2BB71FB79002B04D04F
:10136000BB79002B01D101230FE0FB79002B04D1C5
:10137000BB79002B01D0022307E0FB79002B04D1BD
:10138000BB79002B01D10023FFE718460C37BD467F
:1013900080BC7047000C014080B582B000AFFFF701
:1013A000C3FF0346FB71114B1B78FA799A4203D0B5
:1013B0000F4B1B680F4A13600D4B1A680D4B1B68CF
:1013C000D21A0D4B1B689A4207D90C4B1B78FA793D
:1013D0009A4202D0094AFB791370044AFB791370D0
:1013E000064B1B7818460837BD4680BD810000209B
:1013F000A40200207C0000200000002080000020CB
:1014000080B500AF154B164A1A60144B154A5A6046
:10141000124B00229A60114BAA22DA600F4B4FF454
:1014200080421A610D4B00225A610C4B00229A61D6
:101430000A4B0022DA61094B00221A62074802F0C7
:101440001BFF0346002B01D001F0D2FE0222064909
:10145000024803F069F800BF80BD00BF50020020C1
:1014600000540040801A06008400002080B582B03D
:1014700000AF7860054B01221A700222044905482A
:1014800003F052F800BF0837BD4680BD820000203F
:10149000840000205002002080B582B000AF786048
:1014A0007B681B680C4A934212D10C4B1B690B4A98
:1014B00043F400131361094B1B69084A23F400131A
:1014C0001361FFF79DFF02220549064803F02CF83F
:1014D00000BF0837BD4680BD0054004000100240E8
:1014E000840000205002002080B582B000AF7860F8
:1014F0007B681B68B3F1404F73D0B3F1404F71D894
:101500003A4A934266D0394A93426BD8384A93425A
:1015100059D0374A934265D8B32B2DD8A12B61D32C
:10152000A13B122B5ED801A252F823F081150008CE
:10153000E5150008E5150008E5150008E5150008A3
:10154000E5150008E5150008E5150008E515000893
:10155000E5150008E5150008E5150008E515000883
:101560008F1500089D150008E5150008E515000811
:10157000E5150008AB1500081E4A93421CD031E067
:101580007B6807331C49184600F0AEFF2AE07B68F1
:1015900007331A49184600F07FFB23E07B680733C6
:1015A0001749184600F0D0FC1CE07B68073315494A
:1015B000184600F08BF915E07B680733124918468E
:1015C00000F0D6FE0EE07B6807331049184600F0A5
:1015D000FFF807E07B6807330D49184600F0F8FD77
:1015E00000E000BF00BF0837BD4680BD57329618E7
:1015F000405027184050261828020020E4010020FF
:10160000A8010020A0000020880100208800002000
:10161000000100202DE9B00F8BB000AFF860B96079
:101620007A607B68002B02DD7B68402B04DD4FF085
:1016300000024FF0000351E04FF000024FF00003B2
:10164000C7E90823BB68002B00DA0733DB10FB6116
:10165000BB685A4203F0070302F0070258BF534227
:10166000BB6100237B6133E00023FB74FB69002B2B
:101670000EDBFB69072B0BDCFB69FA6813441B7854
:101680001A46BB6942FA03F3DBB203F00103FB74B1
:10169000D7E9082312EB020A43EB030B52465B46E1
:1016A000F97C00200C46054642EA040843EA050995
:1016B000C7E90889BB69013BBB61BB69002B04DA40
:1016C000FB690133FB610723BB617B6901337B61EC
:1016D0007A697B689A42C7DBD7E908231046194626
:1016E0002C37BD46BDE8B00F70472DE9B00F8DB067
:1016F00000AFF860B9607A607B68002B02DD7B6820
:10170000402B04DD4FF000024FF0000356E04FF095
:1017100000024FF00003C7E90A2300237B6247E081
:10172000BA687B6A1344FB61FB69002B00DA07335C
:10173000DB10BB61FB695A4203F0070302F00702AA
:1017400058BF53427B61002387F82330BB69002BCD
:101750000FDBBB69072B0CDCBB69FA6813441B78F1
:101760001A467B6942FA03F3DBB203F0010387F800
:10177000233097F823300022984691467B6AA3F1E4
:101780002001C3F1200209FA03F508FA01F10D4323
:1017900028FA02F2154308FA03F4D7E90A2342EAC9
:1017A000040A43EA050BC7E90AAB7B6A01337B6293
:1017B0007A6A7B689A42B3DBD7E90A231046194656
:1017C0003437BD46BDE8B00F704700000000000090
:1017D00080B588B000AF786039603B68002B62D07C
:1017E000202220217868FFF780FFC7E90601D7E9AA
:1017F0000601FEF75DFF2EA3D3E90023FEF7A8FC48
:1018000002460B46104619464FF000024FF0000307
:10181000FEF7CEFD02460B463968C1E900231022CF
:1018200010217868FFF761FFC7E90401D7E90401D7
:10183000FEF73EFF02460B463968C1E9022310223B
:1018400000217868FFF751FFC7E90201D7E90201DB
:10185000FEF72EFF4FF00002174BFEF7A7FD0246E2
:101860000B463968C1E90423144802F003F83B68C9
:10187000D3E90001032202F013F8114801F0FAFF46
:101880003B68D3E90201032202F00AF80D4801F097
:10189000F1FF3B68D3E90401032202F001F80A4892
:1018A00001F0E8FF00E000BF2037BD4680BD00BF6B
:1018B0009A9999999999B93F0000D040AC6900086C
:1018C000BC690008D0690008E469000880B582B0EE
:1018D00000AF786039603B68002B00F0A2810122E4
:1018E0001E217868FFF796FE02460B463B681A6099
:1018F00001221F217868FFF78DFE02460B463B68E8
:101900005A60012210217868FFF784FE02460B46D8
:101910003B689A60012211217868FFF77BFE02463E
:101920000B463B68DA60012212217868FFF772FEED
:1019300002460B463B681A61012213217868FFF7C3
:1019400069FE02460B463B685A6101221421786801
:10195000FFF760FE02460B463B689A6101221521A3
:101960007868FFF757FE02460B463B68DA610122B2
:1019700016217868FFF74EFE02460B463B681A6256
:10198000012217217868FFF745FE02460B463B68A7
:101990005A62012208217868FFF73CFE02460B4696
:1019A0003B689A62012209217868FFF733FE0246FC
:1019B0000B463B68DA6201220A217868FFF72AFEAB
:1019C00002460B463B681A6301220B217868FFF739
:1019D00021FE02460B463B685A6301220C217868BF
:1019E000FFF718FE02460B463B689A6301220D2161
:1019F0007868FFF70FFE02460B463B68DA63012268
:101A00000E217868FFF706FE02460B463B681A6413
:101A100001220F217868FFF7FDFD02460B463B6867
:101A20005A64012200217868FFF7F4FD02460B4654
:101A30003B689A64032207217868FFF7EBFD0246B2
:101A40000B463B68DA64012201217868FFF7E2FD6A
:101A500002460B463B681A65012202217868FFF7AF
:101A6000D9FD02460B463B685A650322042178687B
:101A7000FFF7D0FD02460B463B689A656B4801F0C4
:101A8000F9FE3B681B681946694802F029F8694865
:101A900001F0F0FE3B685B681946654802F020F8EB
:101AA000654801F0E7FE3B689B681946634802F011
:101AB00017F8634801F0DEFE3B68DB6819465C48B6
:101AC00002F00EF85F4801F0D5FE3B681B6919462D
:101AD000574802F005F85C4801F0CCFE3B685B69B2
:101AE0001946534801F0FCFF584801F0C3FE3B681B
:101AF0009B691946564801F0F3FF564801F0BAFEBB
:101B00003B68DB6919464A4801F0EAFF524801F098
:101B1000B1FE3B681B6A1946454801F0E1FF4F489A
:101B200001F0A8FE3B685B6A1946414801F0D8FF06
:101B30004B4801F09FFE3B689B6A19463C4801F008
:101B4000CFFF484801F096FE3B68DB6A19463848EB
:101B500001F0C6FF444801F08DFE3B681B6B19463F
:101B6000334801F0BDFF414801F084FE3B685B6BE8
:101B70001946374801F0B4FF3D4801F07BFE3B6851
:101B80009B6B19462A4801F0ABFF3A4801F072FE00
:101B90003B68DB6B1946264801F0A2FF364801F08E
:101BA00069FE3B681B6C1946214801F099FF3348D8
:101BB00001F060FE3B685B6C19461D4801F090FF28
:101BC0002F4801F057FE3B689B6C1946184801F0FE
:101BD00087FF2C4801F04EFE3B68DB6C1946144829
:101BE00001F07EFF284801F045FE3B681B6D194659
:101BF0000F4801F075FF254801F03CFE3B685B6D26
:101C00001946134801F06CFF214801F033FE3B6890
:101C10009B6D1946064801F063FF1E4801F02AFE3D
:101C200000E000BF0837BD4680BD00BF146A000851
:101C3000286A00082C6A0008486A0008606A0008E0
:101C4000646A0008806A0008986A0008B06A0008A0
:101C5000CC6A0008D46A0008F06A00080C6B00081F
:101C6000286B0008406B00085C6B0008746B000870
:101C7000906B0008AC6B0008C46B0008DC6B0008BC
:101C8000F46B0008106C00082C6C0008486C00080D
:101C90005C6C0008E469000880B582B000AF786031
:101CA00039603B68002B00F0248101221B217868F9
:101CB000FFF7B0FC02460B463B681A6001221C216C
:101CC0007868FFF7A7FC02460B463B685A60012282
:101CD00027217868FFF79EFC02460B463B689A6016
:101CE000012204217868FFF795FC02460B463B6809
:101CF000DA60012202217868FFF78CFC02460B466D
:101D00003B681A61062212217868FFF783FC0246BD
:101D10000B463B685A61012206217868FFF77AFC7E
:101D200002460B463B689A61022209217868FFF758
:101D300071FC02460B463B68DA6102220B2178688F
:101D4000FFF768FC02460B463B681A62012201213C
:101D50007868FFF75FFC02460B463B685A62012237
:101D600015217868FFF756FC02460B463B689A62DD
:101D7000012207217868FFF74DFC02460B463B68BD
:101D8000DA6204220F217868FFF744FC02460B4612
:101D90003B681A63022217217868FFF73BFC024672
:101DA0000B463B685A63012203217868FFF732FC37
:101DB00002460B463B689A63012205217868FFF7CB
:101DC00029FC02460B463B68DA634C4801F052FDA1
:101DD0003B681B6819464A4801F082FE494801F0F9
:101DE00049FD3B685B681946454801F079FE464865
:101DF00001F040FD3B689B681946414801F070FEC8
:101E0000424801F037FD3B68DB6819463C4801F069
:101E100067FE3F4801F02EFD3B681B6919463848B4
:101E200001F05EFE3B4801F025FD3B685B69194609
:101E3000334801F055FE384801F01CFD3B689B69B2
:101E40001946364801F04CFE354801F013FD3B6859
:101E5000DB6919462A4801F043FE324801F00AFDC9
:101E60003B681B6A1946264801F03AFE2E4801F0ED
:101E700001FD3B685B6A1946214801F031FE2B48A1
:101E800001F0F8FC3B689B6A19461D4801F028FEEA
:101E9000274801F0EFFC3B68DB6A1946184801F05F
:101EA0001FFE244801F0E6FC3B681B6B19461448F2
:101EB00001F016FE204801F0DDFC3B685B6B194623
:101EC000164801F00DFE1D4801F0D4FC3B689B6BE9
:101ED00019460B4801F004FE194801F0CBFC3B68A1
:101EE000DB6B1946064801F0FBFD164801F0C2FC09
:101EF00000E000BF0837BD4680BD00BF746C00081D
:101F0000286A0008C46B0008846C0008A06C0008F4
:101F1000B86C0008D06C0008F06C0008CC6A0008AF
:101F2000086D0008286D0008406D00085C6D000811
:101F30007C6D0008946D0008B06D0008D06D00083D
:101F4000EC6D0008E469000880B582B000AF7860ED
:101F500039603B68002B00F0128103220921786868
:101F6000FFF758FB02460B463B681A6001220A2124
:101F70007868FFF74FFB02460B463B685A60012228
:101F80000B217868FFF746FB02460B463B689A60D8
:101F900001220C217868FFF73DFB02460B463B68A7
:101FA000DA6001220D217868FFF734FB02460B4608
:101FB0003B681A6101220E217868FFF72BFB02466D
:101FC0000B463B685A6101220F217868FFF722FB1C
:101FD00002460B463B689A61012200217868FFF7B0
:101FE00019FB02460B463B68DA6101220121786841
:101FF000FFF710FB02460B463B681A6201220221E2
:102000007868FFF707FB02460B463B685A620122DD
:1020100003217868FFF7FEFA02460B463B689A6296
:10202000012204217868FFF7F5FA02460B463B6867
:10203000DA62012205217868FFF7ECFA02460B46C6
:102040003B681A63012206217868FFF7E3FA02462B
:102050000B463B685A63012207217868FFF7DAFADA
:1020600002460B463B689A63474801F003FC3B6815
:102070001B681946454801F033FD454801F0FAFB5D
:102080003B685B681946414801F02AFD414801F070
:10209000F1FB3B689B6819463C4801F021FD3E4836
:1020A00001F0E8FB3B68DB681946384801F018FD91
:1020B0003A4801F0DFFB3B681B691946334801F0E1
:1020C0000FFD374801F0D6FB3B685B6919462F4886
:1020D00001F006FD334801F0CDFB3B689B691946D2
:1020E000314801F0FDFC314801F0C4FB3B68DB697D
:1020F0001946264801F0F4FC2D4801F0BBFB3B6873
:102100001B6A1946214801F0EBFC2A4801F0B2FB9A
:102110003B685B6A19461D4801F0E2FC264801F065
:10212000A9FB3B689B6A1946184801F0D9FC234873
:1021300001F0A0FB3B68DB6A1946144801F0D0FCB3
:102140001F4801F097FB3B681B6B19460F4801F0D5
:10215000C7FC1C4801F08EFB3B685B6B19461248BC
:1021600001F0BEFC184801F085FB3B689B6B1946EB
:10217000064801F0B5FC154801F07CFB00E000BF0B
:102180000837BD4680BD00BF046E0008286A0008FD
:102190001C6E00083C6E0008586E0008746E000843
:1021A000906E0008B06E0008CC6A0008D46E00087B
:1021B000F46E0008146F00082C6F0008446F0008CC
:1021C000606F00087C6F0008986F0008E4690008E1
:1021D00080B582B000AF786039603B68002B00F0BA
:1021E000C180012200217868FFF77FFA02460B4682
:1021F00010461946FEF75CFA02460B463968C1E9FB
:102200000023012201217868FFF76FFA02460B468E
:1022100010461946FEF74CFA02460B463968C1E9EA
:102220000223012202217868FFF75FFA02460B467B
:1022300010461946FEF73CFA02460B463968C1E9DA
:102240000423012203217868FFF74FFA02460B4668
:1022500010461946FEF72CFA02460B463968C1E9CA
:102260000623012204217868FFF73FFA02460B4655
:1022700010461946FEF71CFA02460B463968C1E9BA
:102280000823012205217868FFF72FFA02460B4642
:1022900010461946FEF70CFA02460B463968C1E9AA
:1022A0000A23012206217868FFF71FFA02460B462F
:1022B00010461946FEF7FCF902460B463968C1E99B
:1022C0000C23012207217868FFF70FFA02460B461C
:1022D00010461946FEF7ECF902460B463968C1E98B
:1022E0000E23012208217868FFF7FFF902460B460A
:1022F00010461946FEF7DCF902460B463968C1E97B
:102300001023012209217868FFF7EFF902460B46F6
:1023100010461946FEF7CCF902460B463968C1E96A
:10232000122301220A217868FFF7DFF902460B46E3
:1023300010461946FEF7BCF902460B463968C1E95A
:10234000142301220B217868FFF7CFF902460B46D0
:1023500010461946FEF7ACF902460B463968C1E94A
:10236000162300E000BF0837BD4680BD0000000016
:1023700080B582B000AF786039603B68002B00F018
:102380009480082208217868FFF7AFF902460B46CF
:102390001346A3F128023B681A60082200217868DE
:1023A000FFF7A3F902460B461346A3F128023B6848
:1023B0005A60102210217868FFF797F902460B4601
:1023C00010461946FEF774F93BA3D3E90023FDF745
:1023D000BFFE02460B463968C1E9022303223821B9
:1023E0007868FFF782F902460B463B681A610822BB
:1023F00030217868FFF779F902460B463B685A614D
:10240000082228217868FFF770F902460B463B68DE
:102410009A61082220217868FFF767F902460B4687
:102420003B68DA61264801F025FA3B681B681946CB
:10243000244801F055FB244801F01CFA3B685B6816
:102440001946204801F04CFB204801F013FA3B6884
:10245000D3E90201032201F023FA1D4801F00AFA30
:102460003B681B691946174801F03AFB194801F00F
:1024700001FA3B685B691946124801F031FB1648C6
:1024800001F0F8F93B689B6919460E4801F028FBFA
:10249000124801F0EFF93B68DB691946104801F07A
:1024A0001FFB104801F0E6F900E000BF0837BD4609
:1024B00080BD00BFAFF300809A9999999999B93F6F
:1024C000B46F0008286A0008C86F0008DC6F0008B5
:1024D000F06F000804700008187000082C700008E5
:1024E000CC6A0008E469000880B582B000AF78606B
:1024F00039600A2226217868FFF78CF802460B46DD
:1025000010461946FEF7D4F853A3D3E90023FDF78C
:102510001FFE02460B461046194651A3D3E900237D
:10252000FDF744FF02460B463968C1E900230A2241
:1025300007217868FFF76EF802460B4610461946E9
:10254000FEF7B6F844A3D3E90023FDF701FE0246E7
:102550000B463968C1E902230A2210217868FFF787
:1025600059F802460B4610461946FEF7A1F83AA361
:10257000D3E90023FDF7ECFD02460B461046194651
:102580004FF000023A4BFDF711FF02460B46396847
:10259000C1E904230F222C217868FFF73BF802469B
:1025A0000B461346A3F580431A463B689A610D22F9
:1025B0000D217868FFF72EF802460B4610461946A3
:1025C000FEF776F824A3D3E90023FDF7C1FD024608
:1025D0000B461046194624A3D3E90023FDF7E6FE77
:1025E00002460B463968C1E90823224801F042F946
:1025F0003B68D3E90001032201F052F91E4801F0C3
:1026000039F93B68D3E90201032201F049F91B487B
:1026100001F030F93B68D3E90401032201F040F9ED
:10262000174801F027F93B689B691946154801F0E6
:1026300057FA154801F01EF93B68D3E90801032257
:1026400001F02EF9114801F015F9114801F012F9C5
:1026500000BF0837BD4680BD9A9999999999B93FAD
:102660006666666666A642409A99999999997940F4
:1026700000405040447000085C700008687000081A
:102680007870000880700008887000089470000856
:10269000E469000880B400AF124B9B69114A43F013
:1026A00008039361104B1B680F4A23F4804323F007
:1026B000440313600C4B1B680B4A43F4405343F034
:1026C00033031360084BDB68074A43F00B03D36006
:1026D000054BDB68044A23F00203D36000BFBD460C
:1026E00080BC704700100240000C014090B5ADF670
:1026F000040D00AF07F50063A3F2FC73186000231C
:10270000C7F8FC3700F066FFC7F8E80707F5006375
:10271000A3F2FC731B68C7F8E437D7F8E837002B3F
:1027200006D007F50063A3F2FC731B68002B01D1F0
:102730000023F7E0D7F8E827D7F8E437B2FBF3F344
:10274000C7F8E0370123C7F8F837C0E00123C7F81E
:10275000F437B2E00123C7F8F037A4E0D7F8F42744
:10276000D7F8F03713440133C7F8DC37D7F8F83718
:10277000D7F8DC2702FB03F3D7F8E0279A4240F0B2
:102780008D80D7F8F407FEF72FF903464FF07E51FE
:102790001846FEF779F803461C46D7F8DC07FEF723
:1027A00023F9034619462046FEF72AFA03466049F4
:1027B0001846FEF771F90346C7F8D8375D49D7F8D0
:1027C000D807FEF71BFB0346002B67D05A49D7F802
:1027D000D807FEF709FB0346002B5FD00123C7F89B
:1027E000EC3755E0D7F8F83798B207F50063A3F552
:1027F000FF61D7F8FC2713469B0013449B000B4452
:1028000002461A8007F50063A3F5FF61D7F8FC279D
:1028100013469B0013449B000B440433D7F8F42762
:102820001A6007F50063A3F5FF61D7F8FC2713468C
:102830009B0013449B000B440833D7F8F0271A6021
:10284000D7F8EC1707F50063A3F5FF60D7F8FC276E
:1028500013469B0013449B0003440C33196007F597
:102860000063A3F5FF61D7F8FC2713469B001344D0
:102870009B000B441033D7F8D8271A60D7F8FC37E1
:102880000133C7F8FC37D7F8EC370133C7F8EC371A
:10289000D7F8EC37D7F8F0279A42A3D2D7F8F03719
:1028A0000133C7F8F037D7F8F037082B7FF656AF6B
:1028B000D7F8F4370133C7F8F437D7F8F437102BCB
:1028C0007FF648AFD7F8F8370133C7F8F837D7F8AD
:1028D000F837B3F5806F7FF639AF184BDA6907F533
:1028E0000063A3F5FF631B88013B194607F50063EE
:1028F000A3F5FF63DB68013B1B06194307F5006383
:10290000A3F5FF635B68013B1B04194307F50063F4
:10291000A3F5FF639B68013B1B050B43074913436A
:10292000CB610123184607F60407BD4690BD00BFE2
:102930000000C84200008C420000A0420064004039
:1029400080B400AF194BDB69184A43F00073D361C0
:10295000164B9B69154A43F001039361134B9B6926
:10296000124A43F008039361114B5B68104A23F04D
:10297000F00353600E4B5B680D4A23F00F03536066
:102980000B4B5B680A4A43F004035360084B5B68D7
:10299000074A43F0B0035360064B5B68054A43F4B3
:1029A0008043536000BFBD4680BC704700100240AA
:1029B000000C01400000014080B582B000AF78609B
:1029C000FFF7BEFF2E4B1B682D4A23F02003136038
:1029D0002B4B1B682A4A23F002031360284B1B6809
:1029E000274A43F00103136000BF254B5B6803F0E7
:1029F0000103002BF9D07868FFF778FE204B1B68A5
:102A00001F4A23F00103136000BF1D4B5B6803F0F6
:102A10000103002BF9D11A4BD3F80032184A43F0C6
:102A20000103C2F80032164B0022C3F81C22144BDB
:102A30000022C3F80422124B0122C3F80C22104BCF
:102A40000022C3F814220E4B0022C3F840220C4B84
:102A50000022C3F844220A4BD3F81C32084A43F040
:102A60000103C2F81C32064BD3F80032044A23F0AB
:102A70000103C2F80032012318460837BD4680BD65
:102A80000064004080B48FB000AFF8607A601A46EE
:102A90000B46FB721346BB72002387F83730914B0D
:102AA000D3F800328F4A43F00103C2F8003200230A
:102AB00087F8363079E097F837300D2B7BD8894B83
:102AC000D3F81C2297F83730012101FA03F3DB43D6
:102AD00084491340C1F81C32824BD3F8042297F882
:102AE0003730012101FA03F37E491343C1F8043260
:102AF0007C4BD3F80C2297F83730012101FA03F30D
:102B000078491343C1F80C32764BD3F8142297F866
:102B10003730012101FA03F3DB4372491340C1F856
:102B2000143200237B6200233B6397F836309B000E
:102B3000FA6813441B685B053B623B6A7B6297F84B
:102B400036305A1CFB7A9A420ADA97F8363001334B
:102B50009B00FA6813441B685B05FB61FB693B63E0
:102B6000604997F8373048337A6A41F833205D4A34
:102B700097F837304833DB0013443A6B5A60594BAF
:102B8000D3F81C2297F83730012101FA03F3554995
:102B90001343C1F81C3297F83730013387F83730C8
:102BA00097F83630023387F8363097F83620FB7ABC
:102BB0009A4280D300E000BF002387F82F307CE0EA
:102BC00097F837300D2B7FD8464BD3F81C2297F857
:102BD0003730012101FA03F3DB4342491340C1F8C6
:102BE0001C32404BD3F8042297F83730012101FA08
:102BF00003F33C491343C1F804323A4BD3F80C2297
:102C000097F83730012101FA03F336491343C1F82D
:102C10000C32344BD3F8142297F83730012101FAE3
:102C200003F330491343C1F814320023BB6100237E
:102C3000BB6297F82F309B007A6813441B68DB0057
:102C400043F004037B617B69BB6197F82F305A1C0A
:102C5000BB7A9A420CDA97F82F3001339B007A68DE
:102C600013441B68DB0043F004033B613B69BB6218
:102C70001C4997F837304833BA6941F83320194A6C
:102C800097F837304833DB001344BA6A5A60154B63
:102C9000D3F81C2297F83730012101FA03F31149C8
:102CA0001343C1F81C3297F83730013387F83730B7
:102CB00097F82F30023387F82F3097F82F20BB7A00
:102CC0009A42FFF47DAF00E000BF064BD3F800321C
:102CD000044A23F00103C2F8003200BF3C37BD466E
:102CE00080BC70470064004080B483B000AF0346EE
:102CF000FB71FB79002B09D10B4BDB6803F003035D
:102D0000002B14BF01230023DBB208E0064B1B6934
:102D100003F00303002B14BF01230023DBB218468A
:102D20000C37BD4680BC70470064004080B485B05D
:102D300000AF78600B46FB70444AFB781B331B01E5
:102D400013441B68DBB203F00403DAB27B681A7128
:102D50007B681B79002B0BD13C4AFB781B331B0192
:102D600013441B685B0DC3F30A027B681A600AE018
:102D7000364AFB781B331B0113441B68DB0823F026
:102D800060427B681A60314AFB781B331B01134495
:102D90001B68DBB203F00203DAB27B685A712B4A7C
:102DA000FB781B331B01134404331B68DBB203F0B5
:102DB0000F03DAB27B689A710023FB7327E0FB7B79
:102DC000032B10D8214AFB781B01134403F5DC7355
:102DD0001A68FB7BDB00DA40FB7BD1B27A681344D4
:102DE0000A46DA7110E0194AFB781B01134403F517
:102DF000DE731A68FB7B043BDB00DA40FB7BD1B25D
:102E00007A6813440A46DA71FB7B0133FB737B68F3
:102E10009B79FA7B9A42D2D3FB78002B06D10B4BDD
:102E2000DB680A4A43F02003D36008E0FB78012BFB
:102E300005D1064B1B69054A43F0200313610123AA
:102E400018461437BD4680BC704700BF0064004080
:102E500080B400AF0D4B9B690C4A43F008039361AB
:102E60000B4B5B680A4A23F070435360084B5B6866
:102E7000074A43F040535360054BDB68044A43F470
:102E80000043D36000BFBD4680BC704700100240C5
:102E9000000C014080B500AF174800F021FE174834
:102EA00000F01EFE164800F01BFE00F015FB034666
:102EB000144AA2FB03239B0C1946134800F010FE92
:102EC00000F088FB03460F4AA2FB03239B0C194624
:102ED0000E4800F005FE00F0A3FB0346094AA2FBE2
:102EE00003239B0C19460A4800F0FAFD044800F041
:102EF000F7FD00BF80BD00BF98700008C4700008D7
:102F0000E870000883DE1B43107100082871000878
:102F10004071000890B589B000AF0C4B07F1100468
:102F20000FCB84E80F000A4B3C460FCB84E80F0020
:102F30003A4607F1100004230421FFF7A3FD0548DA
:102F400000F0CEFD00BF2437BD4690BD947100084F
:102F5000A47100085871000880B588B000AF78608F
:102F60007B681B68DBB2FB737B681B681B0ADBB2E8
:102F7000BB737B681B681B0CDBB27B737B681B68B5
:102F80001B0EDBB23B737B689B793B740023FB61B8
:102F90000DE0FB6905337968FA690A440732127853
:102FA00020333B4403F8142CFB690133FB61FB69BC
:102FB000072BEEDD07F10C030D21184600F038FD5C
:102FC00000BF2037BD4680BD80B588B002AF00F09D
:102FD000E3FD00F02BFA4FF4E13000F0D9FB03469B
:102FE000002B01D100F004F94FF4E131724800F0F8
:102FF00077FD724800F074FD4FF4E13000F072FB91
:103000000346002B01D100F0F3F8FFF743FF4FF424
:10301000E1316B4800F064FD684800F061FD4FF459
:103020007A7000F0B3F9674800F05AFD634800F089
:1030300057FD6548FFF7C0FC0346002B07D16348E6
:1030400000F04EFD624800F04BFD00F0D1F8FFF7B4
:1030500061FF4FF4FA715F4800F042FD574800F0FD
:103060003FFD00F009FB5C4800F03AFD534800F0DA
:1030700037FDFEF7FFF8594B9B681B0B03F001016E
:10308000564B9B685B0B03F00102544B9B689B0BF8
:1030900003F00103524800F023FD484800F020FDF2
:1030A000FFF7D6FE4D4B9B68DB0B03F0010319467F
:1030B0004C4800F015FD414800F012FDFFF7EAFA18
:1030C000464B9B6803F00101444B9B685B0803F08F
:1030D0000102424B9B68DB0803F001003F4B9B68F9
:1030E0005B0903F00103009303463F4800F0F8FC3E
:1030F000324800F0F5FCFEF7E3F8FEF74DF9034621
:10310000FB750020FFF7F0FD0346002B0CD03B1DA4
:1031100000211846FFF70AFE3B1D1846FFF71CFF6B
:103120003B1D1846FEF7E0F90120FFF7DDFD0346E1
:10313000002B0CD03B1D01211846FFF7F7FD3B1D6E
:103140001846FFF709FF3B1D1846FEF7CDF9FEF7BD
:1031500023F90346BB75BA7DFB7D9A42D1D0BB7D76
:10316000FB751E4BDB681D4A43F00B03D360BB7D30
:10317000022B06D0022B19DC002B09D0012B0ED01C
:1031800014E0164BDB68154A23F00103D3600DE011
:10319000124BDB68114A23F00203D36006E00F4BA9
:1031A000DB680E4A23F00803D36000BFBB7D1946DD
:1031B0000E4800F095FCA4E7B4710008EC7100081B
:1031C000287200086072000820A107008C720008B5
:1031D000AC720008E872000820730008000C01407F
:1031E000407300087C730008A8730008F07300089F
:1031F00080B400AF00BFBD4680BC704780B485B0CE
:1032000000AF154B9B69144A43F001039361124BC5
:103210009B6903F00103BB60BB680F4BDB690E4A7F
:1032200043F08053D3610C4BDB6903F080537B6028
:103230007B680A4B5B68FB60FB6823F0E063FB6024
:10324000FB6843F08063FB60044AFB68536000BF87
:103250001437BD4680BC704700100240000001409A
:1032600080B588B000AF786007F1100300221A60C3
:103270005A609A60DA607B681B681D4A934233D1BA
:103280001C4B9B691B4A43F008039361194B9B69D4
:1032900003F00803FB60FB68C0233B6112237B61E2
:1032A0000323FB6107F110031946134800F060FE89
:1032B000104BDB690F4A43F40013D3610D4BDB69FC
:1032C00003F40013BB60BB68002200211F2000F044
:1032D00092FD1F2000F0ABFD00220021202000F015
:1032E0008AFD202000F0A3FD00BF2037BD4680BD31
:1032F0000054004000100240000C014080B400AFB8
:1033000000BFFDE780B400AF00BFFDE780B400AFB1
:1033100000BFFDE780B400AF00BFFDE780B400AFA1
:1033200000BFFDE780B400AF00BFBD4680BC704762
:1033300080B400AF00BFBD4680BC704780B400AF12
:1033400000BFBD4680BC704780B500AF00F06AFC8E
:10335000034B1B680133024A136000BF80BD00BFEE
:10336000A402002080B500AF024801F04BF900BF75
:1033700080BD00BF5002002080B500AF024801F0C0
:10338000B2FA00BF80BD00BF5002002080B582B0FD
:1033900000AF786000F0A0F802467B68B2FBF3F360
:1033A000064A013B5360054B00229A60034B0722FB
:1033B0001A6000BF0837BD4680BD00BF10E000E0C6
:1033C00080B586B000AF7860144A154BD31A7B6184
:1033D0007B693B61134B1B68002B02D1114B124AD6
:1033E0001A60104B1A687B6813443A699A4207D2F4
:1033F00002F04AFE03460C221A604FF0FF3309E048
:10340000084B1B68FB60074B1A687B681344054A2E
:103410001360FB6818461837BD4680BD0050002079
:1034200000040000A80200209804002080B400AF2F
:10343000274B1B68264A43F48033136000BF244B9C
:103440001B6803F40033002BF9D0224B1B68214A80
:1034500043F0040313601F4B1B681E4A43F0100324
:1034600013601B4B5B681A4A43F4E0135360184B1C
:103470005B68174A43F480335360154B5B68144A0A
:1034800043F480635360124B5B68114A23F460532A
:1034900053600F4B1B680E4A43F08073136000BFEC
:1034A0000B4B1B6803F00073002BF9D0084B5B68D3
:1034B000074A43F00203536000BF054B5B6803F00B
:1034C0000C03082BF9D100BF1846BD4680BC7047DD
:1034D000001002400020024080B487B000AF264BAD
:1034E000BB60254B7B60254B5B689B0803F00303A7
:1034F0003B603B68022B0DD03B68022B35D83B6804
:10350000002B03D03B68012B02D02EE07B682DE01E
:10351000BB682BE0194B5B6803F48033002B10D0A1
:10352000164B5B6803F40033002B02D002233B618F
:1035300001E001233B61BA683B69B2FBF3F3FB6036
:1035400002E07B685B08FB600C4B5B689B0C03F044
:103550000F0302337B617B690F2B01D110237B6149
:10356000FB687A6902FB03F300E07B6818461C37AE
:10357000BD4680BC704700BF00127A0000100240B8
:10358000B0B592B000AF114B3C1D1D460FCD0FC41E
:103590000FCD0FC40FCD0FC495E80F0084E80F00C6
:1035A0000B4B5B681B0903F00F037B64FFF794FF71
:1035B00002467B6C9B0048333B4453F8443CB2FBCF
:1035C000F3F318464837BD46B0BD00BF007400088D
:1035D00000100240B0B58AB000AF0F4B3C1D1D4635
:1035E0000FCD0FC495E80F0084E80F000B4B5B680C
:1035F0001B0A03F007037B62FFF7C2FF02467B6AE8
:103600009B0028333B4453F8243CB2FBF3F31846A9
:103610002837BD46B0BD00BF40740008001002400E
:10362000B0B58AB000AF0F4B3C1D1D460FCD0FC487
:1036300095E80F0084E80F000B4B5B68DB0A03F092
:1036400007037B62FFF79CFF02467B6A9B002833DF
:103650003B4453F8243CB2FBF3F318462837BD46ED
:10366000B0BD00BF407400080010024080B400AF3D
:1036700000BFBD4680BC704780B483B000AF00235C
:103680007B6024E0164A7B681B01134400221A6009
:10369000134A7B681B011344043300221A60104A4A
:1036A0007B681B0113440C3300221A700C4A7B68A0
:1036B0001B011344083300221A60094A7B681B016E
:1036C00013440D3300221A707B6801337B607B68E2
:1036D000092BD7DD00BF00BF0C37BD4680BC70474B
:1036E000AC02002080B584B000AF7860254B9B69A8
:1036F000244A43F004039361224B9B69214A43F41B
:1037000080439361204B5B681F4A23F47F635360BF
:103710001D4B5B681C4A43F0B00353601A4B5B6857
:10372000194A43F480635360184B0022DA60FFF7B4
:1037300077FFF860FB68002B02D07B68002B01D17B
:1037400000231BE07B685A08FB681A447B68B2FBC5
:10375000F3F3BB600D4ABB6893600C4BDB680B4A0C
:1037600043F4005343F00C03D360084BDB6803F4CD
:103770000053002B01D1002300E00123184610372D
:10378000BD4680BD001002400008014000380140E5
:1037900080B485B000AF7860234B9B69224A43F028
:1037A00008039361204BDB691F4A43F48023D361F4
:1037B0001E4B5B681D4A23F4706353601B4B5B68B0
:1037C0001A4A43F440735360184B5B68174A43F43A
:1037D00000635360154B5B68144A23F470435360D5
:1037E000124B5B68114A43F480435360104B002234
:1037F000DA60104BFB607B685A08FB681A447B68F0
:10380000B2FBF3F3BB600A4ABB689360084BDB680A
:10381000074A43F4005343F00C03D36001231846D6
:103820001437BD4680BC704700100240000C0140B8
:10383000004800400051250280B483B000AF034629
:10384000FB7100BF0A4B1B6803F08003002BF9D00B
:10385000074AFB79536000BF054B1B6803F0400328
:10386000002BF9D000BF00BF0C37BD4680BC7047AD
:103870000048004080B582B000AF786006E07B6809
:103880005A1C7A601B781846FFF7D6FF7B681B78B6
:10389000002BF4D100BF00BF0837BD4680BD00003B
:1038A000B0B59CB000AFC7E902011346FB7100231D
:1038B000FB664FF000024FF00003D7E90201FCF76E
:1038C0008DFF0346002B0DD0FB6E5A1CFA66703339
:1038D0003B442D2203F84C2CBC68FB6883F0004568
:1038E000C7E90245D7E90201FDF7ECFA02460B46AB
:1038F000C7E91823D7E91801FCF7E2FE02460B4698
:10390000D7E90201FCF752FD02460B46C7E9162330
:1039100000237B65D7E918014FF00A024FF000033E
:10392000FDF780FAD2B27B6D591C79653032D2B284
:1039300070333B4403F8602CD7E918014FF00A02BA
:103940004FF00003FDF76EFA02460B46C7E9182355
:10395000D7E91823012A73F10003DBDA7B6D013B01
:103960003B650EE0FB6E5A1CFA6607F110013A6DDA
:103970000A44127870333B4403F84C2C3B6D013BF6
:103980003B653B6D002BEDDAFB6E5A1CFA6670331B
:103990003B442E2203F84C2C0023FB642BE04FF019
:1039A0000002224BD7E91601FCF7D2FB02460B4678
:1039B000C7E91623D7E91601FCF738FF03467B64F5
:1039C0007B6CDAB2FB6E591CF9663032D2B27033BE
:1039D0003B4403F84C2C786CFCF736FE02460B4651
:1039E000D7E91601FCF7E2FC02460B46C7E91623AD
:1039F000FB6C0133FB64FB79FA6C9A42CFDB00234A
:103A0000BB640AE007F12402BB6C13441B78184620
:103A1000FFF712FFBB6C0133BB64BA6CFB6E9A42BA
:103A2000F0DB00BF00BF7037BD46B0BD00002440D2
:103A300080B485B000AF786039600023FB600FE090
:103A400000BF104B1B6803F08003002BF9D07A688D
:103A5000FB6813441A780B4B5A60FB680133FB6018
:103A6000FA683B689A42EBD300BF064B1B6803F031
:103A70004003002BF9D000BF00BF1437BD4680BC07
:103A8000704700BF0038014080B485B000AF786057
:103A900039600023FB600FE000BF104B1B6803F090
:103AA0008003002BF9D07A68FB6813441A780B4B1B
:103AB0005A60FB680133FB60FA683B689A42EBD3BB
:103AC00000BF064B1B6803F04003002BF9D000BF7A
:103AD00000BF1437BD4680BC704700BF004800409F
:103AE0000FB480B5C2B000AF07F58A7207F58473D2
:103AF000A3F584731A6007F58473A3F58473381DE6
:103B00001B68D7F810214FF4807102F0AFFAC7F8A4
:103B10000401D7F80431002B0FDDD7F80431B3F5D9
:103B2000807F03D94FF48073C7F80431D7F804219C
:103B30003B1D11461846FFF7A7FF00BF07F5847726
:103B4000BD46BDE8804004B070470000FFF78EFD21
:103B50000B480C490C4A002302E0D458C4500433EB
:103B6000C4188C42F9D3094A094C002301E01360C0
:103B70000432A242FBD302F08DFAFFF725FA704718
:103B80000000002060000020AC74000860000020ED
:103B900098040020FEE7000080B500AF084B1B68CA
:103BA000074A43F010031360032000F019F90F20B7
:103BB00000F008F8FFF722FB0023184680BD00BF85
:103BC0000020024080B582B000AF7860124B1A68C6
:103BD000124B1B7819464FF47A73B3FBF1F3B2FB27
:103BE000F3F3184600F031F90346002B01D001230E
:103BF0000EE07B680F2B0AD8002279684FF0FF3067
:103C000000F0F9F8064A7B681360002300E0012306
:103C100018460837BD4680BD040000200C00002077
:103C20000800002080B400AF054B1B781A46054BF6
:103C30001B681344034A136000BFBD4680BC704735
:103C40000C0000204C03002080B485B000AF7860E9
:103C50007B6803F00703FB600C4BDB68BB60BA6852
:103C60004FF6FF031340BB60FB681A02BB681343A7
:103C700043F0BF6343F40033BB60044ABB68D360C6
:103C800000BF1437BD4680BC704700BF00ED00E0A8
:103C900080B400AF044BDB681B0A03F0070318462F
:103CA000BD4680BC704700BF00ED00E080B483B02B
:103CB00000AF0346FB7197F90730002B0BDBFB7954
:103CC00003F01F02064997F907305B09012000FA4B
:103CD00002F241F8232000BF0C37BD4680BC70477C
:103CE00000E100E080B483B000AF03463960FB71AF
:103CF00097F90730002B0ADB3B68DAB20C4997F9D9
:103D000007301201D2B20B4483F800230AE03B686B
:103D1000DAB20849FB7903F00F03043B1201D2B277
:103D20000B441A7600BF0C37BD4680BC704700BFFD
:103D300000E100E000ED00E080B489B000AFF86081
:103D4000B9607A60FB6803F00703FB61FB69C3F1AC
:103D50000703042B28BF0423BB61FB690433062B34
:103D600002D9FB69033B00E000237B614FF0FF3287
:103D7000BB6902FA03F3DA43BB681A407B699A40D5
:103D80004FF0FF317B6901FA03F3D9437B680B40A5
:103D9000134318462437BD4680BC704780B582B0B7
:103DA00000AF78607B68013BB3F1807F01D30123D2
:103DB0000FE00A4A7B68013B53600F214FF0FF3050
:103DC000FFF790FF054B00229A60044B07221A6010
:103DD000002318460837BD4680BD00BF10E000E054
:103DE00080B582B000AF78607868FFF72DFF00BF24
:103DF0000837BD4680BD80B586B000AF0346B960C8
:103E00007A60FB7300237B61FFF742FF78617A6879
:103E1000B9687869FFF790FF024697F90F301146AD
:103E20001846FFF75FFF00BF1837BD4680BD80B55D
:103E300082B000AF0346FB7197F907301846FFF7D1
:103E400035FF00BF0837BD4680BD80B582B000AFEA
:103E500078607868FFF7A2FF034618460837BD462A
:103E600080BD000080B584B000AF78600023FB7394
:103E70007B6893F82130DBB2022B05D07B680422EB
:103E80009A630123FB7351E07B681B681A687B68A7
:103E90001B6822F00E021A607B681B681A687B6838
:103EA0001B6822F001021A607B681B68224A934259
:103EB00029D07B681B68214A934222D07B681B680B
:103EC0001F4A93421AD07B681B681E4A934212D045
:103ED0007B681B681C4A93420AD07B681B681B4A9C
:103EE000934202D14FF480130EE04FF080730BE049
:103EF0004FF4803308E04FF4805305E04FF48073B3
:103F000002E0102300E00123114A53607B68012284
:103F100083F821207B68002283F820207B685B6B7C
:103F2000002B03D07B685B6B78689847FB7B184657
:103F30001037BD4680BD00BF080002401C00024093
:103F40003000024044000240580002406C00024031
:103F50000000024080B483B000AF78607B6893F8C3
:103F60002130DBB218460C37BD4680BC70470000DC
:103F700080B48BB000AF7860396000237B6200238F
:103F80003B6269E101227B6A02FA03F3FB613B6851
:103F90001B68FA691340BB61BA69FB699A4240F039
:103FA00058813B685B689A4A93425ED0984A934234
:103FB00075D8984A934258D0964A93426FD8964AF9
:103FC000934252D0944A934269D8944A93424CD037
:103FD000924A934263D8924A934246D0904A93427F
:103FE0005DD8122B2AD8122B59D801A252F823F0EF
:103FF0006B40000845400008574000089940000801
:104000009F4000089F4000089F4000089F40000814
:104010009F4000089F4000089F4000089F40000804
:104020009F4000089F4000089F4000089F400008F4
:104030009F4000084D40000861400008794A9342C3
:1040400013D02CE03B68DB683B6229E03B68DB680F
:1040500004333B6224E03B68DB6808333B621FE0CB
:104060003B68DB680C333B621AE03B689B68002BC3
:1040700002D104233B6213E03B689B68012B05D10E
:1040800008233B627B68FA691A6109E008233B62F6
:104090007B68FA695A6103E000233B6200E000BFDD
:1040A000BB69FF2B01D87B6801E07B6804337B612F
:1040B000BB69FF2B02D87B6A9B0002E07B6A083B4E
:1040C0009B003B617B691A680F213B6901FA03F38E
:1040D000DB431A40396A3B6901FA03F31A437B69EF
:1040E0001A603B685B6803F08053002B00F0B180DE
:1040F0004D4B9B694C4A43F0010393614A4B9B69CA
:1041000003F00103BB60BB68484A7B6A9B0802332B
:1041100052F82330FB607B6A03F003039B000F22FD
:1041200002FA03F3DB43FA681340FB607B68404A02
:10413000934213D07B683F4A93420DD07B683E4A3E
:10414000934207D07B683D4A934201D1032306E0A6
:10415000042304E0022302E0012300E000237A6A42
:1041600002F0030292009340FA681343FB602F4968
:104170007B6A9B080233FA6841F823203B685B683E
:1041800003F48013002B06D02D4B9A682C49BB6991
:1041900013438B6006E02A4B9A68BB69DB432849CE
:1041A00013408B603B685B6803F40013002B06D060
:1041B000234BDA682249BB691343CB6006E0204BEE
:1041C000DA68BB69DB431E491340CB603B685B6820
:1041D00003F40033002B06D0194B5A681849BB6909
:1041E00013434B6006E0164B5A68BB69DB43144926
:1041F00013404B603B685B6803F48033002B21D095
:104200000F4B1A680E49BB6913430B6021E000BFD6
:1042100000003210000031100000221000002110B8
:1042200000001210000011100010024000000140B8
:1042300000080140000C0140001001400014014042
:10424000000401400B4B1A68BB69DB43094913406A
:104250000B607B6A01337B623B681A687B6A22FAD7
:1042600003F3002B7FF48EAE00BF00BF2C37BD469A
:1042700080BC70470004014080B584B000AF786016
:104280007B68002B01D101232BE17B6893F83D3043
:10429000DBB2002B06D17B68002283F83C207868D3
:1042A000FEF7DEFF7B68242283F83D207B681B68D5
:1042B0001A687B681B6822F001021A607B681B6821
:1042C0001A687B681B6842F400421A607B681B68AE
:1042D0001A687B681B6822F400421A6001F084FEB1
:1042E000F8607B685B68814A934207D8FB68804A24
:1042F000934294BF01230023DBB206E0FB687D4AB2
:10430000934294BF01230023DBB2002B01D0012391
:10431000E7E0FB68784AA2FB03239B0CBB607B6849
:104320001B685B6823F03F017B681B68BA680A431F
:104330005A607B681B681B6A23F03F017B685B68DF
:104340006A4A934202D8BB68013309E0BB684FF464
:10435000967202FB03F3694AA2FB03239B09013314
:104360007A6812680B4313627B681B68DB6923F46D
:104370004F4222F0FF027B685B685C498B4219D890
:10438000FB68591E7B685B685B00B1FBF3F3591C4B
:1043900040F6FC730B40002B0AD0FB68591E7B686B
:1043A0005B685B00B1FBF3F30133C3F30B0351E034
:1043B00004234FE07B689B68002B11D1FB68581EDB
:1043C0007B6859680B465B000B44B0FBF3F3013389
:1043D000C3F30B03002B0CBF01230023DBB212E05D
:1043E000FB68581E7B6859680B469B000B4499007C
:1043F0000B44B0FBF3F30133C3F30B03002B0CBFEF
:1044000001230023DBB2002B01D0012322E07B68D3
:104410009B68002B0ED1FB68581E7B6859680B46C1
:104420005B000B44B0FBF3F30133C3F30B0343F422
:1044300000430FE0FB68581E7B6859680B469B00E1
:104440000B4499000B44B0FBF3F30133C3F30B03AC
:1044500043F44043796809681343CB617B681B6868
:104460001B6823F0C0017B68DA697B681B6A1A430A
:104470007B681B680A431A607B681B689B6823F48F
:10448000034323F0FF037A6811697A68D268114305
:104490007A6812680B4393607B681B68DB6823F0C3
:1044A000FF017B685A697B689B691A437B681B68BC
:1044B0000A43DA607B681B681A687B681B6842F0F5
:1044C00001021A607B6800221A647B68202283F84C
:1044D0003D207B6800221A637B68002283F83E201F
:1044E000002318461037BD4680BD00BFA0860100DE
:1044F0007F841E00FF083D0083DE1B43D34D621006
:1045000080B483B000AF78607B681B685B6903F0A0
:104510008003802B03D17B681B6800221A6100BFD7
:104520000C37BD4680BC704780B485B000AFF860E2
:10453000B9601346FB80FB6893F83D30DBB2202B5B
:1045400058D1BB68002B02D0FB88002B01D101237E
:1045500051E0FB6893F83C30012B01D102234AE083
:10456000FB68012283F83C20FB681B681B6803F092
:104570000103012B07D0FB681B681A68FB681B68E6
:1045800042F001021A60FB681B681A68FB681B682E
:1045900022F400621A60FB68222283F83D20FB6847
:1045A000202283F83E20FB6800221A64FB68BA6868
:1045B0005A62FB68FA885A85FB685B8D9AB2FB6881
:1045C0001A85FB680E4ADA62FB681B681A68FB688A
:1045D0001B6842F480621A60FB68002283F83C206A
:1045E000FB681B685A68FB681B6842F4E0625A600B
:1045F000002300E0022318461437BD4680BC7047F4
:104600000000FFFF80B588B000AF78600023BB6179
:104610007B681B685B687B617B68DB6A3B617B68EE
:1046200093F83E30FB737B6893F83D30BB73FB7BA4
:10463000102B03D0FB7B402B40F0C1807B681B68B4
:104640009B69BB617B681B685B69FB61FB6903F06D
:104650000103002B0DD13B69B3F52A0F03D03B6951
:10466000B3F12A4F01D1012300E00023012B00F018
:104670003281FB6903F00103002B0CD07B695B0ADC
:1046800003F00103002B06D0786801F089FC7868FC
:1046900000F087FD92E0FB69DB0803F00103002BCB
:1046A00009D07B695B0A03F00103002B03D0786813
:1046B00000F0FCFD82E0FB695B0803F00103002BC6
:1046C00009D07B695B0A03F00103002B03D07868F3
:1046D00000F015FE72E0BB699B0803F00103002B9C
:1046E0003BD07B681B685B6803F40063B3F5006F25
:1046F00000F0F380FB69DB0903F00103002B0FD00E
:104700007B699B0A03F00103002B09D0FB699B081E
:1047100003F00103002B03D1786800F0DFF94DE0CE
:10472000FB699B0803F00103002B00F0D6807B6936
:104730005B0A03F00103002B00F0CF80BB7B212B31
:1047400003D1786800F066FAC7E0FB7B402B40F0AD
:10475000C480786800F0D4FABFE07B681B685B68AF
:1047600003F40063B3F5006F00F0B780FB699B09A9
:1047700003F00103002B0FD07B699B0A03F00103B8
:10478000002B09D0FB699B0803F00103002B03D128
:10479000786800F04DFB11E0FB699B0803F0010312
:1047A000002B00F09A807B695B0A03F00103002B69
:1047B00000F09380786800F003FC8EE08DE07B6869
:1047C0001B6C002B04D07B681B685B69FB6107E0F6
:1047D0007B681B689B69BB617B681B685B69FB61CD
:1047E000FB695B0803F00103002B12D07B695B0AB5
:1047F00003F00103002B0CD07B681B6C002B03D053
:104800007B681B689B69BB61B969786800F0CEFF63
:1048100066E0FB691B0903F00103002B09D07B69EB
:104820005B0A03F00103002B03D0786801F008F85D
:1048300056E0BB7B212B02D0BB7B292B25D1FB690A
:10484000DB0903F00103002B0FD07B699B0A03F007
:104850000103002B09D0FB699B0803F00103002B27
:1048600003D1786800F0E6FE39E0FB699B0803F0AD
:104870000103002B33D07B695B0A03F00103002B9B
:104880002DD0786800F013FF29E0FB699B0903F045
:104890000103002B0FD07B699B0A03F00103002B5F
:1048A00009D0FB699B0803F00103002B03D1786852
:1048B00000F01DFF14E0FB699B0803F00103002BCF
:1048C0000ED07B695B0A03F00103002B08D07868E7
:1048D00000F04BFF04E000BF02E000BF00E000BFBB
:1048E0002037BD4680BD80B58AB000AF78607B6858
:1048F0001B685B693B627B681B685B68FB6100232C
:104900007B627B6893F83E30FB763B6A1B0A03F0C0
:104910000103002B16D0FB691B0A03F00103002BD7
:1049200010D07B6A43F001037B627B681B686FF4E5
:1049300080725A617B681B681A687B681B6842F446
:1049400000421A603B6A5B0A03F00103002B0ED0A1
:10495000FB691B0A03F00103002B08D07B6A43F0BC
:1049600002037B627B681B686FF400725A613B6ACA
:104970009B0A03F00103002B3FD0FB691B0A03F0E5
:104980000103002B39D0FB7EBB767B685B8D9BB22D
:104990007B617B6893F83D30FB747B681B6BFB602D
:1049A000BB7E202B12D17B69002B0FD1FB7C212BEE
:1049B00008D0FB7C292B05D0FB7C282B06D1FB687B
:1049C000212B03D1786801F06BF816E07B681B6837
:1049D0006FF480625A617B6A43F004037B62FB7E62
:1049E000102B02D0FB7E402B07D17B681B681A6816
:1049F0007B681B6842F400721A603B6ADB0A03F0B2
:104A00000103002B0ED0FB691B0A03F00103002BEE
:104A100008D07B6A43F008037B627B681B686FF4F5
:104A200000625A617B6A002B08D07B681A6C7B6A33
:104A30001A437B681A64786801F0A6F800BF28372B
:104A4000BD4680BD80B483B000AF786000BF0C3736
:104A5000BD4680BC704780B483B000AF786000BFB3
:104A60000C37BD4680BC704780B483B000AF78601F
:104A700000BF0C37BD4680BC704780B483B000AF28
:104A800078600B46FB7013463B8000BF0C37BD4679
:104A900080BC704780B483B000AF786000BF0C3733
:104AA000BD4680BC704780B483B000AF786000BF63
:104AB0000C37BD4680BC704780B483B000AF7860CF
:104AC00000BF0C37BD4680BC704780B483B000AFD8
:104AD000786000BF0C37BD4680BC704780B584B09D
:104AE00000AF78607B6893F83D30FB737B6893F888
:104AF0003E30BB737B68DB6ABB607B681B8D002B21
:104B000050D1FB7B212B4DD1BB68082B1DD0BB683E
:104B1000202B1AD0BB6813F5803F16D07B681B682A
:104B20005A687B681B6822F4E0625A607B68112235
:104B30001A637B68002283F83E207B68202283F87A
:104B40003D207868FFF77EFF60E07B681B685A684D
:104B50007B681B6822F4E0625A607B681B681A68F5
:104B60007B681B6842F400721A607B6800221A633B
:104B70007B68202283F83D207B6893F83E30DBB2CF
:104B8000402B07D17B68002283F83E207868FFF72E
:104B90008AFF3BE07B68002283F83E207868FFF7BD
:104BA00051FF33E0FB7B212B05D0BB7B402B2DD16C
:104BB000FB7B222B2AD17B685B8D9BB2002B08D11B
:104BC0007B681B685A687B681B6822F480625A60A5
:104BD0001CE07B6893F83E30DBB2402B03D1786851
:104BE00000F08EF812E07B685B6A1A787B681B68BD
:104BF0001A617B685B6A5A1C7B685A627B685B8DB2
:104C00009BB2013B9AB27B685A85FFE700BF103721
:104C1000BD4680BD80B584B000AF78607B68DB6A3C
:104C2000FB607B6893F83D30DBB2212B64D17B685D
:104C30005B8D9BB2002B12D07B685B6A1A787B6815
:104C40001B681A617B685B6A5A1C7B685A627B68C6
:104C50005B8D9BB2013B9AB27B685A854CE0FB6846
:104C6000082B1DD0FB68202B1AD0FB6813F5803F62
:104C700016D07B681B685A687B681B6822F4E06268
:104C80005A607B6811221A637B68002283F83E20F9
:104C90007B68202283F83D207868FFF7D3FE2BE065
:104CA0007B681B685A687B681B6822F4E0625A6064
:104CB0007B681B681A687B681B6842F400721A6084
:104CC0007B6800221A637B68202283F83D207B6882
:104CD00093F83E30DBB2402B07D17B68002283F88B
:104CE0003E207868FFF7DFFE06E07B68002283F84D
:104CF0003E207868FFF7A6FE00BF1037BD4680BD96
:104D000080B584B000AF78607B6893F83D30FB736A
:104D10007B681B6D002B1DD17B68DB6C012B0BD1DD
:104D20007B689B6CDAB27B681B681A617B681B6DC1
:104D30009A1C7B681A6577E07B689B6C9BB21B12A0
:104D4000DAB27B681B681A617B681B6D5A1C7B6832
:104D50001A6569E07B681B6D012B0BD17B689B6C2E
:104D6000DAB27B681B681A617B681B6D5A1C7B6812
:104D70001A6559E07B681B6D022B52D1FB7B222BFD
:104D80000DD17B681B681A687B681B6842F48072CF
:104D90001A607B681B6D5A1C7B681A6544E07B684F
:104DA0005B8D9BB2002B15D0FB7B212B12D17B6836
:104DB0005B6A1A787B681B681A617B685B6A5A1C9D
:104DC0007B685A627B685B8D9BB2013B9AB27B68C1
:104DD0005A8529E07B685B8D9BB2002B24D1FB7B3D
:104DE000212B21D17B681B685A687B681B6822F4E1
:104DF000E0625A607B681B681A687B681B6842F433
:104E000000721A607B6800221A637B68202283F894
:104E10003D207B68002283F83E207868FFF743FE40
:104E200002E07868FFF76CFB00BF1037BD4680BD1D
:104E300080B584B000AF78607B6893F83D30DBB21A
:104E4000222B40F0B9807B68DB6AFB607B685B8D5E
:104E50009BB2BB60BB68032B21D97B681B681A69B6
:104E60007B685B6AD2B21A707B685B6A5A1C7B688B
:104E70005A627B685B8D9BB2013B9AB27B685A8514
:104E80007B685B8D9BB2032B40F096807B681B6830
:104E90005A687B681B6822F480625A608CE07B68E9
:104EA000DB6A022B7FD0BB68012B02D0BB68002BD2
:104EB00079D1786801F042F80346002B4CD17B6829
:104EC0001B681A687B681B6822F480621A607B6822
:104ED0001B685A687B681B6822F4E0625A607B6832
:104EE0001B681A697B685B6AD2B21A707B685B6A5E
:104EF0005A1C7B685A627B685B8D9BB2013B9AB2FD
:104F00007B685A857B68202283F83D207B6893F874
:104F10003E30DBB2402B0AD17B68002283F83E2072
:104F20007B6800221A637868FFF7C6FD44E07B685F
:104F3000002283F83E20FB68082B02D0FB68202B60
:104F400003D17B6800221A6302E07B6812221A6395
:104F50007868FFF780FD2FE07B681B685A687B68E4
:104F60001B6822F4E0625A607B681B681A697B68E0
:104F70005B6AD2B21A707B685B6A5A1C7B685A62A1
:104F80007B685B8D9BB2013B9AB27B685A857B68DC
:104F9000202283F83D207B68002283F83E20786839
:104FA000FCF77AFA08E07B681B685A687B681B6824
:104FB00022F480625A60FFE700BF1037BD4680BD13
:104FC00080B584B000AF78607B68DB6AFB607B688B
:104FD0005B8D9BB2042B1BD17B681B685A687B6876
:104FE0001B6822F480625A607B681B681A697B68C0
:104FF0005B6AD2B21A707B685B6A5A1C7B685A6221
:105000007B685B8D9BB2013B9AB27B685A85C4E09A
:105010007B685B8D9BB2032B29D17B681B685A6828
:105020007B681B6822F480625A60FB68042B0AD0FC
:10503000FB68022B07D07B681B681A687B681B68BB
:1050400022F480621A607B681B681A697B685B6A5D
:10505000D2B21A707B685B6A5A1C7B685A627B68A2
:105060005B8D9BB2013B9AB27B685A8595E07B6869
:105070005B8D9BB2022B7DD1FB68012B02D0FB68BC
:10508000102B08D17B681B681A687B681B6822F4A8
:1050900080621A6016E0FB68042B02D0FB68022BCA
:1050A00008D17B681B681A687B681B6842F48062C1
:1050B0001A6007E07B681B681A687B681B6842F40B
:1050C00000721A607B681B681A697B685B6AD2B2DF
:1050D0001A707B685B6A5A1C7B685A627B685B8DBE
:1050E0009BB2013B9AB27B685A857B681B681A6940
:1050F0007B685B6AD2B21A707B685B6A5A1C7B68F9
:105100005A627B685B8D9BB2013B9AB27B685A8581
:105110007B681B685A687B681B6822F440725A607F
:105120007B68202283F83D207B6893F83E30DBB219
:10513000402B0AD17B68002283F83E207B68002246
:105140001A637868FFF7B8FC27E07B68002283F8D1
:105150003E20FB68082B02D0FB68202B03D17B6824
:1051600000221A6302E07B6812221A637868FFF754
:1051700072FC12E07B681B681A697B685B6AD2B2BA
:105180001A707B685B6A5A1C7B685A627B685B8D0D
:105190009BB2013B9AB27B685A8500BF1037BD466F
:1051A00080BD80B483B000AF78607B6893F83E30F8
:1051B000DBB2402B17D17B681B6D002B09D17B68BC
:1051C0005B6CDBB21A467B681B6802F0FE021A6158
:1051D00067E07B685B6CDBB243F00103DAB27B68AB
:1051E0001B681A615DE07B681B69B3F5804F33D1A2
:1051F0007B6893F83D30DBB2212B09D17B685B6C77
:10520000DBB21A467B681B6802F0FE021A6108E0F6
:105210007B685B6CDBB243F00103DAB27B681B682E
:105220001A617B685B6B002B04D07B685B6B9B6AAD
:10523000002B08D17B689B6B002B32D07B689B6B6B
:105240009B6A002B2DD07B681B685A687B681B68A3
:1052500042F400625A6024E07B681B6D002B0ED183
:105260007B685B6C9BB2DB11DBB203F00603DBB245
:1052700063F00F03DAB27B681B681A6111E07B6888
:105280001B6D012B0DD17B685B6C9BB2DB11DBB21C
:1052900003F00603DBB263F00E03DAB27B681B682F
:1052A0001A6100BF0C37BD4680BC704780B483B024
:1052B00000AF78607B685B6CDAB27B681B681A6150
:1052C0007B685B6B002B04D07B685B6B9B6A002B5D
:1052D00008D17B689B6B002B0CD07B689B6B9B6A17
:1052E000002B07D07B681B685A687B681B6842F4F8
:1052F00000625A6000BF0C37BD4680BC704780B466
:1053000091B000AF78607B6893F83E3087F83F300B
:105310007B68DB6ABB637B681B6B7B637B6893F892
:105320003D30DBB2222B40F074817B681B6D002B7B
:105330000FD197F83F30402B0BD100233B637B68A4
:105340001B685B693B637B681B689B693B633B6BCA
:105350006BE17B681B6D002B1DD17B681B69B3F56E
:10536000404F18D10023FB627B681B685B69FB62BE
:105370007B681B689B69FB62FB6A7B681B681A6819
:105380007B681B6842F480721A607B681B6D5A1C34
:105390007B681A6549E17B685B8D9BB2002B13D15A
:1053A0000023BB627B681B685B69BB627B681B6810
:1053B0009B69BB62BB6A7B681B681A687B681B6859
:1053C00042F400721A6020E17B685B8D9BB2012B76
:1053D00040F08A80BB6B13F5803F37D17B681B6838
:1053E0001A687B681B6822F480621A607B681B68FD
:1053F0005B6803F40063B3F5006F13D17B681B682F
:105400001A687B681B6822F480621A6000237B6242
:105410007B681B685B697B627B681B689B697B623E
:105420007B6AF2E000233B627B681B685B693B623E
:105430007B681B689B693B623B6A7B681B681A68D8
:105440007B681B6842F400721A60DEE0BB6B082BBD
:105450002ED0BB6B202B2BD07B6B122B02D1BB6BC6
:10546000012B25D1BB6B042B0ED0BB6B022B0BD0B9
:10547000BB6B102B08D07B681B681A687B681B68A5
:1054800022F480621A6007E07B681B681A687B68F8
:105490001B6842F480621A600023FB617B681B6812
:1054A0005B69FB617B681B689B69FB61FB69ACE026
:1054B0007B681B681A687B681B6822F480621A602C
:1054C0000023BB617B681B685B69BB617B681B68F1
:1054D0009B69BB61BB697B681B681A687B681B683A
:1054E00042F400721A6090E07B685B8D9BB2022BE5
:1054F00058D1BB6B042B21D0BB6B022B1ED0BB6BD6
:10550000102B1BD07B681B681A687B681B6842F4F1
:1055100000621A6000237B617B681B685B697B61AA
:105520007B681B689B697B617B697B681B681A6869
:105530007B681B6822F480621A6012E07B681B683B
:105540001A687B681B6842F480621A6000233B6122
:105550007B681B685B693B617B681B689B693B617F
:105560003B697B681B685B6803F40063B3F5006FFD
:105570004BD1BB6B13F5803F0BD0BB6B012B08D01D
:10558000BB6B082B05D0BB6B102B02D0BB6B202B49
:105590003BD17B681B685A687B681B6842F4805269
:1055A0005A6032E07B681B681A687B681B6842F4AB
:1055B00080621A607B681B685B6803F40063B3F564
:1055C000006F17D1BB6B13F5803F0BD0BB6B012B6A
:1055D00008D0BB6B082B05D0BB6B102B02D0BB6B6C
:1055E000202B07D17B681B685A687B681B6842F4D4
:1055F00080525A600023FB607B681B685B69FB601C
:105600007B681B689B69FB60FB687B6800221A65EE
:105610000BE00023BB607B681B685B69BB607B6839
:105620001B689B69BB60BB68FFE700BF4437BD4692
:1056300080BC704780B584B000AF78607B6893F819
:105640003D30FB737B685B8D9BB2002B2BD07B685E
:105650005B6A1A787B681B681A617B685B6A5A1CF4
:105660007B685A627B685B8D9BB2013B9AB27B6818
:105670005A857B685B8D9BB2002B14D1FB7B292B59
:1056800011D17B681B685A687B681B6822F48062B2
:105690005A607B6821221A637B68282283F83D20A8
:1056A0007868FFF7E1F900BF1037BD4680BD80B4D0
:1056B00083B000AF78607B685B8D9BB2002B11D00C
:1056C0007B685B6A1A787B681B681A617B685B6A17
:1056D0005A1C7B685A627B685B8D9BB2013B9AB215
:1056E0007B685A8500BF0C37BD4680BC704780B5CB
:1056F00084B000AF78607B6893F83D30FB737B68C3
:105700005B8D9BB2002B2CD07B681B681A697B6871
:105710005B6AD2B21A707B685B6A5A1C7B685A62F9
:105720007B685B8D9BB2013B9AB27B685A857B6834
:105730005B8D9BB2002B14D1FB7B2A2B11D17B6894
:105740001B685A687B681B6822F480625A607B6819
:1057500022221A637B68282283F83D207868FBF7B1
:1057600085FE00BF1037BD4680BD80B483B000AF5A
:1057700078607B685B8D9BB2002B12D07B681B68C6
:105780001A697B685B6AD2B21A707B685B6A5A1CC2
:105790007B685A627B685B8D9BB2013B9AB27B68E7
:1057A0005A8500BF0C37BD4680BC704780B584B0B9
:1057B00000AF786039600023FB737B6893F83D305D
:1057C000DBB203F02803282B27D17B681B685A68BB
:1057D0007B681B6822F480625A603B689B0803F078
:1057E0000103002B01D10123FB733B68DB0903F0AC
:1057F0000103002B03D17B68DB68BB8102E07B687F
:105800009B69BB817B68002283F83C20BA89FB7BC3
:1058100019467868FFF731F90EE00023BB607B681A
:105820001B685B69BB607B681B689B69BB60BB686E
:105830007B68002283F83C2000BF1037BD4680BD46
:1058400080B584B000AF78607B6893F83D30FB731F
:105850007B681B685A687B681B6822F4E0625A60A8
:105860000023BB607B681B685B69BB607B681B684F
:105870001A687B681B6842F001021A60BB687B688B
:105880001B681A687B681B6822F480621A607B6858
:105890001B685B6803F40063B3F5006F72D1FB7B98
:1058A000222B02D0FB7B2A2B35D17B689B6B1B689C
:1058B0005B689AB27B685A857B685B8D9BB2002BD4
:1058C00005D07B681B6C43F004027B681A647B681C
:1058D0001B685A687B681B6822F400625A607B6808
:1058E0009B6B1846FEF736FB0346012B49D07B68BD
:1058F0009B6B694A5A637B689B6B1846FEF7B2FA4A
:105900000346002B3DD07B689B6B5B6B7A68926B88
:105910001046984735E07B685B6B1B685B689AB202
:105920007B685A857B685B8D9BB2002B05D07B68BA
:105930001B6C43F004027B681A647B681B685A681E
:105940007B681B6822F400625A607B685B6B1846B8
:10595000FEF700FB0346012B14D07B685B6B4E4ABD
:105960005A637B685B6B1846FEF77CFA0346002B94
:1059700008D07B685B6B5B6B7A68526B104698470C
:1059800000E000BF7B685B8D9BB2002B3ED07B6844
:105990001B685B6903F00403042B12D17B681B684E
:1059A0001A697B685B6AD2B21A707B685B6A5A1CA0
:1059B0007B685A627B685B8D9BB2013B9AB27B68C5
:1059C0005A857B681B685B6903F04003402B12D14A
:1059D0007B681B681A697B685B6AD2B21A707B6845
:1059E0005B6A5A1C7B685A627B685B8D9BB2013B89
:1059F0009AB27B685A857B685B8D9BB2002B05D081
:105A00007B681B6C43F004027B681A647B681B6C28
:105A1000002B03D0786800F0B7F839E0FB7B2A2B25
:105A200009D17B6800221A637B68282283F83D2015
:105A30007868FBF71BFD7B6893F83D30DBB2282BC1
:105A400011D17B68154ADA627B6800221A637B6891
:105A5000202283F83D207B68002283F83E2078686E
:105A6000FFF718F814E07B681B6B222B02D0FB7B3E
:105A7000222B0DD17B6800221A637B68202283F8D9
:105A80003D207B68002283F83E207868FBF7EEFC1F
:105A900000BF1037BD4680BDED5D00080000FFFF70
:105AA00080B584B000AF78607B6893F83D30FB73BD
:105AB0007B68DB6ABB60BB68082B02D0BB68202B0D
:105AC00029D1FB7B282B26D17B682E4ADA627B68A2
:105AD0001B685A687B681B6822F4E0625A607B6826
