:020000040800F2
:10000000005000205D390008693000087130000898
:1000100079300008813000088930000800000000B5
:100020000000000000000000000000009130000807
:100030009D30000800000000A9300008B53000081D
:10004000A5390008A5390008A5390008A539000818
:10005000A5390008A5390008A5390008A539000808
:10006000A5390008A5390008A5390008A5390008F8
:10007000A5390008A5390008A5390008A5390008E8
:10008000A5390008A5390008A5390008A5390008D8
:10009000A5390008A5390008A5390008A5390008C8
:1000A000A5390008A5390008A5390008A5390008B8
:1000B000A5390008A5390008A5390008D130000885
:1000C000E5300008A5390008A5390008A539000861
:1000D000A5390008A5390008A5390008A539000888
:1000E000A5390008A5390008A5390008000000005E
:1000F0000000000000000000000000000000000000
:0C01000000000000000000005FF808F1A3
:1001100010B5054C237833B9044B13B10448AFF341
:1001200000800123237010BD60000020000000004B
:10013000A467000808B5034B1BB103490348AFF39C
:10014000008008BD0000000064000020A4670008D3
:1001500070B54FF0FF0C4CF4E06C1CEA11541DBF5D
:100160001CEA135594EA0C0F95EA0C0F00F0DEF828
:100170002C4481EA030621EA4C5123EA4C5350EA0D
:10018000013518BF52EA033541F4801143F480135E
:1001900038D0A0FB02CE4FF00005E1FB02E506F0EF
:1001A0000042E0FB03E54FF00006E1FB03569CF044
:1001B000000F18BF4EF0010EA4F1FF04B6F5007F4A
:1001C00064F5407404D25FEA4E0E6D4146EB0606BC
:1001D00042EAC62141EA55514FEAC52040EA5E5045
:1001E0004FEACE2EB4F1FD0C88BFBCF5E06F1ED8EF
:1001F000BEF1004F08BF5FEA500E50F1000041EB26
:10020000045170BD06F0004646EA010140EA0200D2
:1002100081EA0301B4EB5C04C2BFD4EB0C0541EAF4
:10022000045170BD41F480114FF0000E013C00F309
:10023000AB8014F1360FDEBF002001F0004170BD2D
:10024000C4F10004203C35DA0C341BDC04F1140446
:10025000C4F1200500FA05F320FA04F001FA05F2D2
:1002600040EA020001F0004221F0004110EBD3709F
:1002700021FA04F642EB06015EEA430E08BF20EACB
:10028000D37070BDC4F10C04C4F1200500FA04F36E
:1002900020FA05F001FA04F240EA020001F0004100
:1002A00010EBD37041F100015EEA430E08BF20EA73
:1002B000D37070BDC4F1200500FA05F24EEA020EBB
:1002C00020FA04F301FA05F243EA020321FA04F0EA
:1002D00001F0004121FA04F220EA020000EBD370A1
:1002E0005EEA430E08BF20EAD37070BD94F0000FA1
:1002F0000FD101F00046400041EB010111F4801FD5
:1003000008BF013CF7D041EA060195F0000F18BF85
:10031000704703F00046520043EB030313F4801FC1
:1003200008BF013DF7D043EA0603704794EA0C0F7B
:100330000CEA135518BF95EA0C0F0CD050EA410691
:1003400018BF52EA4306D1D181EA030101F000410E
:100350004FF0000070BD50EA410606BF1046194636
:1003600052EA430619D094EA0C0F02D150EA013642
:1003700013D195EA0C0F05D152EA03361CBF104683
:1003800019460AD181EA030101F0004141F0FE4122
:1003900041F470014FF0000070BD41F0FE4141F4A6
:1003A000780170BD81F0004102E000BF83F000439E
:1003B00030B54FEA41044FEA430594EA050F08BF00
:1003C00090EA020F1FBF54EA000C55EA020C7FEAC4
:1003D000645C7FEA655C00F0E2804FEA5454D4EB41
:1003E0005555B8BF6D420CDD2C4480EA020281EA0B
:1003F000030382EA000083EA010180EA020281EA43
:100400000303362D88BF30BD11F0004F4FEA013194
:100410004FF4801C4CEA113102D0404261EB4101A3
:1004200013F0004F4FEA03334CEA133302D0524229
:1004300063EB430394EA050F00F0A780A4F10104E5
:10044000D5F1200E0DDB02FA0EFC22FA05F280181F
:1004500041F1000103FA0EF2801843FA05F3594105
:100460000EE0A5F120050EF1200E012A03FA0EFC84
:1004700028BF4CF0020C43FA05F3C01851EBE371AE
:1004800001F0004507D54FF0000EDCF1000C7EEBCB
:1004900000006EEB0101B1F5801F1BD3B1F5001F09
:1004A0000CD349085FEA30004FEA3C0C04F1010428
:1004B0004FEA445212F5800F80F09A80BCF1004F51
:1004C00008BF5FEA500C50F1000041EB045141EAD3
:1004D000050130BD5FEA4C0C404141EB0101013C9C
:1004E00028BFB1F5801FE9D291F0000F04BF01468B
:1004F0000020B1FA81F308BF2033A3F10B03B3F15D
:1005000020020CDA0C3208DD02F1140CC2F10C02EC
:1005100001FA0CF021FA02F10CE002F11402D8BF4A
:10052000C2F1200C01FA02F120FA0CFCDCBF41EA16
:100530000C019040E41AA2BF01EB0451294330BDE5
:100540006FEA04041F3C1CDA0C340EDC04F11404C2
:10055000C4F1200220FA04F001FA02F340EA030099
:1005600021FA04F345EA030130BDC4F10C04C4F1DF
:10057000200220FA02F001FA04F340EA03002946BF
:1005800030BD21FA04F0294630BD94F0000F83F409
:10059000801306BF81F480110134013D4EE77FEAEC
:1005A000645C18BF7FEA655C29D094EA050F08BF38
:1005B00090EA020F05D054EA000C04BF1946104619
:1005C00030BD91EA030F1EBF0021002030BD5FEA5D
:1005D000545C05D14000494128BF41F0004130BD85
:1005E00014F580043CBF01F5801130BD01F00045D9
:1005F00045F0FE4141F470014FF0000030BD7FEA4C
:10060000645C1ABF194610467FEA655C1CBF0B4646
:10061000024650EA013406BF52EA033591EA030F5D
:1006200041F4002130BD00BF90F0000F04BF002155
:10063000704730B54FF4806404F132044FF0000588
:100640004FF0000150E700BF90F0000F04BF002101
:10065000704730B54FF4806404F1320410F0004567
:1006600048BF40424FF000013EE700BF42004FEA62
:10067000E2014FEA31014FEA02701FBF12F07F43DF
:1006800093F07F4F81F06051704732F07F4208BF96
:10069000704793F07F4F04BF41F40021704730B59D
:1006A0004FF4607401F0004521F000411CE700BFE9
:1006B00050EA010208BF704730B54FF000050AE06C
:1006C00050EA010208BF704730B511F0004502D56D
:1006D000404261EB41014FF4806404F132045FEA6F
:1006E000915C3FF4D8AE4FF003025FEADC0C18BF18
:1006F00003325FEADC0C18BF033202EBDC02C2F10A
:10070000200300FA03FC20FA02F001FA03FE40EA9B
:100710000E0021FA02F11444BDE600BF4FF0FF3C89
:1007200006E000BF4FF0010C02E000BF4FF0010CEB
:100730004DF804CD4FEA410C7FEA6C5C4FEA430C64
:1007400018BF7FEA6C5C1BD001B050EA410C0CBFB3
:1007500052EA430C91EA030F02BF90EA020F002015
:10076000704710F1000F91EA030F58BF994208BF7C
:1007700090422CBFD8176FEAE37040F00100704739
:100780004FEA410C7FEA6C5C02D150EA013C07D190
:100790004FEA430C7FEA6C5CD6D152EA033CD3D0DB
:1007A0005DF8040B704700BF8446104662468C46D5
:1007B0001946634600E000BF01B5FFF7B7FF002808
:1007C00048BF10F1000F01BD4DF808EDFFF7F4FF31
:1007D0000CBF012000205DF808FB00BF4DF808EDBC
:1007E000FFF7EAFF34BF012000205DF808FB00BFDF
:1007F0004DF808EDFFF7E0FF94BF012000205DF801
:1008000008FB00BF4DF808EDFFF7CEFF94BF0120B5
:1008100000205DF808FB00BF4DF808EDFFF7C4FFAE
:1008200034BF012000205DF808FB00BF4FEA410201
:1008300012F5001215D211D56FF47873B3EB625232
:1008400012D94FEAC12343F0004343EA505311F059
:10085000004F23FA02F018BF404270474FF00000EB
:10086000704750EA013005D111F0004008BF6FF029
:10087000004070474FF00000704700BF80F000401C
:1008800002E000BF81F0004142001FBF5FEA410368
:1008900092EA030F7FEA226C7FEA236C6AD04FEA68
:1008A0001262D2EB1363C1BFD218414048404140AD
:1008B000B8BF5B42192B88BF704710F0004F40F45F
:1008C000000020F07F4018BF404211F0004F41F47B
:1008D000000121F07F4118BF494292EA030F3FD047
:1008E000A2F1010241FA03FC10EB0C00C3F120035A
:1008F00001FA03F100F0004302D5494260EB4000E9
:10090000B0F5000F13D3B0F1807F06D340084FEA53
:10091000310102F10102FE2A51D2B1F1004F40EB48
:10092000C25008BF20F0010040EA030070474900B0
:1009300040EB0000013A28BFB0F5000FEDD2B0FA4D
:1009400080FCACF1080CB2EB0C0200FA0CF0AABF70
:1009500000EBC25052421843BCBFD040184370470E
:1009600092F0000F81F4000106BF80F40000013214
:10097000013BB5E74FEA41037FEA226C18BF7FEAEB
:10098000236C21D092EA030F04D092F0000F08BF2D
:100990000846704790EA010F1CBF0020704712F014
:1009A0007F4F04D1400028BF40F00040704712F153
:1009B00000723CBF00F50000704700F0004343F0B8
:1009C000FE4040F4000070477FEA226216BF0846EE
:1009D0007FEA23630146420206BF5FEA412390EAB1
:1009E000010F40F4800070474FF0000304E000BFA7
:1009F00010F0004348BF40425FEA000C08BF704758
:100A000043F0964301464FF000001CE050EA01021B
:100A100008BF70474FF000030AE000BF50EA010230
:100A200008BF704711F0004302D5404261EB41011D
:100A30005FEA010C02BF84460146002043F0B64342
:100A400008BFA3F18053A3F50003BCFA8CF2083A67
:100A5000A3EBC25310DB01FA02FC634400FA02FC70
:100A6000C2F12002BCF1004F20FA02F243EB020077
:100A700008BF20F00100704702F1200201FA02FCD9
:100A8000C2F1200250EA4C0021FA02F243EB0200CC
:100A900008BF20EADC7070474FF0FF0C1CEAD05210
:100AA0001EBF1CEAD15392EA0C0F93EA0C0F6FD0D1
:100AB0001A4480EA010C400218BF5FEA41211ED0AF
:100AC0004FF0006343EA501043EA5111A0FB01319B
:100AD0000CF00040B1F5000F3EBF490041EAD37170
:100AE0005B0040EA010062F17F02FD2A1DD8B3F1EC
:100AF000004F40EBC25008BF20F00100704790F05B
:100B0000000F0CF0004C08BF49024CEA502040EAAC
:100B100051207F3AC2BFD2F1FF0340EAC250704772
:100B200040F400004FF00003013A5DDC12F1190FB0
:100B3000DCBF00F000407047C2F10002410021FA22
:100B400002F1C2F1200200FA02FC5FEA310040F13A
:100B5000000053EA4C0308BF20EADC70704792F0B3
:100B6000000F00F0004C02BF400010F4000F013AEB
:100B7000F9D040EA0C0093F0000F01F0004C02BFE6
:100B8000490011F4000F013BF9D041EA0C018FE755
:100B90000CEAD15392EA0C0F18BF93EA0C0F0AD05B
:100BA00030F0004C18BF31F0004CD8D180EA010081
:100BB00000F00040704790F0000F17BF90F0004F1A
:100BC000084691F0000F91F0004F14D092EA0C0FFC
:100BD00001D142020FD193EA0C0F03D14B0218BF8F
:100BE000084608D180EA010000F0004040F0FE40D5
:100BF00040F40000704740F0FE4040F44000704771
:100C00004FF0FF0C1CEAD0521EBF1CEAD15392EAEF
:100C10000C0F93EA0C0F69D0A2EB030280EA010CDF
:100C200049024FEA402037D04FF0805343EA111178
:100C300043EA10130CF000408B4238BF5B0042F1D6
:100C40007D024FF4000C8B4224BF5B1A40EA0C007B
:100C5000B3EB510F24BFA3EB510340EA5C00B3EBAD
:100C6000910F24BFA3EB910340EA9C00B3EBD10F9B
:100C700024BFA3EBD10340EADC001B0118BF5FEAED
:100C80001C1CE0D1FD2A3FF650AF8B4240EBC25016
:100C900008BF20F0010070470CF0004C4CEA5020D7
:100CA0007F32C2BFD2F1FF0340EAC250704740F426
:100CB00000004FF00003013A37E792F0000F00F018
:100CC000004C02BF400010F4000F013AF9D040EA96
:100CD0000C0093F0000F01F0004C02BF490011F42A
:100CE000000F013BF9D041EA0C0195E70CEAD15322
:100CF00092EA0C0F08D142027FF47DAF93EA0C0F09
:100D00007FF470AF084676E793EA0C0F04D14B02EC
:100D10003FF44CAF08466EE730F0004C18BF31F09E
:100D2000004CCAD130F000427FF45CAF31F0004398
:100D30007FF43CAF5FE700BF4FF0FF3C06E000BF31
:100D40004FF0010C02E000BF4FF0010C4DF804CD54
:100D50004FEA40024FEA41037FEA226C18BF7FEA64
:100D6000236C11D001B052EA530C18BF90EA010F66
:100D700058BFB2EB030088BFC81738BF6FEAE170F5
:100D800018BF40F0010070477FEA226C02D15FEA91
:100D9000402C05D17FEA236CE4D15FEA412CE1D0FD
:100DA0005DF8040B704700BF844608466146FFE7C4
:100DB0000FB5FFF7C9FF002848BF10F1000F0FBDA6
:100DC0004DF808EDFFF7F4FF0CBF012000205DF89F
:100DD00008FB00BF4DF808EDFFF7EAFF34BF012024
:100DE00000205DF808FB00BF4DF808EDFFF7E0FFBD
:100DF00094BF012000205DF808FB00BF4DF808ED0E
:100E0000FFF7D2FF94BF012000205DF808FB00BF70
:100E10004DF808EDFFF7C8FF34BF012000205DF852
:100E200008FB00BF7BB972B90029BEBF00204FF09C
:100E3000004106E008BF00281CBF6FF000414FF0E2
:100E4000FF3000F0F5B9ADF1080C6DE904CE0029D2
:100E500009DB002B1ADB00F06BF8DDF804E0DDE9BC
:100E6000022304B07047404261EB4101002B1BDBC1
:100E700000F05EF8DDF804E0DDE9022304B0404252
:100E800061EB4101524263EB43037047524263EB13
:100E9000430300F04DF8DDF804E0DDE9022304B07F
:100EA000404261EB41017047524263EB430300F063
:100EB0003FF8DDF804E0DDE9022304B0524263EBC1
:100EC0004303704738B50022002304460D46FFF760
:100ED00085FC28B920462946BDE8384000F00AB80C
:100EE000204605F1004100F005F8404261EB410168
:100EF00038BD00BFD0B500220B4B06460F46FFF7AA
:100F000027F900F097F90446FFF78EFB0022074B04
:100F1000FFF71EF902460B4630463946FFF746FA00
:100F200000F088F92146D0BD0000F03D0000F041FE
:100F30002DE9F047089D8E4604468846002B4AD18D
:100F40008A42174662D9B2FA82F64EB1C6F1200340
:100F500001FA06F820FA03F3B74043EA0808B44060
:100F60004FEA174EB8FBFEF11FFA87FC0EFB118803
:100F700001FB0CF2230C43EA08439A4209D9FB18FF
:100F800001F1FF3080F0EB809A4240F2E8800239B4
:100F90003B449A1AB2FBFEF00EFB102200FB0CFC45
:100FA000A3B243EA02439C4509D9FB1800F1FF3282
:100FB00080F0D7809C4540F2D4803B44023840EA20
:100FC00001400021A3EB0C031DB10022F340C5E951
:100FD0000032BDE8F0878B4205D90DB1C5E90001AB
:100FE00000210846F5E7B3FA83F1002946D173459D
:100FF00002D3824200F20881841A6EEB03020120C0
:101000009046002DE5D0C5E90048E2E7002A00F04F
:101010009180B2FA82F6002E40F0A5808A1A012152
:10102000030C4FEA174E80B2BCB2B2FBFEFC0EFBC3
:101030001C2243EA024304FB0CF29A4207D9FB1834
:101040000CF1FF3802D29A4200F2E380C4469B1AA8
:10105000B3FBFEF20EFB123302FB04F440EA03433F
:101060009C4207D9FB1802F1FF3002D29C4200F2E9
:10107000CD8002461B1B42EA0C40A5E7C1F12006C9
:101080008B4022FA06F71F432EFA06FA4FEA174959
:10109000BAFBF9F80EFA01FE20FA06F309FB18AACA
:1010A0001FFA87FC43EA0E0300FA01FE08FB0CF06E
:1010B0001C0C44EA0A44A04202FA01F20AD93C1983
:1010C00008F1FF3A80F09E80A04240F29B80A8F198
:1010D00002083C44241A98B2B4FBF9F309FB134408
:1010E00003FB0CFC40EA0444A44509D93C1903F174
:1010F000FF3080F08580A44540F28280023B3C4472
:1011000043EA0840A4EB0C04A0FB028C6445434670
:10111000E14664D361D05DB1BEEB030264EB090428
:1011200004FA06F622FA01F31E43CC40C5E9006436
:1011300000214EE7B1FBF2FC010C41EA0E4180B206
:1011400040EA01423B46B1FBF7F138463C46B8461F
:10115000BE462026A2EB080241EA0C4165E70146A3
:1011600017E710462BE7C6F120012EFA01FCB74025
:101170000EFA06FE20FA01F141EA0E014FEA174E7F
:10118000BCFBFEF8BCB20EFB18CC08FB04F90A0C41
:1011900042EA0C42B04091454FEA104380B23ED93A
:1011A000BA1808F1FF3C01D291451FD8A2EB090201
:1011B000B2FBFEF909FB04F80EFB192A8AB242EAD7
:1011C0000A42424529D2BA1809F1FF31C2D242453A
:1011D000C0D2A9F102013A44BCE7C6459BD2B8EBA4
:1011E00002036CEB070C0138E14694E7A7EB090911
:1011F0004A44B2FBFEF9A8F1020C09FB04F8DBE754
:1012000003467DE7D04665E70846FAE63B44023AE6
:1012100030E7ACF1020C3B4419E749469AE7A2EBF0
:101220000902B2FBFEF9C44609FB04F8C4E700BF9B
:10123000704700BF4A0011D212F5001211D20DD52D
:101240006FF47873B3EB62520ED44FEAC12343F0CC
:10125000004343EA505323FA02F070474FF0000076
:10126000704750EA013002D14FF0FF3070474FF025
:101270000000704780B400AF0E4B9B690D4A43F0ED
:10128000080393610C4B5B680B4A9BB253600A4B9B
:101290005B68094A43F04C7343F440335360064B98
:1012A000DB68054A43F4E043D36000BFBD4680BC21
:1012B000704700BF00100240000C014080B500AF35
:1012C000154B164A1A60144B154A5A60124B0022ED
:1012D0009A60114BAA22DA600F4B4FF480421A61D8
:1012E0000D4B00225A610C4B00229A610A4B0022DE
:1012F000DA61094B00221A62074802F0C5FE034674
:10130000002B01D001F004FE02220649024803F03E
:1013100013F800BF80BD00BF280300200054004028
:10132000801A06008000002080B582B000AF78608F
:10133000054B01221A7002220449054802F0FCFF05
:1013400000BF0837BD4680BD7C0000208000002023
:101350002803002080B582B000AF78607B681B68EE
:101360000C4A934212D10C4B1B690B4A43F40013F5
:101370001361094B1B69084A23F400131361FFF73B
:101380009DFF02220549064802F0D6FF00BF08373C
:10139000BD4680BD00540040001002408000002087
:1013A0002803002080B582B000AF78607B681B689E
:1013B000B3F1404F00F08380B3F1404F00F28080E2
:1013C000414A934274D0404A934279D83F4A93426B
:1013D00067D03E4A934273D83D4A93425AD03C4A22
:1013E00093426DD8B32B2DD8A12B69D3A13B122BDF
:1013F00066D801A252F823F04F140008C114000867
:10140000C1140008C1140008C1140008C114000868
:10141000C1140008C1140008C1140008C114000858
:10142000C1140008C1140008C11400085D140008AC
:101430006B140008C1140008C1140008C11400088E
:101440007914000840F2AA3293421CD038E07B683D
:1014500007332049184600F0B7FF31E07B680733B7
:101460001D49184600F0A2FE2AE07B6807331B499D
:10147000184600F09DFD23E07B68073318491846A5
:1014800000F0C8F91CE07B6807331649184600F0E5
:101490001FFC15E07B6807331349184600F0CCFCAD
:1014A0000EE07B6807331149184600F035F907E074
:1014B0007B6807330E49184600F03AFB00E000BF96
:1014C00000BF0837BD4680BD5732961840502718D8
:1014D000405026180003002080020020080200204F
:1014E000A0000020C0010020E801002088000020AA
:1014F000600100202DE9B00F8BB000AFF860B9603B
:101500007A607B68002B02DD7B68402B04DD4FF0A6
:1015100000024FF0000351E04FF000024FF00003D3
:10152000C7E90823BB68002B00DA0733DB10FB6137
:10153000BB685A4203F0070302F0070258BF534248
:10154000BB6100237B6133E00023FB74FB69002B4C
:101550000EDBFB69072B0BDCFB69FA6813441B7875
:101560001A46BB6942FA03F3DBB203F00103FB74D2
:10157000D7E9082312EB020A43EB030B52465B4602
:10158000F97C00200C46054642EA040843EA0509B6
:10159000C7E90889BB69013BBB61BB69002B04DA61
:1015A000FB690133FB610723BB617B6901337B610D
:1015B0007A697B689A42C7DBD7E908231046194647
:1015C0002C37BD46BDE8B00F70472DE9F00F92B043
:1015D00000AF78623962FA61FB69002B02D0FB69C7
:1015E000402B04DD4FF000054FF000068AE03B6A17
:1015F0003F2B04DD4FF000054FF0000682E03A6A11
:10160000FB691344402B04DD4FF000054FF000064A
:1016100078E04FF000024FF00003C7E910230023E9
:10162000FB6320E0D7E910234FF000004FF00001EA
:10163000190241EA12611002FA6B7B6A13441B78AB
:10164000DBB20022BB60FA60D7E902341A460243DB
:101650003A6023460B437B60D7E90034C7E9103476
:10166000FB6B0133FB63FB6B072BDBDDFB69402B63
:1016700002D1D7E9105645E0D7E91023396AC1F104
:101680002004A1F1200022FA01FA03FA04F44AEA44
:10169000040A23FA00F04AEA000A23FA01FBC7E928
:1016A0000CABFB69402B1BD04FF001024FF0000345
:1016B000F969A1F12004C1F1200003FA01F902FA4D
:1016C00004F449EA040922FA00F049EA000902FA9E
:1016D00001F818F1FF333B6149F1FF337B6105E00D
:1016E0004FF0FF334FF0FF34C7E90434D7E9043437
:1016F000C7E90A34D7E90C01D7E90A2300EA020551
:1017000001EA03062A463346104619464837BD46C5
:10171000BDE8F00F7047000080B588B000AF78607A
:1017200039603B68002B62D0202220217868FFF7C7
:101730004CFFC7E90601D7E90601FEF7B9FF2EA362
:10174000D3E90023FEF704FD02460B461046194676
:101750004FF000024FF00003FEF72AFE02460B4650
:101760003968C1E90023102210217868FFF72DFFA6
:10177000C7E90401D7E90401FEF79AFF02460B46C8
:101780003968C1E90223102200217868FFF71DFFA4
:10179000C7E90201D7E90201FEF78AFF4FF0000214
:1017A000174BFEF703FE02460B463968C1E90423D6
:1017B000144801F093FF3B68D3E90001032201F0D4
:1017C000A3FF114801F08AFF3B68D3E9020103221D
:1017D00001F09AFF0D4801F081FF3B68D3E9040155
:1017E000032201F091FF0A4801F078FF00E000BFFA
:1017F0002037BD4680BD00BF9A9999999999B93F04
:101800000000D040BC670008CC670008E067000813
:10181000F867000880B582B000AF786039603B6837
:10182000002B00F08181082200217868FFF7CDFEAF
:1018300002460B4610461946FEF73AFF02460B4693
:101840003968C1E90023082208217868FFF7BDFE46
:1018500002460B4610461946FEF72AFF02460B4683
:101860003968C1E90223082210217868FFF7ADFE2C
:1018700002460B4610461946FEF71AFF02460B4673
:101880003968C1E90423082218217868FFF79DFE12
:1018900002460B4610461946FEF70AFF02460B4663
:1018A0003968C1E90623082220217868FFF78DFEF8
:1018B00002460B4610461946FEF7FAFE02460B4654
:1018C0003968C1E90823082228217868FFF77DFEDE
:1018D00002460B4610461946FEF7EAFE02460B4644
:1018E0003968C1E90A23082230217868FFF76DFEC4
:1018F00002460B4610461946FEF7DAFE02460B4634
:101900003968C1E90C23082238217868FFF75DFEA9
:1019100002460B4610461946FEF7CAFE02460B4623
:101920003968C1E90E23082240217868FFF74DFE8F
:1019300002460B4610461946FEF7BAFE02460B4613
:101940003968C1E91023082248217868FFF73DFE75
:1019500002460B4610461946FEF7AAFE02460B4603
:101960003968C1E91223082250217868FFF72DFE5B
:1019700002460B4610461946FEF79AFE02460B46F3
:101980003968C1E91423082258217868FFF71DFE41
:1019900002460B4610461946FEF78AFE02460B46E3
:1019A0003968C1E91623082260217868FFF70DFE27
:1019B00002460B4610461946FEF77AFE02460B46D3
:1019C0003968C1E91823082268217868FFF7FDFD0E
:1019D00002460B4610461946FEF76AFE02460B46C3
:1019E0003968C1E91A23082270217868FFF7EDFDF4
:1019F00002460B4610461946FEF75AFE02460B46B3
:101A00003968C1E91C23082278217868FFF7DDFDD9
:101A100002460B4610461946FEF74AFE02460B46A2
:101A20003968C1E91E23082280217868FFF7CDFDBF
:101A300002460B4610461946FEF73AFE02460B4692
:101A40003968C1E92023082288217868FFF7BDFDA5
:101A500002460B4610461946FEF72AFE02460B4682
:101A60003968C1E92223082290217868FFF7ADFD8B
:101A700002460B4610461946FEF71AFE02460B4672
:101A80003968C1E92423082298217868FFF79DFD71
:101A900002460B4610461946FEF70AFE02460B4662
:101AA0003968C1E926230822A0217868FFF78DFD57
:101AB00002460B4610461946FEF7FAFD02460B4653
:101AC0003968C1E928230822A8217868FFF77DFD3D
:101AD00002460B4610461946FEF7EAFD02460B4643
:101AE0003968C1E92A230822B0217868FFF76DFD23
:101AF00002460B4610461946FEF7DAFD02460B4633
:101B00003968C1E92C230822B8217868FFF75DFD08
:101B100002460B4610461946FEF7CAFD02460B4622
:101B20003968C1E92E2300E000BF0837BD4680BDFB
:101B300080B582B000AF786039603B68002B00F060
:101B4000C180012200217868FFF73FFD02460B4665
:101B500010461946FEF7ACFD02460B463968C1E94E
:101B60000023012201217868FFF72FFD02460B4672
:101B700010461946FEF79CFD02460B463968C1E93E
:101B80000223012202217868FFF71FFD02460B465F
:101B900010461946FEF78CFD02460B463968C1E92E
:101BA0000423012203217868FFF70FFD02460B464C
:101BB00010461946FEF77CFD02460B463968C1E91E
:101BC0000623012204217868FFF7FFFC02460B463A
:101BD00010461946FEF76CFD02460B463968C1E90E
:101BE0000823012205217868FFF7EFFC02460B4627
:101BF00010461946FEF75CFD02460B463968C1E9FE
:101C00000A23012206217868FFF7DFFC02460B4613
:101C100010461946FEF74CFD02460B463968C1E9ED
:101C20000C23012207217868FFF7CFFC02460B4600
:101C300010461946FEF73CFD02460B463968C1E9DD
:101C40000E23012208217868FFF7BFFC02460B46ED
:101C500010461946FEF72CFD02460B463968C1E9CD
:101C60001023012209217868FFF7AFFC02460B46DA
:101C700010461946FEF71CFD02460B463968C1E9BD
:101C8000122301220A217868FFF79FFC02460B46C7
:101C900010461946FEF70CFD02460B463968C1E9AD
:101CA000142301220B217868FFF78FFC02460B46B4
:101CB00010461946FEF7FCFC02460B463968C1E99E
:101CC000162300E000BF0837BD4680BD00000000BD
:101CD00080B582B000AF786039603B68002B00F0BF
:101CE0009780112207217868FFF704FC02460B4613
:101CF00010461946FEF7DCFC47A3D3E90023FEF7A4
:101D000027FA02460B46104619464FF00002464B92
:101D1000FEF74CFB02460B463968C1E900233B68DD
:101D2000D3E90001032201F0EFFC404801F0D6FCAA
:101D3000092223217868FFF7DDFB02460B46104697
:101D40001946FEF7B5FC02460B463968C1E9022385
:101D50003B68D3E90201032201F0D6FC334801F0CD
:101D6000BDFC082229217868FFF7C4FB02460B4618
:101D700010461946FEF79CFC02460B463968C1E93D
:101D800004233B68D3E90401032201F0BDFC27488A
:101D900001F0A4FC09221C217868FFF7ABFB024686
:101DA0000B4610461946FEF783FC02460B4639687F
:101DB000C1E906233B68D3E90601032201F0A4FC34
:101DC0001A4801F08BFC1A4801F088FC0A221621FF
:101DD0007868FFF78FFB02460B4610461946FEF760
:101DE00067FC0FA3D3E90023FEF7B2F902460B46C6
:101DF0003968C1E908233B68D3E90801032201F0EF
:101E000083FC0A4801F06AFC0A4801F067FC00E024
:101E100000BF0837BD4680BD7B14AE47E17A843FE2
:101E20009A9999999999B93F00407F40286800088C
:101E3000F86700082C68000880B582B000AF7860B1
:101E400039603B68002B00F09480082208217868F4
:101E5000FFF7BBFB02460B461346A3F128023B6883
:101E60001A60082200217868FFF7AFFB02460B4694
:101E70001346A3F128023B685A60102210217868AB
:101E8000FFF7A3FB02460B4610461946FEF710FC6F
:101E90003BA3D3E90023FEF75BF902460B46396802
:101EA000C1E90223032238217868FFF78EFB02463E
:101EB0000B463B681A61082230217868FFF785FBE2
:101EC00002460B463B685A61082228217868FFF7D2
:101ED0007CFB02460B463B689A6108222021786809
:101EE000FFF773FB02460B463B68DA61264801F0B8
:101EF000F5FB3B681B681946244801F0F9FC2448AF
:101F000001F0ECFB3B685B681946204801F0F0FCEF
:101F1000204801F0E3FB3B68D3E90201032201F012
:101F2000F3FB1D4801F0DAFB3B681B6919461748B3
:101F300001F0DEFC194801F0D1FB3B685B691946F2
:101F4000124801F0D5FC164801F0C8FB3B689B69BC
:101F500019460E4801F0CCFC124801F0BFFB3B686B
:101F6000DB691946104801F0C3FC104801F0B6FBCC
:101F700000E000BF0837BD4680BD00BFAFF3008062
:101F80009A9999999999B93F346800084868000866
:101F90004C680008606800087468000888680008D9
:101FA0009C680008B0680008C8680008F867000866
:101FB00080B582B000AF786039603B68002B00F0DC
:101FC000F180082200217868FFF7FFFA02460B46ED
:101FD00010461946FEF76CFB02460B463968C1E90C
:101FE0000023082208217868FFF7EFFA02460B4623
:101FF00010461946FEF75CFB02460B463968C1E9FC
:102000000223082210217868FFF7DFFA02460B4608
:1020100010461946FEF74CFB02460B463968C1E9EB
:102020000423082218217868FFF7CFFA02460B46EE
:1020300010461946FEF73CFB02460B463968C1E9DB
:102040000623082220217868FFF7BFFA02460B46D4
:1020500010461946FEF72CFB02460B463968C1E9CB
:102060000823082228217868FFF7AFFA02460B46BA
:1020700010461946FEF71CFB02460B463968C1E9BB
:102080000A23082230217868FFF79FFA02460B46A0
:1020900010461946FEF70CFB02460B463968C1E9AB
:1020A0000C23082238217868FFF78FFA02460B4686
:1020B00010461946FEF7FCFA02460B463968C1E99C
:1020C0000E23082240217868FFF77FFA02460B466C
:1020D00010461946FEF7ECFA02460B463968C1E98C
:1020E0001023082248217868FFF76FFA02460B4652
:1020F00010461946FEF7DCFA02460B463968C1E97C
:102100001223082250217868FFF75FFA02460B4637
:1021100010461946FEF7CCFA02460B463968C1E96B
:102120001423082258217868FFF74FFA02460B461D
:1021300010461946FEF7BCFA02460B463968C1E95B
:102140001623082260217868FFF73FFA02460B4603
:1021500010461946FEF7ACFA02460B463968C1E94B
:102160001823082268217868FFF72FFA02460B46E9
:1021700010461946FEF79CFA02460B463968C1E93B
:102180001A23082270217868FFF71FFA02460B46CF
:1021900010461946FEF78CFA02460B463968C1E92B
:1021A0001C2300E000BF0837BD4680BD80B582B06B
:1021B00000AF786039603B68002B00F00181082295
:1021C00000217868FFF701FA02460B4610461946CF
:1021D000FEF76EFA02460B463968C1E90023082271
:1021E00008217868FFF7F1F902460B4610461946B8
:1021F000FEF75EFA02460B463968C1E9022308225F
:1022000010217868FFF7E1F902460B46104619469F
:10221000FEF74EFA02460B463968C1E9042308224C
:1022200018217868FFF7D1F902460B461046194687
:10223000FEF73EFA02460B463968C1E9062308223A
:1022400020217868FFF7C1F902460B46104619466F
:10225000FEF72EFA02460B463968C1E90823082228
:1022600028217868FFF7B1F902460B461046194657
:10227000FEF71EFA02460B463968C1E90A23082216
:1022800030217868FFF7A1F902460B46104619463F
:10229000FEF70EFA02460B463968C1E90C23082204
:1022A00038217868FFF791F902460B461046194627
:1022B000FEF7FEF902460B463968C1E90E230822F3
:1022C00040217868FFF781F902460B46104619460F
:1022D000FEF7EEF902460B463968C1E910230822E1
:1022E00048217868FFF771F902460B4610461946F7
:1022F000FEF7DEF902460B463968C1E912230822CF
:1023000050217868FFF761F902460B4610461946DE
:10231000FEF7CEF902460B463968C1E914230822BC
:1023200058217868FFF751F902460B4610461946C6
:10233000FEF7BEF902460B463968C1E916230822AA
:1023400060217868FFF741F902460B4610461946AE
:10235000FEF7AEF902460B463968C1E91823082298
:1023600068217868FFF731F902460B461046194696
:10237000FEF79EF902460B463968C1E91A23082286
:1023800070217868FFF721F902460B46104619467E
:10239000FEF78EF902460B463968C1E91C23082274
:1023A00078217868FFF711F902460B461046194666
:1023B000FEF77EF902460B463968C1E91E2300E0AC
:1023C00000BF0837BD4680BD80B582B000AF7860E1
:1023D00039600A2226217868FFF78CF802460B46FE
:1023E00010461946FEF764F953A3D3E90023FDF71D
:1023F000AFFE02460B461046194651A3D3E900230F
:10240000FDF7D4FF02460B463968C1E900230A22D2
:1024100007217868FFF76EF802460B46104619460A
:10242000FEF746F944A3D3E90023FDF791FE0246E7
:102430000B463968C1E902230A2210217868FFF7A8
:1024400059F802460B4610461946FEF731F93AA3F1
:10245000D3E90023FDF77CFE02460B4610461946E1
:102460004FF000023A4BFDF7A1FF02460B463968D8
:10247000C1E904230F222C217868FFF73BF80246BC
:102480000B461346A3F580431A463B689A610D221A
:102490000D217868FFF72EF802460B4610461946C4
:1024A000FEF706F924A3D3E90023FDF751FE024607
:1024B0000B461046194624A3D3E90023FDF776FF07
:1024C00002460B463968C1E90823224801F006F9A3
:1024D0003B68D3E90001032201F016F91E4801F020
:1024E000FDF83B68D3E90201032201F00DF91B4816
:1024F00001F0F4F83B68D3E90401032201F004F988
:10250000174801F0EBF83B689B691946154801F044
:10251000EFF9154801F0E2F83B68D3E9080103221E
:1025200001F0F2F8114801F0D9F8114801F0D6F89D
:1025300000BF0837BD4680BD9A9999999999B93FCE
:102540006666666666A642409A9999999999794015
:1025500000405040D0680008E4680008F0680008B7
:102560000069000808690008106900082868000868
:10257000F867000880B400AF104B9B690F4A43F026
:10258000080393610E4B1B680D4A03F07043136000
:102590000B4B1A680A490B4B13430B60084BDB6863
:1025A000074A23F02B03D360054BDB68044A43F052
:1025B0000203D36000BFBD4680BC704700100240DC
:1025C000000C01403330300090B5ADF6040D00AF83
:1025D00007F50063A3F2FC7318600023C7F8FC370B
:1025E00000F0AEFEC7F8E80707F50063A3F2FC733E
:1025F0001B68C7F8E437D7F8E837002B06D007F593
:102600000063A3F2FC731B68002B01D10023F7E0E9
:10261000D7F8E827D7F8E437B2FBF3F3C7F8E03789
:102620000123C7F8F837C0E00123C7F8F437B2E058
:102630000123C7F8F037A4E0D7F8F427D7F8F0372C
:1026400013440133C7F8DC37D7F8F837D7F8DC275D
:1026500002FB03F3D7F8E0279A4240F08D80D7F8C9
:10266000F407FEF7C1F903464FF07E511846FEF716
:102670000BF903461C46D7F8DC07FEF7B5F903460D
:1026800019462046FEF7BCFA034660491846FEF795
:1026900003FA0346C7F8D8375D49D7F8D807FEF7DD
:1026A000ADFB0346002B67D05A49D7F8D807FEF791
:1026B0009BFB0346002B5FD00123C7F8EC3755E0A6
:1026C000D7F8F83798B207F50063A3F5FF61D7F89C
:1026D000FC2713469B0013449B000B4402461A80C0
:1026E00007F50063A3F5FF61D7F8FC2713469B00AD
:1026F00013449B000B440433D7F8F4271A6007F502
:102700000063A3F5FF61D7F8FC2713469B00134431
:102710009B000B440833D7F8F0271A60D7F8EC1762
:1027200007F50063A3F5FF60D7F8FC2713469B006D
:1027300013449B0003440C33196007F50063A3F5B1
:10274000FF61D7F8FC2713469B0013449B000B4402
:102750001033D7F8D8271A60D7F8FC370133C7F8F9
:10276000FC37D7F8EC370133C7F8EC37D7F8EC373C
:10277000D7F8F0279A42A3D2D7F8F0370133C7F839
:10278000F037D7F8F037082B7FF656AFD7F8F43785
:102790000133C7F8F437D7F8F437102B7FF648AF7A
:1027A000D7F8F8370133C7F8F837D7F8F837B3F563
:1027B000806F7FF639AF184BDA6907F50063A3F530
:1027C000FF631B88013B194607F50063A3F5FF6310
:1027D000DB68013B1B06194307F50063A3F5FF63A4
:1027E0005B68013B1B04194307F50063A3F5FF6316
:1027F0009B68013B1B050B4307491343CB61012336
:10280000184607F60407BD4690BD00BF0000C84249
:1028100000008C420000A0420064004080B582B0FD
:1028200000AF78602B4B9B692A4A43F00903936100
:10283000284BDB69274A43F00073D361264B5B6862
:10284000254A43F480435360244B5B68234A23F0BA
:102850000F035360214B5B68204A43F0040353602D
:102860001E4B5B681D4A23F0F00353601B4B5B68F3
:102870001A4A43F0B0035360194B1B68184A23F0FF
:1028800020031360164B1B68154A23F002031360E4
:10289000134B1B68124A43F00103136000BF104B37
:1028A0005B6803F00103002BF9D07868FFF78CFE1A
:1028B0000B4B1B680A4A23F00103136000BF084B4F
:1028C0005B6803F00103002BF9D101231846083798
:1028D000BD4680BD0010024000000140000C0140D8
:1028E0000064004080B48FB000AFF8607A601A4690
:1028F0000B46FB721346BB72002387F83730914BAF
:10290000D3F800328F4A43F00103C2F800320023AB
:1029100087F8363079E097F837300D2B7BD8894B24
:10292000D3F81C2297F83730012101FA03F3DB4377
:1029300084491340C1F81C32824BD3F8042297F823
:102940003730012101FA03F37E491343C1F8043201
:102950007C4BD3F80C2297F83730012101FA03F3AE
:1029600078491343C1F80C32764BD3F8142297F808
:102970003730012101FA03F3DB4372491340C1F8F8
:10298000143200237B6200233B6397F836309B00B0
:10299000FA6813441B685B053B623B6A7B6297F8ED
:1029A00036305A1CFB7A9A420ADA97F836300133ED
:1029B0009B00FA6813441B685B05FB61FB693B6382
:1029C000604997F8373048337A6A41F833205D4AD6
:1029D00097F837304833DB0013443A6B5A60594B51
:1029E000D3F81C2297F83730012101FA03F3554937
:1029F0001343C1F81C3297F83730013387F837306A
:102A000097F83630023387F8363097F83620FB7A5D
:102A10009A4280D300E000BF002387F82F307CE08B
:102A200097F837300D2B7FD8464BD3F81C2297F8F8
:102A30003730012101FA03F3DB4342491340C1F867
:102A40001C32404BD3F8042297F83730012101FAA9
:102A500003F33C491343C1F804323A4BD3F80C2238
:102A600097F83730012101FA03F336491343C1F8CF
:102A70000C32344BD3F8142297F83730012101FA85
:102A800003F330491343C1F814320023BB61002320
:102A9000BB6297F82F309B007A6813441B68DB00F9
:102AA00043F004037B617B69BB6197F82F305A1CAC
:102AB000BB7A9A420CDA97F82F3001339B007A6880
:102AC00013441B68DB0043F004033B613B69BB62BA
:102AD0001C4997F837304833BA6941F83320194A0E
:102AE00097F837304833DB001344BA6A5A60154B05
:102AF000D3F81C2297F83730012101FA03F311496A
:102B00001343C1F81C3297F83730013387F8373058
:102B100097F82F30023387F82F3097F82F20BB7AA1
:102B20009A42FFF47DAF00E000BF064BD3F80032BD
:102B3000044A23F00103C2F8003200BF3C37BD460F
:102B400080BC70470064004080B483B000AF03468F
:102B5000FB71FB79002B09D10B4BDB6803F00303FE
:102B6000002B14BF01230023DBB208E0064B1B69D6
:102B700003F00303002B14BF01230023DBB218462C
:102B80000C37BD4680BC70470064004080B485B0FF
:102B900000AF78600B46FB70444AFB781B331B0187
:102BA00013441B68DBB203F00403DAB27B681A71CA
:102BB0007B681B79002B0BD13C4AFB781B331B0134
:102BC00013441B685B0DC3F30A027B681A600AE0BA
:102BD000364AFB781B331B0113441B68DB0823F0C8
:102BE00060427B681A60314AFB781B331B01134437
:102BF0001B68DBB203F00203DAB27B685A712B4A1E
:102C0000FB781B331B01134404331B68DBB203F056
:102C10000F03DAB27B689A710023FB7327E0FB7B1A
:102C2000032B10D8214AFB781B01134403F5DC73F6
:102C30001A68FB7BDB00DA40FB7BD1B27A68134475
:102C40000A46DA7110E0194AFB781B01134403F5B8
:102C5000DE731A68FB7B043BDB00DA40FB7BD1B2FE
:102C60007A6813440A46DA71FB7B0133FB737B6895
:102C70009B79FA7B9A42D2D3FB78002B06D10B4B7F
:102C8000DB680A4A43F02003D36008E0FB78012B9D
:102C900005D1064B1B69054A43F02003136101234C
:102CA00018461437BD4680BC704700BF0064004022
:102CB00080B400AF0D4B9B690C4A43F0080393614D
:102CC0000B4B5B680A4A23F070435360084B5B6808
:102CD000074A43F040535360054BDB68044A43F412
:102CE0000043D36000BFBD4680BC70470010024067
:102CF000000C014080B500AF174800F0F9FD1748FF
:102D000000F0F6FD164800F0F3FD00F09BFA0346D4
:102D1000144AA2FB03239B0C1946134800F0E8FD5C
:102D200000F00EFB03460F4AA2FB03239B0C19463F
:102D30000E4800F0DDFD00F029FB0346094AA2FB26
:102D400003239B0C19460A4800F0D2FD044800F00A
:102D5000CFFD00BF80BD00BF1C69000848690008A6
:102D60006C69000883DE1B4394690008AC690008A5
:102D7000C4690008B0B58AB000AF0D4B07F1140468
:102D80001D460FCD0FC42B6823600A4B3C1D0FCB93
:102D900084E80F003A1D07F1140004230521FFF712
:102DA000A1FD054800F0A4FD00BF2837BD46B0BD19
:102DB000186A00082C6A0008DC69000880B582B037
:102DC00002AF00F0F1FD00F0E7F94FF4E13000F060
:102DD00011FC0346002B01D100F09AF8FFF78AFF9F
:102DE0004FF4E1313D4800F083FD3D4800F080FDA7
:102DF0004FF47A7000F080F93A4800F079FD3848D5
:102E000000F076FD3848FFF709FD0346002B07D197
:102E1000364800F06DFD364800F06AFD00F078F8A5
:102E2000FFF7A8FF4FF4FA71324800F061FD2C481B
:102E300000F05EFD00F0D6FA2F4800F059FD28485A
:102E400000F056FDFEF716FA2C4B9B681B0B03F0A7
:102E500001012A4B9B685B0B03F00102274B9B6827
:102E60009B0B03F00103264800F042FD1C4800F0D4
:102E70003FFDFFF71DFF214B9B68DB0B03F00103B8
:102E80001946204800F034FD154800F031FDFFF7E9
:102E900071FB1A4B9B6803F00101184B9B685B08A0
:102EA00003F00102154B9B68DB0803F00100134B94
:102EB0009B685B0903F0010300930346124800F08E
:102EC00017FD074800F014FDFEF7F8F90F4914202C
:102ED00000F0BEFA00F00AFBFCE700BF3C6A000805
:102EE000746A0008B06A000820A10700DC6A0008C4
:102EF000FC6A0008386B0008706B0008000C014089
:102F0000906B0008CC6B0008F86B00081D2F0008C0
:102F100080B400AF00BFBD4680BC704780B584B0B0
:102F200000AF0020FFF710FE0346002B08D03B4601
:102F300000211846FFF72AFE3B461846FEF732FAF4
:102F40000120FFF701FE0346002B08D03B4601217C
:102F50001846FFF71BFE3B461846FEF723FA00BF54
:102F60001037BD4680BD000080B485B000AF154B62
:102F70009B69144A43F001039361124B9B6903F070
:102F80000103BB60BB680F4BDB690E4A43F0805303
:102F9000D3610C4BDB6903F080537B607B680A4B89
:102FA0005B68FB60FB6823F0E063FB60FB6843F059
:102FB0008063FB60044AFB68536000BF1437BD4662
:102FC00080BC7047001002400000014080B588B00E
:102FD00000AF786007F1100300221A605A609A600F
:102FE000DA607B681B681D4A934233D11C4B9B6996
:102FF0001B4A43F008039361194B9B6903F00803D4
:10300000FB60FB68C0233B6112237B610323FB61F0
:1030100007F110031946134800F0B2FE104BDB69AC
:103020000F4A43F40013D3610D4BDB6903F4001323
:10303000BB60BB68002200211F2000F0E4FD1F20C0
:1030400000F0FDFD00220021202000F0DCFD20200A
:1030500000F0F5FD00BF2037BD4680BD00540040A4
:1030600000100240000C014080B400AF00BFFDE73B
:1030700080B400AF00BFFDE780B400AF00BFFDE744
:1030800080B400AF00BFFDE780B400AF00BFFDE734
:1030900080B400AF00BFBD4680BC704780B400AFB5
:1030A00000BFBD4680BC704780B400AF00BFBD46C6
:1030B00080BC704780B500AF00F0BCFC034B1B68C0
:1030C0000133024A136000BF80BD00BF7C030020B3
:1030D00080B500AF024801F09DF900BF80BD00BF80
:1030E0002803002080B500AF024801F004FB00BFB8
:1030F00080BD00BF2803002080B582B000AF78609B
:1031000000F0A0F802467B68B2FBF3F3064A013BED
:103110005360054B00229A60034B07221A6000BFE0
:103120000837BD4680BD00BF10E000E080B586B026
:1031300000AF7860144A154BD31A7B617B693B6101
:10314000134B1B68002B02D1114B124A1A60104B13
:103150001A687B6813443A699A4207D202F09CFECF
:1031600003460C221A604FF0FF3309E0084B1B683E
:10317000FB60074B1A687B681344054A1360FB68C1
:1031800018461837BD4680BD0050002000040000DE
:10319000800300207005002080B400AF274B1B681F
:1031A000264A43F48033136000BF244B1B6803F4AA
:1031B0000033002BF9D0224B1B68214A43F0040353
:1031C00013601F4B1B681E4A43F0100313601B4B18
:1031D0005B681A4A43F4E0135360184B5B68174A64
:1031E00043F480335360154B5B68144A43F48063A7
:1031F0005360124B5B68114A23F4605353600F4BCA
:103200001B680E4A43F08073136000BF0B4B1B68B2
:1032100003F00073002BF9D0084B5B68074A43F0BA
:103220000203536000BF054B5B6803F00C03082BDF
:10323000F9D100BF1846BD4680BC7047001002405F
:103240000020024080B487B000AF264BBB60254B06
:103250007B60254B5B689B0803F003033B603B6886
:10326000022B0DD03B68022B35D83B68002B03D0D6
:103270003B68012B02D02EE07B682DE0BB682BE081
:10328000194B5B6803F48033002B10D0164B5B683E
:1032900003F40033002B02D002233B6101E0012341
:1032A0003B61BA683B69B2FBF3F3FB6002E07B6809
:1032B0005B08FB600C4B5B689B0C03F00F03023355
:1032C0007B617B690F2B01D110237B61FB687A69DD
:1032D00002FB03F300E07B6818461C37BD4680BC48
:1032E000704700BF00127A0000100240B0B592B0E3
:1032F00000AF114B3C1D1D460FCD0FC40FCD0FC4A9
:103300000FCD0FC495E80F0084E80F000B4B5B68EE
:103310001B0903F00F037B64FFF794FF02467B6CED
:103320009B0048333B4453F8443CB2FBF3F318464C
:103330004837BD46B0BD00BF406C000800100240D9
:10334000B0B58AB000AF0F4B3C1D1D460FCD0FC46A
:1033500095E80F0084E80F000B4B5B681B0A03F035
:1033600007037B62FFF7C2FF02467B6A9B0028339C
:103370003B4453F8243CB2FBF3F318462837BD46D0
:10338000B0BD00BF806C000800100240B0B58AB02C
:1033900000AF0F4B3C1D1D460FCD0FC495E80F002D
:1033A00084E80F000B4B5B68DB0A03F007037B62CA
:1033B000FFF79CFF02467B6A9B0028333B4453F88F
:1033C000243CB2FBF3F318462837BD46B0BD00BF1E
:1033D000806C00080010024080B400AF00BFBD4602
:1033E00080BC704780B483B000AF00237B6024E0D2
:1033F000164A7B681B01134400221A60134A7B683B
:103400001B011344043300221A60104A7B681B011D
:1034100013440C3300221A700C4A7B681B011344BE
:10342000083300221A60094A7B681B0113440D33DC
:1034300000221A707B6801337B607B68092BD7DD23
:1034400000BF00BF0C37BD4680BC7047840300201E
:1034500080B485B000AF786039600023FB6037E04E
:10346000204AFB681B0113440C331B78002B2CD122
:103470001C4AFB681B01134408331B68002B24D132
:10348000184AFB681B0113440C3301221A70164BB7
:103490001A681449FB681B010B4404331A60114A73
:1034A000FB681B0113440D3300221A700D4AFB68A0
:1034B0001B0113447A681A600A4AFB681B01134413
:1034C00008333A681A60FB6807E0FB680133FB6069
:1034D000FB68092BC4DD4FF0FF3318461437BD4697
:1034E00080BC7047840300207C03002080B582B03C
:1034F00000AF00237B603CE0224A7B681B01134441
:103500000C331B78002B31D01E4A7B681B011344FF
:1035100008331B68002B29D01B4B1A6819497B689C
:103520001B010B4404331B68D21A16497B681B012C
:103530000B441B689A4219D9134B1A6811497B68CE
:103540001B010B4404331A600E4A7B681B011344B1
:1035500008331B6898470B4A7B681B0113440D33E3
:103560001B78012B02D1786800F010F87B680133DA
:103570007B607B68092BBFDD00BF00BF0837BD46FD
:1035800080BD00BF840300207C03002080B483B092
:1035900000AF78607B68002B24DB7B68092B21DC83
:1035A000134A7B681B0113440C3300221A70104A23
:1035B0007B681B011344043300221A600C4A7B68A9
:1035C0001B0113440D3300221A70094A7B681B014A
:1035D000134400221A60064A7B681B011344083317
:1035E00000221A6000BF0C37BD4680BC704700BF88
:1035F0008403002080B584B000AF7860254B9B69C0
:10360000244A43F004039361224B9B69214A43F40B
:1036100080439361204B5B681F4A23F47F635360B0
:103620001D4B5B681C4A43F0B00353601A4B5B6848
:10363000194A43F480635360184B0022DA60FFF7A5
:10364000A5FEF860FB68002B02D07B68002B01D13F
:1036500000231BE07B685A08FB681A447B68B2FBB6
:10366000F3F3BB600D4ABB6893600C4BDB680B4AFD
:1036700043F4005343F00C03D360084BDB6803F4BE
:103680000053002B01D1002300E00123184610371E
:10369000BD4680BD001002400008014000380140D6
:1036A00080B483B000AF0346FB7100BF0A4B1B68B8
:1036B00003F08003002BF9D0074AFB79536000BF69
:1036C000054B1B6803F04003002BF9D000BF00BF7F
:1036D0000C37BD4680BC70470038014080B582B0D1
:1036E00000AF786006E07B685A1C7A601B78184649
:1036F000FFF7D6FF7B681B78002BF4D100BF00BF1B
:103700000837BD4680BD0000B0B59CB000AFC7E92A
:1037100002011346FB710023FB664FF000024FF0DD
:103720000003D7E90201FDF759F80346002B0DD03D
:10373000FB6E5A1CFA6670333B442D2203F84C2C66
:10374000BC68FB6883F00045C7E90245D7E9020180
:10375000FDF7B8FB02460B46C7E91823D7E9180165
:10376000FCF7AEFF02460B46D7E90201FCF71EFE4E
:1037700002460B46C7E9162300237B65D7E91801EB
:103780004FF00A024FF00003FDF74CFBD2B27B6D05
:10379000591C79653032D2B270333B4403F8602C47
:1037A000D7E918014FF00A024FF00003FDF73AFB8A
:1037B00002460B46C7E91823D7E91823012A73F1FB
:1037C0000003DBDA7B6D013B3B650EE0FB6E5A1CB0
:1037D000FA6607F110013A6D0A44127870333B44DF
:1037E00003F84C2C3B6D013B3B653B6D002BEDDA48
:1037F000FB6E5A1CFA6670333B442E2203F84C2CA5
:103800000023FB642BE04FF00002224BD7E91601A6
:10381000FCF79EFC02460B46C7E91623D7E91601C2
:10382000FDF704F803467B647B6CDAB2FB6E591C2F
:10383000F9663032D2B270333B4403F84C2C786CCA
:10384000FCF702FF02460B46D7E91601FCF7AEFD76
:1038500002460B46C7E91623FB6C0133FB64FB7978
:10386000FA6C9A42CFDB0023BB640AE007F1240222
:10387000BB6C13441B781846FFF712FFBB6C013377
:10388000BB64BA6CFB6E9A42F0DB00BF00BF7037BE
:10389000BD46B0BD0000244080B485B000AF786064
:1038A00039600023FB600FE000BF104B1B6803F082
:1038B0008003002BF9D07A68FB6813441A780B4B0D
:1038C0005A60FB680133FB60FA683B689A42EBD3AD
:1038D00000BF064B1B6803F04003002BF9D000BF6C
:1038E00000BF1437BD4680BC704700BF00380140A0
:1038F0000FB480B5C2B000AF07F58A7207F58473C4
:10390000A3F584731A6007F58473A3F58473381DD7
:103910001B68D7F810214FF4807102F0AFFAC7F896
:103920000401D7F80431002B0FDDD7F80431B3F5CB
:10393000807F03D94FF48073C7F80431D7F804218E
:103940003B1D11461846FFF7A7FF00BF07F5847718
:10395000BD46BDE8804004B070470000FFF73CFD65
:103960000B480C490C4A002302E0D458C4500433DD
:10397000C4188C42F9D3094A094C002301E01360B2
:103980000432A242FBD302F08DFAFFF717FA704718
:10399000000000205C000020EC6C000860000020AB
:1039A00070050020FEE7000080B500AF084B1B68E3
:1039B000074A43F010031360032000F019F90F20A9
:1039C00000F008F8FFF7D0FA0023184680BD00BFCA
:1039D0000020024080B582B000AF7860124B1A68B8
:1039E000124B1B7819464FF47A73B3FBF1F3B2FB19
:1039F000F3F3184600F031F90346002B01D0012300
:103A00000EE07B680F2B0AD8002279684FF0FF3058
:103A100000F0F9F8064A7B681360002300E00123F8
:103A200018460837BD4680BD000000200800002071
:103A30000400002080B400AF054B1B781A46054BEC
:103A40001B681344034A136000BFBD4680BC704727
:103A5000080000202404002080B485B000AF786006
:103A60007B6803F00703FB600C4BDB68BB60BA6844
:103A70004FF6FF031340BB60FB681A02BB68134399
:103A800043F0BF6343F40033BB60044ABB68D360B8
:103A900000BF1437BD4680BC704700BF00ED00E09A
:103AA00080B400AF044BDB681B0A03F00703184621
:103AB000BD4680BC704700BF00ED00E080B483B01D
:103AC00000AF0346FB7197F90730002B0BDBFB7946
:103AD00003F01F02064997F907305B09012000FA3D
:103AE00002F241F8232000BF0C37BD4680BC70476E
:103AF00000E100E080B483B000AF03463960FB71A1
:103B000097F90730002B0ADB3B68DAB20C4997F9CA
:103B100007301201D2B20B4483F800230AE03B685D
:103B2000DAB20849FB7903F00F03043B1201D2B269
:103B30000B441A7600BF0C37BD4680BC704700BFEF
:103B400000E100E000ED00E080B489B000AFF86073
:103B5000B9607A60FB6803F00703FB61FB69C3F19E
:103B60000703042B28BF0423BB61FB690433062B26
:103B700002D9FB69033B00E000237B614FF0FF3279
:103B8000BB6902FA03F3DA43BB681A407B699A40C7
:103B90004FF0FF317B6901FA03F3D9437B680B4097
:103BA000134318462437BD4680BC704780B582B0A9
:103BB00000AF78607B68013BB3F1807F01D30123C4
:103BC0000FE00A4A7B68013B53600F214FF0FF3042
:103BD000FFF790FF054B00229A60044B07221A6002
:103BE000002318460837BD4680BD00BF10E000E046
:103BF00080B582B000AF78607868FFF72DFF00BF16
:103C00000837BD4680BD80B586B000AF0346B960B9
:103C10007A60FB7300237B61FFF742FF78617A686B
:103C2000B9687869FFF790FF024697F90F3011469F
:103C30001846FFF75FFF00BF1837BD4680BD80B54F
:103C400082B000AF0346FB7197F907301846FFF7C3
:103C500035FF00BF0837BD4680BD80B582B000AFDC
:103C600078607868FFF7A2FF034618460837BD461C
:103C700080BD000080B584B000AF78600023FB7386
:103C80007B6893F82130DBB2022B05D07B680422DD
:103C90009A630123FB7351E07B681B681A687B6899
:103CA0001B6822F00E021A607B681B681A687B682A
:103CB0001B6822F001021A607B681B68224A93424B
:103CC00029D07B681B68214A934222D07B681B68FD
:103CD0001F4A93421AD07B681B681E4A934212D037
:103CE0007B681B681C4A93420AD07B681B681B4A8E
:103CF000934202D14FF480130EE04FF080730BE03B
:103D00004FF4803308E04FF4805305E04FF48073A4
:103D100002E0102300E00123114A53607B68012276
:103D200083F821207B68002283F820207B685B6B6E
:103D3000002B03D07B685B6B78689847FB7B184649
:103D40001037BD4680BD00BF080002401C00024085
:103D50003000024044000240580002406C00024023
:103D60000000024080B483B000AF78607B6893F8B5
:103D70002130DBB218460C37BD4680BC70470000CE
:103D800080B48BB000AF7860396000237B62002381
:103D90003B6269E101227B6A02FA03F3FB613B6843
:103DA0001B68FA691340BB61BA69FB699A4240F02B
:103DB00058813B685B689A4A93425ED0984A934226
:103DC00075D8984A934258D0964A93426FD8964AEB
:103DD000934252D0944A934269D8944A93424CD029
:103DE000924A934263D8924A934246D0904A934271
:103DF0005DD8122B2AD8122B59D801A252F823F0E1
:103E00007B3E0008553E0008673E0008A93E0008BA
:103E1000AF3E0008AF3E0008AF3E0008AF3E0008CE
:103E2000AF3E0008AF3E0008AF3E0008AF3E0008BE
:103E3000AF3E0008AF3E0008AF3E0008AF3E0008AE
:103E4000AF3E00085D3E0008713E0008794A93428B
:103E500013D02CE03B68DB683B6229E03B68DB6801
:103E600004333B6224E03B68DB6808333B621FE0BD
:103E70003B68DB680C333B621AE03B689B68002BB5
:103E800002D104233B6213E03B689B68012B05D100
:103E900008233B627B68FA691A6109E008233B62E8
:103EA0007B68FA695A6103E000233B6200E000BFCF
:103EB000BB69FF2B01D87B6801E07B6804337B6121
:103EC000BB69FF2B02D87B6A9B0002E07B6A083B40
:103ED0009B003B617B691A680F213B6901FA03F380
:103EE000DB431A40396A3B6901FA03F31A437B69E1
:103EF0001A603B685B6803F08053002B00F0B180D0
:103F00004D4B9B694C4A43F0010393614A4B9B69BB
:103F100003F00103BB60BB68484A7B6A9B0802331D
:103F200052F82330FB607B6A03F003039B000F22EF
:103F300002FA03F3DB43FA681340FB607B68404AF4
:103F4000934213D07B683F4A93420DD07B683E4A30
:103F5000934207D07B683D4A934201D1032306E098
:103F6000042304E0022302E0012300E000237A6A34
:103F700002F0030292009340FA681343FB602F495A
:103F80007B6A9B080233FA6841F823203B685B6830
:103F900003F48013002B06D02D4B9A682C49BB6983
:103FA00013438B6006E02A4B9A68BB69DB432849C0
:103FB00013408B603B685B6803F40013002B06D052
:103FC000234BDA682249BB691343CB6006E0204BE0
:103FD000DA68BB69DB431E491340CB603B685B6812
:103FE00003F40033002B06D0194B5A681849BB69FB
:103FF00013434B6006E0164B5A68BB69DB43144918
:1040000013404B603B685B6803F48033002B21D086
:104010000F4B1A680E49BB6913430B6021E000BFC8
:1040200000003210000031100000221000002110AA
:1040300000001210000011100010024000000140AA
:1040400000080140000C0140001001400014014034
:10405000000401400B4B1A68BB69DB43094913405C
:104060000B607B6A01337B623B681A687B6A22FAC9
:1040700003F3002B7FF48EAE00BF00BF2C37BD468C
:1040800080BC70470004014080B584B000AF786008
:104090007B68002B01D101232BE17B6893F83D3035
:1040A000DBB2002B06D17B68002283F83C207868C5
:1040B000FEF78CFF7B68242283F83D207B681B6819
:1040C0001A687B681B6822F001021A607B681B6813
:1040D0001A687B681B6842F400421A607B681B68A0
:1040E0001A687B681B6822F400421A6001F084FEA3
:1040F000F8607B685B68814A934207D8FB68804A16
:10410000934294BF01230023DBB206E0FB687D4AA3
:10411000934294BF01230023DBB2002B01D0012383
:10412000E7E0FB68784AA2FB03239B0CBB607B683B
:104130001B685B6823F03F017B681B68BA680A4311
:104140005A607B681B681B6A23F03F017B685B68D1
:104150006A4A934202D8BB68013309E0BB684FF456
:10416000967202FB03F3694AA2FB03239B09013306
:104170007A6812680B4313627B681B68DB6923F45F
:104180004F4222F0FF027B685B685C498B4219D882
:10419000FB68591E7B685B685B00B1FBF3F3591C3D
:1041A00040F6FC730B40002B0AD0FB68591E7B685D
:1041B0005B685B00B1FBF3F30133C3F30B0351E026
:1041C00004234FE07B689B68002B11D1FB68581ECD
:1041D0007B6859680B465B000B44B0FBF3F301337B
:1041E000C3F30B03002B0CBF01230023DBB212E04F
:1041F000FB68581E7B6859680B469B000B4499006E
:104200000B44B0FBF3F30133C3F30B03002B0CBFE0
:1042100001230023DBB2002B01D0012322E07B68C5
:104220009B68002B0ED1FB68581E7B6859680B46B3
:104230005B000B44B0FBF3F30133C3F30B0343F414
:1042400000430FE0FB68581E7B6859680B469B00D3
:104250000B4499000B44B0FBF3F30133C3F30B039E
:1042600043F44043796809681343CB617B681B685A
:104270001B6823F0C0017B68DA697B681B6A1A43FC
:104280007B681B680A431A607B681B689B6823F481
:10429000034323F0FF037A6811697A68D2681143F7
:1042A0007A6812680B4393607B681B68DB6823F0B5
:1042B000FF017B685A697B689B691A437B681B68AE
:1042C0000A43DA607B681B681A687B681B6842F0E7
:1042D00001021A607B6800221A647B68202283F83E
:1042E0003D207B6800221A637B68002283F83E2011
:1042F000002318461037BD4680BD00BFA0860100D0
:104300007F841E00FF083D0083DE1B43D34D6210F7
:1043100080B483B000AF78607B681B685B6903F092
:104320008003802B03D17B681B6800221A6100BFC9
:104330000C37BD4680BC704780B485B000AFF860D4
:10434000B9601346FB80FB6893F83D30DBB2202B4D
:1043500058D1BB68002B02D0FB88002B01D1012370
:1043600051E0FB6893F83C30012B01D102234AE075
:10437000FB68012283F83C20FB681B681B6803F084
:104380000103012B07D0FB681B681A68FB681B68D8
:1043900042F001021A60FB681B681A68FB681B6820
:1043A00022F400621A60FB68222283F83D20FB6839
:1043B000202283F83E20FB6800221A64FB68BA685A
:1043C0005A62FB68FA885A85FB685B8D9AB2FB6873
:1043D0001A85FB680E4ADA62FB681B681A68FB687C
:1043E0001B6842F480621A60FB68002283F83C205C
:1043F000FB681B685A68FB681B6842F4E0625A60FD
:10440000002300E0022318461437BD4680BC7047E5
:104410000000FFFF80B588B000AF78600023BB616B
:104420007B681B685B687B617B68DB6A3B617B68E0
:1044300093F83E30FB737B6893F83D30BB73FB7B96
:10444000102B03D0FB7B402B40F0C1807B681B68A6
:104450009B69BB617B681B685B69FB61FB6903F05F
:104460000103002B0DD13B69B3F52A0F03D03B6943
:10447000B3F12A4F01D1012300E00023012B00F00A
:104480003281FB6903F00103002B0CD07B695B0ACE
:1044900003F00103002B06D0786801F089FC7868EE
:1044A00000F087FD92E0FB69DB0803F00103002BBD
:1044B00009D07B695B0A03F00103002B03D0786805
:1044C00000F0FCFD82E0FB695B0803F00103002BB8
:1044D00009D07B695B0A03F00103002B03D07868E5
:1044E00000F015FE72E0BB699B0803F00103002B8E
:1044F0003BD07B681B685B6803F40063B3F5006F17
:1045000000F0F380FB69DB0903F00103002B0FD0FF
:104510007B699B0A03F00103002B09D0FB699B0810
:1045200003F00103002B03D1786800F0DFF94DE0C0
:10453000FB699B0803F00103002B00F0D6807B6928
:104540005B0A03F00103002B00F0CF80BB7B212B23
:1045500003D1786800F066FAC7E0FB7B402B40F09F
:10456000C480786800F0D4FABFE07B681B685B68A1
:1045700003F40063B3F5006F00F0B780FB699B099B
:1045800003F00103002B0FD07B699B0A03F00103AA
:10459000002B09D0FB699B0803F00103002B03D11A
:1045A000786800F04DFB11E0FB699B0803F0010304
:1045B000002B00F09A807B695B0A03F00103002B5B
:1045C00000F09380786800F003FC8EE08DE07B685B
:1045D0001B6C002B04D07B681B685B69FB6107E0E8
:1045E0007B681B689B69BB617B681B685B69FB61BF
:1045F000FB695B0803F00103002B12D07B695B0AA7
:1046000003F00103002B0CD07B681B6C002B03D044
:104610007B681B689B69BB61B969786800F0CEFF55
:1046200066E0FB691B0903F00103002B09D07B69DD
:104630005B0A03F00103002B03D0786801F008F84F
:1046400056E0BB7B212B02D0BB7B292B25D1FB69FC
:10465000DB0903F00103002B0FD07B699B0A03F0F9
:104660000103002B09D0FB699B0803F00103002B19
:1046700003D1786800F0E6FE39E0FB699B0803F09F
:104680000103002B33D07B695B0A03F00103002B8D
:104690002DD0786800F013FF29E0FB699B0903F037
:1046A0000103002B0FD07B699B0A03F00103002B51
:1046B00009D0FB699B0803F00103002B03D1786844
:1046C00000F01DFF14E0FB699B0803F00103002BC1
:1046D0000ED07B695B0A03F00103002B08D07868D9
:1046E00000F04BFF04E000BF02E000BF00E000BFAD
:1046F0002037BD4680BD80B58AB000AF78607B684A
:104700001B685B693B627B681B685B68FB6100231D
:104710007B627B6893F83E30FB763B6A1B0A03F0B2
:104720000103002B16D0FB691B0A03F00103002BC9
:1047300010D07B6A43F001037B627B681B686FF4D7
:1047400080725A617B681B681A687B681B6842F438
:1047500000421A603B6A5B0A03F00103002B0ED093
:10476000FB691B0A03F00103002B08D07B6A43F0AE
:1047700002037B627B681B686FF400725A613B6ABC
:104780009B0A03F00103002B3FD0FB691B0A03F0D7
:104790000103002B39D0FB7EBB767B685B8D9BB21F
:1047A0007B617B6893F83D30FB747B681B6BFB601F
:1047B000BB7E202B12D17B69002B0FD1FB7C212BE0
:1047C00008D0FB7C292B05D0FB7C282B06D1FB686D
:1047D000212B03D1786801F06BF816E07B681B6829
:1047E0006FF480625A617B6A43F004037B62FB7E54
:1047F000102B02D0FB7E402B07D17B681B681A6808
:104800007B681B6842F400721A603B6ADB0A03F0A3
:104810000103002B0ED0FB691B0A03F00103002BE0
:1048200008D07B6A43F008037B627B681B686FF4E7
:1048300000625A617B6A002B08D07B681A6C7B6A25
:104840001A437B681A64786801F0A6F800BF28371D
:10485000BD4680BD80B483B000AF786000BF0C3728
:10486000BD4680BC704780B483B000AF786000BFA5
:104870000C37BD4680BC704780B483B000AF786011
:1048800000BF0C37BD4680BC704780B483B000AF1A
:1048900078600B46FB7013463B8000BF0C37BD466B
:1048A00080BC704780B483B000AF786000BF0C3725
:1048B000BD4680BC704780B483B000AF786000BF55
:1048C0000C37BD4680BC704780B483B000AF7860C1
:1048D00000BF0C37BD4680BC704780B483B000AFCA
:1048E000786000BF0C37BD4680BC704780B584B08F
:1048F00000AF78607B6893F83D30FB737B6893F87A
:104900003E30BB737B68DB6ABB607B681B8D002B12
:1049100050D1FB7B212B4DD1BB68082B1DD0BB6830
:10492000202B1AD0BB6813F5803F16D07B681B681C
:104930005A687B681B6822F4E0625A607B68112227
:104940001A637B68002283F83E207B68202283F86C
:104950003D207868FFF77EFF60E07B681B685A683F
:104960007B681B6822F4E0625A607B681B681A68E7
:104970007B681B6842F400721A607B6800221A632D
:104980007B68202283F83D207B6893F83E30DBB2C1
:10499000402B07D17B68002283F83E207868FFF720
:1049A0008AFF3BE07B68002283F83E207868FFF7AF
:1049B00051FF33E0FB7B212B05D0BB7B402B2DD15E
:1049C000FB7B222B2AD17B685B8D9BB2002B08D10D
:1049D0007B681B685A687B681B6822F480625A6097
:1049E0001CE07B6893F83E30DBB2402B03D1786843
:1049F00000F08EF812E07B685B6A1A787B681B68AF
:104A00001A617B685B6A5A1C7B685A627B685B8DA3
:104A10009BB2013B9AB27B685A85FFE700BF103713
:104A2000BD4680BD80B584B000AF78607B68DB6A2E
:104A3000FB607B6893F83D30DBB2212B64D17B684F
:104A40005B8D9BB2002B12D07B685B6A1A787B6807
:104A50001B681A617B685B6A5A1C7B685A627B68B8
:104A60005B8D9BB2013B9AB27B685A854CE0FB6838
:104A7000082B1DD0FB68202B1AD0FB6813F5803F54
:104A800016D07B681B685A687B681B6822F4E0625A
:104A90005A607B6811221A637B68002283F83E20EB
:104AA0007B68202283F83D207868FFF7D3FE2BE057
:104AB0007B681B685A687B681B6822F4E0625A6056
:104AC0007B681B681A687B681B6842F400721A6076
:104AD0007B6800221A637B68202283F83D207B6874
:104AE00093F83E30DBB2402B07D17B68002283F87D
:104AF0003E207868FFF7DFFE06E07B68002283F83F
:104B00003E207868FFF7A6FE00BF1037BD4680BD87
:104B100080B584B000AF78607B6893F83D30FB735C
:104B20007B681B6D002B1DD17B68DB6C012B0BD1CF
:104B30007B689B6CDAB27B681B681A617B681B6DB3
:104B40009A1C7B681A6577E07B689B6C9BB21B1292
:104B5000DAB27B681B681A617B681B6D5A1C7B6824
:104B60001A6569E07B681B6D012B0BD17B689B6C20
:104B7000DAB27B681B681A617B681B6D5A1C7B6804
:104B80001A6559E07B681B6D022B52D1FB7B222BEF
:104B90000DD17B681B681A687B681B6842F48072C1
:104BA0001A607B681B6D5A1C7B681A6544E07B6841
:104BB0005B8D9BB2002B15D0FB7B212B12D17B6828
:104BC0005B6A1A787B681B681A617B685B6A5A1C8F
:104BD0007B685A627B685B8D9BB2013B9AB27B68B3
:104BE0005A8529E07B685B8D9BB2002B24D1FB7B2F
:104BF000212B21D17B681B685A687B681B6822F4D3
:104C0000E0625A607B681B681A687B681B6842F424
:104C100000721A607B6800221A637B68202283F886
:104C20003D207B68002283F83E207868FFF743FE32
:104C300002E07868FFF76CFB00BF1037BD4680BD0F
:104C400080B584B000AF78607B6893F83D30DBB20C
:104C5000222B40F0B9807B68DB6AFB607B685B8D50
:104C60009BB2BB60BB68032B21D97B681B681A69A8
:104C70007B685B6AD2B21A707B685B6A5A1C7B687D
:104C80005A627B685B8D9BB2013B9AB27B685A8506
:104C90007B685B8D9BB2032B40F096807B681B6822
:104CA0005A687B681B6822F480625A608CE07B68DB
:104CB000DB6A022B7FD0BB68012B02D0BB68002BC4
:104CC00079D1786801F042F80346002B4CD17B681B
:104CD0001B681A687B681B6822F480621A607B6814
:104CE0001B685A687B681B6822F4E0625A607B6824
:104CF0001B681A697B685B6AD2B21A707B685B6A50
:104D00005A1C7B685A627B685B8D9BB2013B9AB2EE
:104D10007B685A857B68202283F83D207B6893F866
:104D20003E30DBB2402B0AD17B68002283F83E2064
:104D30007B6800221A637868FFF7C6FD44E07B6851
:104D4000002283F83E20FB68082B02D0FB68202B52
:104D500003D17B6800221A6302E07B6812221A6387
:104D60007868FFF780FD2FE07B681B685A687B68D6
:104D70001B6822F4E0625A607B681B681A697B68D2
:104D80005B6AD2B21A707B685B6A5A1C7B685A6293
:104D90007B685B8D9BB2013B9AB27B685A857B68CE
:104DA000202283F83D207B68002283F83E2078682B
:104DB000FCF7D0FA08E07B681B685A687B681B68C0
:104DC00022F480625A60FFE700BF1037BD4680BD05
:104DD00080B584B000AF78607B68DB6AFB607B687D
:104DE0005B8D9BB2042B1BD17B681B685A687B6868
:104DF0001B6822F480625A607B681B681A697B68B2
:104E00005B6AD2B21A707B685B6A5A1C7B685A6212
:104E10007B685B8D9BB2013B9AB27B685A85C4E08C
:104E20007B685B8D9BB2032B29D17B681B685A681A
:104E30007B681B6822F480625A60FB68042B0AD0EE
:104E4000FB68022B07D07B681B681A687B681B68AD
:104E500022F480621A607B681B681A697B685B6A4F
:104E6000D2B21A707B685B6A5A1C7B685A627B6894
:104E70005B8D9BB2013B9AB27B685A8595E07B685B
:104E80005B8D9BB2022B7DD1FB68012B02D0FB68AE
:104E9000102B08D17B681B681A687B681B6822F49A
:104EA00080621A6016E0FB68042B02D0FB68022BBC
:104EB00008D17B681B681A687B681B6842F48062B3
:104EC0001A6007E07B681B681A687B681B6842F4FD
:104ED00000721A607B681B681A697B685B6AD2B2D1
:104EE0001A707B685B6A5A1C7B685A627B685B8DB0
:104EF0009BB2013B9AB27B685A857B681B681A6932
:104F00007B685B6AD2B21A707B685B6A5A1C7B68EA
:104F10005A627B685B8D9BB2013B9AB27B685A8573
:104F20007B681B685A687B681B6822F440725A6071
:104F30007B68202283F83D207B6893F83E30DBB20B
:104F4000402B0AD17B68002283F83E207B68002238
:104F50001A637868FFF7B8FC27E07B68002283F8C3
:104F60003E20FB68082B02D0FB68202B03D17B6816
:104F700000221A6302E07B6812221A637868FFF746
:104F800072FC12E07B681B681A697B685B6AD2B2AC
:104F90001A707B685B6A5A1C7B685A627B685B8DFF
:104FA0009BB2013B9AB27B685A8500BF1037BD4661
:104FB00080BD80B483B000AF78607B6893F83E30EA
:104FC000DBB2402B17D17B681B6D002B09D17B68AE
:104FD0005B6CDBB21A467B681B6802F0FE021A614A
:104FE00067E07B685B6CDBB243F00103DAB27B689D
:104FF0001B681A615DE07B681B69B3F5804F33D194
:105000007B6893F83D30DBB2212B09D17B685B6C68
:10501000DBB21A467B681B6802F0FE021A6108E0E8
:105020007B685B6CDBB243F00103DAB27B681B6820
:105030001A617B685B6B002B04D07B685B6B9B6A9F
:10504000002B08D17B689B6B002B32D07B689B6B5D
:105050009B6A002B2DD07B681B685A687B681B6895
:1050600042F400625A6024E07B681B6D002B0ED175
:105070007B685B6C9BB2DB11DBB203F00603DBB237
:1050800063F00F03DAB27B681B681A6111E07B687A
:105090001B6D012B0DD17B685B6C9BB2DB11DBB20E
:1050A00003F00603DBB263F00E03DAB27B681B6821
:1050B0001A6100BF0C37BD4680BC704780B483B016
:1050C00000AF78607B685B6CDAB27B681B681A6142
:1050D0007B685B6B002B04D07B685B6B9B6A002B4F
:1050E00008D17B689B6B002B0CD07B689B6B9B6A09
:1050F000002B07D07B681B685A687B681B6842F4EA
:1051000000625A6000BF0C37BD4680BC704780B457
:1051100091B000AF78607B6893F83E3087F83F30FD
:105120007B68DB6ABB637B681B6B7B637B6893F884
:105130003D30DBB2222B40F074817B681B6D002B6D
:105140000FD197F83F30402B0BD100233B637B6896
:105150001B685B693B637B681B689B693B633B6BBC
:105160006BE17B681B6D002B1DD17B681B69B3F560
:10517000404F18D10023FB627B681B685B69FB62B0
:105180007B681B689B69FB62FB6A7B681B681A680B
:105190007B681B6842F480721A607B681B6D5A1C26
:1051A0007B681A6549E17B685B8D9BB2002B13D14C
:1051B0000023BB627B681B685B69BB627B681B6802
:1051C0009B69BB62BB6A7B681B681A687B681B684B
:1051D00042F400721A6020E17B685B8D9BB2012B68
:1051E00040F08A80BB6B13F5803F37D17B681B682A
:1051F0001A687B681B6822F480621A607B681B68EF
:105200005B6803F40063B3F5006F13D17B681B6820
:105210001A687B681B6822F480621A6000237B6234
:105220007B681B685B697B627B681B689B697B6230
:105230007B6AF2E000233B627B681B685B693B6230
:105240007B681B689B693B623B6A7B681B681A68CA
:105250007B681B6842F400721A60DEE0BB6B082BAF
:105260002ED0BB6B202B2BD07B6B122B02D1BB6BB8
:10527000012B25D1BB6B042B0ED0BB6B022B0BD0AB
:10528000BB6B102B08D07B681B681A687B681B6897
:1052900022F480621A6007E07B681B681A687B68EA
:1052A0001B6842F480621A600023FB617B681B6804
:1052B0005B69FB617B681B689B69FB61FB69ACE018
:1052C0007B681B681A687B681B6822F480621A601E
:1052D0000023BB617B681B685B69BB617B681B68E3
:1052E0009B69BB61BB697B681B681A687B681B682C
:1052F00042F400721A6090E07B685B8D9BB2022BD7
:1053000058D1BB6B042B21D0BB6B022B1ED0BB6BC7
:10531000102B1BD07B681B681A687B681B6842F4E3
:1053200000621A6000237B617B681B685B697B619C
:105330007B681B689B697B617B697B681B681A685B
:105340007B681B6822F480621A6012E07B681B682D
:105350001A687B681B6842F480621A6000233B6114
:105360007B681B685B693B617B681B689B693B6171
:105370003B697B681B685B6803F40063B3F5006FEF
:105380004BD1BB6B13F5803F0BD0BB6B012B08D00F
:10539000BB6B082B05D0BB6B102B02D0BB6B202B3B
:1053A0003BD17B681B685A687B681B6842F480525B
:1053B0005A6032E07B681B681A687B681B6842F49D
:1053C00080621A607B681B685B6803F40063B3F556
:1053D000006F17D1BB6B13F5803F0BD0BB6B012B5C
:1053E00008D0BB6B082B05D0BB6B102B02D0BB6B5E
:1053F000202B07D17B681B685A687B681B6842F4C6
:1054000080525A600023FB607B681B685B69FB600D
:105410007B681B689B69FB60FB687B6800221A65E0
:105420000BE00023BB607B681B685B69BB607B682B
:105430001B689B69BB60BB68FFE700BF4437BD4684
:1054400080BC704780B584B000AF78607B6893F80B
:105450003D30FB737B685B8D9BB2002B2BD07B6850
:105460005B6A1A787B681B681A617B685B6A5A1CE6
:105470007B685A627B685B8D9BB2013B9AB27B680A
:105480005A857B685B8D9BB2002B14D1FB7B292B4B
:1054900011D17B681B685A687B681B6822F48062A4
:1054A0005A607B6821221A637B68282283F83D209A
:1054B0007868FFF7E1F900BF1037BD4680BD80B4C2
:1054C00083B000AF78607B685B8D9BB2002B11D0FE
:1054D0007B685B6A1A787B681B681A617B685B6A09
:1054E0005A1C7B685A627B685B8D9BB2013B9AB207
:1054F0007B685A8500BF0C37BD4680BC704780B5BD
:1055000084B000AF78607B6893F83D30FB737B68B4
:105510005B8D9BB2002B2CD07B681B681A697B6863
:105520005B6AD2B21A707B685B6A5A1C7B685A62EB
:105530007B685B8D9BB2013B9AB27B685A857B6826
:105540005B8D9BB2002B14D1FB7B2A2B11D17B6886
:105550001B685A687B681B6822F480625A607B680B
:1055600022221A637B68282283F83D207868FBF7A3
:10557000DBFE00BF1037BD4680BD80B483B000AFF6
:1055800078607B685B8D9BB2002B12D07B681B68B8
:105590001A697B685B6AD2B21A707B685B6A5A1CB4
:1055A0007B685A627B685B8D9BB2013B9AB27B68D9
:1055B0005A8500BF0C37BD4680BC704780B584B0AB
:1055C00000AF786039600023FB737B6893F83D304F
:1055D000DBB203F02803282B27D17B681B685A68AD
:1055E0007B681B6822F480625A603B689B0803F06A
:1055F0000103002B01D10123FB733B68DB0903F09E
:105600000103002B03D17B68DB68BB8102E07B6870
:105610009B69BB817B68002283F83C20BA89FB7BB5
:1056200019467868FFF731F90EE00023BB607B680C
:105630001B685B69BB607B681B689B69BB60BB6860
:105640007B68002283F83C2000BF1037BD4680BD38
:1056500080B584B000AF78607B6893F83D30FB7311
:105660007B681B685A687B681B6822F4E0625A609A
:105670000023BB607B681B685B69BB607B681B6841
:105680001A687B681B6842F001021A60BB687B687D
:105690001B681A687B681B6822F480621A607B684A
:1056A0001B685B6803F40063B3F5006F72D1FB7B8A
:1056B000222B02D0FB7B2A2B35D17B689B6B1B688E
:1056C0005B689AB27B685A857B685B8D9BB2002BC6
:1056D00005D07B681B6C43F004027B681A647B680E
:1056E0001B685A687B681B6822F400625A607B68FA
:1056F0009B6B1846FEF736FB0346012B49D07B68AF
:105700009B6B694A5A637B689B6B1846FEF7B2FA3B
:105710000346002B3DD07B689B6B5B6B7A68926B7A
:105720001046984735E07B685B6B1B685B689AB2F4
:105730007B685A857B685B8D9BB2002B05D07B68AC
:105740001B6C43F004027B681A647B681B685A6810
:105750007B681B6822F400625A607B685B6B1846AA
:10576000FEF700FB0346012B14D07B685B6B4E4AAF
:105770005A637B685B6B1846FEF77CFA0346002B86
:1057800008D07B685B6B5B6B7A68526B10469847FE
:1057900000E000BF7B685B8D9BB2002B3ED07B6836
:1057A0001B685B6903F00403042B12D17B681B6840
:1057B0001A697B685B6AD2B21A707B685B6A5A1C92
:1057C0007B685A627B685B8D9BB2013B9AB27B68B7
:1057D0005A857B681B685B6903F04003402B12D13C
:1057E0007B681B681A697B685B6AD2B21A707B6837
:1057F0005B6A5A1C7B685A627B685B8D9BB2013B7B
:105800009AB27B685A857B685B8D9BB2002B05D072
:105810007B681B6C43F004027B681A647B681B6C1A
:10582000002B03D0786800F0B7F839E0FB7B2A2B17
:1058300009D17B6800221A637B68282283F83D2007
:105840007868FBF771FD7B6893F83D30DBB2282B5D
:1058500011D17B68154ADA627B6800221A637B6883
:10586000202283F83D207B68002283F83E20786860
:10587000FFF718F814E07B681B6B222B02D0FB7B30
:10588000222B0DD17B6800221A637B68202283F8CB
:105890003D207B68002283F83E207868FBF744FDBA
:1058A00000BF1037BD4680BDFD5B00080000FFFF54
:1058B00080B584B000AF78607B6893F83D30FB73AF
:1058C0007B68DB6ABB60BB68082B02D0BB68202BFF
:1058D00029D1FB7B282B26D17B682E4ADA627B6894
:1058E0001B685A687B681B6822F4E0625A607B6818
:1058F0001B686FF480625A617B681B681A687B685A
:105900001B6822F480621A607B6800221A637B683D
:10591000202283F83D207B68002283F83E207868AF
:10592000FEF7C0FF31E0FB7B212B29D17B68194AB0
:10593000DA627B6821221A637B68202283F83D208B
:105940007B68002283F83E207B681B685A687B686E
:105950001B6822F4E0625A607B681B686FF4806207
:105960005A617B681B681A687B681B6822F4806236
:105970001A607868FEF7CCFC7868FEF77DFF04E0DB
:105980007B681B686FF480625A6100BF1037BD46A8
:1059900080BD00BF0000FFFF80B584B000AF78601D
:1059A0007B6893F83D30FB737B6893F83E30BB73A4
:1059B000BB7B102B02D0BB7B402B0AD1FB7B222B65
:1059C00007D17B681B681A687B681B6822F4006239
:1059D0001A60FB7B03F02803282B07D17B68002289
:1059E0001A637B68282283F83D2015E07B681B68DA
:1059F0005B6803F40063B3F5006F0AD0FB7B602B98
:105A000007D07B68202283F83D207B68002283F842
:105A10003E207B6800221A637B681B685B6803F486
:105A20000063B3F5006F62D17B681B685A687B68BE
:105A30001B6822F400625A607B685B6B93F821302C
:105A4000DBB2012B20D07B685B6B6A4A5A637B68B0
:105A50005B6B1846FEF70EF90346002B00F08980B9
:105A60007B681B681A687B681B6822F001021A6059
:105A70007B68202283F83D207B685B6B5B6B7A68D8
:105A8000526B1046984774E07B689B6B594A5A6387
:105A90007B689B6B1846FEF7EDF80346002B68D039
:105AA0007B681B685B6903F04003402B0BD17B686C
:105AB0001B681A697B685B6AD2B21A707B685B6A82
:105AC0005A1C7B685A627B681B681A687B681B6873
:105AD00022F001021A607B68202283F83D207B6857
